:100000000C9495010C94C6010C94C6010C94C60185
:100010000C94C6010C94C6010C94C6010C94C60144
:100020000C94C6010C94E20A0C94E20A0C94E20AC5
:100030000C94C6010C9437030C94C6010C94C601B1
:100040000C94C6010C9418090C94C6010C94C601BA
:100050000C94C6010C94C6010C94C6010C94380D86
:100060000C94C6010C94A6040C947C040C94C60158
:100070000C94C6010C94C6010C94C6010C94C601E4
:100080000C94C6010C94C6010C94C6010C94C601D4
:100090000C94C6010C94C6010C94C6010C94EC0A95
:1000A0000C94C6010C94C6010C94C6010C94C601B4
:1000B0000C94C6010C94C6010C94C6010C94D00497
:1000C0000C94C6010C94C6010C94C6010C94520405
:1000D0000C9428040C94C6010C94FE030C94D403D5
:1000E0000C94C601100615061A0624062E06A7064D
:1000F00038064006480652065C06660675067F0608
:10010000A706890693069D06390C3C0C2B0C2F0C78
:10011000350C730C400C440C4A0C4E0C520C580C11
:100120005C0C600C730C660C6A0C6E0C0C942F0C3F
:100130000C94F4090C9448060C946A0C0C94230259
:100140000C940E030C9410060C94F2010C943C0CCD
:100150000C9424060C9422130C94660C0C94730CCF
:100160000C94A7060C94390C0C942E130C94200AB2
:100170000C944A0C0C944E0C0C9475060C9440068E
:100180000C942B0C0C94F3090C9452060C94C8019B
:100190000C94520C0C94180A0C94600C0C946E0C79
:1001A0000C941A060C944D0A0C940F030C94350C05
:1001B0000C94F2090C949D060C9415060C945C0C9E
:1001C0000C942E060C9415020C94F5090C94BC02A8
:1001D0000C94040A0C9493060C9438060C94580C56
:1001E0000C946F020C947F060C9489060C94440CBA
:1001F0000C94400C0C945C060C9466060C94010262
:100200000C941203000020002300260029002C007B
:100210002F00320000010000030106010901020065
:10022000002100240027002A002D003000330001A7
:10023000010000040107010A010000220025002836
:10024000002B002E003100340002010000050108DF
:10025000010B01050505050705080808080202024B
:10026000020A0A0808040404040101010101010151
:10027000010303030303030303040707070C0C0C28
:100280000C0C0C0C0C020202020606060606060600
:10029000060B0B0B0B0B0B0B0B010210202008089D
:1002A00010204010204080020102010804020101D8
:1002B00002040810204080804020100804020180C1
:1002C0000402018040201008040201080402010118
:1002D0000204081020408001020408102040800021
:1002E000000A0B02090C0D0E0807030401000000B0
:1002F00000000000000000000000000000000000FE
:1003000000000000000000000000001211100000BA
:1003100000000000000000000000000000000000DD
:100320000000000000002E13221311241FBECFEF87
:10033000D1E2DEBFCDBF00E00CBF12E0A0E0B2E032
:10034000E8E2F4E300E00BBF02C007900D92A03991
:10035000B107D9F727E0A0E9B2E001C01D92A337A9
:10036000B207E1F711E0C4E9D1E000E006C021974F
:100370000109802FFE010E94C516C339D10780E014
:100380000807A9F70E943D0F0C94021A0C94000074
:10039000CF92DF92EF92FF920F931F93CF93DF9351
:1003A0006C017A018B01C0E0D0E0CE15DF0581F051
:1003B000D8016D918D01D601ED91FC910190F081F4
:1003C000E02DC6011995892B11F02196EECF7E0103
:1003D000C701DF91CF911F910F91FF90EF90DF90B8
:1003E000CF900895FC01538D448D252F30E0842F4C
:1003F00090E0821B930B541710F0CF96089501974D
:100400000895FC01918D828D981761F0828DDF0136
:10041000A80FB11D5D968C91928D9F5F9F73928FF7
:1004200090E008958FEF9FEF0895FC01918D828DEC
:10043000981731F0828DE80FF11D858D90E00895B9
:100440008FEF9FEF0895FC01918D228D892F90E011
:10045000805C9F4F821B91098F739927089583E8D1
:1004600093E00E94230221E0892B09F420E0822FEF
:10047000089580E294E00E94230221E0892B09F490
:1004800020E0822F08958DEB94E00E94230221E06A
:10049000892B09F420E0822F0895FC01848DDF016F
:1004A000A80FB11DA35ABF4F2C91848D90E00196E7
:1004B0008F739927848FA689B7892C93A089B189D6
:1004C0008C91837080648C93938D848D981306C077
:1004D0000288F389E02D80818F7D80830895EF92DB
:1004E000FF920F931F93CF93DF93EC0181E0888FEE
:1004F0009B8D8C8D981305C0E889F989808185FDD5
:1005000026C0F62E0B8D10E00F5F1F4F0F731127C3
:10051000E02E8C8DE8120CC00FB607FCFACFE889EC
:10052000F989808185FFF5CFCE010E944D02F1CF80
:100530008B8DFE01E80FF11DE35AFF4FF0829FB74C
:10054000F8940B8FEA89FB89808180620AC09FB78B
:10055000F894EE89FF896083E889F9898081837046
:10056000806480839FBF81E090E0DF91CF911F91F5
:100570000F91FF90EF900895CF93DF93EC01888D5A
:100580008823C9F0EA89FB89808185FD05C0A88997
:10059000B9898C9186FD0FC00FB607FCF5CF80811D
:1005A00085FFF2CFA889B9898C9185FFEDCFCE0167
:1005B0000E944D02E7CFDF91CF910895E0E0F0E097
:1005C000199480E090E0892B21F00E944302811170
:1005D00019C080E090E0892B41F080E090E0892B09
:1005E00021F00E940000811110C00E943902811187
:1005F0000FC080E090E0892B81F00E942F028111D2
:100600000AC008950E940000E4CF0E940000EDCFD0
:100610000E94DE02EECF0C9400000895089580E061
:1006200090E008950F931F93CF93DF938C01C62F13
:10063000D62FD07FD1606D2F0E94A10A6D2FC801E7
:100640000E94B40A80E1C89FB0011124C62FC16086
:100650006C2FC8010E94A10A6C2FC8010E94B40A25
:1006600081E090E0DF91CF911F910F9108951F924B
:100670000F920FB60F9211240BB60F922F933F9348
:100680004F935F936F937F938F939F93AF93BF939A
:10069000EF93FF938091AB029091AC02A091AD02D9
:1006A000B091AE02892B8A2B8B2B49F19091AA0233
:1006B000809100008927809300008091AB02909187
:1006C000AC02A091AD02B091AE02181619061A063E
:1006D0001B060CF056C08091AB029091AC02A09129
:1006E000AD02B091AE020197A109B1098093AB02AE
:1006F0009093AC02A093AD02B093AE0242C0809141
:100700000002EEE1F2E0E4919FEF90930002E2300C
:10071000C9F050F4EE2399F0E13081F590916F002B
:100720009D7F90936F002AC0E43019F1E0F0E5302E
:1007300029F5909173009D7F909373001FC01092D4
:100740006E001CC0909170009D7F9093700091E0AE
:100750009093B0009091B100987F94609093B10015
:100760001092B3000BC0909171009D7F9093710027
:1007700005C0909172009D7F9093720060E00E948E
:10078000740CFF91EF91BF91AF919F918F917F91E9
:100790006F915F914F913F912F910F900BBE0F90F2
:1007A0000FBE0F901F9018951F920F920FB60F92C9
:1007B00011240BB60F922F933F934F935F936F9338
:1007C0007F938F939F93AF93BF93EF93FF9383E8B0
:1007D00093E00E944D02FF91EF91BF91AF919F91E5
:1007E0008F917F916F915F914F913F912F910F90DA
:1007F0000BBE0F900FBE0F901F9018951F920F9277
:100800000FB60F9211240BB60F922F933F934F9375
:100810005F936F937F938F939F93AF93BF93EF9368
:10082000FF9383E893E00E94C90AFF91EF91BF9183
:10083000AF919F918F917F916F915F914F913F9178
:100840002F910F900BBE0F900FBE0F901F90189519
:100850001F920F920FB60F9211240BB60F922F9387
:100860003F934F935F936F937F938F939F93AF9338
:10087000BF93EF93FF9380E294E00E944D02FF91BB
:10088000EF91BF91AF919F918F917F916F915F9108
:100890004F913F912F910F900BBE0F900FBE0F9075
:1008A0001F9018951F920F920FB60F9211240BB63E
:1008B0000F922F933F934F935F936F937F938F93F9
:1008C0009F93AF93BF93EF93FF9380E294E00E94D6
:1008D000C90AFF91EF91BF91AF919F918F917F9145
:1008E0006F915F914F913F912F910F900BBE0F90A1
:1008F0000FBE0F901F9018951F920F920FB60F9278
:1009000011240BB60F922F933F934F935F936F93E6
:100910007F938F939F93AF93BF93EF93FF938DEB51
:1009200094E00E944D02FF91EF91BF91AF919F9192
:100930008F917F916F915F914F913F912F910F9088
:100940000BBE0F900FBE0F901F9018951F920F9225
:100950000FB60F9211240BB60F922F933F934F9324
:100960005F936F937F938F939F93AF93BF93EF9317
:10097000FF938DEB94E00E94C90AFF91EF91BF9124
:10098000AF919F918F917F916F915F914F913F9127
:100990002F910F900BBE0F900FBE0F901F901895C8
:1009A0001F920F920FB60F9211240BB60F922F9336
:1009B0003F934F935F936F937F938F939F93AF93E7
:1009C000BF93CF93DF93EF93FF9320915B0530E0CC
:1009D000F901E152FD4F8491F901E756FD4FD491A1
:1009E000F901ED5AFD4FC491CC2379F081110E9499
:1009F0001E0CEC2FF0E0EE0FFF1FEC5FFD4FA591FA
:100A0000B491EC91ED2381E009F480E020915F0541
:100A1000309160052F5F3F4F3093600520935F0555
:100A200090915E05953618F096E090935A05909156
:100A30005A059430C9F128F4923069F09330D1F01E
:100A40005EC0953009F451C0963009F058C091E06D
:100A500090932B0651C0811152C020915F053091B7
:100A600060052436310508F442C010922B0610921E
:100A70005E051CC0813009F042C0E0915E0591E046
:100A80009E0F90935E05F0E020915F053091600528
:100A9000EE0FFF1FE65AFA4F30872783109260054A
:100AA00010925F0594E029C0811117C0E0915E05A6
:100AB00091E09E0F90935E05F0E020915F053091EC
:100AC0006005EE0FFF1FE65AFA4F3087278310921A
:100AD000600510925F0593E010C020915F05309192
:100AE00060052536310558F007C0811108C0109205
:100AF000600510925F0503C095E090935A059091B0
:100B00005D059923B9F081110AC080915C058823A5
:100B100021F080915C0561E009C02F9A0BC08091A3
:100B20005C05882331F080915C0560E00E94740CC4
:100B300001C02F98FF91EF91DF91CF91BF91AF91BD
:100B40009F918F917F916F915F914F913F912F91E5
:100B50000F900BBE0F900FBE0F901F9018958F92A5
:100B60009F92AF92BF92CF92DF92EF92FF920F933C
:100B70001F93CF93DF938C016A017B0120E030E06B
:100B80004FE753E4C701B6010E94A0154B015C0179
:100B900020E030E0A9010E94E21718161CF4C501FC
:100BA000B40103C0C501B40190580E94AC17EB0119
:100BB00020E030E0A901C701B6010E94E217181633
:100BC00014F460E001C061E0F80181810E94740CBE
:100BD000CF3FD10509F014F4DD2702C0CFEFD0E0FC
:100BE000F801108161E0812F0E94A30C209709F485
:100BF000B1C0CF3FD10509F4AFC0E12FF0E0E15221
:100C0000FD4FE4918E2F90E0FC013197E231F10528
:100C100008F09DC08827EE58FF4F8F4F0C94C516E3
:100C200084B5806884BDC7BDA7C084B5806284BD1B
:100C3000C8BDA2C080918000806880938000D0935E
:100C40008900C093880098C0809180008062809362
:100C50008000D0938B00C0938A008EC0809180006A
:100C6000886080938000D0938D00C0938C0084C0F6
:100C70008091B00080688093B000C093B3007CC0C6
:100C80008091B00080628093B000C093B40074C0C3
:100C900080919000806880939000D0939900C093D9
:100CA00098006AC080919000806280939000D093F9
:100CB0009B00C0939A0060C08091900088608093F0
:100CC0009000D0939D00C0939C0056C08091A000DE
:100CD00080688093A0008091A0008F7B8093A0000B
:100CE000D093A900C093A80047C08091A000806263
:100CF0008093A000D093AB00C093AA003DC0809128
:100D0000A00088608093A000D093AD00C093AC0099
:100D100033C080912001806880932001D093290105
:100D2000C093280129C08091200180628093200116
:100D3000D0932B01C0932A011FC0809120018860AD
:100D400080932001D0932D01C0932C0115C0C03891
:100D5000D10514F460E001C061E0812FDF91CF91F3
:100D60001F910F91FF90EF90DF90CF90BF90AF90C9
:100D70009F908F900C94740CDF91CF911F910F91E5
:100D8000FF90EF90DF90CF90BF90AF909F908F90AB
:100D900008958EBD00000DB407FEFDCF8EB50895F9
:100DA000CF93DF93EC0160E088810E94740C88E9A6
:100DB0000E94C90680E00E94C90680E00E94C90620
:100DC00080E00E94C90680E00E94C90661E0888137
:100DD0000E94740C8BE891E00197F1F760E0888144
:100DE0000E94740C80EE0E94C90661E08881DF9148
:100DF000CF910C94740CAF92BF92CF92DF92EF928E
:100E0000FF920F931F93CF93DF93CDB7DEB7609719
:100E10000FB6F894DEBF0FBECDBF5C0160E0FC01F1
:100E200080810E94740C80E60E94C9068E010F5FCB
:100E30001F4F7E01F1E1EF0EF11C680180E00E947E
:100E4000C90690E0A0E0B0E0F60181939193A193F0
:100E5000B1936F01EE15FF0589F761E0F50180811F
:100E60000E94740C80E090E0DC01F8014191519106
:100E7000619171918F01BA2FA92F982F8827840F24
:100E8000951FA61FB71FEE15FF0579F79C01AD0151
:100E900066277727CB01621B730B840B950B60963B
:100EA0000FB6F894DEBF0FBECDBFDF91CF911F917B
:100EB0000F91FF90EF90DF90CF90BF90AF9008958B
:100EC0004F925F926F927F928F929F92AF92BF925A
:100ED000CF92DF92EF92FF92CF93DF93CDB7DEB741
:100EE00029970FB6F894DEBF0FBECDBF6B017C0112
:100EF0005A0187E896E00E94D00689E896E00E94B1
:100F0000D006AB2899F42DEC3CEC4CE45EE329834D
:100F10003A834B835C839DEC892E9CEC992E9CE458
:100F2000A92E9EEBB92E31E0398711C08DEC9CECD7
:100F3000ACE4BEEB89839A83AB83BC838DEC882EB3
:100F40008CEC982E8CE4A82E8EE3B82E198620E027
:100F500030E044EB53E4C701B6010E943A172BE09E
:100F60003BE24DE552E40E94A01527E63CEA45E04D
:100F700053E40E94A0150E94AC176D837E838F837B
:100F80009887A7019601C701B6010E94E717882339
:100F900019F08FE392E01AC026013701E89477F840
:100FA0002FEF3FEF4FE75FE7C301B2010E94E71762
:100FB00081110FC02FEF3FEF4FE75FE7C301B20191
:100FC0000E943A1518162CF483E492E00E94AA0DB0
:100FD00076C02FEF3FEF4FE75FE4C701B6010E94F5
:100FE000E21718161CF487E492E0F0CF2FEF3FEFE2
:100FF0004FE75FECC701B6010E943A1587FDF3CFBA
:1010000020E030E0A901C701B6010E943A1587FF30
:1010100009C06DE28DEB94E00E946F02F7FAF09444
:10102000F7F8F0942AE037ED43EA5BE3C701B60135
:101030000E94CE162B013C010E94B3176B017C016C
:101040000E943F159B01AC01C301B2010E94CD1665
:101050002B013C014AE0C701B6010E94690E6EE215
:101060008DEB94E00E946F0220E030E040E251E41A
:10107000C301B2010E94A0152B013C010E94B317CD
:101080006B01E12CF12C4AE0C701B6010E94690E08
:10109000C701B6010E943F159B01AC01C301B2011B
:1010A0000E94CD1620E030E040E251E40E94A015FD
:1010B0000E94B31780E090E04AE00E94690E8BE442
:1010C00092E00E94AA0DC980DA80EB80FC80F7FADA
:1010D000F094F7F8F094998591110CC087E896E0A8
:1010E0000E94FB0690958095709561957F4F8F4F7C
:1010F0009F4F04C089E896E00E94FB062D813E8147
:101100004F81588562177307840795076CF4B50102
:10111000A40183E896E00E94AF05B701A60185E827
:1011200096E00E94AF05D7CF40E050E0BA0183E8D7
:1011300096E00E94AF0540E050E060E070E885E88E
:1011400096E00E94AF056CE271E080E090E02996A5
:101150000FB6F894DEBF0FBECDBFDF91CF91FF90E9
:10116000EF90DF90CF90BF90AF909F908F907F9047
:101170006F905F904F900C94FE0C1F93CF93DF9372
:10118000EC01162F88818C3008F04DC061E0812F72
:101190000E94A30CE88195E09E9FF0011124E45D7C
:1011A000F94F1F738081807C182B10831382E88194
:1011B0009E9FF0011124E45DF94F148288816CE058
:1011C0000E94B9169CE0899FA001112420E030E024
:1011D00095E0BA01620F731F969FF001979FF00D83
:1011E0001124E45DF94F608166FD13C02F5F3F4F0E
:1011F0002C30310571F781110CC01092800082E013
:1012000080938100109285001092840086BB8093A9
:101210006F00E88185E0E89FF0011124E45DF94F5B
:101220008081806480838881DF91CF911F910895B0
:101230001F920F920FB60F9211240BB60F922F939D
:101240003F934F935F936F937F938F939F93AF934E
:10125000BF93EF93FF938091A90287FF05C010927F
:1012600085001092840016C02091A902022E000C65
:10127000330B8091680690E0281739075CF43091B1
:10128000A90225E03203F0011124E45DF94F8081C9
:1012900086FD15C08091A9028F5F8093A9022091DD
:1012A000A902022E000C330B8091680690E02817EB
:1012B000390794F48091A9028C302CF10DC0309143
:1012C000A9023203F0011124E45DF94F808160E04E
:1012D0008F730E94740CDECF809184009091850002
:1012E00084349C4918F480E49CE905C08091840012
:1012F00090918500049690938900809388008FEFE9
:101300008093A9022AC040918400509185003091B9
:10131000A90225E03203F0011124E45DF94F818137
:101320009281840F951F909389008093880030915B
:10133000A9023203F0011124E45DF94F808186FF98
:101340000CC03091A9023203F0011124E45DF94F81
:10135000808161E08F730E94740CFF91EF91BF91C7
:10136000AF919F918F917F916F915F914F913F913D
:101370002F910F900BBE0F900FBE0F901F901895DE
:1013800085ED8093BC008091BC0084FDFCCF109261
:101390005203089540910703262F30E0240F311D9A
:1013A00021323105DCF4209152032430C9F4FC01D0
:1013B00080E090E0861758F4309107032191DC011A
:1013C000A951BD4FA30FB11D2C930196F3CF80916E
:1013D0000703680F6093070380E0089581E0089594
:1013E00082E00895089508950895E091B9028091EA
:1013F000B802E81730F4F0E0E953FD4F808190E047
:1014000008958FEF9FEF08959091B9028091B802EF
:10141000981750F4E92FF0E0E953FD4F208130E0B8
:101420009F5F9093B90202C02FEF3FEFC90108956B
:101430008091B80290E02091B902821B9109089531
:10144000CF92DF92EF92FF920F931F93CF93DF9390
:101450007C01CB018A0120915303222389F0EB0107
:101460006B01C40ED51ECC15DD0569F06991D7015D
:10147000ED91FC910190F081E02DC7011995F3CF1A
:10148000642F0E94CA09C801DF91CF911F910F916B
:10149000FF90EF90DF90CF900895CF93DF931F924E
:1014A000CDB7DEB76983209153032223D1F0209179
:1014B0007603203240F021E030E0FC0133832283C8
:1014C00080E090E015C080915403E82FF0E0EB5AE3
:1014D000FC4F998190838F5F8093540380937603B0
:1014E00005C061E0CE0101960E94CA0981E090E04A
:1014F0000F90DF91CF9108953FB7F8948091C30288
:101500009091C402A091C502B091C60226B5A89BD5
:1015100005C02F3F19F00196A11DB11D3FBFBA2F85
:10152000A92F982F8827820F911DA11DB11DBC01E5
:10153000CD0142E0660F771F881F991F4A95D1F7AA
:101540000895FC01248131E0309353032093750307
:1015500010925403109276038485682B87E793E0FA
:101560000E944D0A0C94AA0E0F931F93CF938C01E7
:10157000C62F64600E94A10A6C2F6B7FC8010E9475
:10158000A10A83EC90E00197F1F7CF911F910F91A1
:101590000895FC01A089B1898C91A689B78982FD43
:1015A0000FC09C91818D8F5F8F73228D821749F0C0
:1015B000218DDF01A20FB11D5D969C93818F08954F
:1015C0008C9108951F920F920FB60F9211240F90D5
:1015D0000FBE0F901F9018951F920F920FB60F928B
:1015E00011240BB60F922F933F934F935F936F93FA
:1015F0007F938F939F93AF93BF93EF93FF938091CC
:10160000B900887F803609F49CC068F5883209F4F7
:101610005BC090F4803109F454C038F4882309F495
:10162000F6C0883009F44DC0F6C0883109F44CC0CA
:10163000803209F45DC0EFC0803409F468C048F41A
:10164000803309F455C0883309F0E5C08093500316
:10165000D8C0803509F44FC0883509F45DC088349E
:1016600009F0D9C0D6C0883909F4C7C0A8F48837B2
:1016700009F467C038F4883609F463C0803709F488
:1016800060C0C9C0883809F4B8C0803909F45FC0A7
:10169000803809F0C0C05BC0803B09F486C038F4D4
:1016A000803A09F466C0883A09F47FC0B4C0803C2F
:1016B00009F4A7C0883C09F4A4C0883B09F48AC097
:1016C000AAC080912D0310C090914F0380914E03CA
:1016D000981770F5E0914F0381E08E0F80934F03D0
:1016E000F0E0E25DFC4F80818093BB0085EC86C01A
:1016F000809350038EC0E0914F0381E08E0F809362
:101700004F038091BB00F0E0E25DFC4F808390913D
:101710004F0380914E036EC0E0914F0381E08E0F26
:1017200080934F038091BB00F0E0E25DFC4F80832B
:101730008091510381116DC081E080932C0384EA74
:1017400061C083E08093520310922903CFCF809130
:101750002903803208F051C0E091290381E08E0F07
:10176000809329038091BB00F0E0E75FFC4F80830A
:10177000BDCF85EC8093BC00109252038091290369
:10178000803230F4E0912903F0E0E75FFC4F1082F3
:101790006091290370E0E091BC02F091BD0289E004
:1017A00093E019951092290336C084E08093520388
:1017B0001092080310920703E091BA02F091BB0265
:1017C000199580910703811105C081E0809307037B
:1017D0001092E702E091080381E08E0F80930803E6
:1017E000F0E0E951FD4F80818093BB0090910803A8
:1017F00080910703981708F479CF85E88093BC009F
:101800000AC085EC8093BC001092520304C0109271
:1018100050030E94C009FF91EF91BF91AF919F913A
:101820008F917F916F915F914F913F912F910F9089
:101830000BBE0F900FBE0F901F90189590E0FC010B
:101840003197E231F10508F04EC08827EC57FF4F81
:101850008F4F0C94C516809180008F7703C08091C4
:1018600080008F7D80938000089580918000877F25
:10187000F9CF84B58F7702C084B58F7D84BD08957C
:101880008091B0008F7703C08091B0008F7D8093EE
:10189000B0000895809190008F7707C080919000EC
:1018A0008F7D03C080919000877F80939000089582
:1018B0008091A0008F7707C08091A0008F7D03C02A
:1018C0008091A000877F8093A000089580912001DF
:1018D0008F7707C0809120018F7D03C08091200108
:1018E000877F8093200108951F93CF93DF93282F44
:1018F00030E0F901E152FD4F8491F901E756FD4FC7
:10190000D491F901ED5AFD4FC491CC23C1F0162FAB
:1019100081110E941E0CEC2FF0E0EE0FFF1FE75C20
:10192000FD4FA591B4919FB7F894111104C08C910B
:10193000D095D82302C0EC91DE2BDC939FBFDF91C2
:10194000CF911F910895CF93DF9390E0FC01E7566C
:10195000FD4F2491FC01ED5AFD4F8491882361F1E4
:1019600090E0880F991FFC01E15EFD4FC591D49175
:10197000FC01E75CFD4FA591B491611109C09FB7CF
:10198000F8948881209582238883EC912E230BC0C4
:10199000623061F49FB7F8948881322F30958323A9
:1019A0008883EC912E2B2C939FBF06C08FB7F894A1
:1019B000E8812E2B28838FBFDF91CF910895863346
:1019C00008F0865390917B00282F2870977F922BE8
:1019D00090937B008770806480937C0080917A0074
:1019E000806480937A0080917A0086FDFCCF80919C
:1019F00078002091790090E0922B08958F929F9229
:101A0000AF92BF92CF92DF92EF92FF926B017C0177
:101A10000E947C0A4B015C01C114D104E104F10471
:101A2000F1F00E947C0ADC01CB0188199909AA090E
:101A3000BB09883E9340A105B10570F321E0C21AAD
:101A4000D108E108F10888EE880E83E0981EA11CF9
:101A5000B11CC114D104E104F10419F7DDCFFF90EA
:101A6000EF90DF90CF90BF90AF909F908F900895B0
:101A70001F920F920FB60F9211242F933F938F93C3
:101A80009F93AF93BF938091BF029091C002A091AA
:101A9000C102B091C2023091BE0223E0230F2D3764
:101AA00020F40196A11DB11D05C026E8230F029662
:101AB000A11DB11D2093BE028093BF029093C0026E
:101AC000A093C102B093C2028091C3029091C4025C
:101AD000A091C502B091C6020196A11DB11D8093CF
:101AE000C3029093C402A093C502B093C602BF91F3
:101AF000AF919F918F913F912F910F900FBE0F90BB
:101B00001F901895EDEBF4E0A089B18982E08C93E9
:101B1000A485B5851C92A685B7858FEC8C93108E15
:101B2000A489B58986E08C93A289B3898C91806160
:101B30008C93A289B3898C9188608C93A289B38994
:101B40008C9180688C930288F389E02D80818F7D51
:101B500080830895009769F0FC0101900020E9F767
:101B60003197AF01481B590BBC018DEB94E00C94ED
:101B7000C80180E090E00895CF93DF930E94AA0D02
:101B8000EC018BE492E00E94AA0D8C0F9D1FDF9167
:101B9000CF910895CF92DF92EF92FF92CF93DF9390
:101BA00090919506891720F090919606981750F419
:101BB00083E792E0DF91CF91FF90EF90DF90CF909D
:101BC0000C94BC0DC0919B06CC3008F07BC0282F34
:101BD00030E0D0E0283C3105E4F595E09C9FF00131
:101BE0009D9FF00D1124E45DF94F938128E830E0CA
:101BF0006901C91AD10897FDD394CC0CDD1CCC0C1B
:101C0000DD1C0D2C000CEE08FF08948128E532E065
:101C1000291B310997FD3395220F331F220F331FE4
:101C2000A901330F660B770B9A01AB012C193D0903
:101C30004E095F09A82FB0E00E947D1624EB30E02A
:101C400040E050E00E945E16C20ED31EE41EF51E58
:101C500027C085E08C9FF0018D9FF00D1124E45D7D
:101C6000F94F838148E850E06A01C81AD10887FD1E
:101C7000D394CC0CDD1CCC0CDD1C2C153D0584F064
:101C8000448188E592E0841B910947FD9395880F74
:101C9000991F880F991F69018C159D050CF46C0123
:101CA0008FB7F89495E09C9FF0019D9FF00D112453
:101CB000E45DF94F96E0C91AD108CC0CDD1CD28244
:101CC000C1828FBFDF91CF91FF90EF90DF90CF90D7
:101CD00008958F929F92AF92BF920F931F93CF93CD
:101CE000DF93CDB7DEB7A1970FB6F894DEBF0FBE76
:101CF000CDBF19A2423008F44AE08E010F5D1F4F9C
:101D0000842E912CA12CB12CA50194010E9488163F
:101D1000E62FB901CA0101501109EA3014F4E05D5F
:101D200001C0E95CD801EC93232B242B252B61F710
:101D3000C8010E94AA0DA1960FB6F894DEBF0FBE8F
:101D4000CDBFDF91CF911F910F91BF90AF909F902A
:101D50008F90089530917603313208F04BC0809116
:101D600052038111FCCF9091750322E0209352031E
:101D700021E0209351032FEF2093500310924F0343
:101D800030934E03E5E5F3E0AEE2B3E020E0321736
:101D900021F041914D932F5FFACF10922D032091A6
:101DA0002D03990F922B90932D0390912C0391303A
:101DB00061F410922C0390912D039093BB009091AD
:101DC000BC0093FDF8CF95EC01C095EE9093BC005C
:101DD000909152039230E1F3909150039F3F79F03C
:101DE00080915003803241F080915003803331F074
:101DF00084E005C081E003C082E001C083E010926E
:101E00005403109276031092530308950F931F9377
:101E1000CF93DF93162F072FCAE6D6E09C8521E0EB
:101E200020935303909375031092540310927603FA
:101E3000AA85BB85ED91FC9111970190F081E02D71
:101E4000682FCD0119958A859B85DC01ED91FC9168
:101E50000190F081E02D602F19958A859B85DC012A
:101E6000ED91FC910190F081E02D612F1995DF91AA
:101E7000CF911F910F910C94AA0ECF93DF93CDB702
:101E8000DEB728970FB6F894DEBF0FBECDBF7894AB
:101E900084B5826084BD84B5816084BD85B582606F
:101EA00085BD85B5816085BD80916E008160809320
:101EB0006E00109281008091810082608093810089
:101EC0008091810081608093810080918000816099
:101ED000809380008091B10084608093B1008091F4
:101EE000B00081608093B000809191008260809307
:101EF0009100809191008160809391008091900089
:101F00008160809390008091A10082608093A10005
:101F10008091A10081608093A1008091A0008160E8
:101F20008093A000809121018260809321018091A3
:101F30002101816080932101809120018160809343
:101F4000200180917A00846080937A0080917A00E9
:101F5000826080937A0080917A00816080937A0019
:101F600080917A00806880937A001092C1000E946C
:101F7000820D61E080916B060E94A30C60E080916D
:101F80006B060E94740C60E080916A060E94A30CAC
:101F900087E793E090937506809374061092B902D8
:101FA0001092B802109254031092760310925203CA
:101FB00081E08093510310922C0361E084E10E9440
:101FC000740C61E085E10E94740C8091B9008E7FF1
:101FD0008093B9008091B9008D7F8093B90088E427
:101FE0008093B80085E48093BC0082EF99E09093E1
:101FF000BB028093BA0283EF99E09093BD02809375
:10200000BC0280E090E1A0E0B0E08093770690937E
:102010007806A0937906B0937A068AE090E0A0E073
:10202000B0E080937B0690937C06A0937D06B093EE
:102030007E0680E090E0A0E0B0E480937F0690937D
:102040008006A0938106B093820660E070E185E08F
:102050000E94060F6FE979E380E00E94060F2AE6EE
:1020600036E03A832983890142E0742E58E8A52E90
:1020700052E0B52E6EEC862E62E0962E7BECE72EBB
:1020800077E0F72ED80114969C91149712968C91B4
:10209000E981FA81818F928F61E00E94A30C61E057
:1020A000A981BA815A968C910E94A30CF80190855F
:1020B0008681C980DA80FDE1CF0ED11CA981BA8169
:1020C0005D968C935D975E969C9361E00E94A30C55
:1020D00060E0E981FA81868D0E94A30C61E0A9810C
:1020E000BA815D968C910E94740C6FB6F8948091C1
:1020F000AF02811126C0F5018491F4012491E82FEB
:10210000F0E0EE0FFF1FE15EFD4FA591B4919C91B1
:10211000822F892321F461E085E30E94740C61E041
:1021200085E30E94A30C8CB580618CBD8CB5806466
:102130008CBD61E084E30E94A30C61E083E30E9414
:10214000A30C8091AF028F5F8093AF026FBEC70177
:102150000197F1F760E0A981BA815D968C910E94A8
:10216000740C88E80E94C90683E00E94C90661E0F9
:10217000E981FA81858D0E94740CC7010197F1F7FE
:10218000C6010E94D0067A940F5F1F4F29813A81C1
:102190002E5F3F4F3A832983711074CF8FE896E00A
:1021A0009A83898303E916E060E0A981BA818D9161
:1021B000BA83A9830E94A30CE981FA81E359F6400E
:1021C00099F78BE896E09A83898378019FEFE91A63
:1021D000F90AD8016C9170E0C80108960E94BD0808
:1021E000F70195818381A981BA8152968C93529788
:1021F00053969C9360E00E94A30C61E0E981FA8110
:1022000083890E94A30C60E0A981BA8153968C91C6
:102210000E94740CE981FA813296FA83E98387017E
:10222000F6E005391F0789F6F8941092200189E03D
:102230008093210180E293E090932901809328010B
:10224000109225011092240182E08093730078940B
:1022500080935A0510925E0580915B0560E00E94B4
:10226000A30C0E94820D6091930670E08BE996E0CA
:102270000E94BD0898E0292E312C8AE50E94CA0DE3
:1022800080918B060E94DF0CBC0180E090E00E94F0
:102290003F154B015C010BE010E0C12CD12C760105
:1022A00020E030E046E153E4C501B4010E943A1554
:1022B00087FD03C001E010E04AC001501109D1F3CD
:1022C00041E050E060E070E080E490E40E9460074C
:1022D00080918B060E94DF0CBC0180E090E00E94A0
:1022E0003F154B015C0120E030E040E450E4C701C1
:1022F000B6010E94CE166B017C01D2CF20E030E007
:1023000040EF51ECC701B6010E94E21718164CF5D8
:1023100040E050E060E070E080E490E40E946007FC
:1023200080918B060E94DF0CBC0180E090E00E944F
:102330003F154B015C0120E030E040E450E4C70170
:10234000B6010E94CD166B017C0100E010E020E098
:1023500030E046E153E4C501B4010E943A1587FD1F
:10236000CDCFA80160E070E080E490E40E946007B7
:1023700020E030E040E450E4C701B601013011052F
:1023800019F40E94CE1602C00E94CD166B017C018A
:102390004AE959E969E17EE383E896E00E94AF05E6
:1023A0004AE959E969E17EEB85E896E00E94AF05CC
:1023B00020E030E04AEF53E4C501B4010E943A1531
:1023C00087FF0CC080918B060E94DF0CBC0180E06F
:1023D00090E00E943F154B015C01EACF68EE73E08C
:1023E00080E090E00E94FE0C8DE20E94CA0D64EF36
:1023F00071E080E090E00E94FE0C40E050E0BA0105
:1024000083E896E00E94AF0540E050E060E070E8AD
:1024100085E896E00E94AF05C701B6010E94AC179F
:10242000613F4FEF740734F4A0E1B0E0A61BB70B97
:10243000BD010CC0603171051CF0635F7F4F14C09B
:1024400077FF0DC0F101E61BF70BBF01072E000C53
:10245000880B990B0E94411541E050E00DC06115B9
:10246000710561F06B5F7F4F072E000C880B990B95
:102470000E94411540E050E00E94600787E896E026
:102480000E94D00689E896E00E94D0068AE9482E8C
:1024900089E9582E652C8EE3782E89E896E00E9413
:1024A000FB06663F7F43810591050CF083C04AE936
:1024B00059E969E97EEB85E896E00E94AF05B30132
:1024C000A20183E896E00E94AF058091B40290914A
:1024D000B502A091B602B091B70289839A83AB830B
:1024E000BC838091B0029091B102A091B202B091F0
:1024F000B3028D839E83AF83B88787E896E00E94FE
:10250000FB06882499245401861A970AA80AB90A56
:102510008092B0029092B102A092B202B092B30245
:1025200089E896E00E94FB066B017C016093B4028F
:102530007093B5028093B6029093B7024AE060E0D0
:1025400070E0CB010E94690E8BE492E00E94AA0D1C
:1025500089819A81AB81BC81C81AD90AEA0AFB0A2F
:102560008D819E81AF81B885881A990AAA0ABB0A13
:10257000C701B601681979098A099B090E944115AA
:102580002FE632E143E85AE30E94A01520E030E054
:10259000A9010E94CE169B01AC01C301B2010E94A9
:1025A000CE162B013C016AE070E080E090E00E94D2
:1025B000FE0C73CF40E050E0BA0183E896E00E9441
:1025C000AF0540E050E060E070E885E896E00E94EA
:1025D000AF0564E670E080E090E00E94FE0C8AE5C2
:1025E0000E94CA0D60E177E280E090E00E94FE0C5C
:1025F0000E94E10242CE0F931F93CF93DF93EC0131
:1026000088819981009729F02A813B812617370715
:1026100088F48B016F5F7F4F0E940D19009761F066
:10262000998388831B830A832C813D81232B11F49A
:10263000FC01108281E001C080E0DF91CF911F9109
:102640000F91089580916307909164070E94841808
:102650008091690790916A070C94841810927A030C
:102660001092790388EE93E0A0E0B0E080937B03C2
:1026700090937C03A0937D03B0937E0323E132E02B
:10268000309378032093770310928603109285038A
:102690008093870390938803A0938903B0938A0360
:1026A00025E232E0309384032093830345E351E035
:1026B0005093900340938F0344E351E0509392036F
:1026C0004093910340E351E050939403409393036C
:1026D00041E351E0509396034093950342E351E068
:1026E000509398034093970346E351E050939A0325
:1026F0004093990310929C0310929D0310929E03A5
:1027000010929F03109223041092220480932404B9
:1027100090932504A0932604B093270430932104BA
:102720002093200445ED50E050932D0440932C0459
:1027300044ED50E050932F0440932E0440ED50E0C0
:10274000509331044093300441ED50E050933304F2
:102750004093320442ED50E05093350440933404EA
:1027600046ED50E0509337044093360410923904FC
:1027700010923A0410923B0410923C041092C00450
:102780001092BF048093C1049093C204A093C30429
:10279000B093C4043093BE042093BD0485EC90E054
:1027A0009093CA048093C90484EC90E09093CC0485
:1027B0008093CB0480EC90E09093CE048093CD0482
:1027C00081EC90E09093D0048093CF0482EC90E071
:1027D0009093D2048093D10486EC90E09093D4043B
:1027E0008093D3041092D6041092D7041092D80488
:1027F0001092D9048091070290910802A0910902D9
:10280000B0910A0280938B0690938C06A0938D065C
:10281000B0938E0680910B0290910C02A0910D0254
:10282000B0910E0280938F0690939006A09391062C
:10283000B093920684E08093930687E08093940699
:102840001092950684EB8093960686E18093970616
:1028500088E18093980687E18093990689E18093C7
:102860009A06E0916806EC3020F08FEF80939B068B
:1028700010C081E08E0F80936806E0939B0685E090
:10288000E89FF0011124E45DF94F88EB9BE092830F
:102890008183E0916806EC3020F08FEF80939C06F6
:1028A00010C081E08E0F80936806E0939C0685E05F
:1028B000E89FF0011124E45DF94F88EB9BE09283DF
:1028C00081838CE080936A0684E280936B0686E0C5
:1028D00080936C0685E080936D068FE180936E0691
:1028E0008EE180936F0683E28093700682E280938C
:1028F000710685E48093720684E48093730680E415
:102900008093760610927B0610927C0610927D06CC
:1029100010927E0610927F06109280061092810619
:1029200010928206E5EAF6E023E637E08FEF9FEFAC
:10293000DC0112821382148215821682178210869D
:10294000118683879487A587B6878787908BA18B0D
:10295000B28B12861182108273962E173F0749F7A9
:102960008DE090E00E94EC17FC011382128287E355
:1029700092E091838083118687E2848384E1828759
:1029800084E083871486F093A206E093A106109258
:10299000A3061092A40685E280935B0510925D0564
:1029A00010926A071092690710926C0710926B07D9
:1029B00010926E0710926D0760E070E089E697E074
:1029C0000E94FB122091690730916A07811113C0A0
:1029D0002115310519F0C9010E94841810926A0767
:1029E0001092690710926E0710926D0710926C0793
:1029F00010926B0709C010926E0710926D076DE47C
:102A000072E0C9010E94FB191092640710926307DB
:102A10001092660710926507109268071092670778
:102A200064E270E083E697E00E94FB122091630766
:102A300030916407811113C02115310519F0C901C6
:102A40000E9484181092640710926307109268071E
:102A5000109267071092660710926507089584E246
:102A600090E090936807809367076EE472E0C90175
:102A70000C94FB190E947C1508F481E00895E894F9
:102A800009C097FB3EF490958095709561957F4FB6
:102A90008F4F9F4F9923A9F0F92F96E9BB27939564
:102AA000F695879577956795B795F111F8CFFAF474
:102AB000BB0F11F460FF1BC06F5F7F4F8F4F9F4FA5
:102AC00016C0882311F096E911C0772321F09EE803
:102AD000872F762F05C0662371F096E8862F70E069
:102AE00060E02AF09A95660F771F881FDAF7880F43
:102AF0009695879597F90895990F0008550FAA0B99
:102B0000E0E8FEEF16161706E807F907C0F0121600
:102B10001306E407F50798F0621B730B840B950B03
:102B200039F40A2661F0232B242B252B21F4089558
:102B30000A2609F4A140A6958FEF811D811D0895F5
:102B40000E94B3150C9424160E94161638F00E94A9
:102B50001D1620F0952311F00C940D160C941316ED
:102B600011240C9458160E94351670F3959FC1F3EA
:102B7000950F50E0551F629FF001729FBB27F00D2B
:102B8000B11D639FAA27F00DB11DAA1F649F662780
:102B9000B00DA11D661F829F2227B00DA11D621FCF
:102BA000739FB00DA11D621F839FA00D611D221F89
:102BB000749F3327A00D611D231F849F600D211D6D
:102BC000822F762F6A2F11249F5750409AF0F1F0F0
:102BD00088234AF0EE0FFF1FBB1F661F771F881F59
:102BE00091505040A9F79E3F510580F00C940D166E
:102BF0000C9458165F3FE4F3983ED4F3869577958E
:102C00006795B795F795E7959F5FC1F7FE2B880FFE
:102C1000911D9695879597F9089597F99F6780E894
:102C200070E060E008959FEF80EC089500240A941E
:102C30001616170618060906089500240A94121697
:102C40001306140605060895092E0394000C11F4CA
:102C5000882352F0BB0F40F4BF2B11F460FF04C077
:102C60006F5F7F4F8F4F9F4F089557FD9058440FD0
:102C7000551F59F05F3F71F04795880F97FB991FDB
:102C800061F09F3F79F08795089512161306140698
:102C9000551FF2CF4695F1DF08C016161706180625
:102CA000991FF1CF86957105610508940895E89400
:102CB000BB2766277727CB0197F90895052E97FB49
:102CC0001EF400940E94751657FD07D00E948816C6
:102CD00007FC03D04EF40C94751650954095309532
:102CE00021953F4F4F4F5F4F089590958095709578
:102CF00061957F4F8F4F9F4F08950E94AA16A59F01
:102D0000900DB49F900DA49F800D911D11240895E6
:102D1000A1E21A2EAA1BBB1BFD010DC0AA1FBB1FDF
:102D2000EE1FFF1FA217B307E407F50720F0A21B51
:102D3000B30BE40BF50B661F771F881F991F1A94BE
:102D400069F760957095809590959B01AC01BD01E8
:102D5000CF010895A29FB001B39FC001A39F700D42
:102D6000811D1124911DB29F700D811D1124911D93
:102D70000895991B79E004C0991F961708F0961BD7
:102D8000881F7A95C9F780950895EE0FFF1F881F59
:102D90008BBF0790F691E02D19945058BB27AA27B6
:102DA0000E94E5160C9424160E94161638F00E9414
:102DB0001D1620F039F49F3F19F426F40C941316D5
:102DC0000EF4E095E7FB0C940D16E92F0E943516E2
:102DD00058F3BA17620773078407950720F079F450
:102DE000A6F50C9457160EF4E0950B2EBA2FA02DD5
:102DF0000B01B90190010C01CA01A0011124FF27A8
:102E0000591B99F0593F50F4503E68F11A16F040A2
:102E1000A22F232F342F4427585FF3CF46953795A1
:102E20002795A795F0405395C9F77EF41F16BA0B66
:102E3000620B730B840BBAF09150A1F0FF0FBB1F14
:102E4000661F771F881FC2F70EC0BA0F621F731F5D
:102E5000841F48F4879577956795B795F7959E3FBA
:102E600008F0B0CF9395880F08F09927EE0F97954B
:102E7000879508950E944E170C9424160E941D16E3
:102E800058F00E94161640F029F45F3F29F00C9488
:102E90000D1651110C9458160C9413160E943516E9
:102EA00068F39923B1F3552391F3951B550BBB2779
:102EB000AA2762177307840738F09F5F5F4F220FBE
:102EC000331F441FAA1FA9F335D00E2E3AF0E0E8B5
:102ED00032D091505040E695001CCAF72BD0FE2FFF
:102EE00029D0660F771F881FBB1F26173707480793
:102EF000AB07B0E809F0BB0B802DBF01FF2793584B
:102F00005F4F3AF09E3F510578F00C940D160C94EB
:102F100058165F3FE4F3983ED4F38695779567950E
:102F2000B795F7959F5FC9F7880F911D969587957F
:102F300097F90895E1E0660F771F881FBB1F62179E
:102F400073078407BA0720F0621B730B840BBA0B5C
:102F5000EE1F88F7E09508950E94B3176894B111A9
:102F60000C94581608950E943D1688F09F5798F0CB
:102F7000B92F9927B751B0F0E1F0660F771F881F7E
:102F8000991F1AF0BA95C9F714C0B13091F00E9498
:102F90005716B1E008950C945716672F782F88279D
:102FA000B85F39F0B93FCCF3869577956795B395BF
:102FB000D9F73EF490958095709561957F4F8F4F2E
:102FC0009F4F08950E947C1508F48FEF08950E948A
:102FD0007C15880B990B08950F931F93CF93DF9364
:102FE0008230910510F482E090E0E0917107F09159
:102FF000720720E030E0A0E0B0E0309719F14081A6
:1030000051810281138148175907C8F08417950729
:1030100069F4109731F012960C93129713961C9343
:1030200027C0009371071093720722C02115310544
:1030300019F04217530718F49A01BD01EF01DF019F
:10304000F801DBCF21153105F9F0281B390B2430AD
:10305000310580F48A819B816115710521F0FB01A6
:103060009383828304C09093720780937107FE015B
:10307000329644C0FE01E20FF31F819391932250D8
:103080003109398328833AC020916F073091700746
:10309000232B41F4209103023091040230937007F6
:1030A00020936F0720910102309102022115310512
:1030B00041F42DB73EB74091050250910602241B02
:1030C000350BE0916F07F0917007E217F307A0F45A
:1030D0002E1B3F0B2817390778F0AC014E5F5F4F6E
:1030E0002417350748F04E0F5F1F50937007409329
:1030F0006F078193919302C0E0E0F0E0CF01DF9190
:10310000CF911F910F910895CF93DF93009709F40A
:1031100081C0FC01329713821282A0917107B09195
:103120007207109781F420813181820F931F2091C3
:103130006F07309170072817390751F5F093700722
:10314000E0936F0767C0ED0120E030E0CE17DF07A6
:1031500040F44A815B819E0141155105F1F0EA017D
:10316000F5CFD383C28340815181840F951FC81747
:10317000D90759F488819981840F951F029691830C
:1031800080838A819B81938382832115310529F471
:10319000F0937207E09371073DC0E901FB83EA8376
:1031A00049915991C40FD51FEC17FD0761F4808137
:1031B0009181840F951F0296E9019983888382810A
:1031C00093819B838A83E0E0F0E012968D919C913D
:1031D0001397009719F0FD01DC01F7CF8D919C91B9
:1031E00011979D012E5F3F4F820F931F20916F0714
:1031F000309170072817390769F4309729F4109235
:1032000072071092710702C013821282B093700786
:10321000A0936F07DF91CF9108956F927F928F9265
:103220009F92AF92BF92CF92DF92EF92FF920F9355
:103230001F93CF93DF93009789F4CB01DF91CF9158
:103240001F910F91FF90EF90DF90CF90BF90AF90C4
:103250009F908F907F906F900C94EC17FC01E60F7D
:10326000F71F9C0122503109E217F30708F4A9C0A7
:10327000EC01D9010D911C91119706171707B0F0B9
:103280000530110508F49BC0C801049786179707FD
:1032900008F495C002501109061B170B01931193F6
:1032A0006D937C93CF010E94841889C05B01A01AA2
:1032B000B10A4C01800E911EA0917107B091720766
:1032C000612C712CE12CF12C109709F446C08D91E2
:1032D0009C911197A815B905B1F56C0142E0C40E97
:1032E000D11CCA14DB0478F14C018A189B086401D4
:1032F00042E0C40ED11C1296BC9012971396AC916A
:10330000B5E0CB16D10440F0B282A38391828082D3
:10331000D9016D937C9309C00E5F1F4F800F911FE1
:10332000F90191838083EB2DFA2FE114F10431F040
:10333000D7011396FC93EE93129741C0F093720756
:10334000E09371073CC06816790608F43C017D01E2
:1033500012960D90BC91A02DB7CF80916F079091E0
:10336000700788169906E1F466167706C8F480910E
:10337000010290910202009741F48DB79EB74091EF
:10338000050250910602841B950BE817F907C8F453
:10339000F0937007E0936F07F901718360830FC0AA
:1033A000CB010E94EC177C01009759F0A801BE01E7
:1033B0000E94F219CE010E948418C70104C0CE01F8
:1033C00002C080E090E0DF91CF911F910F91FF90BC
:1033D000EF90DF90CF90BF90AF909F908F907F90B5
:1033E0006F900895FB01DC0102C001900D924150E5
:1033F0005040D8F70895FB01DC0101900D920020A8
:10340000E1F7089511E0C4E9D1E000E006C0802FA3
:10341000FE010E94C5162196011DC539D10780E025
:083420000807A9F7F894FFCF9B
:10342800FF000073072000363738391B1D1A1C00AF
:103438000000004D0A200A0F03F409180A040AF5CF
:1034480009000000006F02C801F201BC022302015A
:10345800021502000000001203C8010F030E036EDC
:10346800616E00696E66006F7666000D0A004C6535
:1034780020626C7565746F6F74682065737420665C
:103488006F6E6374696F6E6E656C204C696F6E65E4
:103498006C0A00536572766F20616E676C652069EF
:1034A80073206F7574206F662072616E67652100E6
:00000001FF
