:100000000C94E9010C941A020C941A020C941A0232
:100010000C941A020C941A020C941A020C941A02F0
:100020000C941A020C9469150C9469150C946915BA
:100030000C941A020C94B5040C941A020C941A0233
:100040000C941A020C94B30B0C941A020C941A021E
:100050000C941A020C941A020C941A020C941A1999
:100060000C941A020C9424060C94FA050C941A02AF
:100070000C941A020C941A020C941A020C941A0290
:100080000C941A020C941A020C941A020C941A0280
:100090000C941A020C941A020C941A020C94731504
:1000A0000C941A020C941A020C941A020C941A0260
:1000B0000C941A020C941A020C941A020C94520614
:1000C0000C941A020C941A020C941A020C94D00587
:1000D0000C94A6050C941A020C947C050C94520501
:1000E0000C941A02710776077B0785078F070808AB
:1000F0009907A107A907B307BD07C707D607E007F8
:100100000808EA07F407FE0700150315F214F614B1
:10011000FC143A1507150B151115151519151F1592
:10012000231527153A152D15311535150C9433095E
:100130000C9499070C9400150C9447020C94A10799
:100140000C945B140C942D150C9473030C94980967
:100150000C9411150C945E140C9463030C947802A7
:100160000C9481140C945C140C9476070C948F07F7
:100170000C94B6140C943A150C94C7070C94BD0754
:100180000C9408080C9403150C946A020C94F21455
:100190000C941C020C9456020C94C4020C94641926
:1001A0000C946D140C946C190C94F4070C949D032E
:1001B0000C94F6140C9427150C941F150C947107CD
:1001C0000C9489140C94EA070C9423150C94D6070C
:1001D0000C9419150C9411030C94FE070C945D14E7
:1001E0000C9485070C94B3070C94E0070C94A907B2
:1001F0000C9407150C947B070C94FC140C9431158B
:100200000C940B150C9435150C9415150C941D02BB
:100210000200002100240027002A002D00300033B6
:100220000001010000040107010A0100002200256D
:100230000028002B002E00310034000201000005D0
:100240000108010B01000020002300260029002CDA
:10025000002F003200000100000301060109010522
:10026000050505070508080808020202020A0A082F
:100270000804040404010101010101010103030355
:100280000303030303040707070C0C0C0C0C0C0CF2
:100290000C0202020206060606060606060B0B0BF9
:1002A0000B0B0B0B0B010210202008081020401034
:1002B000204080020102010804020101020408102A
:1002C0002040808040201008040201800402018048
:1002D0004020100804020108040201010204081071
:1002E000204080010204081020408000000A0B0218
:1002F000090C0D0E080703040100000000000000B7
:1003000000000000000000000000000000000000ED
:1003100000000000000000121110000000000000AA
:1003200000000000000000000000000000000000CD
:10033000005741524E494E473A20436F6D6D756EDE
:1003400069636174696F6E206661696C7572652C92
:1003500020697320746865204D465243353232203F
:1003600070726F7065726C7920636F6E6E65637406
:1003700065643F00203D2028756E6B6E6F776E2997
:1003800000203D20636F756E746572666569742028
:100390006368697000203D2076322E3000203D20B9
:1003A00076312E3000203D2076302E3000203D204A
:1003B00028636C6F6E6529004669726D776172659E
:1003C0002056657273696F6E3A20307800006C19A0
:1003D000641911241FBECFEFD1E2DEBFCDBF00E014
:1003E0000CBF16E0A0E0B2E0EEE1F6E400E00BBFE7
:1003F00002C007900D92AC3BB107D9F72BE0ACEBF4
:10040000B6E001C01D92AF3AB207E1F711E0C8EEC5
:10041000D1E000E006C021970109802FFE010E9473
:10042000B21FC73ED10780E00807A9F70E94261B2C
:100430000C94FD220C9400000895CF92DF92EF926D
:10044000FF920F931F93CF93DF936C017A018B017F
:10045000C0E0D0E0CE15DF0581F0D8016D918D01AF
:10046000D601ED91FC910190F081E02DC601199526
:10047000892B11F02196EECF7E01C701DF91CF913C
:100480001F910F91FF90EF90DF90CF900895FC01A6
:10049000538D448D252F30E0842F90E0821B930BE9
:1004A000541710F0CF96089501970895FC01918D8F
:1004B000828D981761F0828DDF01A80FB11D5D96C6
:1004C0008C91928D9F5F9F73928F90E008958FEF34
:1004D0009FEF0895FC01918D828D981731F0828DE8
:1004E000E80FF11D858D90E008958FEF9FEF08953F
:1004F000FC01918D228D892F90E0805C9F4F821BA3
:1005000091098F73992708958BE397E00E947802F1
:1005100021E0892B09F420E0822F089588ED97E0EF
:100520000E94780221E0892B09F420E0822F0895AF
:1005300085E798E00E94780221E0892B09F420E009
:10054000822F0895FC01848DDF01A80FB11DA35AED
:10055000BF4F2C91848D90E001968F739927848FE3
:10056000A689B7892C93A089B1898C918370806406
:100570008C93938D848D981306C00288F389E02DA7
:1005800080818F7D80830895EF92FF920F931F9358
:10059000CF93DF93EC0181E0888F9B8D8C8D981336
:1005A00005C0E889F989808185FD26C0F62E0B8D6E
:1005B00010E00F5F1F4F0F731127E02E8C8DE81294
:1005C0000CC00FB607FCFACFE889F989808185FF56
:1005D000F5CFCE010E94A202F1CF8B8DFE01E80F74
:1005E000F11DE35AFF4FF0829FB7F8940B8FEA8911
:1005F000FB89808180620AC09FB7F894EE89FF89E9
:100600006083E889F98980818370806480839FBFDB
:1006100081E090E0DF91CF911F910F91FF90EF90DB
:100620000895CF93DF93EC01888D8823C9F0EA8980
:10063000FB89808185FD05C0A889B9898C9186FDDB
:100640000FC00FB607FCF5CF808185FFF2CFA889D8
:10065000B9898C9185FFEDCFCE010E94A202E7CF30
:10066000DF91CF910895E0E0F0E0199480E090E010
:10067000892B21F00E949802811119C080E090E03E
:10068000892B41F080E090E0892B21F00E9400004E
:10069000811110C00E948E0281110FC080E090E095
:1006A000892B81F00E94840281110AC008950E9462
:1006B0000000E4CF0E940000EDCF0E943303EECF94
:1006C0000C9400000895BC016E5F7F4FDC01ED913A
:1006D000FC910190F081E02D40E0199591E08111AD
:1006E00090E0892F089580E090E008950F931F9384
:1006F000CF93DF93EC0188819981009729F02A81BB
:100700003B812617370788F48B016F5F7F4F0E946C
:10071000FA21009761F0998388831B830A832C81D7
:100720003D81232B11F4FC01108281E001C080E0A7
:10073000DF91CF911F910F9108950F931F93CF9346
:10074000DF938C01C62FD62FD07FD1606D2F0E94F2
:10075000710E6D2FC8010E943B1580E1C89FB0014A
:100760001124C62FC1606C2FC8010E94710E6C2F1E
:10077000C8010E943B1581E090E0DF91CF911F916D
:100780000F910895FC0124813581232B31F421E060
:1007900061157105A1F0FB0108C0FC018081918108
:1007A0006115710531F421E0FC018081882339F065
:1007B00005C00E94ED2221E0892B09F020E0822F64
:1007C0000895EF92FF920F931F93CF93DF936115DC
:1007D000710511F480E01CC041155105C1F07B0189
:1007E000EC018C819D818A01080F191FB801CE018F
:1007F0000E947603882371F3288139818C819D8141
:10080000B701820F931F0E94F6221D830C8381E0A3
:10081000DF91CF911F910F91FF90EF900895CF93AB
:10082000DF93EC0188819981009711F00E9471217A
:10083000198218821D821C821B821A82DF91CF913D
:100840000895EF92FF920F931F93CF93DF93EC01E4
:100850007B018A01BA010E947603811104C0CE0196
:100860000E940F0407C01D830C83B7018881998102
:100870000E94F622CE01DF91CF911F910F91FF9040
:10088000EF900895CF93DF93EC01FB018617970754
:1008900061F0608171816115710529F04481558194
:1008A0000E94210402C00E940F04CE01DF91CF916B
:1008B0000895FC01808191810C947121EF92FF9247
:1008C0000F931F93CF93DF93CDB7DEB729970FB662
:1008D000F894DEBF0FBECDBF8C01862FF8011182C8
:1008E0001082138212821582148250E09E012F5FC3
:1008F0003F4F7901B90190E00E942B1EF701019052
:100900000020E9F73197AF014E195F09B701C8011F
:100910000E94210429960FB6F894DEBF0FBECDBF0A
:10092000DF91CF911F910F91FF90EF900895FC01FF
:100930001182108213821282158214820C94420456
:10094000FC011182108213821282158214826115B9
:10095000710551F0FB0101900020E9F73197AF01DB
:10096000461B570B0C94210408951F920F920FB64B
:100970000F9211240BB60F922F933F934F935F93D7
:100980006F937F938F939F93AF93BF93EF93FF9357
:100990008091D8069091D906A091DA06B091DB0635
:1009A000892B8A2B8B2B49F19091D70680910000DF
:1009B0008927809300008091D8069091D906A09154
:1009C000DA06B091DB06181619061A061B060CF09B
:1009D00056C08091D8069091D906A091DA06B091C0
:1009E000DB060197A109B1098093D8069093D90637
:1009F000A093DA06B093DB0642C080910002E0E1EA
:100A0000F2E0E4919FEF90930002E230C9F050F4DD
:100A1000EE2399F0E13081F590916F009D7F9093E6
:100A20006F002AC0E43019F1E0F0E53029F590912B
:100A300073009D7F909373001FC010926E001CC0C6
:100A4000909170009D7F9093700091E09093B00022
:100A50009091B100987F94609093B1001092B30090
:100A60000BC0909171009D7F9093710005C0909193
:100A700072009D7F9093720060E00E94CE16FF91FD
:100A8000EF91BF91AF919F918F917F916F915F9106
:100A90004F913F912F910F900BBE0F900FBE0F9073
:100AA0001F9018951F920F920FB60F9211240BB63C
:100AB0000F922F933F934F935F936F937F938F93F7
:100AC0009F93AF93BF93EF93FF938BE397E00E94C5
:100AD000A202FF91EF91BF91AF919F918F917F9172
:100AE0006F915F914F913F912F910F900BBE0F909F
:100AF0000FBE0F901F9018951F920F920FB60F9276
:100B000011240BB60F922F933F934F935F936F93E4
:100B10007F938F939F93AF93BF93EF93FF938BE359
:100B200097E00E945015FF91EF91BF91AF919F9177
:100B30008F917F916F915F914F913F912F910F9086
:100B40000BBE0F900FBE0F901F9018951F920F9223
:100B50000FB60F9211240BB60F922F933F934F9322
:100B60005F936F937F938F939F93AF93BF93EF9315
:100B7000FF9388ED97E00E94A202FF91EF91BF9151
:100B8000AF919F918F917F916F915F914F913F9125
:100B90002F910F900BBE0F900FBE0F901F901895C6
:100BA0001F920F920FB60F9211240BB60F922F9334
:100BB0003F934F935F936F937F938F939F93AF93E5
:100BC000BF93EF93FF9388ED97E00E945015FF913C
:100BD000EF91BF91AF919F918F917F916F915F91B5
:100BE0004F913F912F910F900BBE0F900FBE0F9022
:100BF0001F9018951F920F920FB60F9211240BB6EB
:100C00000F922F933F934F935F936F937F938F93A5
:100C10009F93AF93BF93EF93FF9385E798E00E9474
:100C2000A202FF91EF91BF91AF919F918F917F9120
:100C30006F915F914F913F912F910F900BBE0F904D
:100C40000FBE0F901F9018951F920F920FB60F9224
:100C500011240BB60F922F933F934F935F936F9393
:100C60007F938F939F93AF93BF93EF93FF9385E70A
:100C700098E00E945015FF91EF91BF91AF919F9125
:100C80008F917F916F915F914F913F912F910F9035
:100C90000BBE0F900FBE0F901F90189508958CBD3E
:100CA0009DBD08951F920F920FB60F9211240BB69F
:100CB0000F922F933F934F935F936F937F938F93F5
:100CC0009F93AF93BF93EF93FF93809113090E947B
:100CD000A51620911709309118092F5F3F4F3093C7
:100CE00018092093170990911609953618F096E087
:100CF00090931209909112099430C9F128F492301E
:100D000069F09330D1F05EC0953009F451C096304F
:100D100009F058C091E09093E30951C0811152C08D
:100D200020911709309118092436310508F442C082
:100D30001092E309109216091CC0813009F042C0DC
:100D4000E091160991E09E0F90931609F0E0209132
:100D5000170930911809EE0FFF1FEE5EF64F30872E
:100D60002783109218091092170994E029C0811165
:100D700017C0E091160991E09E0F90931609F0E0DC
:100D80002091170930911809EE0FFF1FEE5EF64F04
:100D900030872783109218091092170993E010C02A
:100DA00020911709309118092536310558F007C0F0
:100DB000811108C0109218091092170903C095E01C
:100DC00090931209909115099923B9F081110AC0E5
:100DD00080911409882321F08091140961E009C0F1
:100DE0002F9A0BC080911409882331F08091140947
:100DF00060E00E94CE1601C02F98FF91EF91BF9145
:100E0000AF919F918F917F916F915F914F913F91A2
:100E10002F910F900BBE0F900FBE0F901F90189543
:100E20008F929F92AF92BF92CF92DF92EF92FF92FA
:100E30000F931F93CF93DF938C016A017B0120E016
:100E400030E04FE753E4C701B6010E94C61E4B01D4
:100E50005C0120E030E0A9010E94CF2018161CF4AC
:100E6000C501B40103C0C501B40190580E94992086
:100E7000EB0120E030E0A901C701B6010E94CF20BC
:100E8000181614F460E001C061E0F80181810E944D
:100E9000CE16CF3FD10509F014F4DD2702C0CFEF05
:100EA000D0E0F801108161E0812F0E94FD162097AB
:100EB00009F4B1C0CF3FD10509F4AFC0E12FF0E094
:100EC000E551FD4FE4918E2F90E0FC013197E23126
:100ED000F10508F09DC08827EE58FF4F8F4F0C9406
:100EE000B21F84B5806884BDC7BDA7C084B58062C9
:100EF00084BDC8BDA2C080918000806880938000BE
:100F0000D0938900C093880098C08091800080624F
:100F100080938000D0938B00C0938A008EC0809114
:100F20008000886080938000D0938D00C0938C00F7
:100F300084C08091B00080688093B000C093B300FB
:100F40007CC08091B00080628093B000C093B400F8
:100F500074C080919000806880939000D093990035
:100F6000C09398006AC08091900080628093900046
:100F7000D0939B00C0939A0060C0809190008860DD
:100F800080939000D0939D00C0939C0056C08091A8
:100F9000A00080688093A0008091A0008F7B809348
:100FA000A000D093A900C093A80047C08091A000E2
:100FB00080628093A000D093AB00C093AA003DC094
:100FC0008091A00088608093A000D093AD00C09372
:100FD000AC0033C080912001806880932001D093C1
:100FE0002901C093280129C080912001806280934B
:100FF0002001D0932B01C0932A011FC080912001B2
:10100000886080932001D0932D01C0932C0115C0DE
:10101000C038D10514F460E001C061E0812FDF9198
:10102000CF911F910F91FF90EF90DF90CF90BF90E5
:10103000AF909F908F900C94CE16DF91CF911F911F
:101040000F91FF90EF90DF90CF90BF90AF909F9067
:101050008F9008958FE30E9439174E977CF440E0FB
:1010600050E060E070E88DE39AE00E94100740E0F5
:1010700050E0BA018BE39AE00E9410078FE30E94D0
:1010800039178A3A91053CF48FE30E943917833867
:1010900091050CF05DC08FE30E94391780349140B8
:1010A0003CF48FE30E943917893191400CF05BC00A
:1010B0008FE30E943917863D91403CF48FE30E94F4
:1010C00039178F3A91400CF05EC08FE30E943917B8
:1010D000863792403CF48FE30E9439178534924062
:1010E0000CF05AC08FE30E9439178C3093403CF4C7
:1010F0008FE30E943917853E92400CF058C08FE371
:101100000E943917823A93403CF48FE30E943917CA
:101110008B3793400CF05CC08FE30E9439178D3FF2
:10112000934084F04AE959E969E17EEB8DE39AE066
:101130000E94100742E558EB6EE17EE38BE39AE0F4
:101140000E94100762E370E080E090E00C94581772
:101150000E94930D41E050E060E070E088EB92E483
:101160000E94921798CF40E050E060E070E88DE375
:101170009AE00E94100740E050E0BA018BE39AE049
:101180000E94100795CF41E050E060E070E080EAF7
:1011900090E40E94921799CF0E94930D40E050E096
:1011A00060E070E088EB92E40E9492179BCF4AE9DE
:1011B00059E969E17EEB8DE39AE00E94100742E570
:1011C00058EB6EE17EE38BE39AE00E94100797CF25
:1011D00040E050E060E070E080EA90E40E94921706
:1011E0009BCF8EBD00000DB407FEFDCF8EB50895D8
:1011F0001F93CF93DF93EC01162F83E590E00E94BD
:101200004F0660E08E850E94CE16812F80680E9476
:10121000F10880E00E94F108182F61E08E850E949D
:10122000CE16812FDF91CF911F9108950F931F93B9
:10123000CF93DF93EC01062F142F83E590E00E94FB
:101240004F0660E08E850E94CE16802F0E94F10826
:10125000812F0E94F10861E08E85DF91CF911F916F
:101260000F910C94CE16AF92BF92CF92EF92FF9255
:101270000F931F93CF93DF9300D01F921F92CDB790
:10128000DEB75C0182E08D8340E064E2C5010E942C
:10129000160940E066E2C5010E94160946E268E4CC
:1012A000C5010E94160986E28B838D81823038F158
:1012B0006CE1C5010E94F808482F4F776CE1C50129
:1012C0000E94160987E08C83C12CCE0104967C0114
:1012D0008E010B5F1F4F9E012F5F3F4F41E0BE010C
:1012E0006D5F7F4FC5010E94BB0C81110BC08D81CA
:1012F000823039F481E09C81911104C008C084E0FF
:1013000001C081E091E0823019F090E001C091E0ED
:10131000892F0F900F900F900F900F90DF91CF912A
:101320001F910F91FF90EF90CF90BF90AF900895D5
:101330002F923F924F925F926F927F928F929F92E5
:10134000AF92BF92CF92DF92EF92FF920F931F93D3
:10135000CF93DF93CDB7DEB72B970FB6F894DEBFF0
:101360000FBECDBF413508F00AC1342E4B015C01E0
:101370006CE10E94F808482F4F776CE1C5010E948C
:1013800016094424439432E0431691F083E0481652
:10139000E1F091E04912F5C083E989833320D1F06F
:1013A00081E0F4019081953008F480E0512C17C061
:1013B000F5E9F983332081F081E0F40190819830E0
:1013C00008F480E053E0552E0AC087E9898346E09F
:1013D000542E04C0512C02C033E0532E80E0D32C95
:1013E000F8E05F9ED0181124D7FCD12C882321F07F
:1013F00098E89B8333E001C032E021E09D2D977097
:1014000009F420E09D2D959595959595290F31F43A
:10141000882309F491C038E0D30E8EC0811102C038
:1014200094E001C093E0291708F4922FE52DF0E035
:101430003196E80DF91D232F4191A1E0B0E0AC0FEA
:10144000BD1FA20FB11D4C932F5F422F431B4917A5
:1014500098F3DECF8111DDC09FE19D150CF493C0A0
:1014600080E2D82E90E79A839B818C8189279D8189
:1014700089279E8189278F839E01285F3F4F47E000
:10148000BE016F5F7F4FC5010E94DD138111A2C0B5
:101490001A86E3E0EB87CE0107963C0129E0222E75
:1014A000CA844C2D4295407F4C0D6AE1C5010E94D3
:1014B0001609CE010A967C018E01055F1F4F93012C
:1014C000422DBE016F5F7F4FC5010E94BB0C182FDC
:1014D000823009F0BFCF6CE1C5010E94F80885FD9C
:1014E00098C08F7109F480E2282F30E04D2DDD0C7B
:1014F000550B421753070CF044C0D82E859585959F
:10150000859591E0980F422F477081E009F480E0C3
:10151000890FE1E0F0E0EC0FFD1FE80FF11D215015
:1015200031092770332781E090E001C0880F2A95A8
:10153000EAF79081892B80838FE18D150CF492CF8F
:101540009D2D97709A878D2D8595859585958E5FB4
:10155000292FE0E18E9F200D11242A8321E0911193
:1015600001C020E0222E280E66246394712C6C0E9C
:101570007D1E680E711CF9E0F81BFB8791CF16E009
:1015800048C015E046C08B81883809F43FC082E02E
:1015900094E0E52DF0E03196E80DF91D980FA1E0FB
:1015A000B0E0AC0FBD1FA80FB11D2C9121938F5F30
:1015B0008913F5CF8B85833029F58A85811122C067
:1015C0009E012D5F3F4F41E0B301C5010E94DD1335
:1015D000882311F0182F1DC09B81F301818198137E
:1015E00013C09C81828198130FC0808182FF02C04A
:1015F0004394C9CEF4018387842D880F480E439409
:10160000408207C011E005C017E003C083E093E00B
:10161000C0CF812F2B960FB6F894DEBF0FBECDBF83
:10162000DF91CF911F910F91FF90EF90DF90CF90BE
:10163000BF90AF909F908F907F906F905F904F90F2
:101640003F902F900895CF93DF93EC0160E0888165
:101650000E94CE1688E90E94F10880E00E94F108FD
:1016600080E00E94F10880E00E94F10880E00E9482
:10167000F10861E088810E94CE168BE891E0019725
:10168000F1F760E088810E94CE1680EE0E94F1089A
:1016900061E08881DF91CF910C94CE16AF92BF921A
:1016A000CF92DF92EF92FF920F931F93CF93DF932E
:1016B000CDB7DEB760970FB6F894DEBF0FBECDBFD3
:1016C0005C0160E0FC0180810E94CE1680E60E94F1
:1016D000F1088E010F5F1F4F7E01F1E1EF0EF11C4B
:1016E000680180E00E94F10890E0A0E0B0E0F6011F
:1016F00081939193A193B1936F01EE15FF0589F743
:1017000061E0F50180810E94CE1680E090E0DC016E
:10171000F80141915191619171918F01BA2FA92FD7
:10172000982F8827840F951FA61FB71FEE15FF055A
:1017300079F79C01AD0166277727CB01621B730BFC
:10174000840B950B60960FB6F894DEBF0FBECDBF2D
:10175000DF91CF911F910F91FF90EF90DF90CF908D
:10176000BF90AF9008951F920F920FB60F92112461
:101770000BB60F922F933F934F935F936F937F938B
:101780008F939F93AF93BF93EF93FF938091D60670
:1017900087FF05C0109285001092840016C020912A
:1017A000D606022E000C330B8091200A90E02817F9
:1017B00039075CF43091D60625E03203F00111249C
:1017C000EC51F64F808186FD15C08091D6068F5F63
:1017D0008093D6062091D606022E000C330B809102
:1017E000200A90E02817390794F48091D6068C30AF
:1017F0002CF10DC03091D6063203F0011124EC51CA
:10180000F64F808160E08F730E94CE16DECF80910C
:1018100084009091850084349C4918F480E49CE90C
:1018200005C0809184009091850004969093890072
:10183000809388008FEF8093D6062AC04091840061
:10184000509185003091D60625E03203F001112435
:10185000EC51F64F81819281840F951F90938900FE
:10186000809388003091D6063203F0011124EC51A8
:10187000F64F808186FF0CC03091D6063203F0010E
:101880001124EC51F64F808161E08F730E94CE16D7
:10189000FF91EF91BF91AF919F918F917F916F9148
:1018A0005F914F913F912F910F900BBE0F900FBE04
:1018B0000F901F9018950F931F93CF93DF931F9254
:1018C0001F92CDB7DEB78C016BE472E00E94A004DA
:1018D00088ED97E00E947802892B79F088ED97E0F7
:1018E0000E94560289831A8241E050E0BE016F5F78
:1018F0007F4FC8010E94E103EBCFC8010F900F900A
:10190000DF91CF911F910F910895CF93CFB7F894A6
:101910008091D506811127C0E4E9F2E08491EAEDD7
:10192000F2E09491E82FF0E0EE0FFF1FEF5EFD4F25
:10193000A591B491EC91E92321F461E085E30E9443
:10194000CE1661E085E30E94FD168CB580618CBDEA
:101950008CB580648CBD61E084E30E94FD1661E07B
:1019600083E30E94FD168091D5068F5F8093D50694
:10197000CFBFCF9108957F928F929F92AF92BF92E7
:10198000CF92DF92EF92FF920F931F93CF93DF934B
:10199000EC014B01742E5901E114F10419F0F70127
:1019A000408101C040E0D42EF0E1CF9ED00C112444
:1019B00040E062E0CE010E9416094FE768E0CE01E8
:1019C0000E94160940E864E1CE010E941609A401B4
:1019D000672DCE010E94AB134D2D6AE1CE010E940E
:1019E00016094CE062E0CE010E9416096AE1CE01C0
:1019F0000E94F808482F40686AE1CE010E9416094B
:101A000080ED882E87E0982E68E0CE010E94F808CD
:101A1000982F907341F480FD04C081E0881A9108EA
:101A200099F783E072C06CE0CE010E94F808982E0E
:101A3000837109F069C0A114B10409F45DC00115F6
:101A4000110509F459C064E1CE010E94F808882EFE
:101A5000F8018081881508F453C08082882009F439
:101A600041C083E590E00E944F0660E08E850E94B1
:101A7000CE16DD24DA94D80C82E90E94F108CC203D
:101A8000A9F00FEF10E001C0000FCA94EAF782E955
:101A90000E94F108202F2095F50190819223802348
:101AA000092F082B00838824839401C0812C282DC2
:101AB00030E08D1450F48501020F131F82E90E945B
:101AC000F108F80180838394F2CFA20EB31E80E068
:101AD0000E94F108F501808361E08E850E94CE1698
:101AE0000E944E0668E1CE010E94F8088770E1145A
:101AF000F10411F0F701808393FC04C080E005C07D
:101B000084E003C082E001C081E0DF91CF911F91AA
:101B10000F91FF90EF90DF90CF90BF90AF909F908C
:101B20008F907F9008954F925F926F927F928F92E5
:101B30009F92AF92BF92CF92DF92EF92FF92CF939C
:101B4000DF93CDB7DEB728970FB6F894DEBF0FBE90
:101B5000CDBF8FE39AE00E94230B81E49AE00E94BC
:101B6000230B8AE9482E89E9582E89E1682E8EE3F5
:101B7000782E81E49AE00E944E0B6838714081050E
:101B800091050CF085C0B301A2018BE39AE00E949D
:101B900010074AE959E969E17EEB8DE39AE00E947A
:101BA00010078091E0069091E106A091E206B091C5
:101BB000E30689839A83AB83BC838091DC06909192
:101BC000DD06A091DE06B091DF068D839E83AF8394
:101BD000B8878FE39AE00E944E0B88249924540121
:101BE000861A970AA80AB90A8092DC069092DD0646
:101BF000A092DE06B092DF0681E49AE00E944E0BCE
:101C00006B017C016093E0067093E1068093E2062D
:101C10009093E3064AE060E070E0CB010E94E81098
:101C200069E472E085E798E00E94AD1089819A81AD
:101C3000AB81BC81C81AD90AEA0AFB0A8D819E8150
:101C4000AF81B885881A990AAA0ABB0AC701B601EA
:101C5000681979098A099B090E94671E2FE632E1FB
:101C600043E85AE30E94C61E20E030E0A9010E942A
:101C7000BB1F9B01AC01C301B2010E94BB1F2B0122
:101C80003C016AE070E080E090E00E94581771CF5C
:101C900040E050E0BA018BE39AE00E94100740E078
:101CA00050E060E070E88DE39AE00E94100764E67F
:101CB00070E080E090E028960FB6F894DEBF0FBE8B
:101CC000CDBFDF91CF91FF90EF90DF90CF90BF908D
:101CD000AF909F908F907F906F905F904F900C94FB
:101CE0005817FC01248131E030930B0720932D0716
:101CF00010920C0710922E078485682B8FE297E0D4
:101D00000E94B6140C943E11AF92BF92CF92DF9214
:101D1000FF920F931F93CF93DF93CDB7DEB72C972E
:101D20000FB6F894DEBF0FBECDBF8C016B01CB01A7
:101D30000E943309811106C06BE472E0C8010E9461
:101D4000A00458C0C6010E9463038823A9F36BE472
:101D500072E0CE0107960E94A004F12CF601828168
:101D6000F81688F55601AF0CB11CF501838180315E
:101D700018F06FE472E002C06CE472E0CE010196EC
:101D80000E94A0044D815E8169817A81CE0107960F
:101D90000E94E103CE0101960E94590440E1F50141
:101DA0006381CE0101960E945E044D815E8169814E
:101DB0007A81CE0107960E94E103CE0101960E942E
:101DC0005904F394CBCF8F819885F8019183808358
:101DD00089859A85938382838B859C85958384836B
:101DE00018861F821A8619861C861B86CE010796C6
:101DF0000E945904C8012C960FB6F894DEBF0FBE9E
:101E0000CDBFDF91CF911F910F91FF90DF90CF90C9
:101E1000BF90AF900895AF92BF92CF92DF92EF92B2
:101E2000FF920F931F93CF93DF93CDB7DEB7A897A1
:101E30000FB6F894DEBF0FBECDBF7C016BE472E03D
:101E4000CE0183960E94A00460ED77E080E090E0F0
:101E50000E9458178CE30E943917893C91059CF029
:101E60000E942A0860E083E20E94CE1661E085E2CB
:101E70000E94CE16EFCF60E083E20E94CE1661E0B2
:101E800085E20E94CE16CE0101960E945B0C67E9A6
:101E900076E0CE0101960E94C203182FCE01019672
:101EA0000E94590411111EC040E050E0BA018BE3BA
:101EB0009AE00E94100740E050E060E070E88DE397
:101EC0009AE00E9410078CE30E943917883C910524
:101ED00094F661E083E20E94CE1660E085E20E9403
:101EE000CE16F1CF6BE472E0CE014D960E94A004B5
:101EF0008E010F5E1F4F83E4C82E82E0D82EC701EB
:101F000002965C016BE472E0CE014D960E94C20322
:101F1000882309F446C00E942A08DA82C9828CE02C
:101F2000F501DE01139601900D928A95E1F7F70114
:101F300086858F878785888BBE016F5F7F4FC8013D
:101F40000E94840E8D8D9E8D0097A9F069897A89F3
:101F50006115710571F04F8D58A12D893E89421789
:101F6000530738F00E94F6228D899E899AA389A38F
:101F700012C00E94712189899A899E8F8D8F8B89C9
:101F80009C8998A38F8F8D899E899AA389A31A8A89
:101F9000198A1C8A1B8A1E8A1D8AC8010E9459043C
:101FA000B1CFBE01635E7F4FCE0101960E949704C0
:101FB000CE0101960E94E011F82EE92ECE01019685
:101FC0000E9459044AE06E2DCE0101960E945E04E3
:101FD000188E1F8A1A8E198E1C8E1B8EF98A1A8AE9
:101FE000F80101900020E9F73197AF01401B510B38
:101FF000B801CE0147960E942104BE01695E7F4F61
:10200000C8010E9497044D815E8169817A81C8016F
:102010000E94E103811103C0C8010E940F04B801AE
:10202000CE0183960E944204C8010E945904CE0149
:1020300047960E945904CE0101960E945904BE01A0
:102040006D5D7F4FCE0101960E949704CE010196EF
:102050000E94D111CE0101960E94590462E370E002
:1020600080E090E00E945817BE016D5D7F4FCE0169
:1020700001960E949704CE0101960E94D111CE01D3
:1020800001960E94590462E370E080E090E00E94B3
:102090005817BE016D5D7F4FCE0101960E949704D7
:1020A000CE0101960E94D111CE0101960E945904E1
:1020B00040E050E0BA018BE39AE00E94100740E054
:1020C00050E060E070E88DE39AE00E94100760ED58
:1020D00077E080E090E00E945817CE014D960E9474
:1020E0005904CE0183960E945904A8960FB6F8941D
:1020F000DEBF0FBECDBFDF91CF911F910F91FF903B
:10210000EF90DF90CF90BF90AF900895FC01A08931
:10211000B18982E08C93A485B5851C92A685B7858C
:102120008FEC8C93108EA489B58986E08C93A2895C
:10213000B3898C9180618C93A289B3898C918860DA
:102140008C93A289B3898C9180688C930288F389DF
:10215000E02D80818F7D808308956115710551F098
:10216000FB0101900020E9F73197AF01461B570BA7
:102170000C941D0280E090E008950F931F93CF937D
:10218000DF938C01C0E0D0E0F801EC0FFD1F6491FB
:10219000662341F085E798E00E94C402892B11F084
:1021A0002196F2CFCE01DF91CF911F910F9108952B
:1021B000CF93DF930E94BD10EC0169E472E085E7E4
:1021C00098E00E94AD108C0F9D1FDF91CF91089574
:1021D0008F929F92AF92BF920F931F93CF93DF93F3
:1021E000CDB7DEB7A1970FB6F894DEBF0FBECDBF57
:1021F00019A2423008F44AE08E010F5D1F4F842E71
:10220000912CA12CB12CA50194010E94841FE62FD2
:10221000B901CA0101501109EA3014F4E05D01C0AE
:10222000E95CD801EC93232B242B252B61F7B80113
:1022300085E798E00E94AD10A1960FB6F894DEBF36
:102240000FBECDBFDF91CF911F910F91BF90AF9087
:102250009F908F900895CF93DF93BC0185E798E01E
:102260000E94AD10EC0169E472E085E798E00E94FD
:10227000AD108C0F9D1FDF91CF91089530912E07E7
:10228000313208F04BC080910A078111FCCF909148
:102290002D0722E020930A0721E0209309072FEF62
:1022A000209308071092070730930607EDE0F7E048
:1022B000A6EEB6E020E0321721F041914D932F5F5A
:1022C000FACF1092E5062091E506990F922B909394
:1022D000E5069091E406913061F41092E406909145
:1022E000E5069093BB009091BC0093FDF8CF95EC70
:1022F00001C095EE9093BC0090910A079230E1F3F3
:10230000909108079F3F79F080910807803241F053
:1023100080910807803331F084E005C081E003C07C
:1023200082E001C083E010920C0710922E071092F9
:102330000B0708950F931F93CF93DF93162F072F4B
:10234000C2E2DAE09C8521E020930B0790932D07F1
:1023500010920C0710922E07AA85BB85ED91FC9177
:1023600011970190F081E02D682FCD0119958A8594
:102370009B85DC01ED91FC910190F081E02D602FB7
:1023800019958A859B85DC01ED91FC910190F08186
:10239000E02D612F1995DF91CF911F910F910C9432
:1023A0003E11FC01448155816081718188ED97E087
:1023B0000E941D0269E472E088ED97E00C94AD1074
:1023C000CF93DF93EC0166E772E00E94C20388239B
:1023D00031F08CE892E00E942B1191E054C16FE83B
:1023E00072E0CE010E94C20381114CC165EA72E025
:1023F000CE010E94C203811148C16BEB72E0CE0195
:102400000E94C203811143C161ED72E0CE010E94BE
:10241000C20381113EC167EE72E0CE010E94C20389
:10242000811139C16DEF72E0CE010E94C2038111AA
:1024300034C163E173E0CE010E94C20381112FC158
:1024400069E273E0CE010E94C20381112AC16FE3E9
:1024500073E0CE010E94C203811125C165E573E0DE
:10246000CE010E94C203811120C16BE673E0CE0150
:102470000E94C20381111BC161E873E0CE010E947A
:10248000C203811116C167E973E0CE010E94C20345
:10249000811111C16DEA73E0CE010E94C203811166
:1024A0000DC163EC73E0CE010E94C203811108C12B
:1024B00069ED73E0CE010E94C203811103C16FEE8A
:1024C00073E0CE010E94C2038111FEC065E074E09A
:1024D000CE010E94C2038111F9C06BE174E0CE010C
:1024E0000E94C2038111F4C061E374E0CE010E9436
:1024F000C2038111EFC067E474E0CE010E94C20301
:102500008111EBC06DE574E0CE010E94C203811120
:10251000E6C063E774E0CE010E94C2038111E1C00E
:1025200069E874E0CE010E94C2038111DCC06FE94A
:1025300074E0CE010E94C2038111D7C065EB74E044
:10254000CE010E94C2038111D2C06BEC74E0CE01B7
:102550000E94C2038111CDC061EE74E0CE010E94E1
:10256000C2038111C9C067EF74E0CE010E94C203AB
:102570008111C4C06DE075E0CE010E94C2038111DB
:10258000BFC063E275E0CE010E94C2038111BAC0F0
:1025900069E375E0CE010E94C2038111B5C06FE40A
:1025A00075E0CE010E94C2038111B0C065E675E0FE
:1025B000CE010E94C2038111ABC06BE775E0CE0172
:1025C0000E94C2038111A7C061E975E0CE010E949B
:1025D000C2038111A2C067EA75E0CE010E94C20366
:1025E00081119DC06DEB75E0CE010E94C203811187
:1025F00098C063ED75E0CE010E94C203811193C0C3
:1026000069EE75E0CE010E94C20381118EC06FEFAA
:1026100075E0CE010E94C203811189C065E176E0B8
:10262000CE010E94C203811185C06BE276E0CE012B
:102630000E94C203811180C061E476E0CE010E9455
:10264000C20381117BC067E576E0CE010E94C20320
:10265000811176C06DE676E0CE010E94C203811141
:1026600071C063E876E0CE010E94C20381116CC0A4
:1026700069E976E0CE010E94C203811167C090E053
:1026800080E366C092E081E463C093E0FCCF94E015
:10269000FACF95E0F8CF96E0F6CF97E0F4CF91E04F
:1026A0000BC092E009C093E007C094E005C095E03C
:1026B00003C096E001C097E082E44AC091E00BC0FD
:1026C00092E009C093E007C094E005C095E003C024
:1026D00096E001C097E083E43BC091E00BC092E03C
:1026E00009C093E007C094E005C095E003C096E000
:1026F00001C097E084E42CC091E00BC092E009C0D7
:1027000093E007C094E005C095E003C096E001C0E7
:1027100097E085E41DC091E00BC092E009C093E012
:1027200007C094E005C095E003C096E001C097E0C3
:1027300086E40EC091E00BC092E009C093E007C0B0
:1027400094E005C095E003C096E001C097E087E4FF
:10275000DF91CF910895DF92EF92FF920F931F9335
:10276000CF93DF938C01F62ED42EE52E83E590E0F7
:102770000E944F0660E0F80186850E94CE1682E135
:102780000E94F108CD2DDE2DCE018F0D911D7C0113
:10279000EC16FD0621F089910E94F108F9CF61E065
:1027A000F80186850E94CE16DF91CF911F910F917F
:1027B000FF90EF90DF900C944E06CF92DF92EF9255
:1027C000FF920F931F93CF93DF93EC016B01142FB4
:1027D000790140E062E00E94160944E06AE0CE011F
:1027E0000E94160940E864E1CE010E941609A60184
:1027F000612FCE010E94AB1343E062E0CE010E9444
:10280000160908E813E16AE0CE010E94F80882FF89
:1028100013C040E062E0CE010E94160964E4CE01DC
:102820000E94F808F701808362E4CE010E94F80854
:10283000F701818380E004C00150110921F783E092
:10284000DF91CF911F910F91FF90EF90DF90CF908C
:10285000089585ED8093BC008091BC0084FDFCCF81
:1028600010920A07089540917D0B262F30E0240F27
:10287000311D21323105DCF420910A072430C9F4DE
:10288000FC0180E090E0861758F430917D0B219197
:10289000DC01A35AB44FA30FB11D2C930196F3CFC3
:1028A00080917D0B680F60937D0B80E0089581E03F
:1028B000089582E00895089508950895E091380BF1
:1028C0008091370BE81730F4F0E0E35CF44F80813F
:1028D00090E008958FEF9FEF08959091380B8091CD
:1028E000370B981750F4E92FF0E0E35CF44F2081A8
:1028F00030E09F5F9093380B02C02FEF3FEFC9018C
:1029000008958091370B90E02091380B821B91093C
:102910000895CF92DF92EF92FF920F931F93CF9380
:10292000DF937C01CB018A0120910B07222389F0E0
:10293000EB016B01C40ED51ECC15DD0569F0699164
:10294000D701ED91FC910190F081E02DC70119951F
:10295000F3CF642F0E943314C801DF91CF911F91F0
:102960000F91FF90EF90DF90CF900895CF93DF937A
:102970001F92CDB7DEB7698320910B072223D1F0D8
:1029800020912E07203240F021E030E0FC0133831B
:10299000228380E090E015C080910C07E82FF0E0E2
:1029A000E35FF84F998190838F5F80930C0780934A
:1029B0002E0705C061E0CE0101960E94331481E02C
:1029C00090E00F90DF91CF91089590E0FC01319756
:1029D000E231F10508F04EC08827EC57FF4F8F4FCA
:1029E0000C94B21F809180008F7703C0809180008B
:1029F0008F7D80938000089580918000877FF9CF3C
:102A000084B58F7702C084B58F7D84BD0895809191
:102A1000B0008F7703C08091B0008F7D8093B000AD
:102A20000895809190008F7707C0809190008F7DEE
:102A300003C080919000877F8093900008958091DB
:102A4000A0008F7707C08091A0008F7D03C0809188
:102A5000A000877F8093A0000895809120018F7748
:102A600007C0809120018F7D03C080912001877F66
:102A70008093200108950F931F93CF938C01C62F4D
:102A800064600E94710E6C2F6B7FC8010E94710EF2
:102A900083EC90E00197F1F7CF911F910F9108958A
:102AA000FC01A089B1898C91A689B78982FD0FC0EC
:102AB0009C91818D8F5F8F73228D821749F0218DBC
:102AC000DF01A20FB11D5D969C93818F08958C91BB
:102AD00008951F920F920FB60F9211240F900FBE00
:102AE0000F901F9018951F920F920FB60F921124FE
:102AF0000BB60F922F933F934F935F936F937F93F8
:102B00008F939F93AF93BF93EF93FF938091B900FF
:102B1000887F803609F49CC068F5883209F45BC070
:102B200090F4803109F454C038F4882309F4F6C0D5
:102B3000883009F44DC0F6C0883109F44CC08032A9
:102B400009F45DC0EFC0803409F468C048F48033F4
:102B500009F455C0883309F0E5C080930807D8C050
:102B6000803509F44FC0883509F45DC0883409F018
:102B7000D9C0D6C0883909F4C7C0A8F4883709F489
:102B800067C038F4883609F463C0803709F460C040
:102B9000C9C0883809F4B8C0803909F45FC08038EA
:102BA00009F0C0C05BC0803B09F486C038F4803AAD
:102BB00009F466C0883A09F47FC0B4C0803C09F4C7
:102BC000A7C0883C09F4A4C0883B09F48AC0AAC005
:102BD0008091E50610C0909107078091060798172D
:102BE00070F5E091070781E08E0F80930707F0E012
:102BF000EA51F94F80818093BB0085EC86C08093B9
:102C000008078EC0E091070781E08E0F80930707C9
:102C10008091BB00F0E0EA51F94F80839091070763
:102C2000809106076EC0E091070781E08E0F8093C8
:102C300007078091BB00F0E0EA51F94F8083809153
:102C4000090781116DC081E08093E40684EA61C0C8
:102C500083E080930A0710929F0BCFCF80919F0B48
:102C6000803208F051C0E0919F0B81E08E0F80937D
:102C70009F0B8091BB00F0E0E158F44F8083BDCF03
:102C800085EC8093BC0010920A0780919F0B8032E4
:102C900030F4E0919F0BF0E0E158F44F1082609126
:102CA0009F0B70E0E0913B0BF0913C0B8FE79BE0BA
:102CB000199510929F0B36C084E080930A071092FA
:102CC0007E0B10927D0BE091390BF0913A0B199528
:102CD00080917D0B811105C081E080937D0B109266
:102CE0005D0BE0917E0B81E08E0F80937E0BF0E018
:102CF000E35AF44F80818093BB0090917E0B8091CA
:102D00007D0B981708F479CF85E88093BC000AC042
:102D100085EC8093BC0010920A0704C0109208074B
:102D20000E942914FF91EF91BF91AF919F918F91D4
:102D30007F916F915F914F913F912F910F900BBEBB
:102D40000F900FBE0F901F901895CF93DF93282FF1
:102D500030E0F901E551FD4F8491F901EB55FD4F4C
:102D6000D491F901E15AFD4FC491CC2391F0811126
:102D70000E94E514EC2FF0E0EE0FFF1FEB5BFD4F20
:102D8000A591B491EC91ED2381E090E021F480E0F5
:102D900002C080E090E0DF91CF9108951F93CF9320
:102DA000DF93282F30E0F901E551FD4F8491F901BF
:102DB000EB55FD4FD491F901E15AFD4FC491CC235D
:102DC000C1F0162F81110E94E514EC2FF0E0EE0FF8
:102DD000FF1FE55DFD4FA591B4919FB7F8941111C8
:102DE00004C08C91D095D82302C0EC91DE2BDC93EB
:102DF0009FBFDF91CF911F910895CF93DF9390E014
:102E0000FC01EB55FD4F2491FC01E15AFD4F8491EB
:102E1000882361F190E0880F991FFC01EF5EFD4F60
:102E2000C591D491FC01E55DFD4FA591B49161116F
:102E300009C09FB7F8948881209582238883EC91FC
:102E40002E230BC0623061F49FB7F8948881322F33
:102E5000309583238883EC912E2B2C939FBF06C043
:102E60008FB7F894E8812E2B28838FBFDF91CF9105
:102E70000895863308F0865390917B00282F2870A0
:102E8000977F922B90937B008770806480937C0067
:102E900080917A00806480937A0080917A0086FD28
:102EA000FCCF809178002091790090E0922B0895DA
:102EB0008F929F92AF92BF92CF92DF92EF92FF924A
:102EC0006B017C010E94F5184B015C01C114D10417
:102ED000E104F104F1F00E94F518DC01CB0188193E
:102EE0009909AA09BB09883E9340A105B10570F371
:102EF00021E0C21AD108E108F10888EE880E83E0CB
:102F0000981EA11CB11CC114D104E104F10419F7ED
:102F1000DDCFFF90EF90DF90CF90BF90AF909F906C
:102F20008F9008954F925F926F927F928F929F92AF
:102F3000AF92BF92CF92DF92EF92FF92CF93DF9347
:102F4000CDB7DEB729970FB6F894DEBF0FBECDBF61
:102F50006B017C015A018FE39AE00E94230B81E40C
:102F60009AE00E94230BAB2899F42DEC3CEC4CE446
:102F70005EE329833A834B835C839DEC892E9CEC32
:102F8000992E9CE4A92E9EEBB92E31E0398711C011
:102F90008DEC9CECACE4BEEB89839A83AB83BC8361
:102FA0008DEC882E8CEC982E8CE4A82E8EE3B82E17
:102FB000198620E030E044EB53E4C701B6010E94DB
:102FC00027202BE03BE24DE552E40E94C61E27E697
:102FD0003CEA45E053E40E94C61E0E9499206D839E
:102FE0007E838F839887A7019601C701B6010E944F
:102FF000D420882319F06FEA76E01AC02601370141
:10300000E89477F82FEF3FEF4FE75FE7C301B20196
:103010000E94D420811111C02FEF3FEF4FE75FE7EF
:10302000C301B2010E94601E18163CF463EB76E007
:1030300085E798E00E94AD1076C02FEF3FEF4FE795
:103040005FE4C701B6010E94CF2018161CF467EB9D
:1030500076E0EECF2FEF3FEF4FE75FECC701B60111
:103060000E94601E87FDF3CF20E030E0A901C70178
:10307000B6010E94601E87FF09C06DE285E798E0F7
:103080000E94C402F7FAF094F7F8F0942AE037EDC2
:1030900043EA5BE3C701B6010E94BB1F2B013C0161
:1030A0000E94A0206B017C010E94651E9B01AC0167
:1030B000C301B2010E94BA1F2B013C014AE0C701C3
:1030C000B6010E94E8106EE285E798E00E94C40213
:1030D00020E030E040E251E4C301B2010E94C61E8C
:1030E0002B013C010E94A0206B01E12CF12C4AE055
:1030F000C701B6010E94E810C701B6010E94651E13
:103100009B01AC01C301B2010E94BA1F20E030E074
:1031100040E251E40E94C61E0E94A02080E090E0A0
:103120004AE00E94E81069E472E085E798E00E94B6
:10313000AD10C980DA80EB80FC80F7FAF094F7F8E4
:10314000F094998591110CC08FE39AE00E944E0B88
:1031500090958095709561957F4F8F4F9F4F04C0DC
:1031600081E49AE00E944E0B2D813E814F8158856B
:1031700062177307840795076CF4B501A4018BE30C
:103180009AE00E941007B701A6018DE39AE00E9421
:103190001007D7CF40E050E0BA018BE39AE00E94DD
:1031A000100740E050E060E070E88DE39AE00E9494
:1031B00010076CE271E080E090E029960FB6F89479
:1031C000DEBF0FBECDBFDF91CF91FF90EF90DF90BC
:1031D000CF90BF90AF909F908F907F906F905F90B7
:1031E0004F900C9458170E94DF223FB7F8948091BB
:1031F000A70B9091A80BA091A90BB091AA0B26B593
:10320000A89B05C02F3F19F00196A11DB11D3FBF1E
:10321000BA2FA92F982F8827820F911DA11DB11DAC
:10322000BC01CD0142E0660F771F881F991F4A95A8
:10323000D1F708951F920F920FB60F9211242F937A
:103240003F938F939F93AF93BF938091A30B9091E4
:10325000A40BA091A50BB091A60B3091A20B23E07B
:10326000230F2D3720F40196A11DB11D05C026E8BE
:10327000230F0296A11DB11D2093A20B8093A30BD7
:103280009093A40BA093A50BB093A60B8091A70BD2
:103290009091A80BA091A90BB091AA0B0196A11D2A
:1032A000B11D8093A70B9093A80BA093A90BB0938B
:1032B000AA0BBF91AF919F918F913F912F910F904A
:1032C0000FBE0F901F9018958BE29BE00E9459044F
:1032D00081E39BE00C94590410923207109231075D
:1032E00088EE93E0A0E0B0E080933307909334073A
:1032F000A0933507B093360723E132E030933007CF
:1033000020932F0710923E0710923D0780933F07AE
:1033100090934007A0934107B093420725E232E023
:1033200030933C0720933B0745E351E05093480717
:103330004093470744E351E050934A0740934907BD
:1033400040E351E050934C0740934B0741E351E079
:1033500050934E0740934D0742E351E0509350077E
:1033600040934F0746E351E0509352074093510773
:103370001092540710925507109256071092570753
:103380001092DB071092DA078093DC079093DD0739
:10339000A093DE07B093DF073093D9072093D807B7
:1033A00045ED50E05093E5074093E40744ED50E0CD
:1033B0005093E7074093E60740ED50E05093E9074C
:1033C0004093E80741ED50E05093EB074093EA0744
:1033D00042ED50E05093ED074093EC0746ED50E08E
:1033E0005093EF074093EE071092F1071092F20707
:1033F0001092F3071092F407109278081092770851
:103400008093790890937A08A0937B08B0937C0806
:10341000309376082093750885EC90E090938208AD
:103420008093810884EC90E09093840880938308D3
:1034300080EC90E0909386088093850881EC90E082
:10344000909388088093870882EC90E090938A0894
:103450008093890886EC90E090938C0880938B0889
:1034600010928E0810928F08109290081092910876
:103470008091070290910802A0910902B0910A027E
:103480008093430A9093440AA093450AB093460A56
:1034900080910B0290910C02A0910D02B0910E024E
:1034A0008093470A9093480AA093490AB0934A0A26
:1034B00084E080934B0A87E080934C0A10924D0A77
:1034C00084EB80934E0A86E180934F0A88E18093D3
:1034D000500A87E18093510A89E18093520AE09172
:1034E000200AEC3020F08FEF8093530A10C081E067
:1034F0008E0F8093200AE093530A25E0E29FF001AB
:103500001124EC51F64F88EB9BE092838183E0918C
:10351000200AEC3020F08FEF8093540A10C081E035
:103520008E0F8093200AE093540A85E0E89FF00113
:103530001124EC51F64F88EB9BE0928381838CE061
:103540008093220A84E28093230A86E08093240AEF
:1035500085E08093250A8FE18093260A8EE180938F
:10356000270A83E28093280A82E28093290A85E46D
:1035700080932A0A84E480932B0A80E480932E0AA5
:103580001092330A1092340A1092350A1092360AB9
:103590001092370A1092380A1092390A10923A0A99
:1035A000EDE6FAE08FEF9FEFDC01128213821482C6
:1035B0001582168217821086118683879487A587C5
:1035C000B6878787908BA18BB28B1286118210826F
:1035D00073962BE0EB32F20741F78DE090E00E940A
:1035E000D920FC011382128287E392E091838083C9
:1035F000118687E2848384E1828784E0838714864E
:10360000F0936A0AE093690A10926B0A10926C0AAE
:1036100085E280931309109215096BE472E081E34F
:103620009BE00E94A00461E572E08BE29BE00E94B7
:10363000A00483E492E090935A0A8093590A85E3A8
:103640008093670A82E08093680A0895CF93DF939E
:10365000CDB7DEB760970FB6F894DEBF0FBECDBF13
:10366000789484B5826084BD84B5816084BD85B55D
:10367000826085BD85B5816085BD80916E00816069
:1036800080936E001092810080918100826080930F
:103690008100809181008160809381008091800011
:1036A0008160809380008091B10084608093B1003C
:1036B0008091B00081608093B00080919100826021
:1036C000809391008091910081608093910080911E
:1036D00090008160809390008091A100826080932F
:1036E000A1008091A10081608093A1008091A00041
:1036F00081608093A00080912101826080932101EC
:10370000809121018160809321018091200181605D
:103710008093200180917A00846080937A00809168
:103720007A00826080937A0080917A008160809331
:103730007A0080917A00806880937A001092C100AC
:1037400085E798E00E94861061E08091230A0E943C
:10375000FD1660E08091230A0E94CE1660E0809101
:10376000220A0E94FD168FE297E090932D0A809323
:103770002C0A1092380B1092370B10920C071092F3
:103780002E0710920A0781E0809309071092E40641
:1037900061E084E10E94CE1661E085E10E94CE16D0
:1037A0008091B9008E7F8093B9008091B9008D7FA0
:1037B0008093B90088E48093B80085E48093BC00CE
:1037C0008BE594E190933A0B8093390B8CE594E16F
:1037D00090933C0B80933B0B80E090E1A0E0B0E045
:1037E00080932F0A9093300AA093310AB093320A43
:1037F0008AE090E0A0E0B0E08093330A9093340A2E
:10380000A093350AB093360A80E090E0A0E0B0E4DF
:103810008093370A9093380AA093390AB0933A0AF2
:1038200060E070E185E00E949A116FE979E380E041
:103830000E949A1102E21AE0780162E0D62E7BEC37
:10384000A72E77E0B72ED70114969C911497129665
:103850008C91F801818F928F61E00E94FD1661E0EA
:10386000D8015A968C910E94FD16F70190858681A9
:10387000D8015D968C935D975E969C9361E00E9463
:10388000FD1660E0F801868D0E94FD1661E0D8010A
:103890005D968C910E94CE160E94850CC501019701
:1038A000F1F760E0F801858D0E94CE1688E80E944D
:1038B000F10883E00E94F10861E0D8015D968C91E7
:1038C0000E94CE16C5010197F1F7C8014D960E94DE
:1038D000230BDA94BFEFEB1AFB0A0E5F1F4FD110D8
:1038E000B2CF57E4E52E5AE0F52E0BE41AE060E083
:1038F000F70181917F010E94FD16FBE4EF16FAE0CB
:10390000FF06A9F783E4E82E8AE0F82E9DE4C92E8D
:103910009AE0D92E25E0B22E3CE0932E42E0A42E70
:10392000D8018D908D0117968C918C3008F047C08E
:1039300061E0882D0E94FD16F8018781B89EF00194
:103940001124EC51F64F982D9F732081207C822EFC
:10395000892A808213821482692D0E94A61FFCE0AE
:103960008F9FA001112420E030E0BA01620F731F85
:10397000B69EF001B79EF00D1124EC51F64F9081E8
:1039800096FD12C02F5F3F4F2C30310571F781112A
:103990000BC010928000A0928100109285001092BE
:1039A0008400A6BAA0926F00D8011796EC91BE9E33
:1039B000F0011124EC51F64F808180648083F8017E
:1039C00095818381D70152968C93529753969C93FD
:1039D00060E00E94FD1661E0F70183890E94FD16F8
:1039E00060E0D70153968C910E94CE16B2E0EB0EA8
:1039F000F11CC016D10609F093CFF8941092200163
:103A000089E08093210180E293E0909329018093E3
:103A10002801109225011092240182E08093730006
:103A2000789480931209109216098091130960E02E
:103A30000E94FD1685E798E00E94861088ED97E0C9
:103A40000E94861061E083E20E94FD1661E085E23B
:103A50000E94FD160E94850C61E08091670A0E9419
:103A6000FD1661E08091670A0E94CE168091680A77
:103A70008F3F09F4E8C060E00E94FD168091680A5B
:103A80000E94A516892B09F0DEC061E08091680ACA
:103A90000E94FD1660E08091680A0E94CE1683E0C5
:103AA00090E00197F1F761E08091680A0E94CE16DC
:103AB00062E370E080E090E00E9458170FC0115060
:103AC00069F062E370E080E090E00E94581762E0E5
:103AD00089E59AE00E94F80884FDF1CF40E064E2B5
:103AE00089E59AE00E94160940E066E289E59AE0DD
:103AF0000E94160946E268E489E59AE00E941609E8
:103B000040E864E589E59AE00E94160949EA66E51D
:103B100089E59AE00E94160943E068E589E59AE0A4
:103B20000E94160948EE6AE589E59AE00E941609A6
:103B300040E46AE289E59AE00E9416094DE362E2F8
:103B400089E59AE00E94160968E289E59AE00E94F8
:103B5000F808982F9370933039F0482F436068E24B
:103B600089E59AE00E94160964E070E080E090E048
:103B70000E9458176EE689E59AE00E94F808182F0F
:103B800088EB93E00E94BD10612F70E080E090E030
:103B900040E10E94E810103979F038F4123191F0C8
:103BA000183899F48DEA93E012C0113941F01239B6
:103BB00061F485E993E00BC085EA93E008C08DE9E4
:103BC00093E005C081E893E002C084E793E00E949F
:103BD000D81011501E3F20F081E393E00E94D810CE
:103BE00061E083E20E94CE1661E085E20E94CE167B
:103BF00003E412E0CE0101960E945B0C67E976E0D7
:103C0000CE0101960E94C203F82ECE0101960E94B9
:103C10005904FF20A9F01A8309838CE0EBE5FAE050
:103C2000DE01139601900D928A95E1F78091670A63
:103C30008F878091680A888BCE0101960E940B0FB6
:103C40000E943603D7CF4FE062E089E59AE00E94F8
:103C5000160913E036CF4532510520F4423010F0FA
:103C60000C94361EFB011082CB010895BB27FB018B
:103C70005527AA27880F991FAA1FA41710F0A41B65
:103C800083955051B9F7A05DAA3308F0A95DA193BF
:103C9000009779F7B111B1931192CB010C94501E9A
:103CA000DC01FC01672F71917723E1F7329704C0A3
:103CB0007C916D9370836291AE17BF07C8F308952E
:103CC0000E94A21E08F481E00895E89409C097FBC1
:103CD0003EF490958095709561957F4F8F4F9F4FE3
:103CE0009923A9F0F92F96E9BB279395F695879527
:103CF00077956795B795F111F8CFFAF4BB0F11F4EA
:103D000060FF1BC06F5F7F4F8F4F9F4F16C0882390
:103D100011F096E911C0772321F09EE8872F762FC6
:103D200005C0662371F096E8862F70E060E02AF007
:103D30009A95660F771F881FDAF7880F96958795F3
:103D400097F90895990F0008550FAA0BE0E8FEEFC8
:103D500016161706E807F907C0F012161306E4074F
:103D6000F50798F0621B730B840B950B39F40A2648
:103D700061F0232B242B252B21F408950A2609F426
:103D8000A140A6958FEF811D811D08950E94D91E27
:103D90000C944A1F0E943C1F38F00E94431F20F0E1
:103DA000952311F00C94331F0C94391F11240C949B
:103DB0007E1F0E945B1F70F3959FC1F3950F50E02B
:103DC000551F629FF001729FBB27F00DB11D639FCD
:103DD000AA27F00DB11DAA1F649F6627B00DA11D73
:103DE000661F829F2227B00DA11D621F739FB00D19
:103DF000A11D621F839FA00D611D221F749F332789
:103E0000A00D611D231F849F600D211D822F762F21
:103E10006A2F11249F5750409AF0F1F088234AF0FE
:103E2000EE0FFF1FBB1F661F771F881F915050406A
:103E3000A9F79E3F510580F00C94331F0C947E1F10
:103E40005F3FE4F3983ED4F3869577956795B795F1
:103E5000F795E7959F5FC1F7FE2B880F911D96950B
:103E6000879597F9089597F99F6780E870E060E07B
:103E700008959FEF80EC089500240A941616170603
:103E800018060906089500240A941216130614064B
:103E900005060895092E0394000C11F4882352F0AE
:103EA000BB0F40F4BF2B11F460FF04C06F5F7F4F66
:103EB0008F4F9F4F089557FD9058440F551F59F04D
:103EC0005F3F71F04795880F97FB991F61F09F3F07
:103ED00079F087950895121613061406551FF2CF30
:103EE0004695F1DF08C0161617061806991FF1CF80
:103EF00086957105610508940895E894BB276627A7
:103F00007727CB0197F90895A1E21A2EAA1BBB1BB4
:103F1000FD010DC0AA1FBB1FEE1FFF1FA217B30795
:103F2000E407F50720F0A21BB30BE40BF50B661FAB
:103F3000771F881F991F1A9469F76095709580956F
:103F400090959B01AC01BD01CF010895991B79E0CB
:103F500004C0991F961708F0961B881F7A95C9F719
:103F600080950895EE0FFF1F881F8BBF0790F69175
:103F7000E02D19945058BB27AA270E94D21F0C94F9
:103F80004A1F0E943C1F38F00E94431F20F039F462
:103F90009F3F19F426F40C94391F0EF4E095E7FBCB
:103FA0000C94331FE92F0E945B1F58F3BA17620766
:103FB00073078407950720F079F4A6F50C947D1F0C
:103FC0000EF4E0950B2EBA2FA02D0B01B901900134
:103FD0000C01CA01A0011124FF27591B99F0593F78
:103FE00050F4503E68F11A16F040A22F232F342FC0
:103FF0004427585FF3CF469537952795A795F0400E
:104000005395C9F77EF41F16BA0B620B730B840B22
:10401000BAF09150A1F0FF0FBB1F661F771F881FDA
:10402000C2F70EC0BA0F621F731F841F48F4879532
:1040300077956795B795F7959E3F08F0B0CF939524
:10404000880F08F09927EE0F9795879508950E949D
:104050003B200C944A1F0E94431F58F00E943C1FB3
:1040600040F029F45F3F29F00C94331F51110C9458
:104070007E1F0C94391F0E945B1F68F39923B1F3D4
:10408000552391F3951B550BBB27AA27621773077E
:10409000840738F09F5F5F4F220F331F441FAA1F12
:1040A000A9F335D00E2E3AF0E0E832D091505040CE
:1040B000E695001CCAF72BD0FE2F29D0660F771F7C
:1040C000881FBB1F261737074807AB07B0E809F062
:1040D000BB0B802DBF01FF2793585F4F3AF09E3FE7
:1040E000510578F00C94331F0C947E1F5F3FE4F36E
:1040F000983ED4F3869577956795B795F7959F5F2A
:10410000C9F7880F911D9695879597F90895E1E075
:10411000660F771F881FBB1F621773078407BA07D4
:1041200020F0621B730B840BBA0BEE1F88F7E0952F
:1041300008950E94A0206894B1110C947E1F0895E8
:104140000E94631F88F09F5798F0B92F9927B751A5
:10415000B0F0E1F0660F771F881F991F1AF0BA952B
:10416000C9F714C0B13091F00E947D1FB1E00895ED
:104170000C947D1F672F782F8827B85F39F0B93FDF
:10418000CCF3869577956795B395D9F73EF49095DE
:104190008095709561957F4F8F4F9F4F08950E9436
:1041A000A21E08F48FEF08950E94A21E880B990B9F
:1041B00008950F931F93CF93DF938230910510F4EE
:1041C00082E090E0E091AD0BF091AE0B20E030E0AA
:1041D000A0E0B0E0309719F1408151810281138154
:1041E00048175907C8F08417950769F4109731F0FC
:1041F00012960C93129713961C9327C00093AD0B45
:104200001093AE0B22C02115310519F04217530748
:1042100018F49A01BD01EF01DF01F801DBCF211590
:104220003105F9F0281B390B2430310580F48A81DF
:104230009B816115710521F0FB019383828304C08A
:104240009093AE0B8093AD0BFE01329644C0FE01FD
:10425000E20FF31F81939193225031093983288310
:104260003AC02091AB0B3091AC0B232B41F4209141
:104270000302309104023093AC0B2093AB0B2091DE
:104280000102309102022115310541F42DB73EB7EC
:104290004091050250910602241B350BE091AB0BB7
:1042A000F091AC0BE217F307A0F42E1B3F0B28177D
:1042B000390778F0AC014E5F5F4F2417350748F09F
:1042C0004E0F5F1F5093AC0B4093AB0B81939193B8
:1042D00002C0E0E0F0E0CF01DF91CF911F910F919C
:1042E0000895CF93DF93009709F481C0FC013297C2
:1042F00013821282A091AD0BB091AE0B109781F496
:1043000020813181820F931F2091AB0B3091AC0B38
:104310002817390751F5F093AC0BE093AB0B67C04E
:10432000ED0120E030E0CE17DF0740F44A815B81E9
:104330009E0141155105F1F0EA01F5CFD383C28307
:1043400040815181840F951FC817D90759F488817E
:104350009981840F951F0296918380838A819B8126
:10436000938382832115310529F4F093AE0BE093FA
:10437000AD0B3DC0E901FB83EA8349915991C40F1C
:10438000D51FEC17FD0761F480819181840F951F83
:104390000296E90199838883828193819B838A8332
:1043A000E0E0F0E012968D919C911397009719F040
:1043B000FD01DC01F7CF8D919C9111979D012E5F3E
:1043C0003F4F820F931F2091AB0B3091AC0B2817FE
:1043D000390769F4309729F41092AE0B1092AD0BA7
:1043E00002C013821282B093AC0BA093AB0BDF918F
:1043F000CF9108956F927F928F929F92AF92BF92CA
:10440000CF92DF92EF92FF920F931F93CF93DF93A0
:10441000009789F4CB01DF91CF911F910F91FF900D
:10442000EF90DF90CF90BF90AF909F908F907F9054
:104430006F900C94D920FC01E60FF71F9C012250CD
:104440003109E217F30708F4A9C0EC01D9010D9175
:104450001C91119706171707B0F00530110508F4E5
:104460009BC0C80104978617970708F495C00250AF
:104470001109061B170B019311936D937C93CF01C8
:104480000E94712189C05B01A01AB10A4C01800E03
:10449000911EA091AD0BB091AE0B612C712CE12C53
:1044A000F12C109709F446C08D919C911197A81595
:1044B000B905B1F56C0142E0C40ED11CCA14DB048D
:1044C00078F14C018A189B08640142E0C40ED11CAB
:1044D0001296BC9012971396AC91B5E0CB16D1040E
:1044E00040F0B282A38391828082D9016D937C9344
:1044F00009C00E5F1F4F800F911FF90191838083C8
:10450000EB2DFA2FE114F10431F0D7011396FC934F
:10451000EE93129741C0F093AE0BE093AD0B3CC00D
:104520006816790608F43C017D0112960D90BC9145
:10453000A02DB7CF8091AB0B9091AC0B881699064C
:10454000E1F466167706C8F48091010290910202A8
:10455000009741F48DB79EB7409105025091060235
:10456000841B950BE817F907C8F4F093AC0BE093A4
:10457000AB0BF901718360830FC0CB010E94D9207E
:104580007C01009759F0A801BE010E94E422CE01EF
:104590000E947121C70104C0CE0102C080E090E0FA
:1045A000DF91CF911F910F91FF90EF90DF90CF900F
:1045B000BF90AF909F908F907F906F90089581E013
:1045C00090E0F8940C94FD22FB01DC0102C0019004
:1045D0000D9241505040D8F70895FB01DC018D91B8
:1045E000019080190110D9F3990B0895FB01DC01AA
:1045F00001900D920020E1F7089511E0C8EED1E09E
:1046000000E006C0802FFE010E94B21F2196011D0E
:0E461000C93ED10780E00807A9F7F894FFCF54
:10461E00FF0000AF0B2000363738391B1D1A1C0067
:10462E00000000B614891473035D1481146D145EBA
:10463E001400000000C4021D024702110378025646
:10464E00026A02000000009D031D0273031C02009B
:10465E000000009809330963030D0A002030002082
:10466E00004C6520626C7565746F6F74682065739D
:10467E007420666F6E6374696F6E6E656C204C6924
:10468E006F6E656C0A002030342033612036652051
:10469E00333220633320353820383000413100204A
:1046AE0030342032352036652033322063332035C6
:1046BE003820383000203034203237203665203311
:1046CE003220633320353820383000203034203209
:1046DE00342036652033322063332035382038308D
:1046EE0000203034203236203665203332206333BA
:1046FE0020353820383000203034206331203666A3
:10470E0020333220633320353820383000203034C7
:10471E0020626620366620333220633320353820FF
:10472E003830002030342063322036662033322079
:10473E006333203538203830002030342063302069
:10474E00366620333220633320353820383000204F
:10475E0030342064362036662033322063332035E1
:10476E003820383000203034203163203666203334
:10477E003220633320353820383000203034203258
:10478E0030203666203332206333203538203830DF
:10479E0000203034203164203666203332206333DB
:1047AE00203538203830002030342033342036661F
:1047BE002033322063332035382038300020303417
:1047CE0020333120366620333220633320353820B3
:1047DE0038300020303420356120366620333220C8
:1047EE0063332035382038300020303420356420B3
:1047FE00366620333220633320353820383000209F
:10480E003034203562203666203332206333203533
:10481E0038203830002030342037302036662033B0
:10482E0032206333203538203830002030342036A3
:10483E0065203666203332206333203538203830F9
:10484E000020303420333520366620333220633357
:10485E002035382038300020303420333220366670
:10486E002033322063332035382038300020303466
:10487E0020343820366620333220633320353820FA
:10488E003830002030342034362036662033322043
:10489E00633320353820383000203034203439202E
:1048AE0036662033322063332035382038300020EE
:1048BE0030342031302036652033322063332035BA
:1048CE003820383000203034203132203665203305
:1048DE0032206333203538203830002030342030F9
:1048EE006620366520333220633320353820383049
:1048FE0000203034203131203665203332206333AE
:10490E00203538203830002030342031652036668E
:10491E0020333220633320353820383000203034B5
:10492E00203338203665203332206333203538204B
:10493E003830002030342033622036652033322068
:10494E00633320353820383000203034203339207E
:10495E00366520333220633320353820383000203E
:10496E0030342034652036652033322063332035D1
:10497E003820383000203034203463203665203320
:10498E003220633320353820383000203034203642
:10499E0035203665203332206333203538203830C9
:1049AE0000203034203632203665203332206333F7
:1049BE00203538203830002030342036342036650B
:1049CE002033322063332035382038300020303405
:1049DE00203464203665203332206333203538206E
:1049EE0038300020303420346620366520333220B3
:1049FE0063332035382038300020303420373720CC
:104A0E00366520333220633320353820383000208D
:104A1E003034203739203665203332206333203549
:104A2E003820383000203034203736203665203399
:104A3E003220633320353820383000203034203790
:104A4E003820366520333220633320353820383015
:104A5E000020303420363320366520333220633345
:104A6E0020353820383000203034206666203666F7
:104A7E002033322063332035382038300020303454
:104A8E0020313420366620333220633320353820EF
:104A9E003831002030342031322036662033322037
:104AAE006333203538203831002030342031352022
:104ABE003666203332206333203538203831006E8D
:0C4ACE00616E00696E66006F7666000085
:00000001FF
