:100000000C9461010C9492010C9492010C94920155
:100010000C9492010C9492010C9492010C94920114
:100020000C9492010C9431090C9431090C9431090F
:100030000C9492010C9447040C9492010C9492013C
:100040000C9492010C94BF060C9492010C949201B2
:100050000C9492010C9492010C9492010C94FD0367
:100060000C9492010C94B6050C948C050C9492019E
:100070000C9492010C9492010C9492010C949201B4
:100080000C9492010C9492010C9492010C949201A4
:100090000C9492010C9492010C9492010C943B09E3
:1000A0000C9492010C9492010C9492010C94920184
:1000B0000C9492010C9492010C9492010C94E00522
:1000C0000C9492010C9492010C9492010C94620590
:1000D0000C9438050C9492010C940E050C94E404D5
:1000E0000C949201C203C503B403B803BE03FC031E
:1000F000C903CD03D303D703DB03E103E503E9031E
:10010000FC03EF03F303F7030C9482030C94F7034F
:100110000C94D3030C946C0D0C94D6020C94EF0346
:100120000C94B8030C9423080C94C9030C94E103B9
:100130000C9423030C94E9030C94BE030C94CD039C
:100140000C94780D0C947C030C94C2030C94B403AF
:100150000C94DB030C942F020C947D030C947C0212
:100160000C941B080C94E5030C94F3030C94F50712
:100170000C9459020C94D7030C94F7070C94FC03CD
:100180000C94C5030C9468020C94F6070C94500868
:100190000C9407080C94F8070C948A0200002000C5
:1001A0002300260029002C002F003200000100004F
:1001B0000301060109010200002100240027002A92
:1001C000002D003000330001010000040107010A86
:1001D0000100002200250028002B002E00310034F1
:1001E0000002010000050108010B010505050507D6
:1001F0000508080808020202020A0A0808040404A2
:1002000004010101010101010103030303030303CD
:1002100003040707070C0C0C0C0C0C0C0C0202025C
:100220000206060606060606060B0B0B0B0B0B0B4F
:100230000B010210202008081020401020408002EE
:10024000010201080402010102040810204080801C
:1002500040201008040201800402018040201008A0
:100260000402010804020101020408102040800178
:100270000204081020408000000A0B02090C0D0E39
:100280000807030401000000000000000000000057
:10029000000000000000000000000000000000005E
:1002A000000000121110000000000000000000001B
:1002B0000000000000000000000000000000780DB9
:1002C0006C0D11241FBECFEFD1E2DEBFCDBF00E029
:1002D0000CBF12E0A0E0B2E0EAE8F3E200E00BBFFE
:1002E00002C007900D92A836B107D9F727E0A8E61B
:1002F000B2E001C01D92A334B207E1F711E0C0E6FD
:10030000D1E000E006C021970109802FFE010E9484
:10031000900FCF35D10780E00807A9F70E949C0A0B
:100320000C94B3110C940000CF93DF9390E0FC0188
:10033000EF5CFD4F2491FC01E551FE4F8491882331
:1003400061F190E0880F991FFC01E954FE4FC591BF
:10035000D491FC01EF52FE4FA591B491611109C0F7
:100360009FB7F8948881209582238883EC912E236F
:100370000BC0623061F49FB7F8948881322F3095BA
:1003800083238883EC912E2B2C939FBF06C08FB7BD
:10039000F894E8812E2B28838FBFDF91CF910895A9
:1003A0003FB7F89480918D0290918E02A0918F02B8
:1003B000B091900226B5A89B05C02F3F19F0019679
:1003C000A11DB11D3FBFBA2FA92F982F8827820FDB
:1003D000911DA11DB11DBC01CD0142E0660F771F2B
:1003E000881F991F4A95D1F708958F929F92AF92D7
:1003F000BF92CF92DF92EF92FF926B017C010E943D
:10040000D0014B015C01C114D104E104F104F1F00D
:100410000E94D001DC01CB0188199909AA09BB0906
:10042000883E9340A105B10570F321E0C21AD108BE
:10043000E108F10888EE880E83E0981EA11CB11C2B
:10044000C114D104E104F10419F7DDCFFF90EF905E
:10045000DF90CF90BF90AF909F908F900895CF92F4
:10046000DF92EF92FF920F931F93CF93DF936C0174
:100470007A018B01C0E0D0E0CE15DF0581F0D80114
:100480006D918D01D601ED91FC910190F081E02DEF
:10049000C6011995892B11F02196EECF7E01C70177
:1004A000DF91CF911F910F91FF90EF90DF90CF9050
:1004B0000895FC01538D448D252F30E0842F90E06A
:1004C000821B930B541710F0CF960895019708954F
:1004D000FC01918D828D981761F0828DDF01A80F4C
:1004E000B11D5D968C91928D9F5F9F73928F90E06E
:1004F00008958FEF9FEF0895FC01918D828D9817DD
:1005000031F0828DE80FF11D858D90E008958FEF19
:100510009FEF0895FC01918D228D892F90E0805CE2
:100520009F4F821B91098F739927089588EA92E063
:100530000E948A0221E0892B09F420E0822F08958D
:1005400085E493E00E948A0221E0892B09F420E0EF
:10055000822F089582EE93E00E948A0221E0892B87
:1005600009F420E0822F0895FC01848DDF01A80F9B
:10057000B11DA35ABF4F2C91848D90E001968F73CB
:100580009927848FA689B7892C93A089B1898C91EA
:10059000837080648C93938D848D981306C0028839
:1005A000F389E02D80818F7D80830895EF92FF9203
:1005B0000F931F93CF93DF93EC0181E0888F9B8D86
:1005C0008C8D981305C0E889F989808185FD26C046
:1005D000F62E0B8D10E00F5F1F4F0F731127E02ECB
:1005E0008C8DE8120CC00FB607FCFACFE889F989A8
:1005F000808185FFF5CFCE010E94B402F1CF8B8DB3
:10060000FE01E80FF11DE35AFF4FF0829FB7F89407
:100610000B8FEA89FB89808180620AC09FB7F894BA
:10062000EE89FF896083E889F9898081837080641D
:1006300080839FBF81E090E0DF91CF911F910F9168
:10064000FF90EF900895CF93DF93EC01888D88237E
:10065000C9F0EA89FB89808185FD05C0A889B9892F
:100660008C9186FD0FC00FB607FCF5CF808185FF0A
:10067000F2CFA889B9898C9185FFEDCFCE010E9478
:10068000B402E7CFDF91CF910895E0E0F0E0199454
:1006900080E090E0892B21F00E94AA02811119C00C
:1006A00080E090E0892B41F080E090E0892B21F000
:1006B0000E940000811110C00E94A00281110FC091
:1006C00080E090E0892B81F00E94960281110AC09F
:1006D00008950E940000E4CF0E940000EDCF0E9428
:1006E0004503EECF0C94000008958EBD00000DB4BC
:1006F00007FEFDCF8EB50895089580E090E008953F
:100700000E949E110F931F93CF93DF938C01C62FEE
:10071000D62FD07FD1606D2F0E94F0086D2FC801B9
:100720000E94030980E1C89FB0011124C62FC16057
:100730006C2FC8010E94F0086C2FC8010E940309A9
:1007400081E090E0DF91CF911F910F91089590E0AB
:10075000FC013197E231F10508F04EC08827EE58D0
:10076000FF4F8F4F0C94900F809180008F7703C0C4
:10077000809180008F7D809380000895809180001B
:10078000877FF9CF84B58F7702C084B58F7D84BD14
:1007900008958091B0008F7703C08091B0008F7D65
:1007A0008093B0000895809190008F7707C080916A
:1007B00090008F7D03C080919000877F8093900090
:1007C00008958091A0008F7707C08091A0008F7D51
:1007D00003C08091A000877F8093A000089580913E
:1007E00020018F7707C0809120018F7D03C0809109
:1007F0002001877F8093200108951F920F920FB6EA
:100800000F9211242F933F938F939F93AF93BF9396
:100810008091890290918A02A0918B02B0918C0202
:100820003091880223E0230F2D3720F40196A11D7B
:10083000B11D05C026E8230F0296A11DB11D20930E
:1008400088028093890290938A02A0938B02B093CE
:100850008C0280918D0290918E02A0918F02B091B6
:1008600090020196A11DB11D80938D0290938E027E
:10087000A0938F02B0939002BF91AF919F918F91FF
:100880003F912F910F900FBE0F901F9018951F92C0
:100890000F920FB60F9211240BB60F922F933F9326
:1008A0004F935F936F937F938F939F93AF93BF9378
:1008B000EF93FF938091830290918402A09185022F
:1008C000B0918602892B8A2B8B2B49F19091820261
:1008D000809100008927809300008091830290918D
:1008E0008402A0918502B0918602181619061A0694
:1008F0001B060CF056C08091830290918402A09157
:100900008502B09186020197A109B1098093830203
:1009100090938402A0938502B093860242C0809196
:100920000002E6EBF1E0E4919FEF90930002E230E9
:10093000C9F050F4EE2399F0E13081F590916F0009
:100940009D7F90936F002AC0E43019F1E0F0E5300C
:1009500029F5909173009D7F909373001FC01092B2
:100960006E001CC0909170009D7F9093700091E08C
:100970009093B0009091B100987F94609093B100F3
:100980001092B3000BC0909171009D7F9093710005
:1009900005C0909172009D7F9093720060E00E946C
:1009A0006D0AFF91EF91BF91AF919F918F917F91D0
:1009B0006F915F914F913F912F910F900BBE0F90D0
:1009C0000FBE0F901F9018951F920F920FB60F92A7
:1009D00011240BB60F922F933F934F935F936F9316
:1009E0007F938F939F93AF93BF93EF93FF9388EA87
:1009F00092E00E94B402FF91EF91BF91AF919F915D
:100A00008F917F916F915F914F913F912F910F90B7
:100A10000BBE0F900FBE0F901F9018951F920F9254
:100A20000FB60F9211240BB60F922F933F934F9353
:100A30005F936F937F938F939F93AF93BF93EF9346
:100A4000FF9388EA92E00E941809FF91EF91BF910D
:100A5000AF919F918F917F916F915F914F913F9156
:100A60002F910F900BBE0F900FBE0F901F901895F7
:100A70001F920F920FB60F9211240BB60F922F9365
:100A80003F934F935F936F937F938F939F93AF9316
:100A9000BF93EF93FF9385E493E00E94B402FF912C
:100AA000EF91BF91AF919F918F917F916F915F91E6
:100AB0004F913F912F910F900BBE0F900FBE0F9053
:100AC0001F9018951F920F920FB60F9211240BB61C
:100AD0000F922F933F934F935F936F937F938F93D7
:100AE0009F93AF93BF93EF93FF9385E493E00E94AE
:100AF0001809FF91EF91BF91AF919F918F917F91D5
:100B00006F915F914F913F912F910F900BBE0F907E
:100B10000FBE0F901F9018951F920F920FB60F9255
:100B200011240BB60F922F933F934F935F936F93C4
:100B30007F938F939F93AF93BF93EF93FF9382EE37
:100B400093E00E94B402FF91EF91BF91AF919F910A
:100B50008F917F916F915F914F913F912F910F9066
:100B60000BBE0F900FBE0F901F9018951F920F9203
:100B70000FB60F9211240BB60F922F933F934F9302
:100B80005F936F937F938F939F93AF93BF93EF93F5
:100B9000FF9382EE93E00E941809FF91EF91BF91BD
:100BA000AF919F918F917F916F915F914F913F9105
:100BB0002F910F900BBE0F900FBE0F901F901895A6
:100BC0001F920F920FB60F9211240BB60F922F9314
:100BD0003F934F935F936F937F938F939F93AF93C5
:100BE000BF93CF93DF93EF93FF932091800430E086
:100BF000F901E958FD4F8491F901EF5CFD4FD49163
:100C0000F901E551FE4FC491CC2379F081110E9486
:100C1000A703EC2FF0E0EE0FFF1FE456FE4FA59167
:100C2000B491EC91ED2381E009F480E020918404FB
:100C3000309185042F5F3F4F3093850420938404C7
:100C400090918304953618F096E090937F049091EC
:100C50007F049430C9F128F4923069F09330D1F0D8
:100C60005EC0953009F451C0963009F058C091E04B
:100C70009093500551C0811152C02091840430914D
:100C800085042436310508F442C0109250051092B4
:100C900083041CC0813009F042C0E091830491E0DC
:100CA0009E0F90938304F0E020918404309185049A
:100CB000EE0FFF1FE158FB4F30872783109285040A
:100CC0001092840494E029C0811117C0E09183043C
:100CD00091E09E0F90938304F0E020918404309182
:100CE0008504EE0FFF1FE158FB4F308727831092DA
:100CF00085041092840493E010C020918404309104
:100D000085042536310558F007C0811108C01092BE
:100D100085041092840403C095E090937F04909121
:100D200082049923B9F081110AC08091810488233B
:100D300021F08091810461E009C02F9A0BC080915D
:100D40008104882331F08091810460E00E946D0A63
:100D500001C02F98FF91EF91DF91CF91BF91AF919B
:100D60009F918F917F916F915F914F913F912F91C3
:100D70000F900BBE0F900FBE0F901F9018951F92F3
:100D80000F920FB60F9211240BB60F922F933F9331
:100D90004F935F936F937F938F939F93AF93BF9383
:100DA000EF93FF938091810287FF05C01092850029
:100DB0001092840016C020918102022E000C330B89
:100DC00080918D0590E0281739075CF430918102FD
:100DD00025E03203F0011124EF5AFA4F808186FD9D
:100DE00015C0809181028F5F8093810220918102E2
:100DF000022E000C330B80918D0590E028173907E7
:100E000094F4809181028C302CF10DC030918102DC
:100E10003203F0011124EF5AFA4F808160E08F73A2
:100E20000E946D0ADECF8091840090918500843409
:100E30009C4918F480E49CE905C08091840090915D
:100E40008500049690938900809388008FEF8093AB
:100E500081022AC040918400509185003091810226
:100E600025E03203F0011124EF5AFA4F818192817B
:100E7000840F951F909389008093880030918102A0
:100E80003203F0011124EF5AFA4F808186FF0CC023
:100E9000309181023203F0011124EF5AFA4F808120
:100EA00061E08F730E946D0AFF91EF91BF91AF9146
:100EB0009F918F917F916F915F914F913F912F9172
:100EC0000F900BBE0F900FBE0F901F901895309192
:100ED0009B02313208F04BC0809199028111FCCF06
:100EE0009091760622E02093990221E020939802C7
:100EF0002FEF209354061092530630935206E6E5E6
:100F0000F6E0A2E3B6E020E0321721F041914D93E4
:100F10002F5FFACF1092310620913106990F922B54
:100F20009093310690919702913061F4109297025C
:100F3000909131069093BB009091BC0093FDF8CF47
:100F400095EC01C095EE9093BC009091990292307F
:100F5000E1F3909154069F3F79F0809154068032DE
:100F600041F080915406803331F084E005C081E087
:100F700003C082E001C083E010929A0210929B02AB
:100F800010925506089585ED8093BC008091BC00B9
:100F900084FDFCCF10929902089540910C06262FF3
:100FA00030E0240F311D21323105DCF4209199020B
:100FB0002430C9F4FC0180E090E0861758F43091A9
:100FC0000C062191DC01A451BA4FA30FB11D2C9343
:100FD0000196F3CF80910C06680F60930C0680E0B9
:100FE000089581E0089582E0089508950895089590
:100FF000E091920280919102E81730F4F0E0E4531E
:10100000FA4F808190E008958FEF9FEF08959091BF
:10101000920280919102981750F4E92FF0E0E45386
:10102000FA4F208130E09F5F9093920202C02FEF31
:101030003FEFC90108958091910290E020919202C2
:10104000821B91090895CF92DF92EF92FF920F9346
:101050001F93CF93DF937C01CB018A01209155062A
:10106000222389F0EB016B01C40ED51ECC15DD05E2
:1010700069F06991D701ED91FC910190F081E02D2B
:10108000C7011995F3CF642F0E94CD07C801DF91E6
:10109000CF911F910F91FF90EF90DF90CF90089527
:1010A000CF93DF931F92CDB7DEB7698320915506AA
:1010B0002223D1F020919B02203240F021E030E049
:1010C000FC013383228380E090E015C080919A0276
:1010D000E82FF0E0EA5AF94F998190838F5F80936F
:1010E0009A0280939B0205C061E0CE0101960E94A6
:1010F000CD0781E090E00F90DF91CF910895FC0142
:10110000A089B18982E08C93A485B5851C92A685BF
:10111000B7858FEC8C93108EA489B58986E08C936B
:10112000A289B3898C9180618C93A289B3898C91B7
:1011300088608C93A289B3898C9180688C93028893
:10114000F389E02D80818F7D8083089542E050E017
:1011500064E672E00C942F02FC01448155816081A9
:10116000718185E493E00E942F0285E493E00C9462
:10117000A6080F931F93CF93DF93162F072FCFE867
:10118000D5E09C8521E02093550690937606109239
:101190009A0210929B02AA85BB85ED91FC91119752
:1011A0000190F081E02D682FCD0119958A859B85EE
:1011B000DC01ED91FC910190F081E02D602F1995FB
:1011C0008A859B85DC01ED91FC910190F081E02DF9
:1011D000612F1995DF91CF911F910F910C946707A3
:1011E000FC01248131E0309355062093760610925D
:1011F0009A0210929B028485682B8CE992E00E94EF
:1012000050080C9467070F931F93CF938C01C62F40
:1012100064600E94F0086C2F6B7FC8010E94F00888
:1012200083EC90E00197F1F7CF911F910F91089512
:10123000FC01A089B1898C91A689B78982FD0FC074
:101240009C91818D8F5F8F73228D821749F0218D44
:10125000DF01A20FB11D5D969C93818F08958C9143
:1012600008951F920F920FB60F9211240F900FBE88
:101270000F901F9018951F920F920FB60F92112486
:101280000BB60F922F933F934F935F936F937F9380
:101290008F939F93AF93BF93EF93FF938091B90088
:1012A000887F803609F49CC068F5883209F45BC0F9
:1012B00090F4803109F454C038F4882309F4F6C05E
:1012C000883009F44DC0F6C0883109F44CC0803232
:1012D00009F45DC0EFC0803409F468C048F480337D
:1012E00009F455C0883309F0E5C080935406D8C08E
:1012F000803509F44FC0883509F45DC0883409F0A1
:10130000D9C0D6C0883909F4C7C0A8F4883709F411
:1013100067C038F4883609F463C0803709F460C0C8
:10132000C9C0883809F4B8C0803909F45FC0803872
:1013300009F0C0C05BC0803B09F486C038F4803A35
:1013400009F466C0883A09F47FC0B4C0803C09F44F
:10135000A7C0883C09F4A4C0883B09F48AC0AAC08D
:101360008091310610C090915306809152069817D3
:1013700070F5E091530681E08E0F80935306F0E004
:10138000EE5CF94F80818093BB0085EC86C0809332
:1013900054068EC0E091530681E08E0F8093530671
:1013A0008091BB00F0E0EE5CF94F80839091530692
:1013B000809152066EC0E091530681E08E0F8093BB
:1013C00053068091BB00F0E0EE5CF94F8083809182
:1013D000980281116DC081E08093970284EA61C018
:1013E00083E08093990210922E06CFCF80912E0633
:1013F000803208F051C0E0912E0681E08E0F80937C
:101400002E068091BB00F0E0E25FF94F8083BDCFF4
:1014100085EC8093BC001092990280912E06803258
:1014200030F4E0912E06F0E0E25FF94F1082609117
:101430002E0670E0E0919502F09196028EE096E023
:10144000199510922E0636C084E08093990210926E
:101450000D0610920C06E0919302F09194021995FA
:1014600080910C06811105C081E080930C061092DA
:10147000EC05E0910D0681E08E0F80930D06F0E003
:10148000E451FA4F80818093BB0090910D068091CA
:101490000C06981708F479CF85E88093BC000AC041
:1014A00085EC8093BC001092990204C010925406FF
:1014B0000E94C307FF91EF91BF91AF919F918F91D0
:1014C0007F916F915F914F913F912F910F900BBE44
:1014D0000F900FBE0F901F9018951F93CF93DF931F
:1014E000282F30E0F901E958FD4F8491F901EF5CB4
:1014F000FD4FD491F901E551FE4FC491CC23C1F0C9
:10150000162F81110E94A703EC2FF0E0EE0FFF1FB2
:10151000EF52FE4FA591B4919FB7F894111104C0FA
:101520008C91D095D82302C0EC91DE2BDC939FBF29
:10153000DF91CF911F910895CF93DF9300D000D01A
:10154000CDB7DEB7789484B5826084BD84B5816000
:1015500084BD85B5826085BD85B5816085BD80917E
:101560006E00816080936E001092810080918100F6
:1015700082608093810080918100816080938100EE
:10158000809180008160809380008091B1008460B0
:101590008093B1008091B00081608093B000809111
:1015A000910082608093910080919100816080938E
:1015B0009100809190008160809390008091A100C3
:1015C00082608093A1008091A10081608093A1003E
:1015D0008091A00081608093A000809121018260B1
:1015E000809321018091210181608093210180916C
:1015F000200181608093200180917A008460809333
:101600007A0080917A00826080937A0080917A00DB
:10161000816080937A0080917A00806880937A005C
:101620001092C10082EE93E00E947F0861E08091F9
:1016300090050E94940160E0809190050E946D0ADF
:1016400060E080918F050E9494018CE992E0909374
:101650009A0580939905109292021092910210922D
:101660009A0210929B021092990281E08093980254
:101670001092970261E084E10E946D0A61E085E1C9
:101680000E946D0A8091B9008E7F8093B90080918D
:10169000B9008D7F8093B90088E48093B80085E419
:1016A0008093BC0085EF97E090939402809393021F
:1016B00086EF97E0909396028093950280E090E108
:1016C000A0E0B0E080939C0590939D05A0939E05BB
:1016D000B0939F058AE090E0A0E0B0E08093A00581
:1016E0009093A105A093A205B093A30580E090E09C
:1016F000A0E0B0E48093A4059093A505A093A6056F
:10170000B093A70560E070E185E00E94B9086FE939
:1017100079E380E00E94B9080FE815E0780172E0F3
:10172000572EE0E26E2EE2E07E2EF6E68F2EF2E0FD
:101730009F2EABECCA2EA7E0DA2EBBE8AB2EBB2463
:10174000B394D70114969C91149712968C91F8013A
:10175000818F928F61E00E94940161E0D8015A96D6
:101760008C910E949401F70190858681D8015D9645
:101770008C935D975E969C9361E00E94940160E07B
:10178000F801868D0E94940161E0D8015D968C91EC
:101790000E946D0A4FB6F89480918702811126C08D
:1017A000F3018491F4012491E82FF0E0EE0FFF1F84
:1017B000E954FE4FA591B4919C91822F892321F485
:1017C00061E085E30E946D0A61E085E30E94940177
:1017D0008CB580618CBD8CB580648CBD61E084E388
:1017E0000E94940161E083E30E949401809187024A
:1017F0008F5F809387024FBEC6010197F1F760E0CB
:10180000D8015D968C910E946D0A88E80E9475034C
:1018100083E00E94750361E0F801858D0E946D0AE6
:10182000C6010197F1F760E0D8015D968C910E94A6
:101830006D0A88E90E94750380E00E94750380E0CC
:101840000E94750380E00E94750380E00E9475038A
:1018500061E0F801858D0E946D0AC5010197F1F7DD
:1018600060E0D8015D968C910E946D0A80EE0E9426
:10187000750361E0F801858D0E946D0A5A94FFEFAF
:10188000EF1AFF0A0E5F1F4F51105BCF04EB15E0FC
:1018900058EBE52E55E0F52E60E0D8018D918D01D5
:1018A0000E949401E016F106B9F780EBE82E85E07E
:1018B000F82E92EBC92E95E0D92E870125E0B22EA5
:1018C0003CE0932E42E0A42EF80180898C3008F091
:1018D00049C0808461E0882D0E949401D80150960F
:1018E0008C91B89EF0011124EF5AFA4F982D9F73F6
:1018F0002081207C822E892A808213821482692D85
:101900000E94840FBCE08B9FA001112420E030E0F6
:10191000BA01620F731FB69EF001B79EF00D11243D
:10192000EF5AFA4F908196FD12C02F5F3F4F2C3037
:10193000310571F781110BC010928000A0928100D7
:101940001092850010928400A6BAA0926F00D80170
:101950005096EC91BE9EF0011124EF5AFA4F80810F
:1019600080648083F80196858485D70152968C9394
:10197000529753969C9360E00E94940161E0F701B6
:1019800083890E94940160E0D70153968C910E9454
:101990006D0A0F5F1F4FB2E0EB0EF11CC016D106AF
:1019A00009F092CFF8941092200189E080932101F0
:1019B00080E293E090932901809328011092250101
:1019C0001092240182E080937300789480937F04C6
:1019D000109283048091800460E00E94940182EE62
:1019E00093E00E947F0885E493E00E947F081A82BA
:1019F00019821C821B821E821D82E090C605F09017
:101A0000C705E114F10421F10091CA051091CB053D
:101A1000B8016F5F7F4F80E090E00E94B91000979F
:101A200059F09A8389831C830B832D813E81232B5C
:101A300031F5FC01108223C089819A81009711F051
:101A40000E9430101A8219821E821D821C821B8203
:101A5000CE0101960E94AC0889819A810E943010C3
:101A600060ED77E080E090E00E94F5016AE070E0D0
:101A700080E090E00E94F5010E944803B8CF1E83E9
:101A80000D83B7010E94AC11E3CF0F931F93CF9347
:101A9000DF93EC0188819981009729F02A813B81AD
:101AA0002617370788F48B016F5F7F4F0E94B910AC
:101AB000009761F0998388831B830A832C813D8181
:101AC000232B11F4FC01108281E001C080E0DF9142
:101AD000CF911F910F9108958091C6059091C705F0
:101AE0000E9430108091390790913A070C94301081
:101AF00010929F0210929E0288EE93E0A0E0B0E068
:101B00008093A0029093A102A093A202B093A3029B
:101B100023E132E030939D0220939C021092AB02AD
:101B20001092AA028093AC029093AD02A093AE02F1
:101B3000B093AF0225E232E03093A9022093A802CD
:101B400045E351E05093B5024093B40244E351E0C1
:101B50005093B7024093B60240E351E05093B9026C
:101B60004093B80241E351E05093BB024093BA0264
:101B700042E351E05093BD024093BC0246E351E082
:101B80005093BF024093BE021092C1021092C20253
:101B90001092C3021092C40210924803109247039D
:101BA0008093490390934A03A0934B03B0934C0353
:101BB000309346032093450345ED50E05093520384
:101BC0004093510344ED50E050935403409353032A
:101BD00040ED50E0509356034093550341ED50E0E3
:101BE000509358034093570342ED50E050935A03EB
:101BF0004093590346ED50E050935C0340935B03E0
:101C000010925E0310925F031092600310926103C2
:101C10001092E5031092E4038093E6039093E703A8
:101C2000A093E803B093E9033093E3032093E20326
:101C300085EC90E09093EF038093EE0384EC90E0CA
:101C40009093F1038093F00380EC90E09093F30382
:101C50008093F20381EC90E09093F5038093F4037A
:101C600082EC90E09093F7038093F60386EC90E08B
:101C70009093F9038093F8031092FB031092FC03F6
:101C80001092FD031092FE038091070290910802CA
:101C9000A0910902B0910A028093B0059093B1051A
:101CA000A093B205B093B30580910B0290910C0202
:101CB000A0910D02B0910E028093B4059093B505EA
:101CC000A093B605B093B70584E08093B80587E08C
:101CD0008093B9051092BA0584EB8093BB0586E129
:101CE0008093BC0588E18093BD0587E18093BE05A4
:101CF00089E18093BF05E0918D05EC3020F08FEFF6
:101D00008093C00510C081E08E0F80938D05E09315
:101D1000C00585E0E89FF0011124EF5AFA4F88EBE7
:101D20009BE092838183E0918D05EC3020F08FEF72
:101D30008093C10510C081E08E0F80938D05E093E4
:101D4000C10585E0E89FF0011124EF5AFA4F88EBB6
:101D50009BE0928381838CE080938F0584E2809363
:101D6000900586E08093910585E0809392058FE150
:101D7000809393058EE18093940583E2809395058B
:101D800082E28093960585E48093970584E48093AE
:101D9000980580E480939B051092A0051092A10500
:101DA0001092A2051092A3051092A4051092A50509
:101DB0001092A6051092A705EBE7F6E029E337E0BD
:101DC0008FEF9FEFDC01128213821482158216823C
:101DD00017821086118683879487A587B6878787A1
:101DE000908BA18BB28B12861182108273962E1764
:101DF0003F0749F78DE090E00E94980FFC011382A5
:101E0000128287E392E091838083118687E2848344
:101E100084E1828784E083871486F0937806E093D8
:101E200077061092790610927A0685E280938004F4
:101E30001092820410923A071092390710923C07D0
:101E400010923B0710923E0710923D0760E070E051
:101E500089E397E00E94450D2091390730913A07B8
:101E6000811113C02115310519F0C9010E943010EC
:101E700010923A071092390710923E0710923D07D0
:101E800010923C0710923B0709C010923E07109237
:101E90003D0766E672E0C9010E94AC111092C705C9
:101EA0001092C6051092C9051092C8051092CB0574
:101EB0001092CA0564E270E086EC95E00E94450D40
:101EC0002091C6053091C705811113C02115310538
:101ED00019F0C9010E9430101092C7051092C60572
:101EE0001092CB051092CA051092C9051092C80530
:101EF000089584E290E09093CB058093CA056FE348
:101F000072E0C9010C94AC11991B79E004C0991FCF
:101F1000961708F0961B881F7A95C9F78095089543
:101F2000EE0FFF1F881F8BBF0790F691E02D1994CD
:101F30000F931F93CF93DF938230910510F482E0CB
:101F400090E0E0914107F091420720E030E0A0E00E
:101F5000B0E0309719F14081518102811381481717
:101F60005907C8F08417950769F4109731F0129655
:101F70000C93129713961C9327C00093410710935C
:101F8000420722C02115310519F04217530718F4F2
:101F90009A01BD01EF01DF01F801DBCF2115310509
:101FA000F9F0281B390B2430310580F48A819B819C
:101FB0006115710521F0FB019383828304C0909326
:101FC000420780934107FE01329644C0FE01E20FB2
:101FD000F31F8193919322503109398328833AC0AA
:101FE00020913F0730914007232B41F420910302B9
:101FF000309104023093400720933F072091010263
:10200000309102022115310541F42DB73EB74091C0
:10201000050250910602241B350BE0913F07F09119
:102020004007E217F307A0F42E1B3F0B28173907D0
:1020300078F0AC014E5F5F4F2417350748F04E0F24
:102040005F1F5093400740933F078193919302C0D5
:10205000E0E0F0E0CF01DF91CF911F910F91089563
:10206000CF93DF93009709F481C0FC01329713826C
:102070001282A0914107B0914207109781F420810C
:102080003181820F931F20913F073091400728171D
:10209000390751F5F0934007E0933F0767C0ED0122
:1020A00020E030E0CE17DF0740F44A815B819E01DB
:1020B00041155105F1F0EA01F5CFD383C283408188
:1020C0005181840F951FC817D90759F488819981C8
:1020D000840F951F0296918380838A819B819383CD
:1020E00082832115310529F4F0934207E0934107DB
:1020F0003DC0E901FB83EA8349915991C40FD51F83
:10210000EC17FD0761F480819181840F951F029681
:10211000E90199838883828193819B838A83E0E0AC
:10212000F0E012968D919C911397009719F0FD01A4
:10213000DC01F7CF8D919C9111979D012E5F3F4F50
:10214000820F931F20913F073091400728173907CE
:1021500069F4309729F4109242071092410702C0A7
:1021600013821282B0934007A0933F07DF91CF9173
:1021700008956F927F928F929F92AF92BF92CF926B
:10218000DF92EF92FF920F931F93CF93DF9300970D
:1021900089F4CB01DF91CF911F910F91FF90EF90C8
:1021A000DF90CF90BF90AF909F908F907F906F9077
:1021B0000C94980FFC01E60FF71F9C012250310987
:1021C000E217F30708F4A9C0EC01D9010D911C91A5
:1021D000119706171707B0F00530110508F49BC0DA
:1021E000C80104978617970708F495C00250110993
:1021F000061B170B019311936D937C93CF010E94E3
:10220000301089C05B01A01AB10A4C01800E911EEA
:10221000A0914107B0914207612C712CE12CF12C67
:10222000109709F446C08D919C911197A815B90596
:10223000B1F56C0142E0C40ED11CCA14DB0478F184
:102240004C018A189B08640142E0C40ED11C12960E
:10225000BC9012971396AC91B5E0CB16D10440F028
:10226000B282A38391828082D9016D937C9309C04D
:102270000E5F1F4F800F911FF90191838083EB2D1B
:10228000FA2FE114F10431F0D7011396FC93EE9389
:10229000129741C0F0934207E09341073CC0681693
:1022A000790608F43C017D0112960D90BC91A02D99
:1022B000B7CF80913F079091400788169906E1F4C7
:1022C00066167706C8F48091010290910202009789
:1022D00041F48DB79EB74091050250910602841BD0
:1022E000950BE817F907C8F4F0934007E0933F0710
:1022F000F901718360830FC0CB010E94980F7C01AC
:10230000009759F0A801BE010E94A311CE010E94BE
:102310003010C70104C0CE0102C080E090E0DF9120
:10232000CF911F910F91FF90EF90DF90CF90BF90D2
:10233000AF909F908F907F906F90089581E090E094
:10234000F8940C94B311FB01DC0102C001900D92D2
:1023500041505040D8F70895FB01DC0101900D92E7
:102360000020E1F7089511E0C0E6D1E000E006C0EA
:10237000802FFE010E94900F2196011DC136D107CA
:0A23800080E00807A9F7F894FFCFEA
:10238A00FF000043072000363738391B1D1A1C008E
:10239A00000000500823087D03F7071B080708F808
:1023AA000700000000D6022F02590223038A02689E
:1023BA00027C020000000082032F027D037C034C92
:1023CA006520626C7565746F6F746820657374201C
:1023DA00666F6E6374696F6E6E656C204C696F6EA2
:0823EA00656C0A000D0A0000F9
:00000001FF
