:100000000C9495010C94C6010C94C6010C94C60185
:100010000C94C6010C94C6010C94C6010C94C60144
:100020000C94C6010C94D10A0C94D10A0C94D10AF8
:100030000C94C6010C94B80D0C94C6010C94C60126
:100040000C94C6010C9410080C94C6010C94C601C3
:100050000C94C6010C94C6010C94C6010C94CF0FED
:100060000C94C6010C94270F0C94FD0E0C94C60141
:100070000C94C6010C94C6010C94C6010C94C601E4
:100080000C94C6010C94C6010C94C6010C94C601D4
:100090000C94C6010C94C6010C94C6010C94DB0AA6
:1000A0000C94C6010C94C6010C94C6010C94C601B4
:1000B0000C94C6010C94C6010C94C6010C944F021A
:1000C0000C94C6010C94C6010C94C6010C94D30E7A
:1000D0000C94A90E0C94C6010C947F0E0C94550E32
:1000E0000C94C6018F0394039903A303AD03260464
:1000F000B703BF03C703D103DB03E503F403FE0328
:100100002604080412041C04280C2B0C1A0C1E0CC8
:10011000240C620C2F0C330C390C3D0C410C470C99
:100120004B0C4F0C620C550C590C5D0C0C94DB0302
:100130000C94A3030C94620C0C94E5030C94490DED
:100140000C948F030C945D0C0C94390C0C942B0CB8
:100150000C94B7030C94FE030C94F80C0C94191037
:100160000C9405020C9449090C9474090C94A1098F
:100170000C94F4030C94960D0C94C8010C942F0C61
:100180000C9494030C9458090C9426040C94330C8E
:100190000C9446090C941C040C94280C0C94080430
:1001A0000C94410C0C941B0D0C9408020C941E0C26
:1001B0000C94550C0C94240C0C9404020C94AD0378
:1001C0000C94BF030C944F0C0C943D0C0C941F101A
:1001D0000C94590C0C94C7030C946C090C94CE0C21
:1001E0000C9447090C944B0C0C9448090C94470C44
:1001F0000C94D1030C941A0C0C94070D0C9412045B
:100200000C949903000020002300260029002C00F4
:100210002F00320000010000030106010901000067
:100220002100240027002A002D00300033000101A6
:100230000000040107010A01000022002500280037
:100240002B002E00310034000201000005010801DE
:100250000B0105050505070508080808020202024A
:100260000A0A080804040404010101010101010152
:100270000303030303030303040707070C0C0C0C1D
:100280000C0C0C0C02020202060606060606060606
:100290000B0B0B0B0B0B0B0B010210202008081093
:1002A00020401020408002010201080402010102E6
:1002B00004081020408080402010080402018004BF
:1002C000020180402010080402010804020101021A
:1002D0000408102040800102040810204080000023
:1002E0000A0B02090C0D0E080703040100000000B0
:1002F00000000000000000000000000000000000FE
:1003000000000000000000000000121110000000BA
:1003100000000000000000000000000000000000DD
:100320000000000002001F10191011241FBECFEFA3
:10033000D1E2DEBFCDBF00E00CBF12E0A0E0B2E032
:10034000E8E3F3E300E00BBF02C007900D92AC3688
:10035000B107D9F727E0ACE6B2E001C01D92A9349D
:10036000B207E1F711E0C4E9D1E000E006C021974F
:100370000109802FFE010E944816C339D10780E091
:100380000807A9F70E9407120C948A190C94000020
:10039000FC01918D228D892F90E0805C9F4F821B04
:1003A00091098F7399270895E0E0F0E0199480E0B7
:1003B00090E0892B21F00E943F0D811119C080E04F
:1003C00090E0892B41F080E090E0892B21F00E94A1
:1003D0000000811110C00E94350D81110FC080E016
:1003E00090E0892B81F00E942B0D81110AC00895A5
:1003F0000E940000E4CF0E940000EDCF0E94D401D3
:10040000EECF0C9400000895089580E090E00895E8
:100410000F931F93CF93DF938C01C62FD62FD07FDE
:10042000D1606D2F0E94900A6D2FC8010E94A30A0F
:1004300080E1C89FB0011124C62FC1606C2FC80194
:100440000E94900A6C2FC8010E94A30A81E090E0EC
:10045000DF91CF911F910F910895FC01848DDF01F1
:10046000A80FB11DA35ABF4F2C91848D90E0019627
:100470008F739927848FA689B7892C93A089B18916
:100480008C91837080648C93938D848D981306C0B7
:100490000288F389E02D80818F7D808308951F92EB
:1004A0000F920FB60F9211240BB60F922F933F931A
:1004B0004F935F936F937F938F939F93AF93BF936C
:1004C000CF93DF93EF93FF9320917D0430E0F90108
:1004D000E252FD4F8491F901E856FD4FD491F901A4
:1004E000EE5AFD4FC491CC2379F081110E940D0C7E
:1004F000EC2FF0E0EE0FFF1FEC5FFD4FA591B491E4
:10050000EC91ED2381E009F480E0209181043091A9
:1005100082042F5F3F4F3093820420938104909197
:100520008004953618F096E090937C0490917C04BA
:100530009430C9F128F4923069F09330D1F05EC064
:10054000953009F451C0963009F058C091E090936D
:100550004D0551C0811152C0209181043091820417
:100560002436310508F442C010924D0510928004E3
:100570001CC0813009F042C0E091800491E09E0FE0
:1005800090938004F0E02091810430918204EE0F7A
:10059000FF1FE458FB4F308727831092820410928C
:1005A000810494E029C0811117C0E091800491E09A
:1005B0009E0F90938004F0E020918104309182049A
:1005C000EE0FFF1FE458FB4F308727831092820401
:1005D0001092810493E010C0209181043091820434
:1005E0002536310558F007C0811108C010928204E9
:1005F0001092810403C095E090937C0490917F0455
:100600009923B9F081110AC080917E04882321F0DA
:1006100080917E0461E009C02F9A0BC080917E0416
:10062000882331F080917E0460E00E94630C01C059
:100630002F98FF91EF91DF91CF91BF91AF919F9153
:100640008F917F916F915F914F913F912F910F907B
:100650000BBE0F900FBE0F901F9018958F929F9218
:10066000AF92BF92CF92DF92EF92FF920F931F93C0
:10067000CF93DF938C016A017B0120E030E04FE7EC
:1006800053E4C701B6010E941B154B015C0120E039
:1006900030E0A9010E94651718161CF4C501B401C9
:1006A00003C0C501B40190580E942F17EB0120E050
:1006B00030E0A901C701B6010E946517181614F4AD
:1006C00060E001C061E0F80181810E94630CCF3FCE
:1006D000D10509F014F4DD2702C0CFEFD0E0F80116
:1006E000108161E0812F0E94920C209709F4B1C023
:1006F000CF3FD10509F4AFC0E12FF0E0E252FD4F4A
:10070000E4918E2F90E0FC013197E231F10508F081
:100710009DC08827EE58FF4F8F4F0C94481684B524
:10072000806884BDC7BDA7C084B5806284BDC8BDD4
:10073000A2C080918000806880938000D09389005F
:10074000C093880098C08091800080628093800070
:10075000D0938B00C0938A008EC080918000886007
:1007600080938000D0938D00C0938C0084C08091D2
:10077000B00080688093B000C093B3007CC08091CB
:10078000B00080628093B000C093B40074C08091C8
:100790009000806880939000D0939900C093980057
:1007A0006AC080919000806280939000D0939B00FB
:1007B000C0939A0060C08091900088608093900000
:1007C000D0939D00C0939C0056C08091A00080688B
:1007D0008093A0008091A0008F7B8093A000D09395
:1007E000A900C093A80047C08091A00080628093B8
:1007F000A000D093AB00C093AA003DC08091A000A0
:1008000088608093A000D093AD00C093AC0033C04B
:1008100080912001806880932001D0932901C093AA
:10082000280129C080912001806280932001D0930B
:100830002B01C0932A011FC0809120018860809302
:100840002001D0932D01C0932C0115C0C038D105D3
:1008500014F460E001C061E0812FDF91CF911F911E
:100860000F91FF90EF90DF90CF90BF90AF909F904F
:100870008F900C94630CDF91CF911F910F91FF909B
:10088000EF90DF90CF90BF90AF909F908F900895A2
:100890008EBD00000DB407FEFDCF8EB50895CF9339
:1008A000DF93EC0160E088810E94630C88E90E947C
:1008B000480480E00E94480480E00E94480480E0F0
:1008C0000E94480480E00E94480461E088810E9400
:1008D000630C8BE891E00197F1F760E088810E945A
:1008E000630C80EE0E94480461E08881DF91CF9123
:1008F0000C94630CAF92BF92CF92DF92EF92FF9273
:100900000F931F93CF93DF93CDB7DEB760970FB6EA
:10091000F894DEBF0FBECDBF5C0160E0FC018081BA
:100920000E94630C80E60E9448048E010F5F1F4FF7
:100930007E01F1E1EF0EF11C680180E00E944804A5
:1009400090E0A0E0B0E0F60181939193A193B19380
:100950006F01EE15FF0589F761E0F50180810E94C6
:10096000630C80E090E0DC01F801419151916191CC
:1009700071918F01BA2FA92F982F8827840F951F67
:10098000A61FB71FEE15FF0579F79C01AD0166277D
:100990007727CB01621B730B840B950B60960FB608
:1009A000F894DEBF0FBECDBFDF91CF911F910F91A5
:1009B000FF90EF90DF90CF90BF90AF9008954F924F
:1009C0005F926F927F928F929F92AF92BF92CF92DF
:1009D000DF92EF92FF92CF93DF93CDB7DEB72997E7
:1009E0000FB6F894DEBF0FBECDBF6B017C015A017C
:1009F0008FEA95E00E944F0481EB95E00E944F043E
:100A0000AB2899F42DEC3CEC4CE45EE329833A836B
:100A10004B835C839DEC892E9CEC992E9CE4A92E43
:100A20009EEBB92E31E0398711C08DEC9CECACE423
:100A3000BEEB89839A83AB83BC838DEC882E8CECD0
:100A4000982E8CE4A82E8EE3B82E198620E030E094
:100A500044EB53E4C701B6010E94BD162BE03BE214
:100A60004DE552E40E941B1527E63CEA45E053E4BD
:100A70000E941B150E942F176D837E838F8398879A
:100A8000A7019601C701B6010E946A17882319F0D1
:100A90008FE392E01AC026013701E89477F82FEF30
:100AA0003FEF4FE75FE7C301B2010E946A17811170
:100AB0000FC02FEF3FEF4FE75FE7C301B2010E9486
:100AC000B51418162CF483E492E00E94F80976C05D
:100AD0002FEF3FEF4FE75FE4C701B6010E946517B4
:100AE00018161CF487E492E0F0CF2FEF3FEF4FE7AA
:100AF0005FECC701B6010E94B51487FDF3CF20E07B
:100B000030E0A901C701B6010E94B51487FF09C0F2
:100B10006DE28FED93E00E94490DF7FAF094F7F83B
:100B2000F0942AE037ED43EA5BE3C701B6010E9487
:100B300051162B013C010E9436176B017C010E946B
:100B4000BA149B01AC01C301B2010E9450162B01E3
:100B50003C014AE0C701B6010E944F0A6EE28FEDE8
:100B600093E00E94490D20E030E040E251E4C301EF
:100B7000B2010E941B152B013C010E9436176B012C
:100B8000E12CF12C4AE0C701B6010E944F0AC701CF
:100B9000B6010E94BA149B01AC01C301B2010E94CC
:100BA000501620E030E040E251E40E941B150E9404
:100BB000361780E090E04AE00E944F0A8BE492E012
:100BC0000E94F809C980DA80EB80FC80F7FAF09483
:100BD000F7F8F094998591110CC08FEA95E00E9486
:100BE0007A0490958095709561957F4F8F4F9F4FB8
:100BF00004C081EB95E00E947A042D813E814F81F3
:100C0000588562177307840795076CF4B501A40132
:100C10008BEA95E00E942E03B701A6018DEA95E0CC
:100C20000E942E03D7CF40E050E0BA018BEA95E056
:100C30000E942E0340E050E060E070E88DEA95E00D
:100C40000E942E036CE271E080E090E029960FB6DE
:100C5000F894DEBF0FBECDBFDF91CF91FF90EF9034
:100C6000DF90CF90BF90AF909F908F907F906F90CC
:100C70005F904F900C94950F4F925F926F927F927E
:100C80008F929F92AF92BF92CF92DF92EF92FF929C
:100C9000CF93DF93CDB7DEB760970FB6F894DEBF82
:100CA0000FBECDBF6B017C0149015A018FEA95E06F
:100CB0000E944F0481EB95E00E944F0428E431EE3E
:100CC0004AE75FE3C701B6010E941B1520E030E050
:100CD00048E455E40E941B1521EF32E84FEB51E444
:100CE0000E94BD160E942F1769837A838B839C8391
:100CF00064017501A701960150582D873E874F87E3
:100D0000588B81EB95E00E947A0429813A814B81CE
:100D10005C8162177307840795070CF087C04D85C7
:100D20005E856F8578898DEA95E00E942E03B70174
:100D3000A6018BEA95E00E942E0380918A02909191
:100D40008B02A0918C02B0918D028D839E83AF8324
:100D5000B887209186023091870240918802509195
:100D6000890229873A874B875C878FEA95E00E9442
:100D70007A04442455243201461A570A680A790A2B
:100D80004092860250928702609288027092890295
:100D900081EB95E00E947A044B015C0160938A022A
:100DA00070938B0280938C0290938D024AE060E0F6
:100DB00070E0CB010E944F0A8BE492E00E94F80998
:100DC0008D819E81AF81B885881A990AAA0ABB0ACB
:100DD000D301C20129853A854B855C85821B930B23
:100DE000A40BB50BA5019401281B390B4A0B5B0B17
:100DF000CA01B9010E94BC142FE632E143E85AE36C
:100E00000E941B1520E030E0A9010E9451169B01B1
:100E1000AC01C701B6010E9451166B017C016AE06A
:100E200070E080E090E00E94950F6BCF40E050E0D2
:100E3000BA018BEA95E00E942E0340E050E060E0AA
:100E400070E88DEA95E00E942E0364E670E080E091
:100E500090E060960FB6F894DEBF0FBECDBFDF9175
:100E6000CF91FF90EF90DF90CF90BF90AF909F9089
:100E70008F907F906F905F904F900C94950FCF92D2
:100E8000DF92EF92FF92CF93DF93FC01C081CC30D1
:100E900008F064C0D0E085E08C9FF0018D9FF00DDC
:100EA0001124E25BFA4F838128E830E06901C81A17
:100EB000D10887FDD394CC0CDD1CCC0CDD1C683C28
:100EC00071053CF50D2C000CEE08FF08848128E527
:100ED00032E0281B310987FD3395220F331F220F83
:100EE000331FC901330FAA0BBB0B9C01AD012C1999
:100EF0003D094E095F09DB010E94031624EB30E037
:100F000040E050E00E94D915C20ED31EE41EF51E2B
:100F100013C06C157D0584F0248188E592E0821B66
:100F2000910927FD9395880F991F880F991F6B01D1
:100F3000861797070CF46C018FB7F89495E09C9F87
:100F4000F0019D9FF00D1124E25BFA4F96E0C91A63
:100F5000D108CC0CDD1CD282C1828FBFDF91CF9132
:100F6000FF90EF90DF90CF9008951F93CF93DF9382
:100F7000EC01162F88818C3008F04DC061E0812F84
:100F80000E94920CE88195E09E9FF0011124E25BA3
:100F9000FA4F1F738081807C182B10831382E881A5
:100FA0009E9FF0011124E25BFA4F148288816CE06D
:100FB0000E943C169CE0899FA001112420E030E0B3
:100FC00095E0BA01620F731F969FF001979FF00D95
:100FD0001124E25BFA4F608166FD13C02F5F3F4F23
:100FE0002C30310571F781110CC01092800082E025
:100FF00080938100109285001092840086BB8093BC
:101000006F00E88185E0E89FF0011124E25BFA4F70
:101010008081806480838881DF91CF911F910895C2
:101020001F920F920FB60F9211240BB60F922F93AF
:101030003F934F935F936F937F938F939F93AF9360
:10104000BF93EF93FF938091850287FF05C01092B5
:1010500085001092840016C020918502022E000C9B
:10106000330B80918A0590E0281739075CF43091A2
:10107000850225E03203F0011124E25BFA4F808102
:1010800086FD15C0809185028F5F80938502209137
:101090008502022E000C330B80918A0590E0281700
:1010A000390794F4809185028C302CF10DC0309179
:1010B00085023203F0011124E25BFA4F808160E087
:1010C0008F730E94630CDECF809184009091850025
:1010D00084349C4918F480E49CE905C08091840024
:1010E00090918500049690938900809388008FEFFB
:1010F000809385022AC040918400509185003091F0
:10110000850225E03203F0011124E25BFA4F818170
:101110009281840F951F909389008093880030916D
:1011200085023203F0011124E25BFA4F808186FFD1
:101130000CC0309185023203F0011124E25BFA4FBA
:10114000808161E08F730E94630CFF91EF91BF91EA
:10115000AF919F918F917F916F915F914F913F914F
:101160002F910F900BBE0F900FBE0F901F901895F0
:1011700030919802313208F04BC080919602811173
:10118000FCCF9091730622E02093960221E02093F9
:1011900095022FEF209351061092500630934F0680
:1011A000E3E5F6E0AFE2B6E020E0321721F041914E
:1011B0004D932F5FFACF10922E0620912E06990F95
:1011C000922B90932E0690919402913061F410929C
:1011D000940290912E069093BB009091BC0093FDD9
:1011E000F8CF95EC01C095EE9093BC0090919602DB
:1011F0009230E1F3909151069F3F79F08091510632
:10120000803241F080915106803331F084E005C096
:1012100081E003C082E001C083E010929702109247
:10122000980210925206089585ED8093BC0080913B
:10123000BC0084FDFCCF10929602089540910906EF
:10124000262F30E0240F311D21323105DCF42091AE
:1012500096022430C9F4FC0180E090E0861758F42F
:10126000309109062191DC01A751BA4FA30FB11D9E
:101270002C930196F3CF80910906680F60930906BD
:1012800080E0089581E0089582E00895089508952A
:101290000895E0918F0280918E02E81730F4F0E01B
:1012A000E753FA4F808190E008958FEF9FEF089504
:1012B00090918F0280918E02981750F4E92FF0E000
:1012C000E753FA4F208130E09F5F90938F0202C076
:1012D0002FEF3FEFC901089580918E0290E0209199
:1012E0008F02821B91090895CF92DF92EF92FF92B5
:1012F0000F931F93CF93DF937C01CB018A01209141
:101300005206222389F0EB016B01C40ED51ECC15C9
:10131000DD0569F06991D701ED91FC910190F081B3
:10132000E02DC7011995F3CF642F0E941E09C80153
:10133000DF91CF911F910F91FF90EF90DF90CF90B1
:101340000895CF93DF931F92CDB7DEB769832091C5
:1013500052062223D1F020919802203240F021E061
:1013600030E0FC013383228380E090E015C080915F
:101370009702E82FF0E0ED5AF94F998190838F5F43
:10138000809397028093980205C061E0CE01019698
:101390000E941E0981E090E00F90DF91CF910895A7
:1013A000EFEDF3E0A089B18982E08C93A485B58547
:1013B0001C92A685B7858FEC8C93108EA489B58975
:1013C00086E08C93A289B3898C9180618C93A289E9
:1013D000B3898C9188608C93A289B3898C91806841
:1013E0008C930288F389E02D80818F7D808308951E
:1013F000009769F0FC0101900020E9F73197AF01F7
:10140000481B590BBC018FED93E00C94CE0C80E08F
:1014100090E00895CF93DF930E94F809EC018BE4EC
:1014200092E00E94F8098C0F9D1FDF91CF910895E3
:101430000F931F93CF93DF93162F072FC2E9D5E0A9
:101440009C8521E020935206909373061092970298
:1014500010929802AA85BB85ED91FC91119701909D
:10146000F081E02D682FCD0119958A859B85DC01DF
:10147000ED91FC910190F081E02D602F19958A8506
:101480009B85DC01ED91FC910190F081E02D612FB5
:101490001995DF91CF911F910F910C94B8088F92FD
:1014A0009F92AF92BF920F931F93CF93DF93CDB7CD
:1014B000DEB7A1970FB6F894DEBF0FBECDBF19A25D
:1014C000423008F44AE08E010F5D1F4F842E912CAC
:1014D000A12CB12CA50194010E940B16E62FB90195
:1014E000CA0101501109EA3014F4E05D01C0E95C61
:1014F000D801EC93232B242B252B61F7C8010E94E4
:10150000F809A1960FB6F894DEBF0FBECDBFDF91EC
:10151000CF911F910F91BF90AF909F908F900895A2
:10152000FC01248131E0309352062093730610921F
:101530009702109298028485682B89E992E00E94B4
:10154000A1090C94B8080F931F93CF938C01C62F59
:1015500064600E94900A6C2F6B7FC8010E94900A01
:1015600083EC90E00197F1F7CF911F910F910895CF
:10157000FC01A089B1898C91A689B78982FD0FC031
:101580009C91818D8F5F8F73228D821749F0218D01
:10159000DF01A20FB11D5D969C93818F08958C9100
:1015A00008951F920F920FB60F9211240F900FBE45
:1015B0000F901F9018951F920F920FB60F92112443
:1015C0000BB60F922F933F934F935F936F937F933D
:1015D0008F939F93AF93BF93EF93FF938091B90045
:1015E000887F803609F49CC068F5883209F45BC0B6
:1015F00090F4803109F454C038F4882309F4F6C01B
:10160000883009F44DC0F6C0883109F44CC08032EE
:1016100009F45DC0EFC0803409F468C048F4803339
:1016200009F455C0883309F0E5C080935106D8C04D
:10163000803509F44FC0883509F45DC0883409F05D
:10164000D9C0D6C0883909F4C7C0A8F4883709F4CE
:1016500067C038F4883609F463C0803709F460C085
:10166000C9C0883809F4B8C0803909F45FC080382F
:1016700009F0C0C05BC0803B09F486C038F4803AF2
:1016800009F466C0883A09F47FC0B4C0803C09F40C
:10169000A7C0883C09F4A4C0883B09F48AC0AAC04A
:1016A00080912E0610C09091500680914F06981799
:1016B00070F5E091500681E08E0F80935006F0E0C7
:1016C000E15DF94F80818093BB0085EC86C08093FB
:1016D00051068EC0E091500681E08E0F8093500637
:1016E0008091BB00F0E0E15DF94F8083909150065E
:1016F00080914F066EC0E091500681E08E0F80937E
:1017000050068091BB00F0E0E15DF94F808380914D
:10171000950281116DC081E08093940284EA61C0DA
:1017200083E08093960210922B06CFCF80912B06F8
:10173000803208F051C0E0912B0681E08E0F80933B
:101740002B068091BB00F0E0E55FF94F8083BDCFB1
:1017500085EC8093BC001092960280912B0680321B
:1017600030F4E0912B06F0E0E55FF94F10826091D4
:101770002B0670E0E0919202F09193028BE096E0EC
:10178000199510922B0636C084E080939602109231
:101790000A0610920906E0919002F09191021995C3
:1017A00080910906811105C081E08093090610929D
:1017B000E905E0910A0681E08E0F80930A06F0E0C9
:1017C000E751FA4F80818093BB0090910A06809187
:1017D0000906981708F479CF85E88093BC000AC001
:1017E00085EC8093BC001092960204C010925106C2
:1017F0000E941409FF91EF91BF91AF919F918F913A
:101800007F916F915F914F913F912F910F900BBE00
:101810000F900FBE0F901F90189590E0FC0131972C
:10182000E231F10508F04EC08827EC57FF4F8F4F8B
:101830000C944816809180008F7703C080918000BF
:101840008F7D80938000089580918000877FF9CFFD
:1018500084B58F7702C084B58F7D84BD0895809153
:10186000B0008F7703C08091B0008F7D8093B0006F
:101870000895809190008F7707C0809190008F7DB0
:1018800003C080919000877F80939000089580919D
:10189000A0008F7707C08091A0008F7D03C080914A
:1018A000A000877F8093A0000895809120018F770A
:1018B00007C0809120018F7D03C080912001877F28
:1018C0008093200108951F93CF93DF93282F30E05A
:1018D000F901E252FD4F8491F901E856FD4FD49190
:1018E000F901EE5AFD4FC491CC23C1F0162F81119E
:1018F0000E940D0CEC2FF0E0EE0FFF1FE85CFD4F97
:10190000A591B4919FB7F894111104C08C91D09512
:10191000D82302C0EC91DE2BDC939FBFDF91CF91E7
:101920001F910895CF93DF9390E0FC01E856FD4F9F
:101930002491FC01EE5AFD4F8491882361F190E0DF
:10194000880F991FFC01E25EFD4FC591D491FC0107
:10195000E85CFD4FA591B491611109C09FB7F8945F
:101960008881209582238883EC912E230BC06230DE
:1019700061F49FB7F8948881322F30958323888350
:10198000EC912E2B2C939FBF06C08FB7F894E88163
:101990002E2B28838FBFDF91CF910895CF92DF92B6
:1019A000EF92FF920F931F93CF93DF936C017A0115
:1019B0008B01C0E0D0E0CE15DF0581F0D8016D913C
:1019C0008D01D601ED91FC910190F081E02DC601D1
:1019D0001995892B11F02196EECF7E01C701DF9179
:1019E000CF911F910F91FF90EF90DF90CF900895CE
:1019F000FC01538D448D252F30E0842F90E0821B15
:101A0000930B541710F0CF96089501970895FC0199
:101A1000918D828D981761F0828DDF01A80FB11D25
:101A20005D968C91928D9F5F9F73928F90E0089549
:101A30008FEF9FEF0895FC01918D828D981731F003
:101A4000828DE80FF11D858D90E008958FEF9FEF57
:101A500008950E94751985EA92E00E94C80121E06C
:101A6000892B09F420E0822F089582E493E00E94FC
:101A7000C80121E0892B09F420E0822F08958FED21
:101A800093E00E94C80121E0892B09F420E0822F15
:101A90000895EF92FF920F931F93CF93DF93EC0182
:101AA00081E0888F9B8D8C8D981305C0E889F9891A
:101AB000808185FD26C0F62E0B8D10E00F5F1F4F35
:101AC0000F731127E02E8C8DE8120CC00FB607FCA7
:101AD000FACFE889F989808185FFF5CFCE010E9490
:101AE0002D02F1CF8B8DFE01E80FF11DE35AFF4F60
:101AF000F0829FB7F8940B8FEA89FB89808180621E
:101B00000AC09FB7F894EE89FF896083E889F98954
:101B100080818370806480839FBF81E090E0DF914B
:101B2000CF911F910F91FF90EF900895CF93DF9386
:101B3000EC01888D8823C9F0EA89FB89808185FDC5
:101B400005C0A889B9898C9186FD0FC00FB607FC26
:101B5000F5CF808185FFF2CFA889B9898C9185FF67
:101B6000EDCFCE010E942D02E7CFDF91CF910895F6
:101B70001F920F920FB60F9211240BB60F922F9354
:101B80003F934F935F936F937F938F939F93AF9305
:101B9000BF93EF93FF938091370790913807A091FF
:101BA0003907B0913A07892B8A2B8B2B49F19091F9
:101BB00036078091000089278093000080913707C5
:101BC00090913807A0913907B0913A071816190675
:101BD0001A061B060CF056C0809137079091380703
:101BE000A0913907B0913A070197A109B1098093F3
:101BF000370790933807A0933907B0933A0742C04C
:101C000080910002E4E2F3E0E4919FEF9093000200
:101C1000E230C9F050F4EE2399F0E13081F5909173
:101C20006F009D7F90936F002AC0E43019F1E0F0BF
:101C3000E53029F5909173009D7F909373001FC04C
:101C400010926E001CC0909170009D7F9093700068
:101C500091E09093B0009091B100987F9460909340
:101C6000B1001092B3000BC0909171009D7F9093D2
:101C7000710005C0909172009D7F9093720060E0AA
:101C80000E94630CFF91EF91BF91AF919F918F9153
:101C90007F916F915F914F913F912F910F900BBE6C
:101CA0000F900FBE0F901F9018951F920F920FB6B6
:101CB0000F9211240BB60F922F933F934F935F9384
:101CC0006F937F938F939F93AF93BF93EF93FF9304
:101CD00085EA92E00E942D02FF91EF91BF91AF91B2
:101CE0009F918F917F916F915F914F913F912F9134
:101CF0000F900BBE0F900FBE0F901F9018951F9264
:101D00000F920FB60F9211240BB60F922F933F93A1
:101D10004F935F936F937F938F939F93AF93BF93F3
:101D2000EF93FF9385EA92E00E94B80AFF91EF914A
:101D3000BF91AF919F918F917F916F915F914F91E3
:101D40003F912F910F900BBE0F900FBE0F901F90E1
:101D500018951F920F920FB60F9211240BB60F9287
:101D60002F933F934F935F936F937F938F939F93A3
:101D7000AF93BF93EF93FF9382E493E00E942D0211
:101D8000FF91EF91BF91AF919F918F917F916F9153
:101D90005F914F913F912F910F900BBE0F900FBE0F
:101DA0000F901F9018951F920F920FB60F9211244B
:101DB0000BB60F922F933F934F935F936F937F9345
:101DC0008F939F93AF93BF93EF93FF9382E493E03E
:101DD0000E94B80AFF91EF91BF91AF919F918F91AF
:101DE0007F916F915F914F913F912F910F900BBE1B
:101DF0000F900FBE0F901F9018951F920F920FB665
:101E00000F9211240BB60F922F933F934F935F9332
:101E10006F937F938F939F93AF93BF93EF93FF93B2
:101E20008FED93E00E942D02FF91EF91BF91AF9152
:101E30009F918F917F916F915F914F913F912F91E2
:101E40000F900BBE0F900FBE0F901F9018951F9212
:101E50000F920FB60F9211240BB60F922F933F9350
:101E60004F935F936F937F938F939F93AF93BF93A2
:101E7000EF93FF938FED93E00E94B80AFF91EF91EB
:101E8000BF91AF919F918F917F916F915F914F9192
:101E90003F912F910F900BBE0F900FBE0F901F9090
:101EA00018953FB7F8948091410790914207A0910F
:101EB0004307B091440726B5A89B05C02F3F19F0F2
:101EC0000196A11DB11D3FBFBA2FA92F982F8827BA
:101ED000820F911DA11DB11DBC01CD0142E0660F15
:101EE000771F881F991F4A95D1F70895863308F008
:101EF000865390917B00282F2870977F922B909388
:101F00007B008770806480937C0080917A0080647D
:101F100080937A0080917A0086FDFCCF80917800D2
:101F20002091790090E0922B08958F929F92AF922A
:101F3000BF92CF92DF92EF92FF926B017C010E94E1
:101F4000510F4B015C01C114D104E104F104F1F023
:101F50000E94510FDC01CB0188199909AA09BB091C
:101F6000883E9340A105B10570F321E0C21AD10863
:101F7000E108F10888EE880E83E0981EA11CB11CD0
:101F8000C114D104E104F10419F7DDCFFF90EF9003
:101F9000DF90CF90BF90AF909F908F9008951F9249
:101FA0000F920FB60F9211242F933F938F939F930D
:101FB000AF93BF9380913D0790913E07A0913F075B
:101FC000B091400730913C0723E0230F2D3720F4D8
:101FD0000196A11DB11D05C026E8230F0296A11D83
:101FE000B11D20933C0780933D0790933E07A0933B
:101FF0003F07B09340078091410790914207A0911D
:102000004307B09144070196A11DB11D809341077C
:1020100090934207A0934307B0934407BF91AF91B9
:102020009F918F913F912F910F900FBE0F901F9016
:10203000189580918B0590918C050C94071810923F
:102040009C0210929B0288EE93E0A0E0B0E08093A7
:102050009D0290939E02A0939F02B093A00223E161
:1020600032E030939A02209399021092A8021092C3
:10207000A7028093A9029093AA02A093AB02B09307
:10208000AC0225E232E03093A6022093A50245E39C
:1020900051E05093B2024093B10244E351E05093B7
:1020A000B4024093B30240E351E05093B602409330
:1020B000B50241E351E05093B8024093B70242E3C6
:1020C00051E05093BA024093B90246E351E0509375
:1020D000BC024093BB021092BE021092BF0210924B
:1020E000C0021092C10210924503109244038093E3
:1020F000460390934703A0934803B093490330935A
:1021000043032093420345ED50E050934F03409327
:102110004E0344ED50E0509351034093500340ED83
:1021200050E0509353034093520341ED50E05093DD
:1021300055034093540342ED50E0509357034093AE
:10214000560346ED50E050935903409358031092C4
:102150005B0310925C0310925D0310925E03109279
:10216000E2031092E1038093E3039093E403A093CE
:10217000E503B093E6033093E0032093DF0385EC9F
:1021800090E09093EC038093EB0384EC90E09093C9
:10219000EE038093ED0380EC90E09093F003809346
:1021A000EF0381EC90E09093F2038093F10382ECD3
:1021B00090E09093F4038093F30386EC90E0909387
:1021C000F6038093F5031092F8031092F90310922E
:1021D000FA031092FB038091070290910802A091EC
:1021E0000902B0910A028093B3059093B405A093BD
:1021F000B505B093B60580910B0290910C02A091A9
:102200000D02B0910E028093B7059093B805A0938C
:10221000B905B093BA0584E08093BB0587E080934D
:10222000BC051092BD0584EB8093BE0586E18093CA
:10223000BF0588E18093C00587E18093C10589E1EE
:102240008093C205E0918A05EC3020F08FEF8093F7
:10225000C30510C081E08E0F80938A05E093C3050B
:1022600085E0E89FF0011124E25BFA4F88EB9BE0E8
:1022700092838183E0918A05EC3020F08FEF809388
:10228000C40510C081E08E0F80938A05E093C405D9
:1022900085E0E89FF0011124E25BFA4F88EB9BE0B8
:1022A000928381838CE08093920584E280939305EE
:1022B00086E08093940585E0809395058FE1809377
:1022C00096058EE18093970583E28093980582E2DC
:1022D0008093990585E480939A0584E480939B0517
:1022E00080E480939E051092A3051092A40510929D
:1022F000A5051092A6051092A7051092A8051092A8
:10230000A9051092AA05E8E7F6E026E337E08FEF8B
:102310009FEFDC01128213821482158216821782CB
:102320001086118683879487A587B6878787908BC9
:10233000A18BB28B12861182108273962E173F07E3
:1023400049F78DE090E00E946F17FC011382128222
:1023500087E392E091838083118687E2848384E11E
:10236000828784E083871486F0937506E093740671
:10237000109276061092770685E280937D04109283
:102380007F0410928C0510928B0510928E0510928E
:102390008D051092900510928F0561E070E080E04D
:1023A00090E00E949018009789F090938C0580939C
:1023B0008B0510928E0510928D0520918F0530911E
:1023C0009005232BC1F4FC01108215C080918B0570
:1023D00090918C05009711F00E94071810928C05BF
:1023E00010928B051092900510928F0510928E0519
:1023F00010928D0508951092900510928F056DE44E
:1024000072E080918B0590918C050C9483197894DF
:1024100084B5826084BD84B5816084BD85B58260E9
:1024200085BD85B5816085BD80916E00816080939A
:102430006E00109281008091810082608093810003
:102440008091810081608093810080918000816013
:10245000809380008091B10084608093B10080916E
:10246000B00081608093B000809191008260809381
:102470009100809191008160809391008091900003
:102480008160809390008091A10082608093A10080
:102490008091A10081608093A1008091A000816063
:1024A0008093A0008091210182608093210180911E
:1024B00021018160809321018091200181608093BE
:1024C000200180917A00846080937A0080917A0064
:1024D000826080937A0080917A00816080937A0094
:1024E00080917A00806880937A001092C1000E94E7
:1024F000D00961E0809193050E94920C60E0809188
:1025000093050E94630C60E0809192050E94920CFA
:1025100089E992E090939D0580939C0510928F022B
:1025200010928E02109297021092980210929602C8
:1025300081E0809395021092940261E084E10E9410
:10254000630C61E085E10E94630C8091B9008E7F8D
:102550008093B9008091B9008D7F8093B90088E4A1
:102560008093B80085E48093BC0086E499E0909362
:1025700091028093900287E499E090939302809374
:10258000920280E090E1A0E0B0E080939F059093FC
:10259000A005A093A105B093A2058AE090E0A0E079
:1025A000B0E08093A3059093A405A093A505B093F4
:1025B000A60580E090E0A0E0B0E48093A7059093AA
:1025C000A805A093A905B093AA0560E070E185E095
:1025D0000E94180A6FE979E380E00E94180AC2E9B4
:1025E000D5E08E01712C97E8A92E92E0B92E2DEC42
:1025F000822E22E0922E3BECE32E37E0F32EF80100
:1026000094818281898F9A8F61E00E94920C61E0AF
:102610008A8D0E94920CF801908586816E01FDE101
:10262000CF0ED11C8D8F9E8F61E00E94920C60E0D6
:102630008E8D0E94920C61E08D8D0E94630C6FB6AE
:10264000F89480913B07811126C0F5018491F40133
:102650002491E82FF0E0EE0FFF1FE25EFD4FA59101
:10266000B4919C91822F892321F461E085E30E943B
:10267000630C61E085E30E94920C8CB580618CBD97
:102680008CB580648CBD61E084E30E94920C61E0B3
:1026900083E30E94920C80913B078F5F80933B07FE
:1026A0006FBEC7010197F1F760E08D8D0E94630C4A
:1026B00088E80E94480483E00E94480461E08D8D10
:1026C0000E94630CC7010197F1F7C6010E944F04F5
:1026D00073940F5F1F4F2296F2E07F1290CF07EBAB
:1026E00015E0CBEBD5E060E0F80181918F010E940D
:1026F000920CC017D107B9F703EB15E07E01FFEF8D
:10270000EF1AFF0A688170E0CE0108960E94B507B3
:10271000F70195818381F801828B938B60E00E94A1
:10272000920C61E0F80183890E94920C60E0F8014C
:1027300083890E94630C0E5F1F4FE701F5E0CD3BDC
:10274000DF07E1F6F8941092200189E080932101DF
:1027500080E293E090932901809328011092250153
:102760001092240182E080937300789480937C041B
:102770001092800480917D0460E00E94920C0E947F
:10278000D0096091BB0570E083EC95E00E94B5072D
:102790006091BC0570E084EC95E00E94B5078091E3
:1027A000BD05853B20F48091BE05843B28F48EE472
:1027B00092E00E940A0A06C064EB70E083EC95E0A8
:1027C0000E943F078091B3050E94760FBC0180E014
:1027D00090E00E94BA146B017C01CBE0D0E020E0D5
:1027E00030E046E153E4C701B6010E94B51487FD0D
:1027F00005C0C5E1D0E001E010E02DC02197C9F38C
:1028000041E050E060E070E080E490E40E94DF048A
:102810008091B3050E94760FBC0180E090E00E9499
:10282000BA146B017C01DBCF2197F9F040E050E056
:1028300060E070E080E490E40E94DF048091B305E2
:102840000E94760FBC0180E090E00E94BA146B01F8
:102850007C0100E010E020E030E046E153E4C701F5
:10286000B6010E94B51487FDDFCFA80160E070E0DB
:1028700080E490E40E94DF044AE959E969E17EE3DB
:102880008BEA95E00E942E034AE959E969E17EEB63
:102890008DEA95E00E942E0320E030E04AEF53E4F9
:1028A000C701B6010E94B51487FF0CC08091B30523
:1028B0000E94760FBC0180E090E00E94BA146B0188
:1028C0007C01EACF68EE73E080E090E00E94950F13
:1028D0008091BD05883820F48091BE05873828F4A2
:1028E0008EE492E00E940A0A06C067E870E083EC7A
:1028F00095E00E943F0764EF71E080E090E00E9465
:10290000950F40E050E0BA018BEA95E00E942E035B
:1029100040E050E060E070E88DEA95E00E942E0310
:102920002DEC3CEC4CEC5EE360E070E088EC92E473
:102930000E943C0664EF71E080E090E00E94950FF9
:1029400041E050E060E070E084EB92E40E94DF043C
:102950002AE939E949E95EE360E070E080EF91E45B
:102960000E943C060E94D7012DCF0E94F71408F464
:1029700081E00895E89409C097FB3EF49095809516
:10298000709561957F4F8F4F9F4F9923A9F0F92F35
:1029900096E9BB279395F695879577956795B795B3
:1029A000F111F8CFFAF4BB0F11F460FF1BC06F5F99
:1029B0007F4F8F4F9F4F16C0882311F096E911C0AB
:1029C000772321F09EE8872F762F05C0662371F0CC
:1029D00096E8862F70E060E02AF09A95660F771FE0
:1029E000881FDAF7880F9695879597F90895990FBC
:1029F0000008550FAA0BE0E8FEEF16161706E807C9
:102A0000F907C0F012161306E407F50798F0621BE9
:102A1000730B840B950B39F40A2661F0232B242BBE
:102A2000252B21F408950A2609F4A140A6958FEFDD
:102A3000811D811D08950E942E150C949F150E94E2
:102A4000911538F00E94981520F0952311F00C9400
:102A500088150C948E1511240C94D3150E94B01572
:102A600070F3959FC1F3950F50E0551F629FF001E1
:102A7000729FBB27F00DB11D639FAA27F00DB11DFA
:102A8000AA1F649F6627B00DA11D661F829F222783
:102A9000B00DA11D621F739FB00DA11D621F839F0A
:102AA000A00D611D221F749F3327A00D611D231FE0
:102AB000849F600D211D822F762F6A2F11249F572E
:102AC00050409AF0F1F088234AF0EE0FFF1FBB1F31
:102AD000661F771F881F91505040A9F79E3F5105F0
:102AE00080F00C9488150C94D3155F3FE4F3983E66
:102AF000D4F3869577956795B795F795E7959F5F9A
:102B0000C1F7FE2B880F911D9695879597F908952B
:102B100097F99F6780E870E060E008959FEF80EC90
:102B2000089500240A941616170618060906089533
:102B300000240A9412161306140605060895092E99
:102B40000394000C11F4882352F0BB0F40F4BF2B08
:102B500011F460FF04C06F5F7F4F8F4F9F4F089548
:102B600057FD9058440F551F59F05F3F71F047953E
:102B7000880F97FB991F61F09F3F79F08795089523
:102B8000121613061406551FF2CF4695F1DF08C042
:102B9000161617061806991FF1CF8695710561055F
:102BA00008940895E894BB2766277727CB0197F907
:102BB0000895052E97FB1EF400940E94F01557FD12
:102BC00007D00E940B1607FC03D04EF40C94F015AE
:102BD00050954095309521953F4F4F4F5F4F089549
:102BE00090958095709561957F4F8F4F9F4F089579
:102BF0000E942D16A59F900DB49F900DA49F800D4F
:102C0000911D11240895B7FF0C94F8150E94F81532
:102C1000821B930B0895A1E21A2EAA1BBB1BFD0178
:102C20000DC0AA1FBB1FEE1FFF1FA217B307E407AB
:102C3000F50720F0A21BB30BE40BF50B661F771F03
:102C4000881F991F1A9469F76095709580959095E3
:102C50009B01AC01BD01CF010895A29FB001B39FBC
:102C6000C001A39F700D811D1124911DB29F700D95
:102C7000811D1124911D0895991B79E004C0991FAD
:102C8000961708F0961B881F7A95C9F780950895C6
:102C9000EE0FFF1F881F8BBF0790F691E02D199450
:102CA0005058BB27AA270E9468160C949F150E94B3
:102CB000911538F00E94981520F039F49F3F19F4CF
:102CC00026F40C948E150EF4E095E7FB0C94881511
:102CD000E92F0E94B01558F3BA17620773078407EB
:102CE000950720F079F4A6F50C94D2150EF4E09532
:102CF0000B2EBA2FA02D0B01B90190010C01CA01B6
:102D0000A0011124FF27591B99F0593F50F4503E60
:102D100068F11A16F040A22F232F342F4427585F52
:102D2000F3CF469537952795A795F0405395C9F76A
:102D30007EF41F16BA0B620B730B840BBAF0915022
:102D4000A1F0FF0FBB1F661F771F881FC2F70EC0C1
:102D5000BA0F621F731F841F48F487957795679594
:102D6000B795F7959E3F08F0B0CF9395880F08F080
:102D70009927EE0F9795879508950E94D1160C9488
:102D80009F150E94981558F00E94911540F029F463
:102D90005F3F29F00C94881551110C94D3150C94B5
:102DA0008E150E94B01568F39923B1F3552391F362
:102DB000951B550BBB27AA2762177307840738F0AA
:102DC0009F5F5F4F220F331F441FAA1FA9F335D007
:102DD0000E2E3AF0E0E832D091505040E695001CBB
:102DE000CAF72BD0FE2F29D0660F771F881FBB1F75
:102DF000261737074807AB07B0E809F0BB0B802D53
:102E0000BF01FF2793585F4F3AF09E3F510578F07E
:102E10000C9488150C94D3155F3FE4F3983ED4F3DB
:102E2000869577956795B795F7959F5FC9F7880F52
:102E3000911D9695879597F90895E1E0660F771FA4
:102E4000881FBB1F621773078407BA0720F0621B35
:102E5000730B840BBA0BEE1F88F7E09508950E9460
:102E600036176894B1110C94D31508950E94B815C3
:102E700088F09F5798F0B92F9927B751B0F0E1F03B
:102E8000660F771F881F991F1AF0BA95C9F714C0EB
:102E9000B13091F00E94D215B1E008950C94D21592
:102EA000672F782F8827B85F39F0B93FCCF3869524
:102EB00077956795B395D9F73EF490958095709581
:102EC00061957F4F8F4F9F4F08950E94F71408F42C
:102ED0008FEF08950E94F714880B990B08950F93B4
:102EE0001F93CF93DF938230910510F482E090E03E
:102EF000E0914707F091480720E030E0A0E0B0E023
:102F0000309719F140815181028113814817590787
:102F1000C8F08417950769F4109731F012960C9356
:102F2000129713961C9327C00093470710934807E6
:102F300022C02115310519F04217530718F49A01E0
:102F4000BD01EF01DF01F801DBCF21153105F9F0FB
:102F5000281B390B2430310580F48A819B8161154F
:102F6000710521F0FB019383828304C0909348078D
:102F700080934707FE01329644C0FE01E20FF31F23
:102F80008193919322503109398328833AC020914B
:102F9000450730914607232B41F4209103023091DD
:102FA0000402309346072093450720910102309197
:102FB00002022115310541F42DB73EB740910502BB
:102FC00050910602241B350BE0914507F09146070E
:102FD000E217F307A0F42E1B3F0B2817390778F0F0
:102FE000AC014E5F5F4F2417350748F04E0F5F1F4F
:102FF00050934607409345078193919302C0E0E0C8
:10300000F0E0CF01DF91CF911F910F910895CF9301
:10301000DF93009709F481C0FC013297138212827A
:10302000A0914707B0914807109781F42081318122
:10303000820F931F209145073091460728173907C3
:1030400051F5F0934607E093450767C0ED0120E096
:1030500030E0CE17DF0740F44A815B819E014115C5
:103060005105F1F0EA01F5CFD383C283408151814C
:10307000840F951FC817D90759F488819981840F47
:10308000951F0296918380838A819B81938382839B
:103090002115310529F4F0934807E09347073DC017
:1030A000E901FB83EA8349915991C40FD51FEC17BD
:1030B000FD0761F480819181840F951F0296E901DB
:1030C00099838883828193819B838A83E0E0F0E007
:1030D00012968D919C911397009719F0FD01DC01D8
:1030E000F7CF8D919C9111979D012E5F3F4F820FDD
:1030F000931F20914507309146072817390769F437
:10310000309729F4109248071092470702C01382A3
:103110001282B0934607A0934507DF91CF9108959F
:103120006F927F928F929F92AF92BF92CF92DF92D7
:10313000EF92FF920F931F93CF93DF93009789F441
:10314000CB01DF91CF911F910F91FF90EF90DF9016
:10315000CF90BF90AF909F908F907F906F900C9486
:103160006F17FC01E60FF71F9C0122503109E2178F
:10317000F30708F4A9C0EC01D9010D911C91119736
:1031800006171707B0F00530110508F49BC0C801F9
:1031900004978617970708F495C002501109061B7B
:1031A000170B019311936D937C93CF010E94071825
:1031B00089C05B01A01AB10A4C01800E911EA0913A
:1031C0004707B0914807612C712CE12CF12C109726
:1031D00009F446C08D919C911197A815B905B1F5D8
:1031E0006C0142E0C40ED11CCA14DB0478F14C011E
:1031F0008A189B08640142E0C40ED11C1296BC9050
:1032000012971396AC91B5E0CB16D10440F0B28280
:10321000A38391828082D9016D937C9309C00E5F54
:103220001F4F800F911FF90191838083EB2DFA2F9F
:10323000E114F10431F0D7011396FC93EE93129749
:1032400041C0F0934807E09347073CC068167906F1
:1032500008F43C017D0112960D90BC91A02DB7CFD2
:10326000809145079091460788169906E1F4661605
:103270007706C8F48091010290910202009741F410
:103280008DB79EB74091050250910602841B950BA5
:10329000E817F907C8F4F0934607E0934507F901EA
:1032A000718360830FC0CB010E946F177C01009770
:1032B00059F0A801BE010E947A19CE010E94071898
:1032C000C70104C0CE0102C080E090E0DF91CF9141
:1032D0001F910F91FF90EF90DF90CF90BF90AF9034
:1032E0009F908F907F906F90089581E090E0F89488
:1032F0000C948A19FB01DC0102C001900D9241502F
:103300005040D8F70895FB01DC0101900D92002098
:10331000E1F7089511E0C4E9D1E000E006C0802F94
:10332000FE010E9448162196011DC539D10780E093
:083330000807A9F7F894FFCF8C
:10333800FF000049072000363738391B1D1A1C00CA
:10334800000000A1097409050248096C09580949D7
:103358000900000000490DCE0CF80C960DC80107B5
:103368000D1B0D000000000802CE0C050204026EC1
:10337800616E00696E66006F7666000D0A0053651F
:1033880072766F20616E676C65206973206F757443
:0C339800206F662072616E6765210000E6
:00000001FF
