:100000000C9495010C94C6010C94C6010C94C60185
:100010000C94C6010C94C6010C94C6010C94C60144
:100020000C94C6010C942C090C942C090C942C09EA
:100030000C94C6010C9439030C94C6010C94C601AF
:100040000C94C6010C9462070C94C6010C94C60172
:100050000C94C6010C94C6010C94C6010C94820B3E
:100060000C94C6010C94A8040C947E040C94C60154
:100070000C94C6010C94C6010C94C6010C94C601E4
:100080000C94C6010C94C6010C94C6010C94C601D4
:100090000C94C6010C94C6010C94C6010C9436094C
:1000A0000C94C6010C94C6010C94C6010C94C601B4
:1000B0000C94C6010C94C6010C94C6010C94D20495
:1000C0000C94C6010C94C6010C94C6010C94540403
:1000D0000C942A040C94C6010C9400040C94D603CE
:1000E0000C94C601120617061C0626063006A90641
:1000F0003A0642064A0654065E06680677068106F8
:10010000A9068B0695069F06830A860A750A790A50
:100110007F0ABD0A8A0A8E0A940A980A9C0AA20AD1
:10012000A60AAA0ABD0AB00AB40AB80A0C9497082B
:100130000C941C060C9468060C940E030C94420656
:100140000C9477060C9481060C946F020C948E0A22
:100150000C943C080C94A60A0C948A0A0C94011185
:100160000C94B40A0C9417060C948B060C947F0A1A
:100170000C944A060C9462080C94A9060C94010293
:100180000C949C0A0C940F030C945E060C94BC0215
:100190000C943F080C9430060C94830A0C941206BD
:1001A0000C943E080C946A080C94790A0C94260668
:1001B0000C944E080C94F2010C9423020C949506B6
:1001C0000C94C8010C94B80A0C94940A0C94750A07
:1001D0000C94BD0A0C9407110C94B00A0C941403EF
:1001E0000C94AA0A0C949F060C943D080C94980A4F
:1001F0000C94860A0C9454060C94A20A0C941502D2
:100200000C943A06000020002300260029002C0050
:100210002F00320000010000030106010901020065
:10022000002100240027002A002D003000330001A7
:10023000010000040107010A010000220025002836
:10024000002B002E003100340002010000050108DF
:10025000010B01050505050705080808080202024B
:10026000020A0A0808040404040101010101010151
:10027000010303030303030303040707070C0C0C28
:100280000C0C0C0C0C020202020606060606060600
:10029000060B0B0B0B0B0B0B0B010210202008089D
:1002A00010204010204080020102010804020101D8
:1002B00002040810204080804020100804020180C1
:1002C0000402018040201008040201080402010118
:1002D0000204081020408001020408102040800021
:1002E000000A0B02090C0D0E0807030401000000B0
:1002F00000000000000000000000000000000000FE
:1003000000000000000000000000001211100000BA
:1003100000000000000000000000000000000000DD
:100320000000000000000711011111241FBECFEFD3
:10033000D1E2DEBFCDBF00E00CBF12E0A0E0B2E032
:10034000E2E5FFE200E00BBF02C007900D92AE3481
:10035000B107D9F727E0AEE4B2E001C01D92A332A5
:10036000B207E1F711E0C4E9D1E000E006C021974F
:100370000109802FFE010E945514C339D10780E086
:100380000807A9F70E94BA0D0C9497170C94000067
:10039000CF92DF92EF92FF920F931F93CF93DF9351
:1003A0006C017A018B01C0E0D0E0CE15DF0581F051
:1003B000D8016D918D01D601ED91FC910190F081F4
:1003C000E02DC6011995892B11F02196EECF7E0103
:1003D000C701DF91CF911F910F91FF90EF90DF90B8
:1003E000CF900895FC01538D448D252F30E0842F4C
:1003F00090E0821B930B541710F0CF96089501974D
:100400000895FC01918D828D981761F0828DDF0136
:10041000A80FB11D5D968C91928D9F5F9F73928FF7
:1004200090E008958FEF9FEF0895FC01918D828DEC
:10043000981731F0828DE80FF11D858D90E00895B9
:100440008FEF9FEF0895FC01918D228D892F90E011
:10045000805C9F4F821B91098F739927089589E3D0
:1004600093E00E94230221E0892B09F420E0822FEF
:10047000089586ED93E00E94230221E0892B09F480
:1004800020E0822F089583E794E00E94230221E078
:10049000892B09F420E0822F0895FC01848DDF016F
:1004A000A80FB11DA35ABF4F2C91848D90E00196E7
:1004B0008F739927848FA689B7892C93A089B189D6
:1004C0008C91837080648C93938D848D981306C077
:1004D0000288F389E02D80818F7D80830895EF92DB
:1004E000FF920F931F93CF93DF93EC0181E0888FEE
:1004F0009B8D8C8D981305C0E889F989808185FDD5
:1005000026C0F62E0B8D10E00F5F1F4F0F731127C3
:10051000E02E8C8DE8120CC00FB607FCFACFE889EC
:10052000F989808185FFF5CFCE010E944D02F1CF80
:100530008B8DFE01E80FF11DE35AFF4FF0829FB74C
:10054000F8940B8FEA89FB89808180620AC09FB78B
:10055000F894EE89FF896083E889F9898081837046
:10056000806480839FBF81E090E0DF91CF911F91F5
:100570000F91FF90EF900895CF93DF93EC01888D5A
:100580008823C9F0EA89FB89808185FD05C0A88997
:10059000B9898C9186FD0FC00FB607FCF5CF80811D
:1005A00085FFF2CFA889B9898C9185FFEDCFCE0167
:1005B0000E944D02E7CFDF91CF910895E0E0F0E097
:1005C000199480E090E0892B21F00E944302811170
:1005D00019C080E090E0892B41F080E090E0892B09
:1005E00021F00E940000811110C00E943902811187
:1005F0000FC080E090E0892B81F00E942F028111D2
:100600000AC008950E940000E4CF0E940000EDCFD0
:100610000E94DE02EECF0C9400000895089580E061
:1006200090E008950E9482170F931F93CF93DF935A
:100630008C01C62FD62FD07FD1606D2F0E94EB0882
:100640006D2FC8010E94FE0880E1C89FB0011124EF
:10065000C62FC1606C2FC8010E94EB086C2FC80127
:100660000E94FE0881E090E0DF91CF911F910F91F1
:1006700008951F920F920FB60F9211240BB60F928E
:100680002F933F934F935F936F937F938F939F939A
:10069000AF93BF93EF93FF9380916A0290916B02A7
:1006A000A0916C02B0916D02892B8A2B8B2B49F1A2
:1006B00090916902809100008927809300008091C9
:1006C0006A0290916B02A0916C02B0916D021816B3
:1006D00019061A061B060CF056C080916A0290910A
:1006E0006B02A0916C02B0916D020197A109B10952
:1006F00080936A0290936B02A0936C02B0936D0298
:1007000042C080910002EEE1F2E0E4919FEF90930D
:100710000002E230C9F050F4EE2399F0E13081F5A7
:1007200090916F009D7F90936F002AC0E43019F183
:10073000E0F0E53029F5909173009D7F9093730070
:100740001FC010926E001CC0909170009D7F90930E
:10075000700091E09093B0009091B100987F946008
:100760009093B1001092B3000BC0909171009D7FE7
:100770009093710005C0909172009D7F90937200DC
:1007800060E00E94BE0AFF91EF91BF91AF919F91EF
:100790008F917F916F915F914F913F912F910F902A
:1007A0000BBE0F900FBE0F901F9018951F920F92C7
:1007B0000FB60F9211240BB60F922F933F934F93C6
:1007C0005F936F937F938F939F93AF93BF93EF93B9
:1007D000FF9389E393E00E944D02FF91EF91BF9157
:1007E000AF919F918F917F916F915F914F913F91C9
:1007F0002F910F900BBE0F900FBE0F901F9018956A
:100800001F920F920FB60F9211240BB60F922F93D7
:100810003F934F935F936F937F938F939F93AF9388
:10082000BF93EF93FF9389E393E00E941309FF9135
:10083000EF91BF91AF919F918F917F916F915F9158
:100840004F913F912F910F900BBE0F900FBE0F90C5
:100850001F9018951F920F920FB60F9211240BB68E
:100860000F922F933F934F935F936F937F938F9349
:100870009F93AF93BF93EF93FF9386ED93E00E9416
:100880004D02FF91EF91BF91AF919F918F917F9119
:100890006F915F914F913F912F910F900BBE0F90F1
:1008A0000FBE0F901F9018951F920F920FB60F92C8
:1008B00011240BB60F922F933F934F935F936F9337
:1008C0007F938F939F93AF93BF93EF93FF9386EDA7
:1008D00093E00E941309FF91EF91BF91AF919F9117
:1008E0008F917F916F915F914F913F912F910F90D9
:1008F0000BBE0F900FBE0F901F9018951F920F9276
:100900000FB60F9211240BB60F922F933F934F9374
:100910005F936F937F938F939F93AF93BF93EF9367
:10092000FF9383E794E00E944D02FF91EF91BF9106
:10093000AF919F918F917F916F915F914F913F9177
:100940002F910F900BBE0F900FBE0F901F90189518
:100950001F920F920FB60F9211240BB60F922F9386
:100960003F934F935F936F937F938F939F93AF9337
:10097000BF93EF93FF9383E794E00E941309FF91E5
:10098000EF91BF91AF919F918F917F916F915F9107
:100990004F913F912F910F900BBE0F900FBE0F9074
:1009A0001F9018951F920F920FB60F9211240BB63D
:1009B0000F922F933F934F935F936F937F938F93F8
:1009C0009F93AF93BF93CF93DF93EF93FF932091C8
:1009D000110530E0F901E152FD4F8491F901E7562C
:1009E000FD4FD491F901ED5AFD4FC491CC2379F01C
:1009F00081110E94680AEC2FF0E0EE0FFF1FEC5F00
:100A0000FD4FA591B491EC91ED2381E009F480E0D4
:100A100020911505309116052F5F3F4F3093160535
:100A20002093150590911405953618F096E0909353
:100A30001005909110059430C9F128F4923069F0B6
:100A40009330D1F05EC0953009F451C0963009F072
:100A500058C091E09093E10551C0811152C020919E
:100A60001505309116052436310508F442C0109260
:100A7000E105109214051CC0813009F042C0E091DC
:100A8000140591E09E0F90931405F0E02091150558
:100A900030911605EE0FFF1FE05FFA4F3087278376
:100AA000109216051092150594E029C0811117C007
:100AB000E091140591E09E0F90931405F0E02091D1
:100AC000150530911605EE0FFF1FE05FFA4F3087D6
:100AD0002783109216051092150593E010C02091FF
:100AE0001505309116052536310558F007C08111DE
:100AF00008C0109216051092150503C095E090935A
:100B00001005909113059923B9F081110AC08091C5
:100B10001205882321F08091120561E009C02F9A07
:100B20000BC080911205882331F08091120560E09E
:100B30000E94BE0A01C02F98FF91EF91DF91CF91E3
:100B4000BF91AF919F918F917F916F915F914F91E5
:100B50003F912F910F900BBE0F900FBE0F901F90E3
:100B600018958F929F92AF92BF92CF92DF92EF92A1
:100B7000FF920F931F93CF93DF938C016A017B0148
:100B800020E030E04FE753E4C701B6010E9455135F
:100B90004B015C0120E030E0A9010E94721518169B
:100BA0001CF4C501B40103C0C501B40190580E94F2
:100BB0003C15EB0120E030E0A901C701B6010E941D
:100BC0007215181614F460E001C061E0F80181812B
:100BD0000E94BE0ACF3FD10509F014F4DD2702C000
:100BE000CFEFD0E0F801108161E0812F0E94ED0A83
:100BF000209709F4B1C0CF3FD10509F4AFC0E12F70
:100C0000F0E0E152FD4FE4918E2F90E0FC0131972E
:100C1000E231F10508F09DC08827EE58FF4F8F4F55
:100C20000C94551484B5806884BDC7BDA7C084B535
:100C3000806284BDC8BDA2C080918000806880931E
:100C40008000D0938900C093880098C08091800074
:100C5000806280938000D0938B00C0938A008EC006
:100C600080918000886080938000D0938D00C09335
:100C70008C0084C08091B00080688093B000C093E5
:100C8000B3007CC08091B00080628093B000C093BC
:100C9000B40074C080919000806880939000D093DD
:100CA0009900C09398006AC0809190008062809300
:100CB0009000D0939B00C0939A0060C080919000F8
:100CC000886080939000D0939D00C0939C0056C094
:100CD0008091A00080688093A0008091A0008F7B0D
:100CE0008093A000D093A900C093A80047C0809132
:100CF000A00080628093A000D093AB00C093AA00B4
:100D00003DC08091A00088608093A000D093AD008A
:100D1000C093AC0033C08091200180688093200193
:100D2000D0932901C093280129C0809120018062BD
:100D300080932001D0932B01C0932A011FC0809182
:100D40002001886080932001D0932D01C0932C0155
:100D500015C0C038D10514F460E001C061E0812FF6
:100D6000DF91CF911F910F91FF90EF90DF90CF9087
:100D7000BF90AF909F908F900C94BE0ADF91CF915F
:100D80001F910F91FF90EF90DF90CF90BF90AF90A9
:100D90009F908F9008958EBD00000DB407FEFDCF8B
:100DA0008EB50895CF93DF93EC0160E088810E94B7
:100DB000BE0A88E90E94CB0680E00E94CB0680E054
:100DC0000E94CB0680E00E94CB0680E00E94CB060A
:100DD00061E088810E94BE0A8BE891E00197F1F7FB
:100DE00060E088810E94BE0A80EE0E94CB0661E02E
:100DF0008881DF91CF910C94BE0AAF92BF92CF92BF
:100E0000DF92EF92FF920F931F93CF93DF93CDB7B3
:100E1000DEB760970FB6F894DEBF0FBECDBF5C01A2
:100E200060E0FC0180810E94BE0A80E60E94CB0641
:100E30008E010F5F1F4F7E01F1E1EF0EF11C680183
:100E400080E00E94CB0690E0A0E0B0E0F601819344
:100E50009193A193B1936F01EE15FF0589F761E0BE
:100E6000F50180810E94BE0A80E090E0DC01F8017B
:100E700041915191619171918F01BA2FA92F982FB2
:100E80008827840F951FA61FB71FEE15FF0579F75A
:100E90009C01AD0166277727CB01621B730B840B86
:100EA000950B60960FB6F894DEBF0FBECDBFDF91F5
:100EB000CF911F910F91FF90EF90DF90CF90BF9057
:100EC000AF9008951F920F920FB60F9211240BB698
:100ED0000F922F933F934F935F936F937F938F93D3
:100EE0009F93AF93BF93EF93FF938091680287FF27
:100EF00005C0109285001092840016C020916802EF
:100F0000022E000C330B80911E0690E02817390743
:100F10005CF43091680225E03203F0011124EE51B7
:100F2000FA4F808186FD15C0809168028F5F8093A3
:100F3000680220916802022E000C330B80911E067D
:100F400090E02817390794F4809168028C302CF1D6
:100F50000DC0309168023203F0011124EE51FA4FB6
:100F6000808160E08F730E94BE0ADECF8091840092
:100F70009091850084349C4918F480E49CE905C074
:100F800080918400909185000496909389008093CD
:100F900088008FEF809368022AC0409184005091AE
:100FA00085003091680225E03203F0011124EE51F2
:100FB000FA4F81819281840F951F909389008093CD
:100FC0008800309168023203F0011124EE51FA4F8B
:100FD000808186FF0CC0309168023203F001112439
:100FE000EE51FA4F808161E08F730E94BE0AFF913B
:100FF000EF91BF91AF919F918F917F916F915F9191
:101000004F913F912F910F900BBE0F900FBE0F90FD
:101010001F90189585ED8093BC008091BC0084FDE5
:10102000FCCF1092080308954091BD02262F30E0B6
:10103000240F311D21323105DCF4209108032430C6
:10104000C9F4FC0180E090E0861758F43091BD02AD
:101050002191DC01A356BD4FA30FB11D2C93019626
:10106000F3CF8091BD02680F6093BD0280E00895C8
:1010700081E0089582E00895089508950895E0912B
:101080006F0280916E02E81730F4F0E0E358FD4FF4
:10109000808190E008958FEF9FEF089590916F0207
:1010A00080916E02981750F4E92FF0E0E358FD4F5D
:1010B000208130E09F5F90936F0202C02FEF3FEFDF
:1010C000C901089580916E0290E020916F02821B09
:1010D00091090895CF92DF92EF92FF920F931F93A1
:1010E000CF93DF937C01CB018A0120910903222356
:1010F00089F0EB016B01C40ED51ECC15DD0569F03E
:101100006991D701ED91FC910190F081E02DC7012B
:101110001995F3CF642F0E941408C801DF91CF9175
:101120001F910F91FF90EF90DF90CF900895CF9394
:10113000DF931F92CDB7DEB7698320910903222385
:10114000D1F020912C03203240F021E030E0FC016E
:101150003383228380E090E015C080910A03E82F5A
:10116000F0E0E55FFC4F998190838F5F80930A03E5
:1011700080932C0305C061E0CE0101960E94140803
:1011800081E090E00F90DF91CF9108953FB7F89400
:101190008091790290917A02A0917B02B0917C02B9
:1011A00026B5A89B05C02F3F19F00196A11DB11DC2
:1011B0003FBFBA2FA92F982F8827820F911DA11DFD
:1011C000B11DBC01CD0142E0660F771F881F991F3A
:1011D0004A95D1F70895FC01248131E03093090349
:1011E00020932B0310920A0310922C038485682B02
:1011F0008DE293E00E9497080C94060C0F931F93C6
:10120000CF938C01C62F64600E94EB086C2F6B7F1C
:10121000C8010E94EB0883EC90E00197F1F7CF91B1
:101220001F910F910895FC01A089B1898C91A68925
:10123000B78982FD0FC09C91818D8F5F8F73228D46
:10124000821749F0218DDF01A20FB11D5D969C939D
:10125000818F08958C9108951F920F920FB60F926F
:1012600011240F900FBE0F901F9018951F920F9290
:101270000FB60F9211240BB60F922F933F934F93FB
:101280005F936F937F938F939F93AF93BF93EF93EE
:10129000FF938091B900887F803609F49CC068F57F
:1012A000883209F45BC090F4803109F454C038F4FA
:1012B000882309F4F6C0883009F44DC0F6C088319F
:1012C00009F44CC0803209F45DC0EFC0803409F4E9
:1012D00068C048F4803309F455C0883309F0E5C08C
:1012E00080930603D8C0803509F44FC0883509F4CF
:1012F0005DC0883409F0D9C0D6C0883909F4C7C0A8
:10130000A8F4883709F467C038F4883609F463C054
:10131000803709F460C0C9C0883809F4B8C0803982
:1013200009F45FC0803809F0C0C05BC0803B09F49D
:1013300086C038F4803A09F466C0883A09F47FC060
:10134000B4C0803C09F4A7C0883C09F4A4C0883B21
:1013500009F48AC0AAC08091E30210C090910503ED
:1013600080910403981770F5E091050381E08E0FDA
:1013700080930503F0E0EC51FD4F80818093BB002A
:1013800085EC86C0809306038EC0E091050381E062
:101390008E0F809305038091BB00F0E0EC51FD4F70
:1013A000808390910503809104036EC0E091050352
:1013B00081E08E0F809305038091BB00F0E0EC513B
:1013C000FD4F80838091070381116DC081E0809380
:1013D000E20284EA61C083E0809308031092DF0296
:1013E000CFCF8091DF02803208F051C0E091DF0260
:1013F00081E08E0F8093DF028091BB00F0E0E1542A
:10140000FD4F8083BDCF85EC8093BC001092080314
:101410008091DF02803230F4E091DF02F0E0E154AD
:10142000FD4F10826091DF0270E0E0917202F09156
:1014300073028FEB92E019951092DF0236C084E0C0
:10144000809308031092BE021092BD02E0917002D8
:10145000F091710219958091BD02811105C081E062
:101460008093BD0210929D02E091BE0281E08E0F3A
:101470008093BE02F0E0E356FD4F80818093BB0075
:101480009091BE028091BD02981708F479CF85E84B
:101490008093BC000AC085EC8093BC0010920803C6
:1014A00004C0109206030E940A08FF91EF91BF91B9
:1014B000AF919F918F917F916F915F914F913F91EC
:1014C0002F910F900BBE0F900FBE0F901F9018958D
:1014D00090E0FC013197E231F10508F04EC0882719
:1014E000EC57FF4F8F4F0C945514809180008F77ED
:1014F00003C0809180008F7D80938000089580914B
:101500008000877FF9CF84B58F7702C084B58F7D47
:1015100084BD08958091B0008F7703C08091B000A2
:101520008F7D8093B0000895809190008F7707C0E1
:10153000809190008F7D03C080919000877F809381
:10154000900008958091A0008F7707C08091A0003F
:101550008F7D03C08091A000877F8093A0000895B5
:10156000809120018F7707C0809120018F7D03C07B
:1015700080912001877F8093200108951F93CF934E
:10158000DF93282F30E0F901E152FD4F8491F901FA
:10159000E756FD4FD491F901ED5AFD4FC491CC238C
:1015A000C1F0162F81110E94680AEC2FF0E0EE0FB7
:1015B000FF1FE75CFD4FA591B4919FB7F8941111FF
:1015C00004C08C91D095D82302C0EC91DE2BDC9323
:1015D0009FBFDF91CF911F910895CF93DF9390E04C
:1015E000FC01E756FD4F2491FC01ED5AFD4F84911B
:1015F000882361F190E0880F991FFC01E15EFD4FA7
:10160000C591D491FC01E75CFD4FA591B4916111A6
:1016100009C09FB7F8948881209582238883EC9134
:101620002E230BC0623061F49FB7F8948881322F6B
:10163000309583238883EC912E2B2C939FBF06C07B
:101640008FB7F894E8812E2B28838FBFDF91CF913D
:101650000895863308F0865390917B00282F2870D8
:10166000977F922B90937B008770806480937C009F
:1016700080917A00806480937A0080917A0086FD60
:10168000FCCF809178002091790090E0922B089512
:101690008F929F92AF92BF92CF92DF92EF92FF9282
:1016A0006B017C010E94C6084B015C01C114D1048E
:1016B000E104F104F1F00E94C608DC01CB018819B5
:1016C0009909AA09BB09883E9340A105B10570F3A9
:1016D00021E0C21AD108E108F10888EE880E83E003
:1016E000981EA11CB11CC114D104E104F10419F726
:1016F000DDCFFF90EF90DF90CF90BF90AF909F90A5
:101700008F9008951F920F920FB60F9211242F936E
:101710003F938F939F93AF93BF9380917502909166
:101720007602A0917702B09178023091740223E0A2
:10173000230F2D3720F40196A11DB11D05C026E809
:10174000230F0296A11DB11D209374028093750290
:1017500090937602A0937702B093780280917902F9
:1017600090917A02A0917B02B0917C020196A11D1A
:10177000B11D8093790290937A02A0937B02B0937B
:101780007C02BF91AF919F918F913F912F910F90CC
:101790000FBE0F901F901895E3E7F4E0A089B18980
:1017A00082E08C93A485B5851C92A685B7858FECC5
:1017B0008C93108EA489B58986E08C93A289B38915
:1017C0008C9180618C93A289B3898C9188608C9371
:1017D000A289B3898C9180688C930288F389E02D6B
:1017E00080818F7D80830895009769F0FC010190CE
:1017F0000020E9F73197AF01481B590BBC0183E783
:1018000094E00C94C80180E090E0089530912C039E
:10181000313208F04BC0809108038111FCCF9091C8
:101820002B0322E02093080321E0209307032FEFEE
:10183000209306031092050330930403EBE0F3E0DA
:10184000A4EEB2E020E0321721F041914D932F5FDA
:10185000FACF1092E3022091E302990F922B90931A
:10186000E3029091E202913061F41092E2029091D1
:10187000E3029093BB009091BC0093FDF8CF95ECF0
:1018800001C095EE9093BC00909108039230E1F373
:10189000909106039F3F79F080910603803241F0DA
:1018A00080910603803331F084E005C081E003C0FD
:1018B00082E001C083E010920A0310922C03109280
:1018C000090308950F931F93CF93DF93162F072FCC
:1018D000C6E2D6E09C8521E02093090390932B0378
:1018E00010920A0310922C03AA85BB85ED91FC91FE
:1018F00011970190F081E02D682FCD0119958A850F
:101900009B85DC01ED91FC910190F081E02D602F31
:1019100019958A859B85DC01ED91FC910190F08100
:10192000E02D612F1995DF91CF911F910F910C94AC
:10193000060C2F923F924F925F926F927F928F92FE
:101940009F92AF92BF92CF92DF92EF92FF920F934E
:101950001F93CF93DF93CDB7DEB7A4970FB6F8945C
:10196000DEBF0FBECDBF4B015C01F42E9B01AC016D
:101970000E947715882319F082E492E027C02401A1
:101980003501E89477F82FEF3FEF4FE75FE7C301AA
:10199000B2010E94771581110DC02FEF3FEF4FE785
:1019A0005FE7C301B2010E94EF1218161CF486E42F
:1019B00092E00CC02FEF3FEF4FE75FE4C501B401A9
:1019C0000E94721518162CF48AE492E00E94F40B1F
:1019D000B8C02FEF3FEF4FE75FECC501B4010E94A5
:1019E000EF1287FDF1CF20E030E0A901C501B4017D
:1019F0000E94EF1287FF0BC06DE283E794E00E9424
:101A00006F023C01B7FAB094B7F8B09402C0612CF1
:101A1000712C10E060E070E080E09FE3F11641F08F
:101A200020E030E040E251E40E94CA141F5FF6CF8C
:101A3000A50194010E945E144B015C010E944315B4
:101A40006AA3C72ED82EE92E19A2262F372F482F8A
:101A5000592F8E010F5D1F4F0BA31CA39AE0292E57
:101A6000312C412C512CCA01B901A20191010E94D3
:101A70001314605DF80162938F0121153105410552
:101A8000510589F7CF010E94F40B8301080F191F3C
:101A9000FF2009F455C06AA17C2D8D2D9E2D0E943A
:101AA000F4129B01AC01C501B4010E945D144B010D
:101AB0005C016EE283E794E00E946F02080F191F39
:101AC0008AE0282E312C412C512C20E030E040E2DD
:101AD00051E4C501B4010E9455134B015C010E9401
:101AE00043159B0140E050E019A2CBA0DCA0762E6C
:101AF0003AA3642EE52ECA01B901A20191010E9408
:101B00001314605DF60162936F01211531054105E3
:101B1000510589F7CF010E94F40B080F191F672D9B
:101B20007AA1862D9E2D0E94F4129B01AC01C50165
:101B3000B4010E945D144B015C01FA94F110C5CF11
:101B4000C801A4960FB6F894DEBF0FBECDBFDF91DB
:101B5000CF911F910F91FF90EF90DF90CF90BF90AA
:101B6000AF909F908F907F906F905F904F903F903D
:101B70002F900895789484B5826084BD84B5816087
:101B800084BD85B5826085BD85B5816085BD809148
:101B90006E00816080936E001092810080918100C0
:101BA00082608093810080918100816080938100B8
:101BB000809180008160809380008091B10084607A
:101BC0008093B1008091B00081608093B0008091DB
:101BD0009100826080939100809191008160809358
:101BE0009100809190008160809390008091A1008D
:101BF00082608093A1008091A10081608093A10008
:101C00008091A00081608093A0008091210182607A
:101C10008093210180912101816080932101809135
:101C2000200181608093200180917A0084608093FC
:101C30007A0080917A00826080937A0080917A00A5
:101C4000816080937A0080917A00806880937A0026
:101C50001092C1000E94CC0B61E0809127060E9487
:101C6000ED0A60E0809127060E94BE0A60E0809144
:101C700026060E94ED0A8DE293E090933106809350
:101C8000300610926F0210926E0210920A031092A8
:101C90002C031092080381E0809307031092E20264
:101CA00061E084E10E94BE0A61E085E10E94BE0A13
:101CB0008091B9008E7F8093B9008091B9008D7FAB
:101CC0008093B90088E48093B80085E48093BC00D9
:101CD0008CE398E090937102809370028DE398E01A
:101CE000909373028093720280E090E1A0E0B0E0F4
:101CF0008093330690933406A0933506B09336064E
:101D00008AE090E0A0E0B0E0809337069093380638
:101D1000A0933906B0933A0680E090E0A0E0B0E4EA
:101D200080933B0690933C06A0933D06B0933E06FD
:101D300060E070E185E00E94620C6FE979E380E089
:101D40000E94620CC6E2D6E08E01712C68E8A62ED5
:101D500062E0B62E7EEC872E72E0972EEBECEE2E34
:101D6000E7E0FE2EF80194818281898F9A8F61E0ED
:101D70000E94ED0A61E08A8D0E94ED0AF8019085CB
:101D800086816E01FDE1CF0ED11C8D8F9E8F61E0AB
:101D90000E94ED0A60E08E8D0E94ED0A61E08D8D5B
:101DA0000E94BE0A6FB6F89480914E02811126C03F
:101DB000F5018491F4012491E82FF0E0EE0FFF1F6C
:101DC000E15EFD4FA591B4919C91822F892321F46E
:101DD00061E085E30E94BE0A61E085E30E94ED0AAE
:101DE0008CB580618CBD8CB580648CBD61E084E372
:101DF0000E94ED0A61E083E30E94ED0A80914E02A9
:101E00008F5F80934E026FBEC7010197F1F760E0CC
:101E10008D8D0E94BE0A88E80E94CB0683E00E9456
:101E2000CB0661E08D8D0E94BE0AC7010197F1F7D4
:101E3000C6010E94D20673940F5F1F4F2296F2E0F4
:101E40007F1290CF0BE416E0CFE4D6E060E0F8011B
:101E500081918F010E94ED0AF6E00F341F07B1F760
:101E600007E416E025E0E22E3CE0C32E42E0D42E4B
:101E7000F9908F818C3008F044C061E08F2D0E9472
:101E8000ED0A8F81E89EF0011124EE51FA4F9F2D4B
:101E90009F732081207CF22EF92AF0821382148213
:101EA0006C2D0E9435142CE0829FA001112420E0AB
:101EB00030E0BA01620F731FE69EF001E79EF00D5D
:101EC0001124EE51FA4F908196FD12C02F5F3F4FC3
:101ED0002C30310571F781110BC010928000D09227
:101EE00081001092850010928400D6BAD0926F00C3
:101EF000EF81EE9EF0011124EE51FA4F8081806453
:101F000080839D818B81F801828B938B60E00E949E
:101F1000ED0A61E0F80183890E94ED0A60E0F801B2
:101F200083890E94BE0A0E5F1F4FF6E0C135DF07AE
:101F300009F09ECFF8941092200189E0809321014E
:101F400080E293E09093290180932801109225016B
:101F50001092240182E0809373007894809310059E
:101F6000109214058091110560E00E94ED0A0E9414
:101F7000CC0B94E6E92EF12C04E610E0C0E0D0E0B2
:101F8000809147060E94290BC80FD91F01501109E3
:101F9000B9F7CE01B7010E94411480E090E00E94A1
:101FA000F4129B01AC0160E070E080E89FE30E94C6
:101FB000CA1420E030EC4FE855E40E9455130E940B
:101FC00043158B0184E6C82ED12CC0E0D0E080916F
:101FD00048060E94290BC80FD91F21E0C21AD10858
:101FE000B1F7CE01B7010E94411480E090E00E9459
:101FF000F4129B01AC0160E070E080E89FE30E9476
:10200000CA1420E030E24BEC55E40E9455130E94C4
:102010004315EB010F311105C0F06F317105D8F197
:102020004DEC5CEC6CE47EE38FE396E00E94B1053E
:102030004DEC5CEC6CE47EEB81E496E00E94B10533
:1020400068EC70E080E090E023C00E31110539F1BA
:102050006F31710520F185E496E00E94FD0661383C
:102060007C408105910584F440E050E0BA018FE3A3
:1020700096E00E94B1054DEC5CEC6CE47EEB81E4F3
:1020800096E00E94B105E7CF68EE73E080E090E053
:102090000E94480B04C06E31710508F48AC00F30ED
:1020A000110510F52F9700F585E496E00E94FD06D6
:1020B00061387C40810591058CF44DEC5CEC6CE45E
:1020C0007EEB8FE396E00E94B1054DEC5CEC6CE496
:1020D0007EEB81E496E00E94B105E6CF68EC70E00B
:1020E00080E090E00E94480B04E610E0C0E0D0E001
:1020F000809148060E94290BC80FD91F0150110971
:10210000B9F7CE01B7010E94411480E090E00E942F
:10211000F4129B01AC0160E070E080E89FE30E9454
:10212000CA1420E030E24BEC55E40E94551342E023
:102130000E94990C8FE392E00E94F40B04E610E0F9
:10214000C0E0D0E0809147060E94290BC80FD91F3C
:1021500001501109B9F7CE01B7010E94411480E086
:1021600090E00E94F4129B01AC0160E070E080E816
:102170009FE30E94CA1420E030EC4FE855E40E942F
:10218000551342E00E94990C8FE392E00E94F40BF9
:1021900068EC70E080E090E00E94480B83E496E0F9
:1021A0000E94D20685E496E00E94D2060E94E102D7
:1021B000E3CE83E496E00E94FD069B01AC018827F4
:1021C0009927DC01821B930BA40BB50B81389C4033
:1021D000A105B1058CF44DEC5CEC6CE47EE38FE37F
:1021E00096E00E94B10540E050E060E070E881E4D4
:1021F00096E00E94B105DDCF64E670E080E090E0FB
:1022000071CF80911F06909120060C9414161092A5
:10221000300310922F0388EE93E0A0E0B0E08093AB
:10222000310390933203A0933303B093340323E13B
:1022300032E030932E0320932D0310923C03109232
:102240003B0380933D0390933E03A0933F03B093E1
:10225000400325E232E030933A032093390345E30B
:1022600051E0509346034093450344E351E05093BB
:1022700048034093470340E351E050934A0340939F
:10228000490341E351E050934C0340934B0342E335
:1022900051E050934E0340934D0346E351E0509379
:1022A000500340934F031092520310925303109225
:1022B0005403109255031092D9031092D8038093BF
:1022C000DA039093DB03A093DC03B093DD03309338
:1022D000D7032093D60345ED50E05093E30340939A
:1022E000E20344ED50E05093E5034093E40340EDF6
:1022F00050E05093E7034093E60341ED50E05093E4
:10230000E9034093E80342ED50E05093EB03409320
:10231000EA0346ED50E05093ED034093EC03109236
:10232000EF031092F0031092F1031092F203109257
:102330007604109275048093770490937804A093A8
:102340007904B0937A04309374042093730485EC79
:1023500090E09093800480937F0484EC90E09093CD
:1023600082048093810480EC90E0909384048093B5
:10237000830481EC90E0909386048093850482EC42
:1023800090E0909388048093870486EC90E090938B
:102390008A048093890410928C0410928D04109208
:1023A0008E0410928F048091070290910802A091F0
:1023B0000902B0910A028093470690934806A093C1
:1023C0004906B0934A0680910B0290910C02A091AD
:1023D0000D02B0910E0280934B0690934C06A09391
:1023E0004D06B0934E0684E080934F0687E08093BD
:1023F00050061092510684EB8093520686E180933A
:10240000530688E18093540687E18093550689E15D
:1024100080935606E0911E06EC3020F08FEF8093FB
:10242000570610C081E08E0F80931E06E09357067A
:1024300085E0E89FF0011124EE51FA4F88EB9BE014
:1024400092838183E0911E06EC3020F08FEF809321
:10245000580610C081E08E0F80931E06E093580648
:1024600085E0E89FF0011124EE51FA4F88EB9BE0E4
:10247000928381838CE08093260684E280932706F2
:1024800086E08093280685E0809329068FE180937B
:102490002A068EE180932B0683E280932C0682E24B
:1024A00080932D0685E480932E0684E480932F0686
:1024B00080E480933206109237061092380610920C
:1024C000390610923A0610923B0610923C06109282
:1024D0003D0610923E06E1E6F6E02FE137E08FEF91
:1024E0009FEFDC01128213821482158216821782FA
:1024F0001086118683879487A587B6878787908BF8
:10250000A18BB28B12861182108273962E173F0711
:1025100049F78DE090E00E947C15FC011382128245
:1025200087E392E091838083118687E2848384E14C
:10253000828784E083871486F0935E06E0935D06CD
:1025400010925F061092600685E28093110510924A
:1025500013051092200610921F0610922206109268
:102560002106109224061092230661E070E080E0BC
:1025700090E00E949D16009789F09093200680932A
:102580001F061092220610922106209123063091F8
:102590002406232BC1F4FC01108215C080911F0674
:1025A00090912006009711F00E94141610922006B8
:1025B00010921F06109224061092230610922206F3
:1025C000109221060895109224061092230661E4C9
:1025D00072E080911F06909120060C9490170E9443
:1025E000311308F481E00895E89409C097FB3EF4A4
:1025F00090958095709561957F4F8F4F9F4F992350
:10260000A9F0F92F96E9BB279395F69587957795CD
:102610006795B795F111F8CFFAF4BB0F11F460FF8D
:102620001BC06F5F7F4F8F4F9F4F16C0882311F0E5
:1026300096E911C0772321F09EE8872F762F05C0F9
:10264000662371F096E8862F70E060E02AF09A9594
:10265000660F771F881FDAF7880F9695879597F989
:102660000895990F0008550FAA0BE0E8FEEF161623
:102670001706E807F907C0F012161306E407F50776
:1026800098F0621B730B840B950B39F40A2661F0EA
:10269000232B242B252B21F408950A2609F4A1408D
:1026A000A6958FEF811D811D08950E9468130C94DB
:1026B000D9130E94CB1338F00E94D21320F0952337
:1026C00011F00C94C2130C94C81311240C940D1423
:1026D0000E94EA1370F3959FC1F3950F50E0551FC8
:1026E000629FF001729FBB27F00DB11D639FAA2767
:1026F000F00DB11DAA1F649F6627B00DA11D661FB6
:10270000829F2227B00DA11D621F739FB00DA11DD6
:10271000621F839FA00D611D221F749F3327A00D90
:10272000611D231F849F600D211D822F762F6A2F2C
:1027300011249F5750409AF0F1F088234AF0EE0F91
:10274000FF1FBB1F661F771F881F91505040A9F7BE
:102750009E3F510580F00C94C2130C940D145F3F02
:10276000E4F3983ED4F3869577956795B795F795FA
:10277000E7959F5FC1F7FE2B880F911D9695879572
:1027800097F9089597F99F6780E870E060E00895F1
:102790009FEF80EC089500240A9416161706180679
:1027A0000906089500240A94121613061406050655
:1027B0000895092E0394000C11F4882352F0BB0FE6
:1027C00040F4BF2B11F460FF04C06F5F7F4F8F4F49
:1027D0009F4F089557FD9058440F551F59F05F3F84
:1027E00071F04795880F97FB991F61F09F3F79F033
:1027F00087950895121613061406551FF2CF4695B5
:10280000F1DF08C0161617061806991FF1CF869536
:102810007105610508940895E894BB27662777271A
:10282000CB0197F90895A1E21A2EAA1BBB1BFD014B
:102830000DC0AA1FBB1FEE1FFF1FA217B307E4079F
:10284000F50720F0A21BB30BE40BF50B661F771FF7
:10285000881F991F1A9469F76095709580959095D7
:102860009B01AC01BD01CF010895991B79E004C023
:10287000991F961708F0961B881F7A95C9F78095BF
:102880000895AA1BBB1B51E107C0AA1FBB1FA617B7
:10289000B70710F0A61BB70B881F991F5A95A9F709
:1028A00080959095BC01CD010895EE0FFF1F881F04
:1028B0008BBF0790F691E02D19945058BB27AA279B
:1028C0000E9475140C94D9130E94CB1338F00E9407
:1028D000D21320F039F49F3F19F426F40C94C81356
:1028E0000EF4E095E7FB0C94C213E92F0E94EA1363
:1028F00058F3BA17620773078407950720F079F435
:10290000A6F50C940C140EF4E0950B2EBA2FA02D06
:102910000B01B90190010C01CA01A0011124FF278C
:10292000591B99F0593F50F4503E68F11A16F04087
:10293000A22F232F342F4427585FF3CF4695379586
:102940002795A795F0405395C9F77EF41F16BA0B4B
:10295000620B730B840BBAF09150A1F0FF0FBB1FF9
:10296000661F771F881FC2F70EC0BA0F621F731F42
:10297000841F48F4879577956795B795F7959E3F9F
:1029800008F0B0CF9395880F08F09927EE0F979530
:10299000879508950E94DE140C94D9130E94D213D7
:1029A00058F00E94CB1340F029F45F3F29F00C94BB
:1029B000C21351110C940D140C94C8130E94EA1305
:1029C00068F39923B1F3552391F3951B550BBB275E
:1029D000AA2762177307840738F09F5F5F4F220FA3
:1029E000331F441FAA1FA9F335D00E2E3AF0E0E89A
:1029F00032D091505040E695001CCAF72BD0FE2FE4
:102A000029D0660F771F881FBB1F26173707480777
:102A1000AB07B0E809F0BB0B802DBF01FF2793582F
:102A20005F4F3AF09E3F510578F00C94C2130C941E
:102A30000D145F3FE4F3983ED4F386957795679540
:102A4000B795F7959F5FC9F7880F911D9695879564
:102A500097F90895E1E0660F771F881FBB1F621783
:102A600073078407BA0720F0621B730B840BBA0B41
:102A7000EE1F88F7E09508950E9443156894B11100
:102A80000C940D1408950E94F21388F09F5798F04B
:102A9000B92F9927B751B0F0E1F0660F771F881F63
:102AA000991F1AF0BA95C9F714C0B13091F00E947D
:102AB0000C14B1E008950C940C14672F782F88271C
:102AC000B85F39F0B93FCCF3869577956795B395A4
:102AD000D9F73EF490958095709561957F4F8F4F13
:102AE0009F4F08950E94311308F48FEF08950E94BC
:102AF0003113880B990B08950F931F93CF93DF9396
:102B00008230910510F482E090E0E0912107F0918D
:102B1000220720E030E0A0E0B0E0309719F14081DA
:102B200051810281138148175907C8F0841795070E
:102B300069F4109731F012960C93129713961C9328
:102B400027C0009321071093220722C021153105C9
:102B500019F04217530718F49A01BD01EF01DF0184
:102B6000F801DBCF21153105F9F0281B390B243092
:102B7000310580F48A819B816115710521F0FB018B
:102B80009383828304C09093220780932107FE01E0
:102B9000329644C0FE01E20FF31F819391932250BD
:102BA0003109398328833AC020911F0730912007CB
:102BB000232B41F42091030230910402309320072B
:102BC00020931F0720910102309102022115310547
:102BD00041F42DB73EB74091050250910602241BE7
:102BE000350BE0911F07F0912007E217F307A0F4DF
:102BF0002E1B3F0B2817390778F0AC014E5F5F4F53
:102C00002417350748F04E0F5F1F5093200740935D
:102C10001F078193919302C0E0E0F0E0CF01DF91C4
:102C2000CF911F910F910895CF93DF93009709F4EF
:102C300081C0FC01329713821282A0912107B091CA
:102C40002207109781F420813181820F931F2091F8
:102C50001F07309120072817390751F5F0932007F7
:102C6000E0931F0767C0ED0120E030E0CE17DF07DB
:102C700040F44A815B819E0141155105F1F0EA0162
:102C8000F5CFD383C28340815181840F951FC8172C
:102C9000D90759F488819981840F951F02969183F1
:102CA00080838A819B81938382832115310529F456
:102CB000F0932207E09321073DC0E901FB83EA83FB
:102CC00049915991C40FD51FEC17FD0761F480811C
:102CD0009181840F951F0296E901998388838281EF
:102CE00093819B838A83E0E0F0E012968D919C9122
:102CF0001397009719F0FD01DC01F7CF8D919C919E
:102D000011979D012E5F3F4F820F931F20911F0748
:102D1000309120072817390769F4309729F4109269
:102D200022071092210702C013821282B09320075B
:102D3000A0931F07DF91CF9108956F927F928F929A
:102D40009F92AF92BF92CF92DF92EF92FF920F933A
:102D50001F93CF93DF93009789F4CB01DF91CF913D
:102D60001F910F91FF90EF90DF90CF90BF90AF90A9
:102D70009F908F907F906F900C947C15FC01E60FD4
:102D8000F71F9C0122503109E217F30708F4A9C08C
:102D9000EC01D9010D911C91119706171707B0F09E
:102DA0000530110508F49BC0C801049786179707E2
:102DB00008F495C002501109061B170B01931193DB
:102DC0006D937C93CF010E94141689C05B01A01AF9
:102DD000B10A4C01800E911EA0912107B0912207EB
:102DE000612C712CE12CF12C109709F446C08D91C7
:102DF0009C911197A815B905B1F56C0142E0C40E7C
:102E0000D11CCA14DB0478F14C018A189B086401B8
:102E100042E0C40ED11C1296BC9012971396AC914E
:102E2000B5E0CB16D10440F0B282A38391828082B8
:102E3000D9016D937C9309C00E5F1F4F800F911FC6
:102E4000F90191838083EB2DFA2FE114F10431F025
:102E5000D7011396FC93EE93129741C0F09322078B
:102E6000E09321073CC06816790608F43C017D0117
:102E700012960D90BC91A02DB7CF80911F07909115
:102E8000200788169906E1F466167706C8F4809143
:102E9000010290910202009741F48DB79EB74091D4
:102EA000050250910602841B950BE817F907C8F438
:102EB000F0932007E0931F07F901718360830FC02F
:102EC000CB010E947C157C01009759F0A801BE013E
:102ED0000E948717CE010E941416C70104C0CE01BC
:102EE00002C080E090E0DF91CF911F910F91FF90A1
:102EF000EF90DF90CF90BF90AF909F908F907F909A
:102F00006F90089581E090E0F8940C949717FB017E
:102F1000DC0102C001900D9241505040D8F7089555
:102F2000FB01DC0101900D920020E1F7089511E012
:102F3000C4E9D1E000E006C0802FFE010E945514D4
:102F40002196011DC539D10780E00807A9F7F8943B
:022F5000FFCFB1
:102F5200FF000023072000363738391B1D1A1C00DA
:102F620000000097086A080F033E0862084E083FF7
:102F720008000000006F02C801F201BC0223020136
:102F8200021502000000001403C8010F030E030D16
:0E2F92000A006E616E00696E66006F76660062
:00000001FF
