:100000000C9461010C9492010C9492010C94920155
:100010000C9492010C9492010C9492010C94920114
:100020000C9492010C9446090C9446090C944609D0
:100030000C9492010C944C040C9492010C94920137
:100040000C9492010C94C4060C9492010C949201AD
:100050000C9492010C9492010C9492010C94020461
:100060000C9492010C94BB050C9491050C94920194
:100070000C9492010C9492010C9492010C949201B4
:100080000C9492010C9492010C9492010C949201A4
:100090000C9492010C9492010C9492010C945009CE
:1000A0000C9492010C9492010C9492010C94920184
:1000B0000C9492010C9492010C9492010C94E5051D
:1000C0000C9492010C9492010C9492010C9467058B
:1000D0000C943D050C9492010C9413050C94E904C6
:1000E0000C9492019D0AA00A8F0A930A990AD70AD2
:1000F000A40AA80AAE0AB20AB60ABC0AC00AC40A0E
:10010000D70ACA0ACE0AD20A0C94A80A0C94930AF7
:100110000C94A40A0C940C080C94E3010C94B20AFD
:100120000C94FA070C94CA0A0C947D030C94990A57
:100130000C94CE0A0C9406020C9428080C946002CD
:100140000C9455080C94DD030C94FD070C94F201FB
:100150000C94950D0C94D20A0C9414020C94200863
:100160000C94AE0A0C94D70A0C94FB070C94AD02C5
:100170000C94C40A0C94B9010C94B60A0C949D0A10
:100180000C948F0A0C948F0D0C94FC070C947C0338
:100190000C94BC0A0C94C00A0C94A00A0000200025
:1001A0002300260029002C002F003200000100004F
:1001B0000301060109010200002100240027002A92
:1001C000002D003000330001010000040107010A86
:1001D0000100002200250028002B002E00310034F1
:1001E0000002010000050108010B010505050507D6
:1001F0000508080808020202020A0A0808040404A2
:1002000004010101010101010103030303030303CD
:1002100003040707070C0C0C0C0C0C0C0C0202025C
:100220000206060606060606060B0B0B0B0B0B0B4F
:100230000B010210202008081020401020408002EE
:10024000010201080402010102040810204080801C
:1002500040201008040201800402018040201008A0
:100260000402010804020101020408102040800178
:100270000204081020408000000A0B02090C0D0E39
:100280000807030401000000000000000000000057
:10029000000000000000000000000000000000005E
:1002A000000000121110000000000000000000001B
:1002B0000000000000000000000000000000950D9C
:1002C0008F0D11241FBECFEFD1E2DEBFCDBF00E006
:1002D0000CBF12E0A0E0B2E0E2E4F4E200E00BBF09
:1002E00002C007900D92A036B107D9F727E0A0E62B
:1002F000B2E001C01D92A533B207E1F711E0C0E6FC
:10030000D1E000E006C021970109802FFE010E9484
:10031000EC0FCF35D10780E00807A9F70E94430B07
:100320000C940F120C9400003FB7F8948091850252
:1003300090918602A0918702B091880226B5A89B71
:1003400005C02F3F19F00196A11DB11D3FBFBA2F67
:10035000A92F982F8827820F911DA11DB11DBC01C7
:10036000CD0142E0660F771F881F991F4A95D1F78C
:100370000895CF92DF92EF92FF920F931F93CF9346
:10038000DF936C017A018B01C0E0D0E0CE15DF0570
:1003900081F0D8016D918D01D601ED91FC91019014
:1003A000F081E02DC6011995892B11F02196EECF31
:1003B0007E01C701DF91CF911F910F91FF90EF90C8
:1003C000DF90CF900895FC01538D448D252F30E0B0
:1003D000842F90E0821B930B541710F0CF96089552
:1003E00001970895FC01918D828D981761F0828D9F
:1003F000DF01A80FB11D5D968C91928D9F5F9F7359
:10040000928F90E008958FEF9FEF0895FC01918DFA
:10041000828D981731F0828DE80FF11D858D90E067
:1004200008958FEF9FEF0895FC01918D228D892F04
:1004300090E0805C9F4F821B91098F7399270895EC
:1004400080EA92E00E94140221E0892B09F420E066
:10045000822F08958DE393E00E94140221E0892BFE
:1004600009F420E0822F08958AED93E00E9414029F
:1004700021E0892B09F420E0822F0895FC01848D6E
:10048000DF01A80FB11DA35ABF4F2C91848D90E0BE
:1004900001968F739927848FA689B7892C93A08999
:1004A000B1898C91837080648C93938D848D981323
:1004B00006C00288F389E02D80818F7D80830895B6
:1004C000EF92FF920F931F93CF93DF93EC0181E0A4
:1004D000888F9B8D8C8D981305C0E889F989808160
:1004E00085FD26C0F62E0B8D10E00F5F1F4F0F739A
:1004F0001127E02E8C8DE8120CC00FB607FCFACF46
:10050000E889F989808185FFF5CFCE010E943E02FE
:10051000F1CF8B8DFE01E80FF11DE35AFF4FF08202
:100520009FB7F8940B8FEA89FB89808180620AC0AB
:100530009FB7F894EE89FF896083E889F989808103
:100540008370806480839FBF81E090E0DF91CF91D2
:100550001F910F91FF90EF900895CF93DF93EC01DF
:10056000888D8823C9F0EA89FB89808185FD05C0D3
:10057000A889B9898C9186FD0FC00FB607FCF5CF0D
:10058000808185FFF2CFA889B9898C9185FFEDCF55
:10059000CE010E943E02E7CFDF91CF910895E0E0C7
:1005A000F0E0199480E090E0892B21F00E94340261
:1005B000811119C080E090E0892B41F080E090E04B
:1005C000892B21F00E940000811110C00E942A0294
:1005D00081110FC080E090E0892B81F00E94200201
:1005E00081110AC008950E940000E4CF0E9400001B
:1005F000EDCF0E94CF02EECF0C94000008958EBD87
:1006000000000DB407FEFDCF8EB50895CF92DF92A6
:10061000EF92FF92CF93DF93FC01C081CC3008F0C2
:1006200064C0D0E085E08C9FF0018D9FF00D112417
:10063000E75BFA4F838128E830E06901C81AD108E6
:1006400087FDD394CC0CDD1CCC0CDD1C683C710503
:100650003CF50D2C000CEE08FF08848128E532E003
:10066000281B310987FD3395220F331F220F331FBB
:10067000C901330FAA0BBB0B9C01AD012C193D091D
:100680004E095F09DB010E94A70F24EB30E040E038
:1006900050E00E947D0FC20ED31EE41EF51E13C053
:1006A0006C157D0584F0248188E592E0821B910918
:1006B00027FD9395880F991F880F991F6B01861747
:1006C00097070CF46C018FB7F89495E09C9FF001AC
:1006D0009D9FF00D1124E75BFA4F96E0C91AD108EF
:1006E000CC0CDD1CD282C1828FBFDF91CF91FF90F5
:1006F000EF90DF90CF900895089580E090E0089506
:100700001F93CF93DF93EC01162F88818C3008F074
:100710004DC061E0812F0E94070BE88195E09E9F0C
:10072000F0011124E75BFA4F1F738081807C182B46
:1007300010831382E8819E9FF0011124E75BFA4F3A
:10074000148288816CE00E94E00F9CE0899FA001E8
:10075000112420E030E095E0BA01620F731F969FEC
:10076000F001979FF00D1124E75BFA4F608166FD61
:1007700013C02F5F3F4F2C30310571F781110CC032
:100780001092800082E08093810010928500109288
:10079000840086BB80936F00E88185E0E89FF001CC
:1007A0001124E75BFA4F8081806480838881DF9128
:1007B000CF911F9108950E94FA110F931F93CF9329
:1007C000DF938C01C62FD62FD07FD1606D2F0E9472
:1007D00005096D2FC8010E94180980E1C89FB0016A
:1007E0001124C62FC1606C2FC8010E9405096C2F0F
:1007F000C8010E94180981E090E0DF91CF911F911C
:100800000F9108951F920F920FB60F9211242F93FC
:100810003F938F939F93AF93BF9380918102909169
:100820008202A0918302B09184023091800223E081
:10083000230F2D3720F40196A11DB11D05C026E818
:10084000230F0296A11DB11D209380028093810287
:1008500090938202A0938302B093840280918502D8
:1008600090918602A0918702B09188020196A11D05
:10087000B11D8093850290938602A0938702B09366
:100880008802BF91AF919F918F913F912F910F90CF
:100890000FBE0F901F9018951F920F920FB60F92D8
:1008A00011240BB60F922F933F934F935F936F9347
:1008B0007F938F939F93AF93BF93EF93FF93809119
:1008C0007B0290917C02A0917D02B0917E02892BE7
:1008D0008A2B8B2B49F190917A0280910000892715
:1008E0008093000080917B0290917C02A0917D0218
:1008F000B0917E02181619061A061B060CF056C097
:1009000080917B0290917C02A0917D02B0917E0249
:100910000197A109B10980937B0290937C02A09377
:100920007D02B0937E0242C080910002E6EBF1E0CE
:10093000E4919FEF90930002E230C9F050F4EE236F
:1009400099F0E13081F590916F009D7F90936F0059
:100950002AC0E43019F1E0F0E53029F590917300F8
:100960009D7F909373001FC010926E001CC09091E9
:1009700070009D7F9093700091E09093B0009091F3
:10098000B100987F94609093B1001092B3000BC0B7
:10099000909171009D7F9093710005C090917200BD
:1009A0009D7F9093720060E00E94D80AFF91EF91C2
:1009B000BF91AF919F918F917F916F915F914F9177
:1009C0003F912F910F900BBE0F900FBE0F901F9075
:1009D00018951F920F920FB60F9211240BB60F921B
:1009E0002F933F934F935F936F937F938F939F9337
:1009F000AF93BF93EF93FF9380EA92E00E943E0291
:100A0000FF91EF91BF91AF919F918F917F916F91E6
:100A10005F914F913F912F910F900BBE0F900FBEA2
:100A20000F901F9018951F920F920FB60F921124DE
:100A30000BB60F922F933F934F935F936F937F93D8
:100A40008F939F93AF93BF93EF93FF9380EA92E0CE
:100A50000E942D09FF91EF91BF91AF919F918F91CE
:100A60007F916F915F914F913F912F910F900BBEAE
:100A70000F900FBE0F901F9018951F920F920FB6F8
:100A80000F9211240BB60F922F933F934F935F93C6
:100A90006F937F938F939F93AF93BF93EF93FF9346
:100AA0008DE393E00E943E02FF91EF91BF91AF91E1
:100AB0009F918F917F916F915F914F913F912F9176
:100AC0000F900BBE0F900FBE0F901F9018951F92A6
:100AD0000F920FB60F9211240BB60F922F933F93E4
:100AE0004F935F936F937F938F939F93AF93BF9336
:100AF000EF93FF938DE393E00E942D09FF91EF9117
:100B0000BF91AF919F918F917F916F915F914F9125
:100B10003F912F910F900BBE0F900FBE0F901F9023
:100B200018951F920F920FB60F9211240BB60F92C9
:100B30002F933F934F935F936F937F938F939F93E5
:100B4000AF93BF93EF93FF938AED93E00E943E0231
:100B5000FF91EF91BF91AF919F918F917F916F9195
:100B60005F914F913F912F910F900BBE0F900FBE51
:100B70000F901F9018951F920F920FB60F9211248D
:100B80000BB60F922F933F934F935F936F937F9387
:100B90008F939F93AF93BF93EF93FF938AED93E06F
:100BA0000E942D09FF91EF91BF91AF919F918F917D
:100BB0007F916F915F914F913F912F910F900BBE5D
:100BC0000F900FBE0F901F9018951F920F920FB6A7
:100BD0000F9211240BB60F922F933F934F935F9375
:100BE0006F937F938F939F93AF93BF93CF93DF9335
:100BF000EF93FF932091780430E0F901E958FD4F1D
:100C00008491F901EF5CFD4FD491F901E551FE4F5C
:100C1000C491CC2379F081110E94820AEC2FF0E07C
:100C2000EE0FFF1FE456FE4FA591B491EC91ED231A
:100C300081E009F480E020917C0430917D042F5FF5
:100C40003F4F30937D0420937C0490917B04953634
:100C500018F096E090937704909177049430C9F15E
:100C600028F4923069F09330D1F05EC0953009F4E9
:100C700051C0963009F058C091E09093480551C09A
:100C8000811152C020917C0430917D0424363105BD
:100C900008F442C01092480510927B041CC08130B9
:100CA00009F042C0E0917B0491E09E0F90937B0499
:100CB000F0E020917C0430917D04EE0FFF1FE95895
:100CC000FB4F3087278310927D0410927C0494E0C0
:100CD00029C0811117C0E0917B0491E09E0F909391
:100CE0007B04F0E020917C0430917D04EE0FFF1F27
:100CF000E958FB4F3087278310927D0410927C04C3
:100D000093E010C020917C0430917D04253631059C
:100D100058F007C0811108C010927D0410927C0425
:100D200003C095E09093770490917A049923B9F0E9
:100D300081110AC080917904882321F0809179047F
:100D400061E009C02F9A0BC080917904882331F0AB
:100D50008091790460E00E94D80A01C02F98FF9129
:100D6000EF91DF91CF91BF91AF919F918F917F9143
:100D70006F915F914F913F912F910F900BBE0F900C
:100D80000FBE0F901F9018951F920F920FB60F92E3
:100D900011240BB60F922F933F934F935F936F9352
:100DA0007F938F939F93AF93BF93EF93FF93809124
:100DB000790287FF05C0109285001092840016C04A
:100DC00020917902022E000C330B8091850590E072
:100DD000281739075CF43091790225E03203F001DD
:100DE0001124E75BFA4F808186FD15C0809179025E
:100DF0008F5F8093790220917902022E000C330BD1
:100E00008091850590E02817390794F48091790244
:100E10008C302CF10DC0309179023203F001112495
:100E2000E75BFA4F808160E08F730E94D80ADECFC3
:100E3000809184009091850084349C4918F480E46A
:100E40009CE905C080918400909185000496909360
:100E50008900809388008FEF809379022AC04091A7
:100E60008400509185003091790225E03203F00131
:100E70001124E75BFA4F81819281840F951F909333
:100E8000890080938800309179023203F0011124A7
:100E9000E75BFA4F808186FF0CC030917902320304
:100EA000F0011124E75BFA4F808161E08F730E94AB
:100EB000D80AFF91EF91BF91AF919F918F917F9150
:100EC0006F915F914F913F912F910F900BBE0F90BB
:100ED0000FBE0F901F90189530919302313208F099
:100EE0004BC0809191028111FCCF90916E0622E05F
:100EF0002093910221E0209390022FEF20934C0643
:100F000010924B0630934A06EEE4F6E0AAE2B6E011
:100F100020E0321721F041914D932F5FFACF1092CC
:100F2000290620912906990F922B909329069091DA
:100F30008F02913061F410928F0290912906909364
:100F4000BB009091BC0093FDF8CF95EC01C095EEED
:100F50009093BC00909191029230E1F390914C06F5
:100F60009F3F79F080914C06803241F080914C0691
:100F7000803331F084E005C081E003C082E001C02D
:100F800083E0109292021092930210924D060895FF
:100F900085ED8093BC008091BC0084FDFCCF109255
:100FA0009102089540910406262F30E0240F311D50
:100FB00021323105DCF4209191022430C9F4FC0186
:100FC00080E090E0861758F4309104062191DC010E
:100FD000AC51BA4FA30FB11D2C930196F3CF809162
:100FE0000406680F6093040680E0089581E0089588
:100FF00082E00895089508950895E0918A0280910D
:101000008902E81730F4F0E0EC53FA4F808190E069
:1010100008958FEF9FEF089590918A028091890241
:10102000981750F4E92FF0E0EC53FA4F208130E0AC
:101030009F5F90938A0202C02FEF3FEFC90108958E
:101040008091890290E020918A02821B9109089583
:10105000CF92DF92EF92FF920F931F93CF93DF9384
:101060007C01CB018A0120914D06222389F0EB01FE
:101070006B01C40ED51ECC15DD0569F06991D70151
:10108000ED91FC910190F081E02DC7011995F3CF0E
:10109000642F0E94D207C801DF91CF911F910F9159
:1010A000FF90EF90DF90CF900895CF93DF931F9242
:1010B000CDB7DEB7698320914D062223D1F0209170
:1010C0009302203240F021E030E0FC0133832283A0
:1010D00080E090E015C080919202E82FF0E0E25BA2
:1010E000F94F998190838F5F80939202809393024E
:1010F00005C061E0CE0101960E94D20781E090E038
:101100000F90DF91CF910895EAEDF3E0A089B189C6
:1011100082E08C93A485B5851C92A685B7858FEC5B
:101120008C93108EA489B58986E08C93A289B389AB
:101130008C9180618C93A289B3898C9188608C9307
:10114000A289B3898C9180688C930288F389E02D01
:1011500080818F7D80830895CF93DF93009779F00E
:10116000FC0101900020E9F73197AF01481B590BB2
:10117000BC018AED93E00E94B901EC0102C0C0E01D
:10118000D0E042E050E06CE572E08AED93E00E942E
:10119000B9018C0F9D1FDF91CF9108950F931F937D
:1011A000CF93DF93162F072FCDE8D5E09C8521E064
:1011B00020934D0690936E06109292021092930225
:1011C000AA85BB85ED91FC9111970190F081E02DEE
:1011D000682FCD0119958A859B85DC01ED91FC91E5
:1011E0000190F081E02D602F19958A859B85DC01A7
:1011F000ED91FC910190F081E02D612F1995DF9127
:10120000CF911F910F910C946C07FC01248131E068
:1012100030934D0620936E06109292021092930224
:101220008485682B84E992E00E9455080C946C0731
:101230000F931F93CF938C01C62F64600E94050902
:101240006C2F6B7FC8010E94050983EC90E0019729
:10125000F1F7CF911F910F910895FC01A089B189F9
:101260008C91A689B78982FD0FC09C91818D8F5F7B
:101270008F73228D821749F0218DDF01A20FB11DDE
:101280005D969C93818F08958C9108951F920F9283
:101290000FB60F9211240F900FBE0F901F9018954C
:1012A0001F920F920FB60F9211240BB60F922F932D
:1012B0003F934F935F936F937F938F939F93AF93DE
:1012C000BF93EF93FF938091B900887F803609F434
:1012D0009CC068F5883209F45BC090F4803109F451
:1012E00054C038F4882309F4F6C0883009F44DC09E
:1012F000F6C0883109F44CC0803209F45DC0EFC0FB
:10130000803409F468C048F4803309F455C0883348
:1013100009F0E5C080934C06D8C0803509F44FC071
:10132000883509F45DC0883409F0D9C0D6C0883941
:1013300009F4C7C0A8F4883709F467C038F48836C0
:1013400009F463C0803709F460C0C9C0883809F463
:10135000B8C0803909F45FC0803809F0C0C05BC0F4
:10136000803B09F486C038F4803A09F466C0883AB4
:1013700009F47FC0B4C0803C09F4A7C0883C09F4DC
:10138000A4C0883B09F48AC0AAC08091290610C075
:1013900090914B0680914A06981770F5E0914B06A4
:1013A00081E08E0F80934B06F0E0E65DF94F80817F
:1013B0008093BB0085EC86C080934C068EC0E09184
:1013C0004B0681E08E0F80934B068091BB00F0E0CE
:1013D000E65DF94F808390914B0680914A066EC07E
:1013E000E0914B0681E08E0F80934B068091BB000D
:1013F000F0E0E65DF94F80838091900281116DC02D
:1014000081E080938F0284EA61C083E0809391023F
:1014100010922606CFCF80912606803208F051C068
:10142000E091260681E08E0F809326068091BB0016
:10143000F0E0EA5FF94F8083BDCF85EC8093BC007C
:101440001092910280912606803230F4E0912606B7
:10145000F0E0EA5FF94F10826091260670E0E091BB
:101460008D02F0918E0286E096E019951092260684
:1014700036C084E080939102109205061092040613
:10148000E0918B02F0918C021995809104068111F4
:1014900005C081E0809304061092E405E091050602
:1014A00081E08E0F80930506F0E0EC51FA4F8081C9
:1014B0008093BB009091050680910406981708F46C
:1014C00079CF85E88093BC000AC085EC8093BC008E
:1014D0001092910204C010924C060E94C807FF911E
:1014E000EF91BF91AF919F918F917F916F915F919C
:1014F0004F913F912F910F900BBE0F900FBE0F9009
:101500001F90189590E0FC013197E231F10508F049
:101510004EC08827EE58FF4F8F4F0C94EC0F8091F0
:1015200080008F7703C0809180008F7D8093800042
:10153000089580918000877FF9CF84B58F7702C0AE
:1015400084B58F7D84BD08958091B0008F7703C0EE
:101550008091B0008F7D8093B000089580919000BD
:101560008F7707C0809190008F7D03C0809190009D
:10157000877F8093900008958091A0008F7707C0A7
:101580008091A0008F7D03C08091A000877F809311
:10159000A0000895809120018F7707C080912001DD
:1015A0008F7D03C080912001877F80932001089563
:1015B0001F93CF93DF93282F30E0F901E958FD4FB7
:1015C0008491F901EF5CFD4FD491F901E551FE4F93
:1015D000C491CC23C1F0162F81110E94820AEC2FF6
:1015E000F0E0EE0FFF1FEF52FE4FA591B4919FB7B1
:1015F000F894111104C08C91D095D82302C0EC91BD
:10160000DE2BDC939FBFDF91CF911F910895CF9385
:10161000DF9390E0FC01EF5CFD4F2491FC01E5516C
:10162000FE4F8491882361F190E0880F991FFC019F
:10163000E954FE4FC591D491FC01EF52FE4FA591A4
:10164000B491611109C09FB7F894888120958223D5
:101650008883EC912E230BC0623061F49FB7F8941D
:101660008881322F309583238883EC912E2B2C9305
:101670009FBF06C08FB7F894E8812E2B28838FBFB9
:10168000DF91CF910895789484B5826084BD84B54C
:10169000816084BD85B5826085BD85B5816085BD6D
:1016A00080916E00816080936E0010928100809125
:1016B00081008260809381008091810081608093AD
:1016C0008100809180008160809380008091B100D2
:1016D00084608093B1008091B00081608093B000FD
:1016E000809191008260809391008091910081604F
:1016F0008093910080919000816080939000809110
:10170000A10082608093A1008091A10081608093FC
:10171000A1008091A00081608093A00080912101B0
:101720008260809321018091210181608093210159
:101730008091200181608093200180917A008460F3
:1017400080937A0080917A00826080937A00809101
:101750007A00816080937A0080917A00806880931B
:101760007A001092C1000E94840861E080918E0589
:101770000E94070B60E080918E050E94D80A60E00D
:1017800080918D050E94070B84E992E09093980563
:101790008093970510928A02109289021092920209
:1017A000109293021092910281E080939002109225
:1017B0008F0261E084E10E94D80A61E085E10E9425
:1017C000D80A8091B9008E7F8093B9008091B900CA
:1017D0008D7F8093B90088E48093B80085E480937E
:1017E000BC008AEF97E090938C0280938B028BEF82
:1017F00097E090938E0280938D0280E090E1A0E0CC
:10180000B0E080939A0590939B05A0939C05B093BC
:101810009D058AE090E0A0E0B0E080939E05909363
:101820009F05A093A005B093A10580E090E0A0E003
:10183000B0E48093A2059093A305A093A405B09370
:10184000A50560E070E185E00E94CE086FE979E3CC
:1018500080E00E94CE08CDE8D5E08E01712C40E2F8
:10186000A42E42E0B42E56E6852E52E0952E6BEC67
:10187000E62E67E0F62E7BE8C72EDD24D394F80130
:1018800094818281898F9A8F61E00E94070B61E0C9
:101890008A8D0E94070BF801908586818D8F9E8F1F
:1018A00061E00E94070B60E08E8D0E94070B61E0F3
:1018B0008D8D0E94D80A6FB6F89480917F028111B5
:1018C00026C0F5018491F4012491E82FF0E0EE0F99
:1018D000FF1FE954FE4FA591B4919C91822F89235B
:1018E00021F461E085E30E94D80A61E085E30E946B
:1018F000070B8CB580618CBD8CB580648CBD61E0BC
:1019000084E30E94070B61E083E30E94070B809150
:101910007F028F5F80937F026FBEC7010197F1F74F
:1019200060E08D8D0E94D80A88E80E94FF0283E063
:101930000E94FF0261E08D8D0E94D80AC7010197C5
:10194000F1F760E08D8D0E94D80A88E90E94FF02BD
:1019500080E00E94FF0280E00E94FF0280E00E947F
:10196000FF0280E00E94FF0261E08D8D0E94D80A94
:10197000C6010197F1F760E08D8D0E94D80A80EED4
:101980000E94FF0261E08D8D0E94D80A73940F5F60
:101990001F4F2296F2E07F1272CFC2EBD5E006EB2A
:1019A00015E060E089910E94070B25E0C63BD20755
:1019B000C1F7CEEAD5E098EBC92E95E0D92E780193
:1019C0008FEFE81AF80AF801608170E0C801089604
:1019D0000E948003F701958183818A8B9B8B60E055
:1019E0000E94070B61E08B890E94070B60E08B89E6
:1019F0000E94D80A22968701CE14DF0401F7F894DA
:101A00001092200189E08093210180E293E090937D
:101A1000290180932801109225011092240182E06F
:101A20008093730078948093770410927B04809164
:101A3000780460E00E94070B0E9484086091B6055C
:101A400070E08EEB95E00E9480036091B70570E036
:101A50008FEB95E00E9480038091B8058A3120F4D5
:101A60008091B905893128F48FE392E00E94AC0897
:101A700006C069E170E08EEB95E00E94060380915C
:101A8000B805853B20F48091B905843B28F48FE3A9
:101A900092E00E94AC0806C064EB70E08FEB95E02A
:101AA0000E9406030E9494014B015C0188EEC82E3F
:101AB00083E0D82EE12CF12C0E949401DC01CB01B3
:101AC00088199909AA09BB09883E9340A105B10567
:101AD00098F3F1E0CF1AD108E108F10828EE820E60
:101AE00023E0921EA11CB11CC114D104E104F10435
:101AF00019F78091B8058D3820F48091B9058C389C
:101B000028F48FE392E00E94AC0806C06CE870E015
:101B10008FEB95E00E9406030E94D202C3CF809112
:101B20008605909187050C948C1010929702109264
:101B3000960288EE93E0A0E0B0E080939802909344
:101B40009902A0939A02B0939B0223E132E0309372
:101B50009502209394021092A3021092A202809305
:101B6000A4029093A502A093A602B093A70225E237
:101B700032E03093A1022093A00245E351E050935C
:101B8000AD024093AC0244E351E05093AF02409366
:101B9000AE0240E351E05093B1024093B00241E302
:101BA00051E05093B3024093B20242E351E05093AC
:101BB000B5024093B40246E351E05093B70240931C
:101BC000B6021092B9021092BA021092BB021092A1
:101BD000BC021092400310923F0380934103909304
:101BE0004203A0934303B093440330933E032093F6
:101BF0003D0345ED50E050934A034093490344EDC3
:101C000050E050934C0340934B0340ED50E0509311
:101C10004E0340934D0341ED50E0509350034093E9
:101C20004F0342ED50E0509352034093510346ED71
:101C300050E0509354034093530310925603109274
:101C4000570310925803109259031092DD0310921B
:101C5000DC038093DE039093DF03A093E003B09353
:101C6000E1033093DB032093DA0385EC90E090935B
:101C7000E7038093E60384EC90E09093E90380937C
:101C8000E80380EC90E09093EB038093EA0381EC0F
:101C900090E09093ED038093EC0382EC90E09093BE
:101CA000EF038093EE0386EC90E09093F103809332
:101CB000F0031092F3031092F4031092F5031092C4
:101CC000F6038091070290910802A0910902B09159
:101CD0000A028093AE059093AF05A093B005B09330
:101CE000B10580910B0290910C02A0910D02B09170
:101CF0000E028093B2059093B305A093B405B09300
:101D0000B50584E08093B60587E08093B70510920F
:101D1000B80584EB8093B90586E18093BA0588E124
:101D20008093BB0587E18093BC0589E18093BD0565
:101D3000E0918505EC3020F08FEF8093BE0510C058
:101D400081E08E0F80938505E093BE0585E0E89FD6
:101D5000F0011124E75BFA4F88EB9BE092838183CB
:101D6000E0918505EC3020F08FEF8093BF0510C027
:101D700081E08E0F80938505E093BF0585E0E89FA5
:101D8000F0011124E75BFA4F88EB9BE0928381839B
:101D90008CE080938D0584E280938E0586E08093AD
:101DA0008F0585E0809390058FE1809391058EE10A
:101DB0008093920583E28093930582E28093940559
:101DC00085E48093950584E48093960580E4809370
:101DD000990510929E0510929F051092A0051092F1
:101DE000A1051092A2051092A3051092A4051092CD
:101DF000A505E3E7F6E021E337E08FEF9FEFDC0195
:101E0000128213821482158216821782108611861E
:101E100083879487A587B6878787908BA18BB28BA2
:101E200012861182108273962E173F0749F78DE0B4
:101E300090E00E94F40FFC011382128287E392E08B
:101E400091838083118687E2848384E1828784E0A2
:101E500083871486F0937006E0936F0610927106E4
:101E60001092720685E28093780410927A041092A0
:101E700087051092860510928905109288051092A8
:101E80008B0510928A0561E070E080E090E00E948E
:101E90001511009789F0909387058093860510921D
:101EA00089051092880520918A0530918B05232B96
:101EB000C1F4FC01108215C08091860590918705C0
:101EC000009711F00E948C101092870510928605E1
:101ED00010928B0510928A05109289051092880540
:101EE000089510928B0510928A056EE572E080913C
:101EF0008605909187050C940812052E97FB1EF419
:101F000000940E94940F57FD07D00E94AF0F07FC6A
:101F100003D04EF40C94940F509540953095219534
:101F20003F4F4F4F5F4F0895909580957095619505
:101F30007F4F8F4F9F4F08950E94D10FA59F900D07
:101F4000B49F900DA49F800D911D11240895B7FF9B
:101F50000C949C0F0E949C0F821B930B0895A1E28E
:101F60001A2EAA1BBB1BFD010DC0AA1FBB1FEE1F13
:101F7000FF1FA217B307E407F50720F0A21BB30B5E
:101F8000E40BF50B661F771F881F991F1A9469F7DA
:101F900060957095809590959B01AC01BD01CF0136
:101FA0000895A29FB001B39FC001A39F700D811D32
:101FB0001124911DB29F700D811D1124911D089552
:101FC000991B79E004C0991F961708F0961B881F8B
:101FD0007A95C9F780950895EE0FFF1F881F8BBF74
:101FE0000790F691E02D19940F931F93CF93DF93F1
:101FF0008230910510F482E090E0E0913307F09197
:10200000340720E030E0A0E0B0E0309719F14081E3
:1020100051810281138148175907C8F08417950729
:1020200069F4109731F012960C93129713961C9343
:1020300027C0009333071093340722C021153105C0
:1020400019F04217530718F49A01BD01EF01DF019F
:10205000F801DBCF21153105F9F0281B390B2430AD
:10206000310580F48A819B816115710521F0FB01A6
:102070009383828304C09093340780933307FE01D7
:10208000329644C0FE01E20FF31F819391932250D8
:102090003109398328833AC02091310730913207C2
:1020A000232B41F420910302309104023093320734
:1020B0002093310720910102309102022115310550
:1020C00041F42DB73EB74091050250910602241B02
:1020D000350BE0913107F0913207E217F307A0F4D6
:1020E0002E1B3F0B2817390778F0AC014E5F5F4F6E
:1020F0002417350748F04E0F5F1F50933207409367
:1021000031078193919302C0E0E0F0E0CF01DF91CD
:10211000CF911F910F910895CF93DF93009709F40A
:1021200081C0FC01329713821282A0913307B091D3
:102130003407109781F420813181820F931F209101
:102140003107309132072817390751F5F0933207DC
:10215000E093310767C0ED0120E030E0CE17DF07E4
:1021600040F44A815B819E0141155105F1F0EA017D
:10217000F5CFD383C28340815181840F951FC81747
:10218000D90759F488819981840F951F029691830C
:1021900080838A819B81938382832115310529F471
:1021A000F0933407E09333073DC0E901FB83EA83F2
:1021B00049915991C40FD51FEC17FD0761F4808137
:1021C0009181840F951F0296E9019983888382810A
:1021D00093819B838A83E0E0F0E012968D919C913D
:1021E0001397009719F0FD01DC01F7CF8D919C91B9
:1021F00011979D012E5F3F4F820F931F2091310752
:10220000309132072817390769F4309729F4109272
:1022100034071092330702C013821282B093320740
:10222000A0933107DF91CF9108956F927F928F92A3
:102230009F92AF92BF92CF92DF92EF92FF920F9355
:102240001F93CF93DF93009789F4CB01DF91CF9158
:102250001F910F91FF90EF90DF90CF90BF90AF90C4
:102260009F908F907F906F900C94F40FFC01E60F7D
:10227000F71F9C0122503109E217F30708F4A9C0A7
:10228000EC01D9010D911C91119706171707B0F0B9
:102290000530110508F49BC0C801049786179707FD
:1022A00008F495C002501109061B170B01931193F6
:1022B0006D937C93CF010E948C1089C05B01A01AA2
:1022C000B10A4C01800E911EA0913307B0913407E2
:1022D000612C712CE12CF12C109709F446C08D91E2
:1022E0009C911197A815B905B1F56C0142E0C40E97
:1022F000D11CCA14DB0478F14C018A189B086401D4
:1023000042E0C40ED11C1296BC9012971396AC9169
:10231000B5E0CB16D10440F0B282A38391828082D3
:10232000D9016D937C9309C00E5F1F4F800F911FE1
:10233000F90191838083EB2DFA2FE114F10431F040
:10234000D7011396FC93EE93129741C0F093340794
:10235000E09333073CC06816790608F43C017D0120
:1023600012960D90BC91A02DB7CF8091310790911E
:10237000320788169906E1F466167706C8F480914C
:10238000010290910202009741F48DB79EB74091EF
:10239000050250910602841B950BE817F907C8F453
:1023A000F0933207E0933107F901718360830FC026
:1023B000CB010E94F40F7C01009759F0A801BE01E7
:1023C0000E94FF11CE010E948C10C70104C0CE01F3
:1023D00002C080E090E0DF91CF911F910F91FF90BC
:1023E000EF90DF90CF90BF90AF909F908F907F90B5
:1023F0006F90089581E090E0F8940C940F12FB0127
:10240000DC0102C001900D9241505040D8F7089570
:10241000FB01DC0101900D920020E1F7089511E02D
:10242000C0E6D1E000E006C0802FFE010E94EC0F64
:102430002196011DC136D10780E00807A9F7F8945D
:02244000FFCFCC
:10244200FF000035072000363738391B1D1A1C00E3
:10245200000000550828087D03FC0720080C08FD31
:1024620007000000006002B901E301AD021402F2AC
:1024720001060200000000DD03B9017D037C035365
:102482006572766F20616E676C65206973206F7567
:1024920074206F662072616E676521000D0A00006C
:00000001FF
