:100000000C9461010C9492010C9492010C94920155
:100010000C9492010C9492010C9492010C94920114
:100020000C9492010C9489040C9489040C94890416
:100030000C9492010C9434060C9492010C9492014D
:100040000C9492010C94AC080C9492010C949201C3
:100050000C9492010C9492010C9492010C94EA0578
:100060000C9492010C94A3070C9479070C949201C0
:100070000C9492010C9492010C9492010C949201B4
:100080000C9492010C9492010C9492010C949201A4
:100090000C9492010C9492010C9492010C94930490
:1000A0000C9492010C9492010C9492010C94920184
:1000B0000C9492010C9492010C9492010C94CD0733
:1000C0000C9492010C9492010C9492010C944F07A1
:1000D0000C9425070C9492010C94FB060C94D10609
:1000E0000C9492016B026E025D0261026702A5022E
:1000F000720276027C02800284028A028E029202DE
:10010000A50298029C02A0020C9484020C94B803ED
:100110000C948A020C9411030C946E0D0C94C7017C
:100120000C94A5020C94C9010C943B030C94980206
:100130000C94F4010C946E020C94C6010C94EC0126
:100140000C9461020C948E020C945F040C94670270
:100150000C945E040C9472020C94D8010C94620D01
:100160000C945D020C9492020C9480020C949C02FC
:100170000C944A030C945E030C9464040C946B027C
:100180000C9421020C9405040C94C8010C947C027C
:100190000C946C030C9476020C94A00200002000D6
:1001A0002300260029002C002F003200000100004F
:1001B0000301060109010200002100240027002A92
:1001C000002D003000330001010000040107010A86
:1001D0000100002200250028002B002E00310034F1
:1001E0000002010000050108010B010505050507D6
:1001F0000508080808020202020A0A0808040404A2
:1002000004010101010101010103030303030303CD
:1002100003040707070C0C0C0C0C0C0C0C0202025C
:100220000206060606060606060B0B0B0B0B0B0B4F
:100230000B010210202008081020401020408002EE
:10024000010201080402010102040810204080801C
:1002500040201008040201800402018040201008A0
:100260000402010804020101020408102040800178
:100270000204081020408000000A0B02090C0D0E39
:100280000807030401000000000000000000000057
:10029000000000000000000000000000000000005E
:1002A000000000121110000000000000000000001B
:1002B00000000000000000000000000000006E0DC3
:1002C000620D11241FBECFEFD1E2DEBFCDBF00E033
:1002D0000CBF12E0A0E0B2E0E6E7F3E200E00BBF03
:1002E00002C007900D92A634B107D9F727E0A6E423
:1002F000B2E001C01D92A132B207E1F711E0C0E601
:10030000D1E000E006C021970109802FFE010E9484
:10031000860FCF35D10780E00807A9F70E949A0A17
:100320000C94A9110C94000085ED8093BC00809181
:10033000BC0084FDFCCF1092000308954091B302ED
:10034000262F30E0240F311D21323105DCF42091BD
:1003500000032430C9F4FC0180E090E0861758F4D3
:100360003091B3022191DC01AF56BD4FA30FB11DF7
:100370002C930196F3CF8091B302680F6093B30280
:1003800080E0089581E0089582E008950895089539
:100390000895E091900280918F02E81730F4F0E028
:1003A000E159FD4F808190E008958FEF9FEF089510
:1003B0009091900280918F02981750F4E92FF0E00D
:1003C000E159FD4F208130E09F5F9093900202C081
:1003D0002FEF3FEFC901089580918F0290E02091A7
:1003E0009002821B91090895CF92DF92EF92FF92C3
:1003F0000F931F93CF93DF937C01CB018A01209150
:100400000103222389F0EB016B01C40ED51ECC152C
:10041000DD0569F06991D701ED91FC910190F081C2
:10042000E02DC7011995F3CF642F0E949E01C801EA
:10043000DF91CF911F910F91FF90EF90DF90CF90C0
:100440000895CF93DF931F92CDB7DEB769832091D4
:1004500001032223D1F020912303203240F021E038
:1004600030E0FC013383228380E090E015C080916E
:100470000203E82FF0E0ED5FFC4F998190838F5FDE
:10048000809302038093230305C061E0CE010196AF
:100490000E949E0181E090E00F90DF91CF9108953E
:1004A00090E0FC013197E231F10508F04EC0882759
:1004B000EE58FF4F8F4F0C94860F809180008F77FE
:1004C00003C0809180008F7D80938000089580918B
:1004D0008000877FF9CF84B58F7702C084B58F7D88
:1004E00084BD08958091B0008F7703C08091B000E3
:1004F0008F7D8093B0000895809190008F7707C022
:10050000809190008F7D03C080919000877F8093C1
:10051000900008958091A0008F7707C08091A0007F
:100520008F7D03C08091A000877F8093A0000895F5
:10053000809120018F7707C0809120018F7D03C0BB
:1005400080912001877F8093200108951F93CF938E
:10055000DF93282F30E0F901E958FD4F8491F9012C
:10056000EF5CFD4FD491F901E551FE4FC491CC23CE
:10057000C1F0162F81110E945002EC2FF0E0EE0F17
:10058000FF1FEF52FE4FA591B4919FB7F894111140
:1005900004C08C91D095D82302C0EC91DE2BDC9363
:1005A0009FBFDF91CF911F910895CF93DF9390E08C
:1005B000FC01EF5CFD4F2491FC01E551FE4F84915D
:1005C000882361F190E0880F991FFC01E954FE4FE8
:1005D000C591D491FC01EF52FE4FA591B4916111E8
:1005E00009C09FB7F8948881209582238883EC9175
:1005F0002E230BC0623061F49FB7F8948881322FAC
:10060000309583238883EC912E2B2C939FBF06C0BB
:100610008FB7F894E8812E2B28838FBFDF91CF917D
:100620000895CF92DF92EF92FF920F931F93CF9393
:10063000DF936C017A018B01C0E0D0E0CE15DF05BD
:1006400081F0D8016D918D01D601ED91FC91019061
:10065000F081E02DC6011995892B11F02196EECF7E
:100660007E01C701DF91CF911F910F91FF90EF9015
:10067000DF90CF900895FC01538D448D252F30E0FD
:10068000842F90E0821B930B541710F0CF9608959F
:1006900001970895FC01918D828D981761F0828DEC
:1006A000DF01A80FB11D5D968C91928D9F5F9F73A6
:1006B000928F90E008958FEF9FEF0895FC01918D48
:1006C000828D981731F0828DE80FF11D858D90E0B5
:1006D00008958FEF9FEF0895FC01918D228D892F52
:1006E00090E0805C9F4F821B91098F73992708953A
:1006F00080E393E00E946C0321E0892B09F420E061
:10070000822F08958DEC93E00E946C0321E0892BE9
:1007100009F420E0822F08958AE694E00E946C0399
:1007200021E0892B09F420E0822F0895FC01848DBB
:10073000DF01A80FB11DA35ABF4F2C91848D90E00B
:1007400001968F739927848FA689B7892C93A089E6
:10075000B1898C91837080648C93938D848D981370
:1007600006C00288F389E02D80818F7D8083089503
:10077000EF92FF920F931F93CF93DF93EC0181E0F1
:10078000888F9B8D8C8D981305C0E889F9898081AD
:1007900085FD26C0F62E0B8D10E00F5F1F4F0F73E7
:1007A0001127E02E8C8DE8120CC00FB607FCFACF93
:1007B000E889F989808185FFF5CFCE010E949603F3
:1007C000F1CF8B8DFE01E80FF11DE35AFF4FF08250
:1007D0009FB7F8940B8FEA89FB89808180620AC0F9
:1007E0009FB7F894EE89FF896083E889F989808151
:1007F0008370806480839FBF81E090E0DF91CF9120
:100800001F910F91FF90EF900895CF93DF93EC012C
:10081000888D8823C9F0EA89FB89808185FD05C020
:10082000A889B9898C9186FD0FC00FB607FCF5CF5A
:10083000808185FFF2CFA889B9898C9185FFEDCFA2
:10084000CE010E949603E7CFDF91CF910895E0E0BB
:10085000F0E0199480E090E0892B21F00E948C0355
:10086000811119C080E090E0892B41F080E090E098
:10087000892B21F00E940000811110C00E94820388
:1008800081110FC080E090E0892B81F00E947803F5
:1008900081110AC008950E940000E4CF0E94000068
:1008A000EDCF0E942704EECF0C94000008958EBD7A
:1008B00000000DB407FEFDCF8EB50895089580E0C9
:1008C00090E008950E9494110F931F93CF93DF93AC
:1008D0008C01C62FD62FD07FD1606D2F0E94590A70
:1008E0006D2FC8010E946C0A80E1C89FB0011124DD
:1008F000C62FC1606C2FC8010E94590A6C2FC80115
:100900000E946C0A81E090E0DF91CF911F910F91DE
:1009100008951F920F920FB60F9211240F900FBEE1
:100920000F901F9018951F920F920FB60F921124DF
:100930000BB60F922F933F934F935F936F937F93D9
:100940008F939F93AF93BF93EF93FF938091B900E1
:10095000887F803609F49CC068F5883209F45BC052
:1009600090F4803109F454C038F4882309F4F6C0B7
:10097000883009F44DC0F6C0883109F44CC080328B
:1009800009F45DC0EFC0803409F468C048F48033D6
:1009900009F455C0883309F0E5C08093FE02D8C041
:1009A000803509F44FC0883509F45DC0883409F0FA
:1009B000D9C0D6C0883909F4C7C0A8F4883709F46B
:1009C00067C038F4883609F463C0803709F460C022
:1009D000C9C0883809F4B8C0803909F45FC08038CC
:1009E00009F0C0C05BC0803B09F486C038F4803A8F
:1009F00009F466C0883A09F47FC0B4C0803C09F4A9
:100A0000A7C0883C09F4A4C0883B09F48AC0AAC0E6
:100A10008091DB0210C09091FD028091FC0298173A
:100A200070F5E091FD0281E08E0F8093FD02F0E011
:100A3000E452FD4F80818093BB0085EC86C080939B
:100A4000FE028EC0E091FD0281E08E0F8093FD02D8
:100A50008091BB00F0E0E452FD4F80839091FD0255
:100A60008091FC026EC0E091FD0281E08E0F8093C8
:100A7000FD028091BB00F0E0E452FD4F8083809145
:100A8000FF0281116DC081E08093DA0284EA61C0C7
:100A900083E0809300031092D702CFCF8091D702DA
:100AA000803208F051C0E091D70281E08E0F809330
:100AB000D7028091BB00F0E0E954FD4F8083BDCFA9
:100AC00085EC8093BC00109200038091D7028032A5
:100AD00030F4E091D702F0E0E954FD4F10826091CC
:100AE000D70270E0E091B502F091B60287EB92E098
:100AF00019951092D70236C084E0809300031092BB
:100B0000B4021092B302E091B102F091B2021995D1
:100B10008091B302811105C081E08093B3021092ED
:100B20009102E091B40281E08E0F8093B402F0E074
:100B3000EF56FD4F80818093BB009091B40280916D
:100B4000B302981708F479CF85E88093BC000AC0F7
:100B500085EC8093BC001092000304C01092FE024A
:100B60000E949401FF91EF91BF91AF919F918F915E
:100B70007F916F915F914F913F912F910F900BBE9D
:100B80000F900FBE0F901F9018953FB7F89480916B
:100B90006B0290916C02A0916D02B0916E0226B52D
:100BA000A89B05C02F3F19F00196A11DB11D3FBFA5
:100BB000BA2FA92F982F8827820F911DA11DB11D33
:100BC000BC01CD0142E0660F771F881F991F4A952F
:100BD000D1F708951F920F920FB60F9211242F9301
:100BE0003F938F939F93AF93BF93809167029091B0
:100BF0006802A0916902B0916A023091660223E016
:100C0000230F2D3720F40196A11DB11D05C026E844
:100C1000230F0296A11DB11D2093660280936702E7
:100C200090936802A0936902B0936A0280916B026C
:100C300090916C02A0916D02B0916E020196A11D7F
:100C4000B11D80936B0290936C02A0936D02B093E0
:100C50006E02BF91AF919F918F913F912F910F9015
:100C60000FBE0F901F9018951F920F920FB60F9204
:100C700011240BB60F922F933F934F935F936F9373
:100C80007F938F939F93AF93BF93EF93FF93809145
:100C9000610290916202A0916302B0916402892B7B
:100CA0008A2B8B2B49F1909160028091000089275B
:100CB000809300008091610290916202A091630292
:100CC000B0916402181619061A061B060CF056C0DD
:100CD0008091610290916202A0916302B0916402DE
:100CE0000197A109B1098093610290936202A093D8
:100CF0006302B093640242C080910002E6EBF1E02F
:100D0000E4919FEF90930002E230C9F050F4EE239B
:100D100099F0E13081F590916F009D7F90936F0085
:100D20002AC0E43019F1E0F0E53029F59091730024
:100D30009D7F909373001FC010926E001CC0909115
:100D400070009D7F9093700091E09093B00090911F
:100D5000B100987F94609093B1001092B3000BC0E3
:100D6000909171009D7F9093710005C090917200E9
:100D70009D7F9093720060E00E94A602FF91EF9128
:100D8000BF91AF919F918F917F916F915F914F91A3
:100D90003F912F910F900BBE0F900FBE0F901F90A1
:100DA00018951F920F920FB60F9211240BB60F9247
:100DB0002F933F934F935F936F937F938F939F9363
:100DC000AF93BF93EF93FF9380E393E00E9496036A
:100DD000FF91EF91BF91AF919F918F917F916F9113
:100DE0005F914F913F912F910F900BBE0F900FBECF
:100DF0000F901F9018951F920F920FB60F9211240B
:100E00000BB60F922F933F934F935F936F937F9304
:100E10008F939F93AF93BF93EF93FF9380E393E000
:100E20000E94810AFF91EF91BF91AF919F918F91A5
:100E30007F916F915F914F913F912F910F900BBEDA
:100E40000F900FBE0F901F9018951F920F920FB624
:100E50000F9211240BB60F922F933F934F935F93F2
:100E60006F937F938F939F93AF93BF93EF93FF9372
:100E70008DEC93E00E949603FF91EF91BF91AF91AB
:100E80009F918F917F916F915F914F913F912F91A2
:100E90000F900BBE0F900FBE0F901F9018951F92D2
:100EA0000F920FB60F9211240BB60F922F933F9310
:100EB0004F935F936F937F938F939F93AF93BF9362
:100EC000EF93FF938DEC93E00E94810AFF91EF91E5
:100ED000BF91AF919F918F917F916F915F914F9152
:100EE0003F912F910F900BBE0F900FBE0F901F9050
:100EF00018951F920F920FB60F9211240BB60F92F6
:100F00002F933F934F935F936F937F938F939F9311
:100F1000AF93BF93EF93FF938AE694E00E9496030A
:100F2000FF91EF91BF91AF919F918F917F916F91C1
:100F30005F914F913F912F910F900BBE0F900FBE7D
:100F40000F901F9018951F920F920FB60F921124B9
:100F50000BB60F922F933F934F935F936F937F93B3
:100F60008F939F93AF93BF93EF93FF938AE694E0A1
:100F70000E94810AFF91EF91BF91AF919F918F9154
:100F80007F916F915F914F913F912F910F900BBE89
:100F90000F900FBE0F901F9018951F920F920FB6D3
:100FA0000F9211240BB60F922F933F934F935F93A1
:100FB0006F937F938F939F93AF93BF93CF93DF9361
:100FC000EF93FF932091080530E0F901E958FD4FB8
:100FD0008491F901EF5CFD4FD491F901E551FE4F89
:100FE000C491CC2379F081110E945002EC2FF0E0E3
:100FF000EE0FFF1FE456FE4FA591B491EC91ED2347
:1010000081E009F480E020910C0530910D052F5FFF
:101010003F4F30930D0520930C0590910B059536AD
:1010200018F096E090930705909107059430C9F168
:1010300028F4923069F09330D1F05EC0953009F415
:1010400051C0963009F058C091E09093D80551C036
:10105000811152C020910C0530910D0524363105C7
:1010600008F442C01092D80510920B051CC08130C4
:1010700009F042C0E0910B0591E09E0F90930B05A3
:10108000F0E020910C0530910D05EE0FFF1FE95F98
:10109000FA4F3087278310920D0510920C0594E0CB
:1010A00029C0811117C0E0910B0591E09E0F90932C
:1010B0000B05F0E020910C0530910D05EE0FFF1FA0
:1010C000E95FFA4F3087278310920D0510920C05C7
:1010D00093E010C020910C0530910D0525363105A7
:1010E00058F007C0811108C010920D0510920C0530
:1010F00003C095E09093070590910A059923B9F0F4
:1011000081110AC080910905882321F08091090589
:1011100061E009C02F9A0BC080910905882331F046
:101120008091090560E00E94A60201C02F98FF91FE
:10113000EF91DF91CF91BF91AF919F918F917F916F
:101140006F915F914F913F912F910F900BBE0F9038
:101150000FBE0F901F9018951F920F920FB60F920F
:1011600011240BB60F922F933F934F935F936F937E
:101170007F938F939F93AF93BF93EF93FF93809150
:101180005F0287FF05C0109285001092840016C090
:1011900020915F02022E000C330B8091150690E027
:1011A000281739075CF430915F0225E03203F00123
:1011B0001124E752FA4F808186FD15C080915F02AD
:1011C0008F5F80935F0220915F02022E000C330B31
:1011D0008091150690E02817390794F480915F02FA
:1011E0008C302CF10DC030915F023203F0011124DC
:1011F000E752FA4F808160E08F730E94A602DECF33
:10120000809184009091850084349C4918F480E496
:101210009CE905C08091840090918500049690938C
:101220008900809388008FEF80935F022AC04091ED
:1012300084005091850030915F0225E03203F00177
:101240001124E752FA4F81819281840F951F909368
:1012500089008093880030915F023203F0011124ED
:10126000E752FA4F808186FF0CC030915F02320353
:10127000F0011124E752FA4F808161E08F730E94E0
:10128000A602FF91EF91BF91AF919F918F917F91B6
:101290006F915F914F913F912F910F900BBE0F90E7
:1012A0000FBE0F901F90189530912303313208F034
:1012B0004BC0809100038111FCCF9091540622E035
:1012C0002093000321E02093FF022FEF2093FE02E2
:1012D0001092FD023093FC02E3E0F3E0ACEDB2E0EB
:1012E00020E0321721F041914D932F5FFACF1092F9
:1012F000DB022091DB02990F922B9093DB029091FD
:10130000DA02913061F41092DA029091DB0290934C
:10131000BB009091BC0093FDF8CF95EC01C095EE19
:101320009093BC00909100039230E1F39091FE0203
:101330009F3F79F08091FE02803241F08091FE0261
:10134000803331F084E005C081E003C082E001C059
:1013500083E0109202031092230310920103089578
:10136000FC01A089B18982E08C93A485B5851C928B
:10137000A685B7858FEC8C93108EA489B58986E0FD
:101380008C93A289B3898C9180618C93A289B38953
:101390008C9188608C93A289B3898C9180688C939E
:1013A0000288F389E02D80818F7D808308958F925C
:1013B0009F92AF92BF92CF92DF92EF92FF920E94E4
:1013C000C5054B015C0180EDC82E87E0D82EE12CCD
:1013D000F12C0E94C505DC01CB0188199909AA09E5
:1013E000BB09883E9340A105B10598F321E0C21ADC
:1013F000D108E108F10888EE880E83E0981EA11C50
:10140000B11CC114D104E104F10419F7FF90EF906D
:10141000DF90CF90BF90AF909F908F90089542E063
:1014200050E063E472E00C941103FC0144815581A7
:10143000608171818DEC93E00E9411038DEC93E04B
:101440000C940F0A0F931F93CF93DF93162F072F40
:10145000C7E1D6E09C8521E02093010390935406D8
:101460001092020310922303AA85BB85ED91FC9193
:1014700011970190F081E02D682FCD0119958A8593
:101480009B85DC01ED91FC910190F081E02D602FB6
:1014900019958A859B85DC01ED91FC910190F08185
:1014A000E02D612F1995DF91CF911F910F910C9431
:1014B0005409FC01248131E0309301032093540648
:1014C00010920203109223038485682B84E293E038
:1014D0000E9421020C9454090F931F93CF938C0107
:1014E000C62F64600E94590A6C2F6B7FC8010E944E
:1014F000590A83EC90E00197F1F7CF911F910F917A
:101500000895FC01A089B1898C91A689B78982FDD3
:101510000FC09C91818D8F5F8F73228D821749F050
:10152000218DDF01A20FB11D5D969C93818F0895DF
:101530008C910895CF93DF9300D000D0CDB7DEB764
:10154000789484B5826084BD84B5816084BD85B59E
:10155000826085BD85B5816085BD80916E008160AA
:1015600080936E0010928100809181008260809350
:101570008100809181008160809381008091800052
:101580008160809380008091B10084608093B1007D
:101590008091B00081608093B00080919100826062
:1015A000809391008091910081608093910080915F
:1015B00090008160809390008091A1008260809370
:1015C000A1008091A10081608093A1008091A00082
:1015D00081608093A000809121018260809321012D
:1015E000809121018160809321018091200181609F
:1015F0008093200180917A00846080937A008091AA
:101600007A00826080937A0080917A008160809372
:101610007A0080917A00806880937A001092C100ED
:101620008AE694E00E94B00961E0809118060E9469
:10163000D50260E0809118060E94A60260E08091C9
:1016400017060E94D50284E293E0909322068093CD
:1016500021061092900210928F02109202031092B3
:1016600023031092000381E08093FF021092DA02BC
:1016700061E084E10E94A60261E085E10E94A60289
:101680008091B9008E7F8093B9008091B9008D7FE1
:101690008093B90088E48093B80085E48093BC000F
:1016A00086EC91E09093B2028093B10287EC91E0D6
:1016B0009093B6028093B50280E090E1A0E0B0E0A4
:1016C0008093240690932506A0932606B0932706C0
:1016D0008AE090E0A0E0B0E080932806909329068D
:1016E000A0932A06B0932B0680E090E0A0E0B0E43F
:1016F00080932C0690932D06A0932E06B0932F0670
:1017000060E070E185E00E94220A6FE979E380E001
:101710000E94220A07E116E0780172E0572EE0E20B
:101720006E2EE2E07E2EF6E68F2EF2E09F2EABECE0
:10173000CA2EA7E0DA2EBBE8AB2EBB24B394D701A8
:1017400014969C91149712968C91F801818F928F28
:1017500061E00E94D50261E0D8015A968C910E9406
:10176000D502F70190858681D8015D968C935D97AF
:101770005E969C9361E00E94D50260E0F801868D40
:101780000E94D50261E0D8015D968C910E94A6026C
:101790004FB6F89480916502811126C0F3018491BF
:1017A000F4012491E82FF0E0EE0FFF1FE954FE4F03
:1017B000A591B4919C91822F892321F461E085E366
:1017C0000E94A60261E085E30E94D5028CB580618B
:1017D0008CBD8CB580648CBD61E084E30E94D50231
:1017E00061E083E30E94D502809165028F5F809360
:1017F00065024FBEC6010197F1F760E0D8015D9622
:101800008C910E94A60288E80E94570483E00E94FF
:10181000570461E0F801858D0E94A602C601019778
:10182000F1F760E0D8015D968C910E94A60288E9EC
:101830000E94570480E00E94570480E00E945704F1
:1018400080E00E94570480E00E94570461E0F801A4
:10185000858D0E94A602C5010197F1F760E0D801CD
:101860005D968C910E94A60280EE0E94570461E072
:10187000F801858D0E94A6025A94FFEFEF1AFF0A25
:101880000E5F1F4F51105BCF0CE316E050E4E52EC6
:1018900056E0F52E60E0D8018D918D010E94D502B1
:1018A000E016F106B9F788E3E82E86E0F82E9AE311
:1018B000C92E96E0D92E870125E0B22E3CE0932E6A
:1018C00042E0A42EF80180898C3008F049C0808461
:1018D00061E0882D0E94D502D80150968C91B89E67
:1018E000F0011124E752FA4F982D9F732081207C3C
:1018F000822E892A808213821482692D0E947A0F97
:10190000BCE08B9FA001112420E030E0BA01620FFF
:10191000731FB69EF001B79EF00D1124E752FA4FE7
:10192000908196FD12C02F5F3F4F2C30310571F72B
:1019300081110BC010928000A0928100109285004E
:1019400010928400A6BAA0926F00D8015096EC9134
:10195000BE9EF0011124E752FA4F8081806480839B
:10196000F80196858485D70152968C9352975396A9
:101970009C9360E00E94D50261E0F70183890E9498
:10198000D50260E0D70153968C910E94A6020F5FAA
:101990001F4FB2E0EB0EF11CC016D10609F092CF3A
:1019A000F8941092200189E08093210180E293E075
:1019B000909329018093280110922501109224010F
:1019C00082E08093730078948093070510920B0552
:1019D0008091080560E00E94D5028AE694E00E94AA
:1019E000B0098DEC93E00E94B0091A8219821C8222
:1019F0001B821E821D82E0904E06F0904F06E1147D
:101A0000F10421F10091520610915306B8016F5F65
:101A10007F4F80E090E00E94AF10009759F09A83CA
:101A200089831C830B832D813E81232BF1F4FC01E0
:101A300010821BC089819A81009711F00E942610A4
:101A40001A8219821E821D821C821B82CE0101967F
:101A50000E94150A89819A810E9426100E94D70946
:101A60000E94D7090E942A04C0CF1E830D83B701AC
:101A70000E94A211EBCF0F931F93CF93DF93EC0142
:101A800088819981009729F02A813B8126173707A1
:101A900088F48B016F5F7F4F0E94AF10009761F059
:101AA000998388831B830A832C813D81232B11F426
:101AB000FC01108281E001C080E0DF91CF911F9195
:101AC0000F91089580914E0690914F060E94261026
:101AD00080911707909118070C94261010922703F5
:101AE0001092260388EE93E0A0E0B0E080932803F4
:101AF00090932903A0932A03B0932B0323E132E0B0
:101B00003093250320932403109233031092320361
:101B10008093340390933503A0933603B093370337
:101B200025E232E0309331032093300345E351E066
:101B300050933D0340933C0344E351E050933F03F3
:101B400040933E0340E351E05093410340934003F0
:101B500041E351E0509343034093420342E351E099
:101B6000509345034093440346E351E050934703A9
:101B7000409346031092490310924A0310924B037C
:101B800010924C031092D0031092CF038093D10394
:101B90009093D203A093D303B093D4033093CE0396
:101BA0002093CD0345ED50E05093DA034093D903E1
:101BB00044ED50E05093DC034093DB0340ED50E0F4
:101BC0005093DE034093DD0341ED50E05093E0037A
:101BD0004093DF0342ED50E05093E2034093E10372
:101BE00046ED50E05093E4034093E3031092E60384
:101BF0001092E7031092E8031092E90310926D042B
:101C000010926C0480936E0490936F04A093700400
:101C1000B093710430936B0420936A0485EC90E0D8
:101C2000909377048093760484EC90E09093790409
:101C30008093780480EC90E090937B0480937A0406
:101C400081EC90E090937D0480937C0482EC90E0A2
:101C500090937F0480937E0486EC90E090938104BF
:101C6000809380041092830410928404109285045F
:101C7000109286048091070290910802A0910902B7
:101C8000B0910A028093380690933906A0933A06E1
:101C9000B0933B0680910B0290910C02A0910D0233
:101CA000B0910E0280933C0690933D06A0933E06B1
:101CB000B0933F0684E08093400687E0809341061E
:101CC0001092420684EB8093430686E1809344069B
:101CD00088E18093450687E18093460689E18093F9
:101CE0004706E0911506EC3020F08FEF8093480610
:101CF00010C081E08E0F80931506E093480685E0C2
:101D0000E89FF0011124E752FA4F88EB9BE09283A1
:101D10008183E0911506EC3020F08FEF8093490627
:101D200010C081E08E0F80931506E093490685E090
:101D3000E89FF0011124E752FA4F88EB9BE0928371
:101D400081838CE08093170684E28093180686E0F6
:101D50008093190685E080931A068FE180931B0615
:101D60008EE180931C0683E280931D0682E28093BD
:101D70001E0685E480931F0684E48093200680E499
:101D800080932306109228061092290610922A06A4
:101D900010922B0610922C0610922D0610922E06F1
:101DA00010922F06E9E5F6E027E137E08FEF9FEF8D
:101DB000DC01128213821482158216821782108629
:101DC000118683879487A587B6878787908BA18B99
:101DD000B28B12861182108273962E173F0749F735
:101DE0008DE090E00E948E0FFC011382128287E347
:101DF00092E091838083118687E2848384E18287E5
:101E000084E083871486F0935606E093550610927B
:101E100057061092580685E28093080510920A052D
:101E2000109218071092170710921A0710921907AC
:101E300010921C0710921B0760E070E087E197E0AA
:101E40000E943B0D2091170730911807811113C094
:101E50002115310519F0C9010E94261010921807AA
:101E60001092170710921C0710921B0710921A0766
:101E70001092190709C010921C0710921B0765E405
:101E800072E0C9010E94A21110924F0610924E06F4
:101E9000109251061092500610925306109252065C
:101EA00063E070E08EE496E00E943B0D20914E06C8
:101EB00030914F06811113C02115310519F0C90168
:101EC0000E94261010924F0610924E061092530652
:101ED000109252061092510610925006089583E017
:101EE00090E090935306809352066FE372E0C9012D
:101EF0000C94A211991B79E004C0991F961708F061
:101F0000961B881F7A95C9F780950895EE0FFF1FDD
:101F1000881F8BBF0790F691E02D19940F931F93A4
:101F2000CF93DF938230910510F482E090E0E0914E
:101F30001F07F091200720E030E0A0E0B0E03097EC
:101F400019F1408151810281138148175907C8F066
:101F50008417950769F4109731F012960C93129735
:101F600013961C9327C000931F071093200722C0CD
:101F70002115310519F04217530718F49A01BD01D4
:101F8000EF01DF01F801DBCF21153105F9F0281B46
:101F9000390B2430310580F48A819B8161157105EC
:101FA00021F0FB019383828304C0909320078093E8
:101FB0001F07FE01329644C0FE01E20FF31F81931A
:101FC000919322503109398328833AC020911D070B
:101FD00030911E07232B41F420910302309104021B
:101FE00030931E0720931D072091010230910202B9
:101FF0002115310541F42DB73EB7409105025091AE
:102000000602241B350BE0911D07F0911E07E21715
:10201000F307A0F42E1B3F0B2817390778F0AC010B
:102020004E5F5F4F2417350748F04E0F5F1F5093E8
:102030001E0740931D078193919302C0E0E0F0E0FA
:10204000CF01DF91CF911F910F910895CF93DF932F
:10205000009709F481C0FC01329713821282A0918B
:102060001F07B0912007109781F420813181820FE2
:10207000931F20911D0730911E072817390751F52E
:10208000F0931E07E0931D0767C0ED0120E030E0EC
:10209000CE17DF0740F44A815B819E01411551054F
:1020A000F1F0EA01F5CFD383C28340815181840FDF
:1020B000951FC817D90759F488819981840F951FF6
:1020C0000296918380838A819B81938382832115E9
:1020D000310529F4F0932007E0931F073DC0E90183
:1020E000FB83EA8349915991C40FD51FEC17FD0773
:1020F00061F480819181840F951F0296E901998393
:102100008883828193819B838A83E0E0F0E012964A
:102110008D919C911397009719F0FD01DC01F7CF89
:102120008D919C9111979D012E5F3F4F820F931FC0
:1021300020911D0730911E072817390769F4309741
:1021400029F41092200710921F0702C013821282F6
:10215000B0931E07A0931D07DF91CF9108956F9252
:102160007F928F929F92AF92BF92CF92DF92EF9227
:10217000FF920F931F93CF93DF93009789F4CB01C6
:10218000DF91CF911F910F91FF90EF90DF90CF9053
:10219000BF90AF909F908F907F906F900C948E0F18
:1021A000FC01E60FF71F9C0122503109E217F307EB
:1021B00008F4A9C0EC01D9010D911C9111970617E3
:1021C0001707B0F00530110508F49BC0C80104974B
:1021D0008617970708F495C002501109061B170BC4
:1021E000019311936D937C93CF010E94261089C0B7
:1021F0005B01A01AB10A4C01800E911EA0911F072D
:10220000B0912007612C712CE12CF12C109709F46E
:1022100046C08D919C911197A815B905B1F56C0137
:1022200042E0C40ED11CCA14DB0478F14C018A18B8
:102230009B08640142E0C40ED11C1296BC90129718
:102240001396AC91B5E0CB16D10440F0B282A383D3
:1022500091828082D9016D937C9309C00E5F1F4FDC
:10226000800F911FF90191838083EB2DFA2FE114E8
:10227000F10431F0D7011396FC93EE93129741C00D
:10228000F0932007E0931F073CC06816790608F416
:102290003C017D0112960D90BC91A02DB7CF80918D
:1022A0001D0790911E0788169906E1F466167706B9
:1022B000C8F48091010290910202009741F48DB719
:1022C0009EB74091050250910602841B950BE817BA
:1022D000F907C8F4F0931E07E0931D07F901718315
:1022E00060830FC0CB010E948E0F7C01009759F0D4
:1022F000A801BE010E949911CE010E942610C701BB
:1023000004C0CE0102C080E090E0DF91CF911F9128
:102310000F91FF90EF90DF90CF90BF90AF909F9084
:102320008F907F906F90089581E090E0F8940C94E6
:10233000A911FB01DC0102C001900D9241505040F7
:10234000D8F70895FB01DC0101900D920020E1F720
:10235000089511E0C0E6D1E000E006C0802FFE0144
:102360000E94860F2196011DC136D10780E0080723
:06237000A9F7F894FFCF6D
:10237600FF000021072000363738391B1D1A1C00C4
:102386000000002102F4015F04C801EC01D801C974
:102396000100000000B80311033B0305046C034A67
:1023A600035E0300000000640411035F045E044141
:0623B600370A000D0A00C9
:00000001FF
