:100000000C9495010C94C6010C94C6010C94C60185
:100010000C94C6010C94C6010C94C6010C94C60144
:100020000C94C6010C941D0E0C941D0E0C941D0E08
:100030000C94C6010C94CE020C94C6010C94C6011B
:100040000C94C6010C94EB0B0C94C6010C94C601E5
:100050000C94C6010C94C6010C94C6010C94840245
:100060000C94C6010C943D040C9413040C94C6012A
:100070000C94C6010C94C6010C94C6010C94C601E4
:100080000C94C6010C94C6010C94C6010C94C601D4
:100090000C94C6010C94C6010C94C6010C94270E56
:1000A0000C94C6010C94C6010C94C6010C94C601B4
:1000B0000C94C6010C94C6010C94C6010C94C407A0
:1000C0000C94C6010C94C6010C94C6010C94E9036F
:1000D0000C94BF030C94C6010C9495030C946B0311
:1000E0000C94C601E308E808ED08F70801097A094D
:1000F0000B0913091B0925092F0939094809520958
:100100007A095C09660970096A0D6D0D5C0D600D58
:10011000660DA40D710D750D7B0D7F0D830D890D81
:100120008D0D910DA40D970D9B0D9F0D0C945C09E9
:100130000C94EB0C0C94F30C0C94890D0C94750D31
:100140000C947F0D0C94EA060C9457070C940D0741
:100150000C9448090C9425090C942F090C94E3087D
:100160000C9412020C947A090C945C0D0C949B0D67
:100170000C94E8080C948D0D0C94200D0C9401093E
:100180000C9439090C94C8010C9489130C94660DD5
:100190000C9470090C946D0D0C941B090C94830D38
:1001A0000C946A0D0C9466090C949F0D0C940B0929
:1001B0000C9458070C945B070C94970D0C94A40DA9
:1001C0000C9413090C94C70C0C94910D0C945209C7
:1001D0000C947B0D0C947D130C941B070C94D70C82
:1001E0000C94C80C0C94600D0C94C50C0C94F7087E
:1001F0000C94C60C0C94A2070C94710D0C94ED0891
:100200000C94F9060200002100240027002A002D8A
:10021000003000330001010000040107010A010061
:10022000002200250028002B002E0031003400029F
:10023000010000050108010B010000200023002639
:100240000029002C002F00320000010000030106ED
:10025000010901050505050705080808080202024D
:10026000020A0A0808040404040101010101010151
:10027000010303030303030303040707070C0C0C28
:100280000C0C0C0C0C020202020606060606060600
:10029000060B0B0B0B0B0B0B0B010210202008089D
:1002A00010204010204080020102010804020101D8
:1002B00002040810204080804020100804020180C1
:1002C0000402018040201008040201080402010118
:1002D0000204081020408001020408102040800021
:1002E000000A0B02090C0D0E0807030401000000B0
:1002F00000000000000000000000000000000000FE
:1003000000000000000000000000001211100000BA
:1003100000000000000000000000000000000000DD
:1003200000000000000089137D1311241FBECFEFD1
:10033000D1E2DEBFCDBF00E00CBF12E0A0E0B2E032
:10034000E8EEF4E300E00BBF02C007900D92A03985
:10035000B107D9F727E0A0E9B2E001C01D92A337A9
:10036000B207E1F711E0C4E9D1E000E006C021974F
:100370000109802FFE010E942017C339D10780E0B8
:100380000807A9F70E9446100C94621A0C9400000A
:10039000CF92DF92EF92FF920F931F93CF93DF9351
:1003A0006C017A018B01C0E0D0E0CE15DF0581F051
:1003B000D8016D918D01D601ED91FC910190F081F4
:1003C000E02DC6011995892B11F02196EECF7E0103
:1003D000C701DF91CF911F910F91FF90EF90DF90B8
:1003E000CF9008950E944D1A86EF92E00E941B075D
:1003F00021E0892B09F420E0822F089583E993E01E
:100400000E941B0721E0892B09F420E0822F089528
:1004100080E394E00E941B0721E0892B09F420E08F
:10042000822F0895EF92FF920F931F93CF93DF9344
:10043000EC0181E0888F9B8D8C8D981305C0E88935
:10044000F989808185FD26C0F62E0B8D10E00F5FA7
:100450001F4F0F731127E02E8C8DE8120CC00FB6C2
:1004600007FCFACFE889F989808185FFF5CFCE01B5
:100470000E948007F1CF8B8DFE01E80FF11DE35A3A
:10048000FF4FF0829FB7F8940B8FEA89FB89808138
:1004900080620AC09FB7F894EE89FF896083E8897B
:1004A000F98980818370806480839FBF81E090E0C0
:1004B000DF91CF911F910F91FF90EF9008953FB77B
:1004C000F89480919B0290919C02A0919D02B09122
:1004D0009E0226B5A89B05C02F3F19F00196A11DCD
:1004E000B11D3FBFBA2FA92F982F8827820F911DCA
:1004F000A11DB11DBC01CD0142E0660F771F881F11
:10050000991F4A95D1F708951F920F920FB60F9237
:1005100011242F933F938F939F93AF93BF93809119
:10052000970290919802A0919902B0919A0230910D
:10053000960223E0230F2D3720F40196A11DB11D53
:1005400005C026E8230F0296A11DB11D2093960237
:100550008093970290939802A0939902B0939A0285
:1005600080919B0290919C02A0919D02B0919E026D
:100570000196A11DB11D80939B0290939C02A093B4
:100580009D02B0939E02BF91AF919F918F913F9139
:100590002F910F900FBE0F901F9018951F920F92E2
:1005A0000FB60F9211240BB60F922F933F934F93D8
:1005B0005F936F937F938F939F93AF93BF93EF93CB
:1005C000FF938091910290919202A0919302B09139
:1005D0009402892B8A2B8B2B49F190919002809168
:1005E00000008927809300008091910290919202EF
:1005F000A0919302B0919402181619061A061B06D0
:100600000CF056C08091910290919202A0919302B9
:10061000B09194020197A109B1098093910290933E
:100620009202A0939302B093940242C08091000280
:10063000E4E0F2E0E4919FEF90930002E230C9F031
:1006400050F4EE2399F0E13081F590916F009D7F99
:1006500090936F002AC0E43019F1E0F0E53029F5FD
:10066000909173009D7F909373001FC010926E0055
:100670001CC0909170009D7F9093700091E09093CA
:10068000B0009091B100987F94609093B100109267
:10069000B3000BC0909171009D7F9093710005C0D5
:1006A000909172009D7F9093720060E00E94820F93
:1006B000FF91EF91BF91AF919F918F917F916F913A
:1006C0005F914F913F912F910F900BBE0F900FBEF6
:1006D0000F901F9018951F920F920FB60F92112432
:1006E0000BB60F922F933F934F935F936F937F932C
:1006F0008F939F93AF93BF93EF93FF9386EF92E017
:100700000E948007FF91EF91BF91AF919F918F91D0
:100710007F916F915F914F913F912F910F900BBE01
:100720000F900FBE0F901F9018951F920F920FB64B
:100730000F9211240BB60F922F933F934F935F9319
:100740006F937F938F939F93AF93BF93EF93FF9399
:1007500086EF92E00E94040EFF91EF91BF91AF915E
:100760009F918F917F916F915F914F913F912F91C9
:100770000F900BBE0F900FBE0F901F9018951F92F9
:100780000F920FB60F9211240BB60F922F933F9337
:100790004F935F936F937F938F939F93AF93BF9389
:1007A000EF93FF9383E993E00E948007FF91EF911D
:1007B000BF91AF919F918F917F916F915F914F9179
:1007C0003F912F910F900BBE0F900FBE0F901F9077
:1007D00018951F920F920FB60F9211240BB60F921D
:1007E0002F933F934F935F936F937F938F939F9339
:1007F000AF93BF93EF93FF9383E993E00E94040EBE
:10080000FF91EF91BF91AF919F918F917F916F91E8
:100810005F914F913F912F910F900BBE0F900FBEA4
:100820000F901F9018951F920F920FB60F921124E0
:100830000BB60F922F933F934F935F936F937F93DA
:100840008F939F93AF93BF93EF93FF9380E394E0D5
:100850000E948007FF91EF91BF91AF919F918F917F
:100860007F916F915F914F913F912F910F900BBEB0
:100870000F900FBE0F901F9018951F920F920FB6FA
:100880000F9211240BB60F922F933F934F935F93C8
:100890006F937F938F939F93AF93BF93EF93FF9348
:1008A00080E394E00E94040EFF91EF91BF91AF911D
:1008B0009F918F917F916F915F914F913F912F9178
:1008C0000F900BBE0F900FBE0F901F9018950097C2
:1008D00069F0FC0101900020E9F73197AF01481B56
:1008E000590BBC0180E394E00C94C80180E090E0D7
:1008F0000895CF93DF930E946704EC0184E692E0B1
:100900000E9467048C0F9D1FDF91CF9108958F92F5
:100910009F92AF92BF920F931F93CF93DF93CDB768
:10092000DEB7A1970FB6F894DEBF0FBECDBF19A2F8
:10093000423008F44AE08E010F5D1F4F842E912C47
:10094000A12CB12CA50194010E94E316E62FB90158
:10095000CA0101501109EA3014F4E05D01C0E95CFC
:10096000D801EC93232B242B252B61F7C8010E947F
:100970006704A1960FB6F894DEBF0FBECDBFDF911E
:10098000CF911F910F91BF90AF909F908F9008953E
:100990004F925F926F927F928F929F92AF92BF928F
:1009A000CF92DF92EF92FF92CF93DF93CDB7DEB776
:1009B0002C970FB6F894DEBF0FBECDBF6B017C0144
:1009C0008AEF95E00E94A3098CEF95E00E94A309AD
:1009D00028E431EE4AE75FE3C701B6010E94FB1548
:1009E00020E030E048E455E40E94FB1521EF32E8B6
:1009F0004FEB51E40E9495170E94071869837A8390
:100A00008B839C838AE9882E89E9982EA92C8EE312
:100A1000B82E8CEF95E00E94CE0929813A814B8156
:100A20005C8162177307840795070CF087C04AE959
:100A300059E969E97EEB88EF95E00E948208B501EB
:100A4000A40186EF95E00E9482088091180690919B
:100A50001906A0911A06B0911B068D839E83AF8361
:100A6000B8872091140630911506409116065091D2
:100A7000170629873A874B875C878AEF95E00E94A3
:100A8000CE09442455243201461A570A680A790AC5
:100A90004092140650921506609216067092170640
:100AA0008CEF95E00E94CE096B017C0160931806E3
:100AB0007093190680931A0690931B064AE060E033
:100AC00070E0CB010E94870484E692E00E946704F4
:100AD0008D819E81AF81B885C81AD90AEA0AFB0ABE
:100AE000D301C20129853A854B855C85821B930B16
:100AF000A40BB50BA7019601281B390B4A0B5B0B06
:100B0000CA01B9010E949C152FE632E143E85AE37D
:100B10000E94FB1520E030E0A9010E9429179B01EB
:100B2000AC01C501B4010E9429174B015C016AE0C8
:100B300070E080E090E00E940C106BCF40E050E04D
:100B4000BA0186EF95E00E94820840E050E060E044
:100B500070E888EF95E00E94820864E670E080E02B
:100B600090E02C960FB6F894DEBF0FBECDBFDF919C
:100B7000CF91FF90EF90DF90CF90BF90AF909F907C
:100B80008F907F906F905F904F900C940C10CF924D
:100B9000DF92EF92FF92CF93DF939091080689172F
:100BA00020F090910906981750F487E692E0DF91C3
:100BB000CF91FF90EF90DF90CF900C947904C0918B
:100BC0000E06CC3008F07BC0282F30E0D0E0283C67
:100BD0003105E4F595E09C9FF0019D9FF00D1124F7
:100BE000E156FA4F938128E830E06901C91AD1082B
:100BF00097FDD394CC0CDD1CCC0CDD1C0D2C000C13
:100C0000EE08FF08948128E532E0291B310997FDA1
:100C10003395220F331F220F331FA901330F660BA9
:100C2000770B9A01AB012C193D094E095F09A82FDA
:100C3000B0E00E94D81624EB30E040E050E00E9483
:100C4000B916C20ED31EE41EF51E27C085E08C9F88
:100C5000F0018D9FF00D1124E156FA4F838148E891
:100C600050E06A01C81AD10887FDD394CC0CDD1C72
:100C7000CC0CDD1C2C153D0584F0448188E592E008
:100C8000841B910947FD9395880F991F880F991F21
:100C900069018C159D050CF46C018FB7F89495E0F3
:100CA0009C9FF0019D9FF00D1124E156FA4F96E0B4
:100CB000C91AD108CC0CDD1CD282C1828FBFDF9152
:100CC000CF91FF90EF90DF90CF900895E0E3F4E0B4
:100CD000A089B18982E08C93A485B5851C92A685F4
:100CE000B7858FEC8C93108EA489B58986E08C93A0
:100CF000A289B3898C9180618C93A289B3898C91EC
:100D000088608C93A289B3898C9180688C930288C7
:100D1000F389E02D80818F7D808308953091E902F1
:100D2000313208F04BC08091C5028111FCCF909107
:100D3000E80222E02093C50221E02093C4022FEFB5
:100D40002093C3021092C2023093C102E8ECF2E099
:100D5000A1EAB2E020E0321721F041914D932F5FDC
:100D6000FACF1092A0022091A002990F922B90939B
:100D7000A00290919F02913061F410929F02909195
:100D8000A0029093BB009091BC0093FDF8CF95EC2E
:100D900001C095EE9093BC009091C5029230E1F3B2
:100DA0009091C3029F3F79F08091C302803241F05D
:100DB0008091C302803331F084E005C081E003C03C
:100DC00082E001C083E01092C7021092E902109203
:100DD000C6020895FC01538D448D252F30E0842FE9
:100DE00090E0821B930B541710F0CF960895019753
:100DF0000895FC01918D828D981761F0828DDF013D
:100E0000A80FB11D5D968C91928D9F5F9F73928FFD
:100E100090E008958FEF9FEF0895FC01918D828DF2
:100E2000981731F0828DE80FF11D858D90E00895BF
:100E30008FEF9FEF0895FC01918D228D892F90E017
:100E4000805C9F4F821B91098F7399270895E0E082
:100E5000F0E0199480E090E0892B21F00E940802D4
:100E6000811119C080E090E0892B41F080E090E092
:100E7000892B21F00E940000811110C00E94FE0108
:100E800081110FC080E090E0892B81F00E94F40175
:100E900081110AC008950E940000E4CF0E94000062
:100EA000EDCF0E942707EECF0C940000089508951F
:100EB00080E090E008950F931F93CF93DF938C0110
:100EC000C62FD62FD07FD1606D2F0E94DC0D6D2FE5
:100ED000C8010E94EF0D80E1C89FB0011124C62F08
:100EE000C1606C2FC8010E94DC0D6C2FC8010E94EC
:100EF000EF0D81E090E0DF91CF911F910F91089568
:100F0000FC01848DDF01A80FB11DA35ABF4F2C91A6
:100F1000848D90E001968F739927848FA689B78975
:100F20002C93A089B1898C91837080648C93938D6C
:100F3000848D981306C00288F389E02D80818F7D0F
:100F400080830895CF93DF93EC01888D8823C9F0C7
:100F5000EA89FB89808185FD05C0A889B9898C91C2
:100F600086FD0FC00FB607FCF5CF808185FFF2CF5D
:100F7000A889B9898C9185FFEDCFCE010E948007A9
:100F8000E7CFDF91CF9108951F920F920FB60F9286
:100F900011240BB60F922F933F934F935F936F9350
:100FA0007F938F939F93AF93BF93EF93FF93809122
:100FB000CE040E94590F2091D2043091D3042F5FA8
:100FC0003F4F3093D3042093D2049091D1049536AF
:100FD00018F096E09093CD049091CD049430C9F12F
:100FE00028F4923069F09330D1F05EC0953009F466
:100FF00051C0963009F058C091E090939E0551C0C1
:10100000811152C02091D2043091D304243631058D
:1010100008F442C010929E051092D1041CC0813089
:1010200009F042C0E091D10491E09E0F9093D10469
:10103000F0E02091D2043091D304EE0FFF1FE35370
:10104000FB4F308727831092D3041092D20494E090
:1010500029C0811117C0E091D10491E09E0F9093B7
:10106000D104F0E02091D2043091D304EE0FFF1FA1
:10107000E353FB4F308727831092D3041092D2049E
:1010800093E010C02091D2043091D304253631056D
:1010900058F007C0811108C01092D3041092D204F6
:1010A00003C095E09093CD049091D0049923B9F0BA
:1010B00081110AC08091CF04882321F08091CF0450
:1010C00061E009C02F9A0BC08091CF04882331F0D2
:1010D0008091CF0460E00E94820F01C02F98FF91A1
:1010E000EF91BF91AF919F918F917F916F915F91A0
:1010F0004F913F912F910F900BBE0F900FBE0F900D
:101100001F9018958F929F92AF92BF92CF92DF92CD
:10111000EF92FF920F931F93CF93DF938C016A019D
:101120007B0120E030E04FE753E4C701B6010E94A5
:10113000FB154B015C0120E030E0A9010E943D1845
:1011400018161CF4C501B40103C0C501B4019058C0
:101150000E940718EB0120E030E0A901C701B601A9
:101160000E943D18181614F460E001C061E0F80117
:1011700081810E94820FCF3FD10509F014F4DD2751
:1011800002C0CFEFD0E0F801108161E0812F0E9412
:10119000B10F209709F4B1C0CF3FD10509F4AFC01A
:1011A000E12FF0E0E152FD4FE4918E2F90E0FC0141
:1011B0003197E231F10508F09DC08827EE58FF4FC6
:1011C0008F4F0C94201784B5806884BDC7BDA7C01D
:1011D00084B5806284BDC8BDA2C080918000806853
:1011E00080938000D0938900C093880098C080913C
:1011F0008000806280938000D0938B00C0938A002F
:101200008EC080918000886080938000D0938D0094
:10121000C0938C0084C08091B00080688093B0003F
:10122000C093B3007CC08091B00080628093B00016
:10123000C093B40074C08091900080688093900047
:10124000D0939900C09398006AC08091900080620A
:1012500080939000D0939B00C0939A0060C08091CF
:101260009000886080939000D0939D00C0939C0074
:1012700056C08091A00080688093A0008091A0005B
:101280008F7B8093A000D093A900C093A80047C093
:101290008091A00080628093A000D093AB00C093A7
:1012A000AA003DC08091A00088608093A000D093E8
:1012B000AD00C093AC0033C0809120018068809362
:1012C0002001D0932901C093280129C080912001D9
:1012D000806280932001D0932B01C0932A011FC00C
:1012E00080912001886080932001D0932D01C093CC
:1012F0002C0115C0C038D10514F460E001C061E0D4
:10130000812FDF91CF911F910F91FF90EF90DF9090
:10131000CF90BF90AF909F908F900C94820FDF91F1
:10132000CF911F910F91FF90EF90DF90CF90BF90E2
:10133000AF909F908F9008958EBD00000DB407FE72
:10134000FDCF8EB50895CF93DF93EC0160E08881E7
:101350000E94820F88E90E949C0980E00E949C09FB
:1013600080E00E949C0980E00E949C0980E00E942D
:101370009C0961E088810E94820F8BE891E00197CF
:10138000F1F760E088810E94820F80EE0E949C0944
:1013900061E08881DF91CF910C94820FAF92BF9270
:1013A000CF92DF92EF92FF920F931F93CF93DF9331
:1013B000CDB7DEB760970FB6F894DEBF0FBECDBFD6
:1013C0005C0160E0FC0180810E94820F80E60E9447
:1013D0009C098E010F5F1F4F7E01F1E1EF0EF11CA2
:1013E000680180E00E949C0990E0A0E0B0E0F60176
:1013F00081939193A193B1936F01EE15FF0589F746
:1014000061E0F50180810E94820F80E090E0DC01C4
:10141000F80141915191619171918F01BA2FA92FDA
:10142000982F8827840F951FA61FB71FEE15FF055D
:1014300079F79C01AD0166277727CB01621B730BFF
:10144000840B950B60960FB6F894DEBF0FBECDBF30
:10145000DF91CF911F910F91FF90EF90DF90CF9090
:10146000BF90AF9008954F925F926F927F928F924C
:101470009F92AF92BF92CF92DF92EF92FF92CF9363
:10148000DF93CDB7DEB729970FB6F894DEBF0FBE56
:10149000CDBF6B017C015A018AEF95E00E94A30940
:1014A0008CEF95E00E94A309AB2899F42DEC3CEC5D
:1014B0004CE45EE329833A834B835C839DEC892E65
:1014C0009CEC992E9CE4A92E9EEBB92E31E0398735
:1014D00011C08DEC9CECACE4BEEB89839A83AB83AA
:1014E000BC838DEC882E8CEC982E8CE4A82E8EE399
:1014F000B82E198620E030E044EB53E4C701B60172
:101500000E9495172BE03BE24DE552E40E94FB154B
:1015100027E63CEA45E053E40E94FB150E940718C9
:101520006D837E838F839887A7019601C701B601DB
:101530000E944218882319F084E892E01AC026011C
:101540003701E89477F82FEF3FEF4FE75FE7C301EC
:10155000B2010E94421881110FC02FEF3FEF4FE7F9
:101560005FE7C301B2010E94951518162CF488E8B4
:1015700092E00E94670476C02FEF3FEF4FE75FE4F1
:10158000C701B6010E943D1818161CF48CE892E0C1
:10159000F0CF2FEF3FEF4FE75FECC701B6010E949E
:1015A000951587FDF3CF20E030E0A901C701B60112
:1015B0000E94951587FF09C06DE280E394E00E94C8
:1015C0001202F7FAF094F7F8F0942AE037ED43EAC4
:1015D0005BE3C701B6010E9429172B013C010E9461
:1015E0000E186B017C010E949A159B01AC01C3018E
:1015F000B2010E9428172B013C014AE0C701B60145
:101600000E9487046EE280E394E00E94120220E0D0
:1016100030E040E251E4C301B2010E94FB152B010E
:101620003C010E940E186B01E12CF12C4AE0C7012D
:10163000B6010E948704C701B6010E949A159B015A
:10164000AC01C301B2010E94281720E030E040E263
:1016500051E40E94FB150E940E1880E090E04AE0E1
:101660000E94870484E692E00E946704C980DA80C1
:10167000EB80FC80F7FAF094F7F8F09499859111DB
:101680000CC08AEF95E00E94CE09909580957095E8
:1016900061957F4F8F4F9F4F04C08CEF95E00E9464
:1016A000CE092D813E814F815885621773078407CB
:1016B00095076CF4B501A40186EF95E00E948208BD
:1016C000B701A60188EF95E00E948208D7CF40E0DD
:1016D00050E0BA0186EF95E00E94820840E050E0B9
:1016E00060E070E888EF95E00E9482086CE271E0AB
:1016F00080E090E029960FB6F894DEBF0FBECDBF14
:10170000DF91CF91FF90EF90DF90CF90BF90AF909F
:101710009F908F907F906F905F904F900C940C10E3
:101720001F93CF93DF93EC01162F88818C3008F044
:101730004DC061E0812F0E94B10FE88195E09E9F2E
:10174000F0011124E156FA4F1F738081807C182B21
:1017500010831382E8819E9FF0011124E156FA4F15
:10176000148288816CE00E9414179CE0899FA0017C
:10177000112420E030E095E0BA01620F731F969FBC
:10178000F001979FF00D1124E156FA4F608166FD3C
:1017900013C02F5F3F4F2C30310571F781110CC002
:1017A0001092800082E08093810010928500109258
:1017B000840086BB80936F00E88185E0E89FF0019C
:1017C0001124E156FA4F8081806480838881DF9103
:1017D000CF911F9108951F920F920FB60F9211246F
:1017E0000BB60F922F933F934F935F936F937F931B
:1017F0008F939F93AF93BF93EF93FF9380910307D2
:1018000087FF05C0109285001092840016C02091B9
:101810000307022E000C330B8091DB0590E02817A4
:1018200039075CF43091030725E03203F0011124FD
:10183000E156FA4F808186FD15C0809103078F5FC6
:101840008093030720910307022E000C330B809135
:10185000DB0590E02817390794F4809103078C305A
:101860002CF10DC0309103073203F0011124E15631
:10187000FA4F808160E08F730E94820FDECF8091EB
:1018800084009091850084349C4918F480E49CE99C
:1018900005C0809184009091850004969093890002
:1018A000809388008FEF809303072AC040918400C3
:1018B000509185003091030725E03203F001112497
:1018C000E156FA4F81819281840F951F9093890090
:1018D00080938800309103073203F0011124E15610
:1018E000FA4F808186FF0CC0309103073203F0016C
:1018F0001124E156FA4F808161E08F730E94820FBC
:10190000FF91EF91BF91AF919F918F917F916F91D7
:101910005F914F913F912F910F900BBE0F900FBE93
:101920000F901F90189585ED8093BC008091BC00AE
:1019300084FDFCCF1092C502089540914A07262FDE
:1019400030E0240F311D21323105DCF42091C50235
:101950002430C9F4FC0180E090E0861758F43091FF
:101960004A072191DC01A65DB84FA30FB11D2C934E
:101970000196F3CF80914A07680F60934A0780E091
:10198000089581E0089582E00895089508950895E6
:10199000E091050780910407E81730F4F0E0E65F76
:1019A000F84F808190E008958FEF9FEF0895909118
:1019B000050780910407981750F4E92FF0E0E65FDF
:1019C000F84F208130E09F5F9093050702C02FEF12
:1019D0003FEFC90108958091040790E02091050729
:1019E000821B91090895CF92DF92EF92FF920F939D
:1019F0001F93CF93DF937C01CB018A012091C60214
:101A0000222389F0EB016B01C40ED51ECC15DD0538
:101A100069F06991D701ED91FC910190F081E02D81
:101A2000C7011995F3CF642F0E949D0CC801DF9167
:101A3000CF911F910F91FF90EF90DF90CF9008957D
:101A4000CF93DF931F92CDB7DEB769832091C60293
:101A50002223D1F02091E902203240F021E030E051
:101A6000FC013383228380E090E015C08091C7029F
:101A7000E82FF0E0E853FD4F998190838F5F8093CA
:101A8000C7028093E90205C061E0CE0101960E9481
:101A90009D0C81E090E00F90DF91CF91089590E050
:101AA000FC013197E231F10508F04EC08827EC5770
:101AB000FF4F8F4F0C942017809180008F7703C0C9
:101AC000809180008F7D80938000089580918000B8
:101AD000877FF9CF84B58F7702C084B58F7D84BDB1
:101AE00008958091B0008F7703C08091B0008F7D02
:101AF0008093B0000895809190008F7707C0809107
:101B000090008F7D03C080919000877F809390002C
:101B100008958091A0008F7707C08091A0008F7DED
:101B200003C08091A000877F8093A00008958091DA
:101B300020018F7707C0809120018F7D03C08091A5
:101B40002001877F8093200108950F931F93CF93E7
:101B5000DF93162F072FCDEDD5E09C8521E0209354
:101B6000C6029093E8021092C7021092E902AA8579
:101B7000BB85ED91FC9111970190F081E02D682FCC
:101B8000CD0119958A859B85DC01ED91FC91019031
:101B9000F081E02D602F19958A859B85DC01ED9100
:101BA000FC910190F081E02D612F1995DF91CF918B
:101BB0001F910F910C948E06FC01248131E030932B
:101BC000C6022093E8021092C7021092E9028485AF
:101BD000682B8AEE92E00E94200D0C948E060F93E3
:101BE0001F93CF938C01C62F64600E94DC0D6C2F75
:101BF0006B7FC8010E94DC0D83EC90E00197F1F748
:101C0000CF911F910F910895FC01A089B1898C910A
:101C1000A689B78982FD0FC09C91818D8F5F8F73DC
:101C2000228D821749F0218DDF01A20FB11D5D9633
:101C30009C93818F08958C9108951F920F920FB6F7
:101C40000F9211240F900FBE0F901F9018951F92A6
:101C50000F920FB60F9211240BB60F922F933F9352
:101C60004F935F936F937F938F939F93AF93BF93A4
:101C7000EF93FF938091B900887F803609F49CC070
:101C800068F5883209F45BC090F4803109F454C0DF
:101C900038F4882309F4F6C0883009F44DC0F6C042
:101CA000883109F44CC0803209F45DC0EFC0803443
:101CB00009F468C048F4803309F455C0883309F04A
:101CC000E5C08093C302D8C0803509F44FC0883581
:101CD00009F45DC0883409F0D9C0D6C0883909F448
:101CE000C7C0A8F4883709F467C038F4883609F407
:101CF00063C0803709F460C0C9C0883809F4B8C02F
:101D0000803909F45FC0803809F0C0C05BC0803BF7
:101D100009F486C038F4803A09F466C0883A09F4B8
:101D20007FC0B4C0803C09F4A7C0883C09F4A4C0BB
:101D3000883B09F48AC0AAC08091A00210C090918B
:101D4000C2028091C102981770F5E091C20281E051
:101D50008E0F8093C202F0E0EF55FD4F808180939B
:101D6000BB0085EC86C08093C3028EC0E091C202A6
:101D700081E08E0F8093C2028091BB00F0E0EF55AE
:101D8000FD4F80839091C2028091C1026EC0E091AC
:101D9000C20281E08E0F8093C2028091BB00F0E00E
:101DA000EF55FD4F80838091C40281116DC081E0A9
:101DB00080939F0284EA61C083E08093C502109201
:101DC0006C07CFCF80916C07803208F051C0E09152
:101DD0006C0781E08E0F80936C078091BB00F0E070
:101DE000E45BF84F8083BDCF85EC8093BC001092FC
:101DF000C50280916C07803230F4E0916C07F0E00E
:101E0000E45BF84F108260916C0770E0E091080786
:101E1000F09109078CE497E0199510926C0736C091
:101E200084E08093C50210924B0710924A07E0911C
:101E30000607F0910707199580914A07811105C09F
:101E400081E080934A0710922A07E0914B0781E0D6
:101E50008E0F80934B07F0E0E65DF84F8081809312
:101E6000BB0090914B0780914A07981708F479CFEF
:101E700085E88093BC000AC085EC8093BC0010927A
:101E8000C50204C01092C3020E94930CFF91EF910F
:101E9000BF91AF919F918F917F916F915F914F9182
:101EA0003F912F910F900BBE0F900FBE0F901F9080
:101EB0001895CF93DF93282F30E0F901E152FD4FC1
:101EC0008491F901E756FD4FD491F901ED5AFD4F88
:101ED000C491CC2391F081110E944F0DEC2FF0E0C2
:101EE000EE0FFF1FE75CFD4FA591B491EC91ED2340
:101EF00081E090E021F480E002C080E090E0DF919A
:101F0000CF9108951F93CF93DF93282F30E0F901ED
:101F1000E152FD4F8491F901E756FD4FD491F9014B
:101F2000ED5AFD4FC491CC23C1F0162F81110E94B0
:101F30004F0DEC2FF0E0EE0FFF1FE15EFD4FA5917E
:101F4000B4919FB7F894111104C08C91D095D82307
:101F500002C0EC91DE2BDC939FBFDF91CF911F91EC
:101F60000895CF93DF9390E0FC01E756FD4F249155
:101F7000FC01ED5AFD4F8491882361F190E0880FB8
:101F8000991FFC01EB5FFD4FC591D491FC01E15E0F
:101F9000FD4FA591B491611109C09FB7F894888154
:101FA000209582238883EC912E230BC0623061F44C
:101FB0009FB7F8948881322F309583238883EC91E2
:101FC0002E2B2C939FBF06C08FB7F894E8812E2B41
:101FD00028838FBFDF91CF910895863308F0865311
:101FE00090917B00282F2870977F922B90937B00F5
:101FF0008770806480937C0080917A0080648093F5
:102000007A0080917A0086FDFCCF80917800209143
:10201000790090E0922B08958F929F92AF92BF9299
:10202000CF92DF92EF92FF926B017C010E945F02E0
:102030004B015C01C114D104E104F104F1F00E94F0
:102040005F02DC01CB0188199909AA09BB09883E06
:102050009340A105B10570F321E0C21AD108E1084F
:10206000F10888EE880E83E0981EA11CB11CC114F3
:10207000D104E104F10419F7DDCFFF90EF90DF9078
:10208000CF90BF90AF909F908F900895789484B533
:10209000826084BD84B5816084BD85B5826085BD64
:1020A00085B5816085BD80916E00816080936E00F2
:1020B00010928100809181008260809381008091E4
:1020C0008100816080938100809180008160809395
:1020D00080008091B10084608093B1008091B00055
:1020E00081608093B0008091910082608093910024
:1020F0008091910081608093910080919000816037
:10210000809390008091A10082608093A1008091D3
:10211000A10081608093A1008091A00081608093E4
:10212000A000809121018260809321018091210192
:102130008160809321018091200181608093200142
:1021400080917A00846080937A0080917A00826026
:1021500080937A0080917A00816080937A008091E8
:102160007A00806880937A001092C1000E9466060F
:1021700061E08091DE050E94B10F60E08091DE0594
:102180000E94820F60E08091DD050E94B10F8AEE0F
:1021900092E09093E8058093E7051092050710926E
:1021A00004071092C7021092E9021092C50281E062
:1021B0008093C40210929F0261E084E10E94820F2A
:1021C00061E085E10E94820F8091B9008E7F80934B
:1021D000B9008091B9008D7F8093B90088E4809325
:1021E000B80085E48093BC0085EC9CE090930707E1
:1021F0008093060786EC9CE090930907809308077C
:1022000080E090E1A0E0B0E08093EA059093EB05D8
:10221000A093EC05B093ED058AE090E0A0E0B0E07B
:102220008093EE059093EF05A093F005B093F10530
:1022300080E090E0A0E0B0E48093F2059093F30595
:10224000A093F405B093F50560E070E185E00E948D
:10225000A50D6FE979E380E00E94A50DCDEDD5E0F5
:102260008E01712C28E8A22E22E0B22E3EEC832EA5
:1022700032E0932E4BECE42E47E0F42EF8019481EB
:102280008281898F9A8F61E00E94B10F61E08A8D0F
:102290000E94B10FF801908586816E01FDE1CF0E9D
:1022A000D11C8D8F9E8F61E00E94B10F60E08E8DFA
:1022B0000E94B10F61E08D8D0E94820F6FB6F8947D
:1022C00080919502811126C0F5018491F401249139
:1022D000E82FF0E0EE0FFF1FEB5FFD4FA591B491EB
:1022E0009C91822F892321F461E085E30E94820F73
:1022F00061E085E30E94B10F8CB580618CBD8CB527
:1023000080648CBD61E084E30E94B10F61E083E3EF
:102310000E94B10F809195028F5F809395026FBEEE
:10232000C7010197F1F760E08D8D0E94820F88E868
:102330000E949C0983E00E949C0961E08D8D0E94AF
:10234000820FC7010197F1F7C6010E94A309739498
:102350000F5F1F4F2296F2E07F1290CF02E016E04F
:10236000C6E0D6E060E0F80181918F010E94B10FD4
:10237000C017D107B9F70EEF15E07E01FFEFEF1A96
:10238000FF0A688170E0CE0108960E94900BF70169
:1023900095818381F801828B938B60E00E94B10F5D
:1023A00061E0F80183890E94B10F60E0F801838940
:1023B0000E94820F0E5F1F4FE701F6E0C830DF0773
:1023C000E1F6F8941092200189E08093210180E2E7
:1023D00093E0909329018093280110922501109297
:1023E000240182E08093730078948093CD0410924E
:1023F000D1048091CE0460E00E94B10F0E94660675
:102400006091060670E08EE096E00E94900B82E3F9
:102410000E94C70588E0682E712C00E110E08091D1
:1024200005060E94590F892B09F43DC140E050E098
:1024300060E070E08AEB92E40E94330A60E070E0B2
:102440008CE192E40E94C80441E050E060E070E05A
:1024500084EB92E40E94330A60E070E08AEB92E43D
:102460000E94C80441E050E060E070E08DE093E439
:102470000E94330A60E070E08CE092E40E94C8049D
:102480008AE50E94C7058091FE050E94ED0FBC0100
:1024900080E090E00E949A154B015C01CBE0D0E017
:1024A000C12CD12C760120E030E046E153E4C50197
:1024B000B4010E94951587FD03C0C1E0D0E049C07A
:1024C0002197D9F341E050E060E070E080E490E4CF
:1024D0000E94330A8091FE050E94ED0FBC0180E04E
:1024E00090E00E949A154B015C0120E030E040E44E
:1024F00050E4C701B6010E9429176B017C01D3CFBC
:1025000020E030E040EF51ECC701B6010E943D18D9
:1025100018164CF540E050E060E070E080E490E494
:102520000E94330A8091FE050E94ED0FBC0180E0FD
:1025300090E00E949A154B015C0120E030E040E4FD
:1025400050E4C701B6010E9428176B017C01C0E06E
:10255000D0E020E030E046E153E4C501B4010E9440
:10256000951587FDCDCFAE0160E070E080E490E48A
:102570000E94330A20E030E040E450E4C701B60195
:10258000219719F40E94291702C00E9428176B0195
:102590007C014AE959E969E17EE386EF95E00E9412
:1025A00082084AE959E969E17EEB88EF95E00E94EB
:1025B000820820E030E04AEF53E4C501B4010E94F4
:1025C000951587FF0CC08091FE050E94ED0FBC01A0
:1025D00080E090E00E949A154B015C01EACF68E52B
:1025E00072E080E090E00E940C1082E30E94C70538
:1025F00064EF71E080E090E00E940C1040E050E059
:10260000BA0186EF95E00E94820840E050E060E069
:1026100070E888EF95E00E948208C701B6010E9429
:102620000718613F4FEF74072CF4F801E61BF70B16
:10263000BF010CC0603171051CF0635F7F4F14C097
:1026400077FF0DC09301261B370BB901072E000C35
:10265000880B990B0E949C1541E050E00DC061155C
:10266000710561F06B5F7F4F072E000C880B990B93
:102670000E949C1540E050E00E94330A60E070E048
:102680008AEF92E40E94C80464EF71E080E090E079
:102690000E940C108AE50E94C70564EF71E080E09B
:1026A00090E00E940C100E942A07B9CE0F931F934E
:1026B000CF93DF93EC0188819981009729F02A81DB
:1026C0003B812617370788F48B016F5F7F4F0E948D
:1026D0006819009761F0998388831B830A832C8192
:1026E0003D81232B11F4FC01108281E001C080E0C8
:1026F000DF91CF911F910F9108958091DE06909107
:10270000DF060E94DF188091E4069091E5060C94A4
:10271000DF181092ED021092EC0288EE93E0A0E038
:10272000B0E08093EE029093EF02A093F002B0939A
:10273000F10223E132E03093EB022093EA0210929F
:10274000F9021092F8028093FA029093FB02A09390
:10275000FC02B093FD0225E232E03093F7022093B1
:10276000F60245E351E0509303034093020344E330
:1027700051E0509305034093040340E351E050932C
:1027800007034093060341E351E05093090340934C
:10279000080342E351E050930B0340930A0346E3DE
:1027A00051E050930D0340930C0310920F031092CD
:1027B00010031092110310921203109296031092BC
:1027C00095038093970390939803A0939903B093F4
:1027D0009A03309394032093930345ED50E0509374
:1027E000A00340939F0344ED50E05093A203409315
:1027F000A10340ED50E05093A4034093A30341EDA7
:1028000050E05093A6034093A50342ED50E050934F
:10281000A8034093A70346ED50E05093AA034093CA
:10282000A9031092AC031092AD031092AE03109264
:10283000AF031092330410923204809334049093C7
:102840003504A0933604B0933704309331042093B9
:10285000300485EC90E090933D0480933C0484EC3C
:1028600090E090933F0480933E0480EC90E090933E
:1028700041048093400481EC90E090934304809362
:10288000420482EC90E0909345048093440486ECEB
:1028900090E090934704809346041092490410926C
:1028A0004A0410924B0410924C04809107029091BC
:1028B0000802A0910902B0910A028093FE0590934C
:1028C000FF05A0930006B093010680910B02909142
:1028D0000C02A0910D02B0910E028093020690931B
:1028E0000306A0930406B093050684E080930606D1
:1028F00087E0809307061092080684EB8093090610
:1029000086E180930A0688E180930B0687E1809335
:102910000C0689E180930D06E091DB05EC3020F098
:102920008FEF80930E0610C081E08E0F8093DB0541
:10293000E0930E0685E0E89FF0011124E156FA4F7E
:1029400088EB9BE092838183E091DB05EC3020F003
:102950008FEF80930F0610C081E08E0F8093DB0510
:10296000E0930F0685E0E89FF0011124E156FA4F4D
:1029700088EB9BE0928381838CE08093DD0584E289
:102980008093DE0586E08093DF0585E08093E00597
:102990008FE18093E1058EE18093E20583E28093ED
:1029A000E30582E28093E40585E48093E50584E411
:1029B0008093E60580E48093E9051092EE0510927D
:1029C000EF051092F0051092F1051092F2051092A9
:1029D000F3051092F4051092F505E0E2F6E02EED15
:1029E00036E08FEF9FEFDC01128213821482158292
:1029F000168217821086118683879487A587B687EB
:102A00008787908BA18BB28B12861182108273966E
:102A10002E173F0749F78DE090E00E944718FC0110
:102A20001382128287E392E091838083118687E28A
:102A3000848384E1828784E083871486F0931D0673
:102A4000E0931C0610921E0610921F0685E28093EA
:102A5000CE041092D0041092E5061092E406109273
:102A6000E7061092E6061092E9061092E80660E08A
:102A700070E084EE96E00E9456132091E4063091B7
:102A8000E506811113C02115310519F0C9010E9415
:102A9000DF181092E5061092E4061092E9061092F3
:102AA000E8061092E7061092E60609C01092E906C1
:102AB0001092E80666E672E0C9010E945B1A109265
:102AC000DF061092DE061092E1061092E0061092E8
:102AD000E3061092E20664E270E08EED96E00E945A
:102AE00056132091DE063091DF06811113C02115A7
:102AF000310519F0C9010E94DF181092DF0610920B
:102B0000DE061092E3061092E2061092E1061092A1
:102B1000E006089584E290E09093E3068093E20655
:102B20006FE372E0C9010C945B1A0E94D71508F498
:102B300081E00895E89409C097FB3EF49095809554
:102B4000709561957F4F8F4F9F4F9923A9F0F92F73
:102B500096E9BB279395F695879577956795B795F1
:102B6000F111F8CFFAF4BB0F11F460FF1BC06F5FD7
:102B70007F4F8F4F9F4F16C0882311F096E911C0E9
:102B8000772321F09EE8872F762F05C0662371F00A
:102B900096E8862F70E060E02AF09A95660F771F1E
:102BA000881FDAF7880F9695879597F90895990FFA
:102BB0000008550FAA0BE0E8FEEF16161706E80707
:102BC000F907C0F012161306E407F50798F0621B28
:102BD000730B840B950B39F40A2661F0232B242BFD
:102BE000252B21F408950A2609F4A140A6958FEF1C
:102BF000811D811D08950E940E160C947F160E945F
:102C0000711638F00E94781620F0952311F00C947C
:102C100068160C946E1611240C94B3160E9490162C
:102C200070F3959FC1F3950F50E0551F629FF0011F
:102C3000729FBB27F00DB11D639FAA27F00DB11D38
:102C4000AA1F649F6627B00DA11D661F829F2227C1
:102C5000B00DA11D621F739FB00DA11D621F839F48
:102C6000A00D611D221F749F3327A00D611D231F1E
:102C7000849F600D211D822F762F6A2F11249F576C
:102C800050409AF0F1F088234AF0EE0FFF1FBB1F6F
:102C9000661F771F881F91505040A9F79E3F51052E
:102CA00080F00C9468160C94B3165F3FE4F3983EE2
:102CB000D4F3869577956795B795F795E7959F5FD8
:102CC000C1F7FE2B880F911D9695879597F908956A
:102CD00097F99F6780E870E060E008959FEF80ECCF
:102CE000089500240A941616170618060906089572
:102CF00000240A9412161306140605060895092ED8
:102D00000394000C11F4882352F0BB0F40F4BF2B46
:102D100011F460FF04C06F5F7F4F8F4F9F4F089586
:102D200057FD9058440F551F59F05F3F71F047957C
:102D3000880F97FB991F61F09F3F79F08795089561
:102D4000121613061406551FF2CF4695F1DF08C080
:102D5000161617061806991FF1CF8695710561059D
:102D600008940895E894BB2766277727CB0197F945
:102D70000895052E97FB1EF400940E94D01657FD6F
:102D800007D00E94E31607FC03D04EF40C94D01633
:102D900050954095309521953F4F4F4F5F4F089587
:102DA00090958095709561957F4F8F4F9F4F0895B7
:102DB0000E940517A59F900DB49F900DA49F800DB4
:102DC000911D11240895A1E21A2EAA1BBB1BFD011F
:102DD0000DC0AA1FBB1FEE1FFF1FA217B307E407FA
:102DE000F50720F0A21BB30BE40BF50B661F771F52
:102DF000881F991F1A9469F7609570958095909532
:102E00009B01AC01BD01CF010895A29FB001B39F0A
:102E1000C001A39F700D811D1124911DB29F700DE3
:102E2000811D1124911D0895991B79E004C0991FFB
:102E3000961708F0961B881F7A95C9F78095089514
:102E4000EE0FFF1F881F8BBF0790F691E02D19949E
:102E50005058BB27AA270E9440170C947F160E9447
:102E6000711638F00E94781620F039F49F3F19F45B
:102E700026F40C946E160EF4E095E7FB0C9468169D
:102E8000E92F0E94901658F3BA1762077307840758
:102E9000950720F079F4A6F50C94B2160EF4E0959F
:102EA0000B2EBA2FA02D0B01B90190010C01CA0104
:102EB000A0011124FF27591B99F0593F50F4503EAF
:102EC00068F11A16F040A22F232F342F4427585FA1
:102ED000F3CF469537952795A795F0405395C9F7B9
:102EE0007EF41F16BA0B620B730B840BBAF0915071
:102EF000A1F0FF0FBB1F661F771F881FC2F70EC010
:102F0000BA0F621F731F841F48F4879577956795E2
:102F1000B795F7959E3F08F0B0CF9395880F08F0CE
:102F20009927EE0F9795879508950E94A9170C94FD
:102F30007F160E94781658F00E94711640F029F40E
:102F40005F3F29F00C94681651110C94B3160C9441
:102F50006E160E94901668F39923B1F3552391F3EE
:102F6000951B550BBB27AA2762177307840738F0F8
:102F70009F5F5F4F220F331F441FAA1FA9F335D055
:102F80000E2E3AF0E0E832D091505040E695001C09
:102F9000CAF72BD0FE2F29D0660F771F881FBB1FC3
:102FA000261737074807AB07B0E809F0BB0B802DA1
:102FB000BF01FF2793585F4F3AF09E3F510578F0CD
:102FC0000C9468160C94B3165F3FE4F3983ED4F368
:102FD000869577956795B795F7959F5FC9F7880FA1
:102FE000911D9695879597F90895E1E0660F771FF3
:102FF000881FBB1F621773078407BA0720F0621B84
:10300000730B840BBA0BEE1F88F7E09508950E94AE
:103010000E186894B1110C94B31608950E94981676
:1030200088F09F5798F0B92F9927B751B0F0E1F089
:10303000660F771F881F991F1AF0BA95C9F714C039
:10304000B13091F00E94B216B1E008950C94B2161E
:10305000672F782F8827B85F39F0B93FCCF3869572
:1030600077956795B395D9F73EF4909580957095CF
:1030700061957F4F8F4F9F4F08950E94D71508F499
:103080008FEF08950E94D715880B990B08950F9321
:103090001F93CF93DF938230910510F482E090E08C
:1030A000E0917107F091720720E030E0A0E0B0E01D
:1030B000309719F1408151810281138148175907D6
:1030C000C8F08417950769F4109731F012960C93A5
:1030D000129713961C9327C00093710710937207E1
:1030E00022C02115310519F04217530718F49A012F
:1030F000BD01EF01DF01F801DBCF21153105F9F04A
:10310000281B390B2430310580F48A819B8161159D
:10311000710521F0FB019383828304C090937207B1
:1031200080937107FE01329644C0FE01E20FF31F47
:103130008193919322503109398328833AC0209199
:103140006F0730917007232B41F4209103023091D7
:1031500004023093700720936F0720910102309191
:1031600002022115310541F42DB73EB74091050209
:1031700050910602241B350BE0916F07F091700708
:10318000E217F307A0F42E1B3F0B2817390778F03E
:10319000AC014E5F5F4F2417350748F04E0F5F1F9D
:1031A0005093700740936F078193919302C0E0E0C2
:1031B000F0E0CF01DF91CF911F910F910895CF9350
:1031C000DF93009709F481C0FC01329713821282C9
:1031D000A0917107B0917207109781F4208131811D
:1031E000820F931F20916F073091700728173907BE
:1031F00051F5F0937007E0936F0767C0ED0120E091
:1032000030E0CE17DF0740F44A815B819E01411513
:103210005105F1F0EA01F5CFD383C283408151819A
:10322000840F951FC817D90759F488819981840F95
:10323000951F0296918380838A819B8193838283E9
:103240002115310529F4F0937207E09371073DC011
:10325000E901FB83EA8349915991C40FD51FEC170B
:10326000FD0761F480819181840F951F0296E90129
:1032700099838883828193819B838A83E0E0F0E055
:1032800012968D919C911397009719F0FD01DC0126
:10329000F7CF8D919C9111979D012E5F3F4F820F2B
:1032A000931F20916F07309170072817390769F431
:1032B000309729F4109272071092710702C013829E
:1032C0001282B0937007A0936F07DF91CF9108959A
:1032D0006F927F928F929F92AF92BF92CF92DF9226
:1032E000EF92FF920F931F93CF93DF93009789F490
:1032F000CB01DF91CF911F910F91FF90EF90DF9065
:10330000CF90BF90AF909F908F907F906F900C94D4
:103310004718FC01E60FF71F9C0122503109E21704
:10332000F30708F4A9C0EC01D9010D911C91119784
:1033300006171707B0F00530110508F49BC0C80147
:1033400004978617970708F495C002501109061BC9
:10335000170B019311936D937C93CF010E94DF189B
:1033600089C05B01A01AB10A4C01800E911EA09188
:103370007107B0917207612C712CE12CF12C109720
:1033800009F446C08D919C911197A815B905B1F526
:103390006C0142E0C40ED11CCA14DB0478F14C016C
:1033A0008A189B08640142E0C40ED11C1296BC909E
:1033B00012971396AC91B5E0CB16D10440F0B282CF
:1033C000A38391828082D9016D937C9309C00E5FA3
:1033D0001F4F800F911FF90191838083EB2DFA2FEE
:1033E000E114F10431F0D7011396FC93EE93129798
:1033F00041C0F0937207E09371073CC068167906EC
:1034000008F43C017D0112960D90BC91A02DB7CF20
:1034100080916F079091700788169906E1F46616FF
:103420007706C8F48091010290910202009741F45E
:103430008DB79EB74091050250910602841B950BF3
:10344000E817F907C8F4F0937007E0936F07F901E4
:10345000718360830FC0CB010E9447187C010097E5
:1034600059F0A801BE010E94521ACE010E94DF1835
:10347000C70104C0CE0102C080E090E0DF91CF918F
:103480001F910F91FF90EF90DF90CF90BF90AF9082
:103490009F908F907F906F90089581E090E0F894D6
:1034A0000C94621AFB01DC0102C001900D924150A4
:1034B0005040D8F70895FB01DC0101900D920020E7
:1034C000E1F7089511E0C4E9D1E000E006C0802FE3
:1034D000FE010E9420172196011DC539D10780E009
:0834E0000807A9F7F894FFCFDB
:1034E800FF000073072000363738391B1D1A1C00EF
:1034F800000000200DF30C5807C70CEB0CD70CC8C4
:103508000C000000001202C801EA06A2071B07F916
:10351800060D07000000005B07C801580757074C55
:103528006520626C7565746F6F74682065737420AC
:10353800666F6E6374696F6E6E656C204C696F6E32
:10354800656C0A000D0A00536572766F20616E671C
:103558006C65206973206F7574206F662072616EC8
:10356800676521006E616E00696E66006F766600A1
:00000001FF
