:100000000C9403020C9434020C9434020C943402C9
:100010000C9434020C9434020C9434020C94340288
:100020000C9434020C9442150C9442150C94421515
:100030000C9434020C9479040C9434020C94340221
:100040000C9434020C94740B0C9434020C9434020F
:100050000C9434020C9434020C9434020C946B17FC
:100060000C9434020C94E8050C94BE050C943402F4
:100070000C9434020C9434020C9434020C94340228
:100080000C9434020C9434020C9434020C94340218
:100090000C9434020C9434020C9434020C944C15DD
:1000A0000C9434020C9434020C9434020C943402F8
:1000B0000C9434020C9434020C9434020C94160602
:1000C0000C9434020C9434020C9434020C94940575
:1000D0000C946A050C9434020C9440050C9416059B
:1000E0000C94340235073A073F0749075307CC07FA
:1000F0005D0765076D07770781078B079A07A407D8
:10010000CC07AE07B807C207E214E514D414D8141C
:10011000DE141C15E914ED14F314F714FB14011587
:10012000051509151C150F15131517150C947D03CE
:100130000C9484020C94D8140C94CB1B0C943E1495
:100140000C9481070C9449070C9461020C94900361
:100150000C943F070C94CC070C948B070C94DE0294
:100160000C94E5140C94FB140C943F140C94A40709
:100170000C9440140C9492020C94D4140C943702F6
:100180000C9453070C94C31B0C943A070C94011560
:100190000C94E2140C942B030C9435070C949814D3
:1001A0000C9465070C94C2070C94F7140C94360257
:1001B0000C944F140C94DE140C9477070C94AE0737
:1001C0000C94F3140C94ED140C9417150C94F4087F
:1001D0000C9405150C945D070C940F150C9470028B
:1001E0000C94E9140C941C150C949A070C94631449
:1001F0000C9413150C946D070C9409150C943D1474
:100200000C94B8070C948D030C9459090C946B143E
:10021000025741524E494E473A20436F6D6D756EFD
:1002200069636174696F6E206661696C7572652CB3
:1002300020697320746865204D4652433532322060
:1002400070726F7065726C7920636F6E6E65637427
:1002500065643F00203D2028756E6B6E6F776E29B8
:1002600000203D20636F756E746572666569742049
:100270006368697000203D2076322E3000203D20DA
:1002800076312E3000203D2076302E3000203D206B
:1002900028636C6F6E6529004669726D77617265BF
:1002A0002056657273696F6E3A203078005363612F
:1002B0006E205049434320746F2073656520554973
:1002C000442C2053414B2C20747970652C20616E96
:1002D00064206461746120626C6F636B732E2E2ED8
:1002E0000000002100240027002A002D00300033E8
:1002F0000001010000040107010A0100002200259D
:100300000028002B002E00310034000201000005FF
:100310000108010B01000020002300260029002C09
:10032000002F003200000100000301060109010551
:10033000050505070508080808020202020A0A085E
:100340000804040404010101010101010103030384
:100350000303030303040707070C0C0C0C0C0C0C21
:100360000C0202020206060606060606060B0B0B28
:100370000B0B0B0B0B010210202008081020401063
:100380002040800201020108040201010204081059
:100390002040808040201008040201800402018077
:1003A00040201008040201080402010102040810A0
:1003B000204080010204081020408000000A0B0247
:1003C000090C0D0E080703040100000000000000E6
:1003D000000000000000000000000000000000001D
:1003E00000000000000000121110000000000000DA
:1003F00000000000000000000000000000000000FD
:100400000000CB1BC31B11241FBECFEFD1E2DEBF08
:10041000CDBF00E00CBF17E0A0E0B2E0E8ECF4E4F0
:1004200000E00BBF02C007900D92A431B107D9F7CD
:100430002CE0A4E1B7E001C01D92A730B207E1F7BC
:1004400012E0C2E0D2E000E006C021970109802F4F
:10045000FE010E940C1FC130D10780E00807A9F7F8
:100460000E94B5170C9452220C9400000895CF926C
:10047000DF92EF92FF920F931F93CF93DF936C0164
:100480007A018B01C0E0D0E0CE15DF0581F0D80104
:100490006D918D01D601ED91FC910190F081E02DDF
:1004A000C6011995892B11F02196EECF7E01C70167
:1004B000DF91CF911F910F91FF90EF90DF90CF9040
:1004C0000895FC01538D448D252F30E0842F90E05A
:1004D000821B930B541710F0CF960895019708953F
:1004E000FC01918D828D981761F0828DDF01A80F3C
:1004F000B11D5D968C91928D9F5F9F73928F90E05E
:1005000008958FEF9FEF0895FC01918D828D9817CC
:1005100031F0828DE80FF11D858D90E008958FEF09
:100520009FEF0895FC01918D228D892F90E0805CD2
:100530009F4F821B91098F739927089583E997E054
:100540000E94920221E0892B09F420E0822F089575
:1005500080E398E00E94920221E0892B09F420E0D8
:10056000822F08958DEC98E00E94920221E0892B61
:1005700009F420E0822F0895FC01848DDF01A80F8B
:10058000B11DA35ABF4F2C91848D90E001968F73BB
:100590009927848FA689B7892C93A089B1898C91DA
:1005A000837080648C93938D848D981306C0028829
:1005B000F389E02D80818F7D80830895EF92FF92F3
:1005C0000F931F93CF93DF93EC0181E0888F9B8D76
:1005D0008C8D981305C0E889F989808185FD26C036
:1005E000F62E0B8D10E00F5F1F4F0F731127E02EBB
:1005F0008C8DE8120CC00FB607FCFACFE889F98998
:10060000808185FFF5CFCE010E94BC02F1CF8B8D9A
:10061000FE01E80FF11DE35AFF4FF0829FB7F894F7
:100620000B8FEA89FB89808180620AC09FB7F894AA
:10063000EE89FF896083E889F9898081837080640D
:1006400080839FBF81E090E0DF91CF911F910F9158
:10065000FF90EF900895CF93DF93EC01888D88236E
:10066000C9F0EA89FB89808185FD05C0A889B9891F
:100670008C9186FD0FC00FB607FCF5CF808185FFFA
:10068000F2CFA889B9898C9185FFEDCFCE010E9468
:10069000BC02E7CFDF91CF910895E0E0F0E019943C
:1006A00080E090E0892B21F00E94B202811119C0F4
:1006B00080E090E0892B41F080E090E0892B21F0F0
:1006C0000E940000811110C00E94A80281110FC079
:1006D00080E090E0892B81F00E949E0281110AC087
:1006E00008950E940000E4CF0E940000EDCF0E9418
:1006F0004D03EECF0C9400000895BC016E5F7F4F58
:10070000DC01ED91FC910190F081E02D40E0199524
:1007100091E0811190E0892F089580E090E00895A4
:100720000F931F93CF93DF938C01C62FD62FD07FCB
:10073000D1606D2F0E94540E6D2FC8010E94670E6C
:1007400080E1C89FB0011124C62FC1606C2FC80181
:100750000E94540E6C2FC8010E94670E81E090E049
:10076000DF91CF911F910F910895FC012481358174
:10077000232B31F421E061157105A1F0FB0108C0C4
:10078000FC01808191816115710531F421E0FC014A
:100790008081882339F005C00E94422221E0892B04
:1007A00009F020E0822F08950F931F93CF93DF93DA
:1007B000EC0188819981009729F02A813B812617D5
:1007C000370788F48B016F5F7F4F0E945421009799
:1007D00061F0998388831B830A832C813D81232BBD
:1007E00011F4FC01108281E001C080E0DF91CF9123
:1007F0001F910F910895EF92FF920F931F93CF9344
:10080000DF93EC017B018A01BA010E94D4032881A5
:10081000398181110DC02115310519F0C9010E94DE
:10082000CB20198218821D821C821B821A8206C06C
:100830001D830C83B701C9010E944B22CE01DF91B9
:10084000CF911F910F91FF90EF900895FC0180814F
:1008500091810C94CB20EF92FF920F931F93CF9333
:10086000DF93CDB7DEB729970FB6F894DEBF0FBE82
:10087000CDBF8C01862FF801118210821382128263
:100880001582148250E09E012F5F3F4F7901B9011C
:1008900090E00E94851DF70101900020E9F7319753
:1008A000AF014E195F09B701C8010E94FB032996E9
:1008B0000FB6F894DEBF0FBECDBFDF91CF911F9171
:1008C0000F91FF90EF900895FC0111821082138226
:1008D0001282158214826115710551F0FB0101909D
:1008E0000020E9F73197AF01461B570B0C94FB032F
:1008F00008951F920F920FB60F9211240BB60F920C
:100900002F933F934F935F936F937F938F939F9317
:10091000AF93BF93EF93FF9380913007909131078E
:10092000A0913207B0913307892B8A2B8B2B49F189
:1009300090912F078091000089278093000080917B
:10094000300790913107A0913207B0913307181604
:1009500019061A061B060CF056C0809130079091BC
:100960003107A0913207B09133070197A109B1096E
:100970008093300790933107A0933207B0933307E9
:1009800042C080910002E0E1F2E0E4919FEF909399
:100990000002E230C9F050F4EE2399F0E13081F525
:1009A00090916F009D7F90936F002AC0E43019F101
:1009B000E0F0E53029F5909173009D7F90937300EE
:1009C0001FC010926E001CC0909170009D7F90938C
:1009D000700091E09093B0009091B100987F946086
:1009E0009093B1001092B3000BC0909171009D7F65
:1009F0009093710005C0909172009D7F909372005A
:100A000060E00E94A716FF91EF91BF91AF919F9177
:100A10008F917F916F915F914F913F912F910F90A7
:100A20000BBE0F900FBE0F901F9018951F920F9244
:100A30000FB60F9211240BB60F922F933F934F9343
:100A40005F936F937F938F939F93AF93BF93EF9336
:100A5000FF9383E997E00E94BC02FF91EF91BF9161
:100A6000AF919F918F917F916F915F914F913F9146
:100A70002F910F900BBE0F900FBE0F901F901895E7
:100A80001F920F920FB60F9211240BB60F922F9355
:100A90003F934F935F936F937F938F939F93AF9306
:100AA000BF93EF93FF9383E997E00E947C0EFF9141
:100AB000EF91BF91AF919F918F917F916F915F91D6
:100AC0004F913F912F910F900BBE0F900FBE0F9043
:100AD0001F9018951F920F920FB60F9211240BB60C
:100AE0000F922F933F934F935F936F937F938F93C7
:100AF0009F93AF93BF93EF93FF9380E398E00E949F
:100B0000BC02FF91EF91BF91AF919F918F917F9127
:100B10006F915F914F913F912F910F900BBE0F906E
:100B20000FBE0F901F9018951F920F920FB60F9245
:100B300011240BB60F922F933F934F935F936F93B4
:100B40007F938F939F93AF93BF93EF93FF9380E334
:100B500098E00E947C0EFF91EF91BF91AF919F9121
:100B60008F917F916F915F914F913F912F910F9056
:100B70000BBE0F900FBE0F901F9018951F920F92F3
:100B80000FB60F9211240BB60F922F933F934F93F2
:100B90005F936F937F938F939F93AF93BF93EF93E5
:100BA000FF938DEC98E00E94BC02FF91EF91BF9102
:100BB000AF919F918F917F916F915F914F913F91F5
:100BC0002F910F900BBE0F900FBE0F901F90189596
:100BD0001F920F920FB60F9211240BB60F922F9304
:100BE0003F934F935F936F937F938F939F93AF93B5
:100BF000BF93EF93FF938DEC98E00E947C0EFF91E2
:100C0000EF91BF91AF919F918F917F916F915F9184
:100C10004F913F912F910F900BBE0F900FBE0F90F1
:100C20001F90189508958CBD9DBD08951F920F9239
:100C30000FB60F9211240BB60F922F933F934F9341
:100C40005F936F937F938F939F93AF93BF93EF9334
:100C5000FF9380916B090E947E1620916F0930915D
:100C600070092F5F3F4F3093700920936F09909167
:100C70006E09953618F096E090936A0990916A098A
:100C80009430C9F128F4923069F09330D1F05EC00D
:100C9000953009F451C0963009F058C091E0909316
:100CA0003B0A51C0811152C020916F0930917009E7
:100CB0002436310508F442C010923B0A10926E09A6
:100CC0001CC0813009F042C0E0916E0991E09E0F96
:100CD00090936E09F0E020916F0930917009EE0F4A
:100CE000FF1FE659F64F3087278310927009109244
:100CF0006F0994E029C0811117C0E0916E0991E05D
:100D00009E0F90936E09F0E020916F093091700969
:100D1000EE0FFF1FE659F64F3087278310927009B8
:100D200010926F0993E010C020916F093091700903
:100D30002536310558F007C0811108C0109270099E
:100D400010926F0903C095E090936A0990916D0924
:100D50009923B9F081110AC080916C09882321F090
:100D600080916C0961E009C02F9A0BC080916C09D9
:100D7000882331F080916C0960E00E94A71601C0C1
:100D80002F98FF91EF91BF91AF919F918F917F919C
:100D90006F915F914F913F912F910F900BBE0F90EC
:100DA0000FBE0F901F9018958F929F92AF92BF9297
:100DB000CF92DF92EF92FF920F931F93CF93DF9327
:100DC0008C016A017B0120E030E04FE753E4C7016A
:100DD000B6010E94201E4B015C0120E030E0A90119
:100DE0000E94292018161CF4C501B40103C0C501D6
:100DF000B40190580E94F31FEB0120E030E0A901FC
:100E0000C701B6010E942920181614F460E001C041
:100E100061E0F80181810E94A716CF3FD10509F05A
:100E200014F4DD2702C0CFEFD0E0F801108161E0BB
:100E3000812F0E94D616209709F4B1C0CF3FD1056B
:100E400009F4AFC0E12FF0E0E554FC4FE4918E2FA0
:100E500090E0FC013197E231F10508F09DC0882750
:100E6000EE58FF4F8F4F0C940C1F84B5806884BDE3
:100E7000C7BDA7C084B5806284BDC8BDA2C0809133
:100E80008000806880938000D0938900C0938800A0
:100E900098C080918000806280938000D0938B0006
:100EA000C0938A008EC0809180008860809380000B
:100EB000D0938D00C0938C0084C08091B000806876
:100EC0008093B000C093B3007CC08091B00080627A
:100ED0008093B000C093B40074C08091900080688B
:100EE00080939000D0939900C09398006AC080913D
:100EF0009000806280939000D0939B00C0939A00F2
:100F000060C080919000886080939000D0939D0095
:100F1000C0939C0056C08091A00080688093A00080
:100F20008091A0008F7B8093A000D093A900C093F4
:100F3000A80047C08091A00080628093A000D09359
:100F4000AB00C093AA003DC08091A0008860809350
:100F5000A000D093AD00C093AC0033C080912001BD
:100F6000806880932001D0932901C093280129C073
:100F700080912001806280932001D0932B01C09347
:100F80002A011FC080912001886080932001D093A6
:100F90002D01C0932C0115C0C038D10514F460E0B8
:100FA00001C061E0812FDF91CF911F910F91FF90E0
:100FB000EF90DF90CF90BF90AF909F908F900C9468
:100FC000A716DF91CF911F910F91FF90EF90DF90C7
:100FD000CF90BF90AF909F908F9008958BE30E9429
:100FE00012174E9784F44AE959E969E17EEB85E9E5
:100FF0009AE00E94D40642E558EB6EE17EE383E975
:101000009AE00E94D4068BE30E9412178A3A910557
:101010003CF48BE30E941217833891050CF058C002
:101020008BE30E941217803491403CF48BE30E94C2
:101030001217893191400CF056C08BE30E941217B1
:10104000863D91403CF48BE30E9412178F3A914009
:101050000CF059C08BE30E941217863792403CF483
:101060008BE30E941217853492400CF055C08BE33D
:101070000E9412178C3093403CF48BE30E941217AD
:10108000853E92400CF053C08BE30E941217823AC7
:1010900093403CF48BE30E9412178B3793400CF083
:1010A00057C08BE30E9412178D3F93400CF459C038
:1010B0004AE959E969E17EEB85E99AE00E94D406A4
:1010C00042E558EB6EE17EE383E99AE00C94D406A6
:1010D0000E94760D41E050E060E070E088EB92E421
:1010E0000E94950E9DCF40E050E060E070E885E9F9
:1010F0009AE00E94D40640E050E0BA0183E99AE009
:101100000E94D4069ACF41E050E060E070E080EAAF
:1011100090E40E94950E9ECF0E94760D40E050E034
:1011200060E070E088EB92E40E94950EA0CF4AE95F
:1011300059E969E17EEB85E99AE00E94D40642E52F
:1011400058EB6EE17EE383E99AE00E94D4069CCFDF
:1011500040E050E060E070E080EA90E40E94950E8C
:10116000A0CF08958EBD00000DB407FEFDCF8EB553
:1011700008951F93CF93DF93EC01162F83E590E042
:101180000E94130660E08E850E94A716812F80685A
:101190000E94B20880E00E94B208182F61E08E859C
:1011A0000E94A716812FDF91CF911F9108950F9371
:1011B0001F93CF93DF93EC01062F142F83E590E06C
:1011C0000E94130660E08E850E94A716802F0E9461
:1011D000B208812F0E94B20861E08E85DF91CF9125
:1011E0001F910F910C94A716AF92BF92CF92EF92DE
:1011F000FF920F931F93CF93DF9300D01F921F9204
:10120000CDB7DEB75C0182E08D8340E064E2C501CA
:101210000E94D70840E066E2C5010E94D70846E276
:1012200068E4C5010E94D70886E28B838D818230F5
:1012300038F16CE1C5010E94B908482F4F776CE185
:10124000C5010E94D70887E08C83C12CCE0104968B
:101250007C018E010B5F1F4F9E012F5F3F4F41E0CE
:10126000BE016D5F7F4FC5010E949E0C81110BC0B6
:101270008D81823039F481E09C81911104C008C0D5
:1012800084E001C081E091E0823019F090E001C07B
:1012900091E0892F0F900F900F900F900F90DF919A
:1012A000CF911F910F91FF90EF90CF90BF90AF9093
:1012B00008952F923F924F925F926F927F928F92FA
:1012C0009F92AF92BF92CF92DF92EF92FF920F93D5
:1012D0001F93CF93DF93CDB7DEB72B970FB6F8945C
:1012E000DEBF0FBECDBF413508F00AC1342E4B0121
:1012F0005C016CE10E94B908482F4F776CE1C50191
:101300000E94D7084424439432E0431691F083E0CE
:101310004816E1F091E04912F5C083E98983332052
:10132000D1F081E0F4019081953008F480E0512CF7
:1013300017C0F5E9F983332081F081E0F401908151
:10134000983008F480E053E0552E0AC087E989837D
:1013500046E0542E04C0512C02C033E0532E80E0EE
:10136000D32CF8E05F9ED0181124D7FCD12C882311
:1013700021F098E89B8333E001C032E021E09D2D0D
:10138000977009F420E09D2D959595959595290FD9
:1013900031F4882309F491C038E0D30E8EC0811156
:1013A00002C094E001C093E0291708F4922FE52DC4
:1013B000F0E03196E80DF91D232F4191A1E0B0E056
:1013C000AC0FBD1FA20FB11D4C932F5F422F431BCB
:1013D000491798F3DECF8111DDC09FE19D150CF414
:1013E00093C080E2D82E90E79A839B818C818927D5
:1013F0009D8189279E8189278F839E01285F3F4F8A
:1014000047E0BE016F5F7F4FC5010E94520C811102
:10141000A2C01A86E3E0EB87CE0107963C0129E0E3
:10142000222ECA844C2D4295407F4C0D6AE1C501A5
:101430000E94D708CE010A967C018E01055F1F4FDE
:101440009301422DBE016F5F7F4FC5010E949E0C2C
:10145000182F823009F0BFCF6CE1C5010E94B90896
:1014600085FD98C08F7109F480E2282F30E04D2D62
:10147000DD0C550B421753070CF044C0D82E859550
:101480008595859591E0980F422F477081E009F48A
:1014900080E0890FE1E0F0E0EC0FFD1FE80FF11DA7
:1014A000215031092770332781E090E001C0880F77
:1014B0002A95EAF79081892B80838FE18D150CF4B2
:1014C00092CF9D2D97709A878D2D859585958595C1
:1014D0008E5F292FE0E18E9F200D11242A8321E0C9
:1014E000911101C020E0222E280E66246394712CF5
:1014F0006C0E7D1E680E711CF9E0F81BFB8791CF06
:1015000016E048C015E046C08B81883809F43FC01A
:1015100082E094E0E52DF0E03196E80DF91D980F9A
:10152000A1E0B0E0AC0FBD1FA80FB11D2C9121931D
:101530008F5F8913F5CF8B85833029F58A858111DB
:1015400022C09E012D5F3F4F41E0B301C5010E94C3
:10155000520C882311F0182F1DC09B81F30181814B
:10156000981313C09C81828198130FC0808182FFE1
:1015700002C04394C9CEF4018387842D880F480E9E
:101580004394408207C011E005C017E003C083E028
:1015900093E0C0CF812F2B960FB6F894DEBF0FBE1D
:1015A000CDBFDF91CF911F910F91FF90EF90DF9012
:1015B000CF90BF90AF909F908F907F906F905F90F3
:1015C0004F903F902F900895CF93DF93EC0160E010
:1015D00088810E94A71688E90E94B20880E00E94D4
:1015E000B20880E00E94B20880E00E94B20880E069
:1015F0000E94B20861E088810E94A7168BE891E002
:101600000197F1F760E088810E94A71680EE0E94A2
:10161000B20861E08881DF91CF910C94A716AF9258
:10162000BF92CF92DF92EF92FF920F931F93CF93CF
:10163000DF93CDB7DEB760970FB6F894DEBF0FBE6D
:10164000CDBF5C0160E0FC0180810E94A71680E6AE
:101650000E94B2088E010F5F1F4F7E01F1E1EF0E75
:10166000F11C680180E00E94B20890E0A0E0B0E0C8
:10167000F60181939193A193B1936F01EE15FF054C
:1016800089F761E0F50180810E94A71680E090E073
:10169000DC01F80141915191619171918F01BA2F53
:1016A000A92F982F8827840F951FA61FB71FEE1507
:1016B000FF0579F79C01AD0166277727CB01621BF7
:1016C000730B840B950B60960FB6F894DEBF0FBEBC
:1016D000CDBFDF91CF911F910F91FF90EF90DF90E1
:1016E000CF90BF90AF9008951F920F920FB60F92B8
:1016F00011240BB60F922F933F934F935F936F93E9
:101700007F938F939F93AF93BF93EF93FF938091BA
:101710002E0787FF05C0109285001092840016C026
:1017200020912E07022E000C330B8091780A90E056
:10173000281739075CF430912E0725E03203F001B9
:101740001124E45CF54F808186FD15C080912E0741
:101750008F5F80932E0720912E07022E000C330BF3
:101760008091780A90E02817390794F480912E0729
:101770008C302CF10DC030912E073203F001112472
:10178000E45CF54F808160E08F730E94A716DECF86
:10179000809184009091850084349C4918F480E401
:1017A0009CE905C0809184009091850004969093F7
:1017B0008900809388008FEF80932E072AC0409184
:1017C00084005091850030912E0725E03203F0010E
:1017D0001124E45CF54F81819281840F951F9093D1
:1017E00089008093880030912E073203F001112484
:1017F000E45CF54F808186FF0CC030912E073203E8
:10180000F0011124E45CF54F808161E08F730E9448
:10181000A716FF91EF91BF91AF919F918F917F910B
:101820006F915F914F913F912F910F900BBE0F9051
:101830000FBE0F901F901895CF93CFB7F89480915B
:101840002D07811127C0E4E6F3E08491EAEAF3E092
:101850009491E82FF0E0EE0FFF1FEF51FD4FA5919F
:10186000B491EC91E92321F461E085E30E94A7168D
:1018700061E085E30E94D6168CB580618CBD8CB585
:1018800080648CBD61E084E30E94D61661E083E34E
:101890000E94D61680912D078F5F80932D07CFBFB2
:1018A000CF910895CF92DF92EF92FF920F931F9303
:1018B000CF93DF93EC016B01142F790140E062E0DC
:1018C0000E94D70844E06AE0CE010E94D70840E8B1
:1018D00064E1CE010E94D708A601612FCE010E94CB
:1018E000D91343E062E0CE010E94D70808E813E173
:1018F0006AE0CE010E94B90882FF13C040E062E0B6
:10190000CE010E94D70864E4CE010E94B908F70115
:10191000808362E4CE010E94B908F701818380E0F0
:1019200004C00150110921F783E0DF91CF911F918D
:101930000F91FF90EF90DF90CF9008957F928F925C
:101940009F92AF92BF92CF92DF92EF92FF920F934E
:101950001F93CF93DF93EC014B01742E5901E114D7
:10196000F10419F0F701408101C040E0D42EF0E10C
:10197000CF9ED00C112440E062E0CE010E94D70837
:101980004FE768E0CE010E94D70840E864E1CE014D
:101990000E94D708A401672DCE010E94D9134D2DB6
:1019A0006AE1CE010E94D7084CE062E0CE010E94BD
:1019B000D7086AE1CE010E94B908482F40686AE161
:1019C000CE010E94D70880ED882E87E0982E68E02F
:1019D000CE010E94B908982F907341F480FD04C095
:1019E00081E0881A910899F783E072C06CE0CE011B
:1019F0000E94B908982E837109F069C0A114B1043E
:101A000009F45DC00115110509F459C064E1CE0166
:101A10000E94B908882EF8018081881508F453C007
:101A20008082882009F441C083E590E00E9413067B
:101A300060E08E850E94A716DD24DA94D80C82E936
:101A40000E94B208CC20A9F00FEF10E001C0000FF7
:101A5000CA94EAF782E90E94B208202F2095F50186
:101A6000908192238023092F082B0083882483945C
:101A700001C0812C282D30E08D1450F48501020F17
:101A8000131F82E90E94B208F80180838394F2CF89
:101A9000A20EB31E80E00E94B208F501808361E0CF
:101AA0008E850E94A7160E94120668E1CE010E9450
:101AB000B9088770E114F10411F0F701808393FCF9
:101AC00004C080E005C084E003C082E001C081E082
:101AD000DF91CF911F910F91FF90EF90DF90CF900A
:101AE000BF90AF909F908F907F9008954F925F929C
:101AF0006F927F928F929F92AF92BF92CF92DF921E
:101B0000EF92FF92CF93DF93CDB7DEB728970FB652
:101B1000F894DEBF0FBECDBF87E99AE00E94E40AC9
:101B200089E99AE00E94E40A8AE9482E89E9582E58
:101B300089E1682E8EE3782E89E99AE00E940F0BE6
:101B400068387140810591050CF085C04AE959E972
:101B500069E17EEB85E99AE00E94D406B301A20117
:101B600083E99AE00E94D406809138079091390762
:101B7000A0913A07B0913B0789839A83AB83BC83DA
:101B80008091340790913507A0913607B0913707BF
:101B90008D839E83AF83B88787E99AE00E940F0BFD
:101BA000882499245401861A970AA80AB90A8092AF
:101BB000340790923507A0923607B092370789E92B
:101BC0009AE00E940F0B6B017C01609338077093C1
:101BD000390780933A0790933B074AE060E070E052
:101BE000CB010E94DF1069E472E08DEC98E00E9466
:101BF000A41089819A81AB81BC81C81AD90AEA0AEA
:101C0000FB0A8D819E81AF81B885881A990AAA0A3C
:101C1000BB0AC701B601681979098A099B090E94A4
:101C2000C11D2FE632E143E85AE30E94201E20E066
:101C300030E0A9010E94151F9B01AC01C301B20154
:101C40000E94151F2B013C016AE070E080E090E0EB
:101C50000E94311771CF40E050E0BA0183E99AE069
:101C60000E94D40640E050E060E070E885E99AE028
:101C70000E94D40664E670E080E090E028960FB6FB
:101C8000F894DEBF0FBECDBFDF91CF91FF90EF90F4
:101C9000DF90CF90BF90AF909F908F907F906F908C
:101CA0005F904F900C943117FC01248131E0309308
:101CB0006307209385071092640710928607848536
:101CC000682B87E897E00E9498140C9435110F93C5
:101CD0001F93CF938C01C62F64600E94540E6C2F0B
:101CE0006B7FC8010E94540E83EC90E00197F1F7DE
:101CF000CF911F910F910895FC01A089B1898C911A
:101D0000A689B78982FD0FC09C91818D8F5F8F73EB
:101D1000228D821749F0218DDF01A20FB11D5D9642
:101D20009C93818F08958C9108954F925F926F924A
:101D30007F928F929F92AF92BF92CF92DF92EF925B
:101D4000FF92CF93DF93CDB7DEB729970FB6F89404
:101D5000DEBF0FBECDBF6B017C015A0187E99AE05F
:101D60000E94E40A89E99AE00E94E40AAB2899F407
:101D70002DEC3CEC4CE45EE329833A834B835C839B
:101D80009DEC892E9CEC992E9CE4A92E9EEBB92EFD
:101D900031E0398711C08DEC9CECACE4BEEB89835B
:101DA0009A83AB83BC838DEC882E8CEC982E8CE4CC
:101DB000A82E8EE3B82E198620E030E044EB53E4E1
:101DC000C701B6010E94811F2BE03BE24DE552E4C2
:101DD0000E94201E27E63CEA45E053E40E94201EB4
:101DE0000E94F31F6D837E838F839887A7019601DE
:101DF000C701B6010E942E20882319F06CE472E01E
:101E00001AC026013701E89477F82FEF3FEF4FE72C
:101E10005FE7C301B2010E942E20811111C02FEF94
:101E20003FEF4FE75FE7C301B2010E94BA1D1816EA
:101E30003CF460E572E08DEC98E00E94A41076C05E
:101E40002FEF3FEF4FE75FE4C701B6010E94292063
:101E500018161CF464E572E0EECF2FEF3FEF4FE76A
:101E60005FECC701B6010E94BA1D87FDF3CF20E0E9
:101E700030E0A901C701B6010E94BA1D87FF09C061
:101E80006DE28DEC98E00E94DE02F7FAF094F7F82C
:101E9000F0942AE037ED43EA5BE3C701B6010E9404
:101EA000151F2B013C010E94FA1F6B017C010E944F
:101EB000BF1D9B01AC01C301B2010E94141F2B0185
:101EC0003C014AE0C701B6010E94DF106EE28DECD2
:101ED00098E00E94DE0220E030E040E251E4C301DD
:101EE000B2010E94201E2B013C010E94FA1F6B01CF
:101EF000E12CF12C4AE0C701B6010E94DF10C701B6
:101F0000B6010E94BF1D9B01AC01C301B2010E943A
:101F1000141F20E030E040E251E40E94201E0E94A5
:101F2000FA1F80E090E04AE00E94DF1069E472E06E
:101F30008DEC98E00E94A410C980DA80EB80FC80D0
:101F4000F7FAF094F7F8F094998591110CC087E9AD
:101F50009AE00E940F0B90958095709561957F4F48
:101F60008F4F9F4F04C089E99AE00E940F0B2D818B
:101F70003E814F81588562177307840795076CF47B
:101F8000B501A40183E99AE00E94D406B701A60135
:101F900085E99AE00E94D406D7CF40E050E0BA012C
:101FA00083E99AE00E94D40640E050E060E070E8E7
:101FB00085E99AE00E94D4066CE271E080E090E04E
:101FC00029960FB6F894DEBF0FBECDBFDF91CF913B
:101FD000FF90EF90DF90CF90BF90AF909F908F9049
:101FE0007F906F905F904F900C943117AF92BF929B
:101FF000CF92DF92FF920F931F93CF93DF93CDB7D2
:10200000DEB72C970FB6F894DEBF0FBECDBF8C01A4
:102010006B01CB010E94F408811106C06BE472E0F1
:10202000C8010E94640458C0C6010E947D03882331
:10203000A9F36BE472E0CE0107960E946404F12CD0
:10204000F6018281F81688F55601AF0CB11CF50136
:102050008381803118F064EB72E002C068E572E0C1
:10206000CE0101960E9464044D815E8169817A816E
:10207000CE0107960E94AB13CE0101960E94260462
:1020800040E1F5016381CE0101960E942B044D8150
:102090005E8169817A81CE0107960E94AB13CE01E1
:1020A00001960E942604F394CBCF8F819885F80186
:1020B0009183808389859A85938382838B859C8590
:1020C0009583848318861F821A8619861C861B8630
:1020D000CE0107960E942604C8012C960FB6F894EC
:1020E000DEBF0FBECDBFDF91CF911F910F91FF904B
:1020F000DF90CF90BF90AF900895FC01A089B18987
:1021000082E08C93A485B5851C92A685B7858FEC5B
:102110008C93108EA489B58986E08C93A289B389AB
:102120008C9180618C93A289B3898C9188608C9307
:10213000A289B3898C9180688C930288F389E02D01
:1021400080818F7D808308956115710551F0FB01B9
:1021500001900020E9F73197AF01461B570B0C9413
:10216000370280E090E008950F931F93CF93DF93A1
:102170008C01C0E0D0E0F801EC0FFD1F64916623F4
:1021800041F08DEC98E00E94DE02892B11F021963F
:10219000F2CFCE01DF91CF911F910F910895CF9390
:1021A000DF930E94B410EC0169E472E08DEC98E0DA
:1021B0000E94A4108C0F9D1FDF91CF9108958F92E4
:1021C0009F92AF92BF920F931F93CF93DF93CDB7A0
:1021D000DEB7A1970FB6F894DEBF0FBECDBF19A230
:1021E000423008F44AE08E010F5D1F4F842E912C7F
:1021F000A12CB12CA50194010E94DE1EE62FB9018D
:10220000CA0101501109EA3014F4E05D01C0E95C33
:10221000D801EC93232B242B252B61F7B8018DECEF
:1022200098E00E94A410A1960FB6F894DEBF0FBEEE
:10223000CDBFDF91CF911F910F91BF90AF909F9035
:102240008F900895CF93DF93BC018DEC98E00E94AE
:10225000A410EC0169E472E08DEC98E00E94A410F7
:102260008C0F9D1FDF91CF910895309186073132F9
:1022700008F04BC0809162078111FCCF90918507D7
:1022800022E02093620721E0209361072FEF209343
:10229000600710925F0730935E07E5E6F7E0AEE374
:1022A000B7E020E0321721F041914D932F5FFACF34
:1022B00010923D0720913D07990F922B90933D0777
:1022C00090913C07913061F410923C0790913D074A
:1022D0009093BB009091BC0093FDF8CF95EC01C0AA
:1022E00095EE9093BC00909162079230E1F390914B
:1022F00060079F3F79F080916007803241F08091C4
:102300006007803331F084E005C081E003C082E0E3
:1023100001C083E010926407109286071092630751
:1023200008950F931F93CF93DF93162F072FCAE7BC
:10233000DAE09C8521E02093630790938507109253
:10234000640710928607AA85BB85ED91FC911197D1
:102350000190F081E02D682FCD0119958A859B852C
:10236000DC01ED91FC910190F081E02D602F199539
:102370008A859B85DC01ED91FC910190F081E02D37
:10238000612F1995DF91CF911F910F910C94351109
:10239000FC01448155816081718180E398E00E9455
:1023A000370269E472E080E398E00C94A410FC0129
:1023B000448155816081718180E398E00C943702FB
:1023C000CF93DF93EC016BED72E00E94B50388239D
:1023D00031F081EF92E00E94221191E054C164EF4C
:1023E00072E0CE010E94B50381114CC16AE073E036
:1023F000CE010E94B503811148C160E273E0CE01B5
:102400000E94B503811143C166E373E0CE010E94CF
:10241000B50381113EC16CE473E0CE010E94B503A7
:10242000811139C162E673E0CE010E94B5038111CA
:1024300034C168E773E0CE010E94B50381112FC15A
:102440006EE873E0CE010E94B50381112AC164EAEF
:1024500073E0CE010E94B503811125C16AEB73E0E0
:10246000CE010E94B503811120C160ED73E0CE0161
:102470000E94B50381111BC166EE73E0CE010E947C
:10248000B503811116C16CEF73E0CE010E94B50354
:10249000811111C162E174E0CE010E94B503811186
:1024A0000DC168E274E0CE010E94B503811108C13C
:1024B0006EE374E0CE010E94B503811103C164E5AF
:1024C00074E0CE010E94B5038111FEC06AE674E09B
:1024D000CE010E94B5038111F9C060E874E0CE011D
:1024E0000E94B5038111F4C066E974E0CE010E9438
:1024F000B5038111EFC06CEA74E0CE010E94B50310
:102500008111EBC062EC74E0CE010E94B503811131
:10251000E6C068ED74E0CE010E94B5038111E1C010
:102520006EEE74E0CE010E94B5038111DCC064E060
:1025300075E0CE010E94B5038111D7C06AE175E054
:10254000CE010E94B5038111D2C060E375E0CE01D7
:102550000E94B5038111CDC066E475E0CE010E94F2
:10256000B5038111C9C06CE575E0CE010E94B503C9
:102570008111C4C062E775E0CE010E94B5038111EC
:10258000BFC068E875E0CE010E94B5038111BAC0F2
:102590006EE975E0CE010E94B5038111B5C064EB10
:1025A00075E0CE010E94B5038111B0C06AEC75E000
:1025B000CE010E94B5038111ABC060EE75E0CE0183
:1025C0000E94B5038111A7C066EF75E0CE010E949D
:1025D000B5038111A2C06CE076E0CE010E94B50384
:1025E00081119DC062E276E0CE010E94B5038111A7
:1025F00098C068E376E0CE010E94B503811193C0D4
:102600006EE476E0CE010E94B50381118EC064E6CF
:1026100076E0CE010E94B503811189C06AE776E0B9
:10262000CE010E94B503811185C060E976E0CE013C
:102630000E94B503811180C066EA76E0CE010E9457
:10264000B50381117BC06CEB76E0CE010E94B5032F
:10265000811176C062ED76E0CE010E94B503811152
:1026600071C068EE76E0CE010E94B50381116CC0A6
:102670006EEF76E0CE010E94B503811167C090E055
:1026800080E366C092E081E463C093E0FCCF94E015
:10269000FACF95E0F8CF96E0F6CF97E0F4CF91E04F
:1026A0000BC092E009C093E007C094E005C095E03C
:1026B00003C096E001C097E082E44AC091E00BC0FD
:1026C00092E009C093E007C094E005C095E003C024
:1026D00096E001C097E083E43BC091E00BC092E03C
:1026E00009C093E007C094E005C095E003C096E000
:1026F00001C097E084E42CC091E00BC092E009C0D7
:1027000093E007C094E005C095E003C096E001C0E7
:1027100097E085E41DC091E00BC092E009C093E012
:1027200007C094E005C095E003C096E001C097E0C3
:1027300086E40EC091E00BC092E009C093E007C0B0
:1027400094E005C095E003C096E001C097E087E4FF
:10275000DF91CF910895EF92FF920F931F93CF9344
:10276000DF936115710511F480E01CC0411551051E
:10277000C1F07B01EC018C819D818A01080F191F3A
:10278000B801CE010E94D403882371F328813981D6
:102790008C819D81B701820F931F0E944B221D8364
:1027A0000C8381E0DF91CF911F910F91FF90EF900B
:1027B0000895DF92EF92FF920F931F93CF93DF93D1
:1027C0008C01F62ED42EE52E83E590E00E941306B0
:1027D00060E0F80186850E94A71682E10E94B20897
:1027E000CD2DDE2DCE018F0D911D7C01EC16FD0649
:1027F00021F089910E94B208F9CF61E0F801868545
:102800000E94A716DF91CF911F910F91FF90EF903B
:10281000DF900C94120685ED8093BC008091BC0083
:1028200084FDFCCF1092620708954091DE0B262FA5
:1028300030E0240F311D21323105DCF42091620794
:102840002430C9F4FC0180E090E0861758F4309100
:10285000DE0B2191DC01A254B44FA30FB11D2C93C8
:102860000196F3CF8091DE0B680F6093DE0B80E062
:10287000089581E0089582E00895089508950895E7
:10288000E091900B80918F0BE81730F4F0E0E25666
:10289000F44F808190E008958FEF9FEF089590911D
:1028A000900B80918F0B981750F4E92FF0E0E256CF
:1028B000F44F208130E09F5F9093900B02C02FEF88
:1028C0003FEFC901089580918F0B90E02091900B0C
:1028D000821B91090895CF92DF92EF92FF920F939E
:1028E0001F93CF93DF937C01CB018A012091630773
:1028F000222389F0EB016B01C40ED51ECC15DD053A
:1029000069F06991D701ED91FC910190F081E02D82
:10291000C7011995F3CF642F0E941514C801DF91E8
:10292000CF911F910F91FF90EF90DF90CF9008957E
:10293000CF93DF931F92CDB7DEB7698320916307F2
:102940002223D1F020918607203240F021E030E0B0
:10295000FC013383228380E090E015C080916407FE
:10296000E82FF0E0EB59F84F998190838F5F8093C7
:1029700064078093860705C061E0CE0101960E943E
:10298000151481E090E00F90DF91CF91089590E0D1
:10299000FC013197E231F10508F04EC08827EC5771
:1029A000FF4F8F4F0C940C1F809180008F7703C0D6
:1029B000809180008F7D80938000089580918000B9
:1029C000877FF9CF84B58F7702C084B58F7D84BDB2
:1029D00008958091B0008F7703C08091B0008F7D03
:1029E0008093B0000895809190008F7707C0809108
:1029F00090008F7D03C080919000877F809390002E
:102A000008958091A0008F7707C08091A0008F7DEE
:102A100003C08091A000877F8093A00008958091DB
:102A200020018F7707C0809120018F7D03C08091A6
:102A30002001877F8093200108953FB7F89480910B
:102A40009A0B90919B0BA0919C0BB0919D0B26B57E
:102A5000A89B05C02F3F19F00196A11DB11D3FBFD6
:102A6000BA2FA92F982F8827820F911DA11DB11D64
:102A7000BC01CD0142E0660F771F881F991F4A9560
:102A8000D1F708951F920F920FB60F9211240F9055
:102A90000FBE0F901F9018951F920F920FB60F92B6
:102AA00011240BB60F922F933F934F935F936F9325
:102AB0007F938F939F93AF93BF93EF93FF938091F7
:102AC000B900887F803609F49CC068F5883209F423
:102AD0005BC090F4803109F454C038F4882309F4C1
:102AE000F6C0883009F44DC0F6C0883109F44CC0F6
:102AF000803209F45DC0EFC0803409F468C048F446
:102B0000803309F455C0883309F0E5C0809360072D
:102B1000D8C0803509F44FC0883509F45DC08834C9
:102B200009F0D9C0D6C0883909F4C7C0A8F48837DD
:102B300009F467C038F4883609F463C0803709F4B3
:102B400060C0C9C0883809F4B8C0803909F45FC0D2
:102B5000803809F0C0C05BC0803B09F486C038F4FF
:102B6000803A09F466C0883A09F47FC0B4C0803C5A
:102B700009F4A7C0883C09F4A4C0883B09F48AC0C2
:102B8000AAC080913D0710C090915F0780915E07B9
:102B9000981770F5E0915F0781E08E0F80935F07D3
:102BA000F0E0E25CF84F80818093BB0085EC86C04A
:102BB000809360078EC0E0915F0781E08E0F809365
:102BC0005F078091BB00F0E0E25CF84F808390915A
:102BD0005F0780915E076EC0E0915F0781E08E0F16
:102BE00080935F078091BB00F0E0E25CF84F808348
:102BF0008091610781116DC081E080933C0784EA78
:102C000061C083E0809362071092000CCFCF809167
:102C1000000C803208F051C0E091000C81E08E0F72
:102C20008093000C8091BB00F0E0E052F44F808371
:102C3000BDCF85EC8093BC00109262078091000CA0
:102C4000803230F4E091000CF0E0E052F44F10825A
:102C50006091000C70E0E091930BF091940B80EE8A
:102C60009BE019951092000C36C084E080936207B7
:102C70001092DF0B1092DE0BE091910BF091920B12
:102C800019958091DE0B811105C081E08093DE0BE8
:102C90001092BE0BE091DF0B81E08E0F8093DF0B73
:102CA000F0E0E254F44F80818093BB009091DF0B01
:102CB0008091DE0B981708F479CF85E88093BC00EB
:102CC0000AC085EC8093BC001092620704C0109289
:102CD00060070E940B14FF91EF91BF91AF919F91FC
:102CE0008F917F916F915F914F913F912F910F90B5
:102CF0000BBE0F900FBE0F901F901895CF93DF93D0
:102D0000282F30E0F901E554FC4F8491F901EB588C
:102D1000FC4FD491F901E15DFC4FC491CC2391F0BB
:102D200081110E94C714EC2FF0E0EE0FFF1FEB5E45
:102D3000FC4FA591B491EC91ED2381E090E021F45A
:102D400080E002C080E090E0DF91CF9108951F9372
:102D5000CF93DF93282F30E0F901E554FC4F8491A5
:102D6000F901EB58FC4FD491F901E15DFC4FC4919E
:102D7000CC23C1F0162F81110E94C714EC2FF0E074
:102D8000EE0FFF1FE550FD4FA591B4919FB7F8944A
:102D9000111104C08C91D095D82302C0EC91DE2B88
:102DA000DC939FBFDF91CF911F910895CF93DF9365
:102DB00090E0FC01EB58FC4F2491FC01E15DFC4FDD
:102DC0008491882361F190E0880F991FFC01EF51F5
:102DD000FD4FC591D491FC01E550FD4FA591B491F3
:102DE000611109C09FB7F894888120958223888358
:102DF000EC912E230BC0623061F49FB7F894888168
:102E0000322F309583238883EC912E2B2C939FBFF8
:102E100006C08FB7F894E8812E2B28838FBFDF91EF
:102E2000CF910895863308F0865390917B00282F28
:102E30002870977F922B90937B008770806480939B
:102E40007C0080917A00806480937A0080917A007F
:102E500086FDFCCF809178002091790090E0922B44
:102E600008958F929F92AF92BF92CF92DF92EF928E
:102E7000FF926B017C010E941D154B015C01C11486
:102E8000D104E104F104F1F00E941D15DC01CB0135
:102E900088199909AA09BB09883E9340A105B10583
:102EA00070F321E0C21AD108E108F10888EE880E1B
:102EB00083E0981EA11CB11CC114D104E104F104EB
:102EC00019F7DDCFFF90EF90DF90CF90BF90AF90DC
:102ED0009F908F9008951F920F920FB60F9211241A
:102EE0002F933F938F939F93AF93BF938091960BB4
:102EF0009091970BA091980BB091990B3091950BF5
:102F000023E0230F2D3720F40196A11DB11D05C02C
:102F100026E8230F0296A11DB11D2093950B8093E7
:102F2000960B9093970BA093980BB093990B80916D
:102F30009A0B90919B0BA0919C0BB0919D0B0196CD
:102F4000A11DB11D80939A0B90939B0BA0939C0B9A
:102F5000B0939D0BBF91AF919F918F913F912F9116
:102F60000F900FBE0F901F901895CF93DF93CDB7A2
:102F7000DEB76C970FB6F894DEBF0FBECDBF789466
:102F800084B5826084BD84B5816084BD85B582606E
:102F900085BD85B5816085BD80916E00816080931F
:102FA0006E00109281008091810082608093810088
:102FB0008091810081608093810080918000816098
:102FC000809380008091B10084608093B1008091F3
:102FD000B00081608093B000809191008260809306
:102FE0009100809191008160809391008091900088
:102FF0008160809390008091A10082608093A10005
:103000008091A10081608093A1008091A0008160E7
:103010008093A000809121018260809321018091A2
:103020002101816080932101809120018160809342
:10303000200180917A00846080937A0080917A00E8
:10304000826080937A0080917A00816080937A0018
:1030500080917A00806880937A001092C1008DEC94
:1030600098E00E947D1061E080917B0A0E94D61654
:1030700060E080917B0A0E94A71660E080917A0A46
:103080000E94D61687E897E09093850A8093840A79
:103090001092900B10928F0B10926407109286077B
:1030A0001092620781E08093610710923C0761E013
:1030B00084E10E94A71661E085E10E94A716809135
:1030C000B9008E7F8093B9008091B9008D7F809385
:1030D000B90088E48093B80085E48093BC008DE358
:1030E00094E19093920B8093910B8EE394E19093F3
:1030F000940B8093930B80E090E1A0E0B0E080938C
:10310000870A9093880AA093890AB0938A0A8AE072
:1031100090E0A0E0B0E080938B0A90938C0AA0939B
:103120008D0AB0938E0A80E090E0A0E0B0E4809336
:103130008F0A9093900AA093910AB093920A60E04C
:1031400070E185E00E9491116FE979E380E00E94CF
:1031500091110AE71AE0780162E0D62E7BECA72EE7
:1031600077E0B72ED70114969C91149712968C9104
:10317000F801818F928F61E00E94D61661E0D8013C
:103180005A968C910E94D616F70190858681D801B7
:103190005D968C935D975E969C9361E00E94D61637
:1031A00060E0F801868D0E94D61661E0D8015D9638
:1031B0008C910E94A7160E941C0CC5010197F1F783
:1031C00060E0F801858D0E94A71688E80E94B20889
:1031D00083E00E94B20861E0D8015D968C910E9464
:1031E000A716C5010197F1F7C8014D960E94E40AA0
:1031F000DA94BFEFEB1AFB0A0E5F1F4FD110B2CF6C
:103200000FE91AE060E0F80181918F010E94D61663
:10321000FAE0033A1F07B1F79BE9E92E9AE0F92E8D
:103220002DE9C22E2AE0D22E870135E0B32E4CE0E4
:10323000942E52E0A52ED80150968C9150978C3048
:1032400008F049C018968C9061E0882D0E94D6162F
:10325000F8018089B89EF0011124E45CF54F982DA7
:103260009F732081207C822E892A8082138214827F
:10327000692D0E94001FFCE08F9FA001112420E017
:1032800030E0BA01620F731FB69EF001B79EF00DD9
:103290001124E45CF54F908196FD12C02F5F3F4FE3
:1032A0002C30310571F781110BC010928000A09273
:1032B00081001092850010928400A6BAA0926F003F
:1032C000D8015096EC91BE9EF0011124E45CF54FBC
:1032D000808180648083F80196858485D701529629
:1032E0008C93529753969C9360E00E94D61661E0AF
:1032F000F70183890E94D61660E0D70153968C911E
:103300000E94A7160F5F1F4FB2E0EB0EF11CC01614
:10331000D10609F090CFF8941092200189E08093B3
:10332000210180E293E0909329018093280110927B
:1033300025011092240182E0809373007894809399
:103340006A0910926E0980916B0960E00E94D6169E
:103350008DEC98E00E947D1080E398E00E947D1043
:103360000E941C0C61E08091BF0A0E94D61661E0A9
:103370008091BF0A0E94A7168091C00A8F3F09F46E
:10338000F3C160E00E94D6168091C00A0E947E16AA
:10339000892B09F0E9C161E08091C00A0E94D6162C
:1033A00060E08091C00A0E94A71683E090E0019738
:1033B000F1F761E08091C00A0E94A71662E370E015
:1033C00080E090E00E9431170FC0115069F062E375
:1033D00070E080E090E00E94311762E081EB9AE0BB
:1033E0000E94B90884FDF1CF40E064E281EB9AE0ED
:1033F0000E94D70840E066E281EB9AE00E94D7087D
:1034000046E268E481EB9AE00E94D70840E864E570
:1034100081EB9AE00E94D70849EA66E581EB9AE0E1
:103420000E94D70843E068E581EB9AE00E94D70844
:1034300048EE6AE581EB9AE00E94D70840E46AE230
:1034400081EB9AE00E94D7084DE362E281EB9AE0BB
:103450000E94D70868E281EB9AE00E94B908982F91
:103460009370933039F0482F436068E281EB9AE023
:103470000E94D70864E070E080E090E00E9431177D
:103480006EE681EB9AE00E94B908182F88E992E075
:103490000E94B410612F70E080E090E040E10E9453
:1034A000DF10103979F038F4123191F0183899F4AE
:1034B0008DE892E012C0113941F0123961F485E7CC
:1034C00092E00BC085E892E008C08DE792E005C06D
:1034D00081E692E002C084E592E00E94CF10115094
:1034E0001E3F20F081E192E00E94CF108DEA92E031
:1034F0000E94CF108E010F5E1F4F83E4E82E82E002
:10350000F82E60ED77E080E090E00E9431178CE3C8
:103510000E941217893C9105ACF00E94EE078BE5E2
:1035200092E00E9422116BE572E0CE0101960E94AA
:103530006404CE0101960E94C811CE0101960E943A
:103540002604E5CF8EE692E00E9422116EE672E03C
:10355000CE0101960E946404CE0101960E94C8111A
:10356000CE0101960E9426048091A00A0E947E1638
:10357000892B81F440E050E0BA0183E99AE00E948F
:10358000D40640E050E060E070E885E99AE00E94EF
:10359000D406EACF6BE472E0CE0147960E94640441
:1035A0006BE472E0CE0147960E94B503882309F4CC
:1035B00054C00E94EE07FA82E9828CE0E3EBFAE065
:1035C000DE01139601900D928A95E1F78091BF0A72
:1035D0008F878091C00A888BBE016F5F7F4FC801C3
:1035E0000E94F60F8F89988D009779F069897A8902
:1035F0006115710541F0498D5A8D2D893E8942171B
:10360000530708F0B9C00E94CB2089899A89988F06
:103610008F8B8B899C899A8F898F8D899E899C8FAE
:103620008B8F1A8A198A1C8A1B8A1E8A1D8AC801D6
:103630000E9426048CE792E00E9422116CE772E05F
:10364000CE0101960E946404CE0101960E94C81129
:10365000CE0101960E942604A3CF1A8219821C82F1
:103660001B821E821D826F89788D6115710531F074
:103670004B8D5C8DCE0101960E94FB03CE0101961D
:103680000E94E0116C01CE0101960E94260466E9B9
:1036900072E08DEC98E00E94A4106C2D8DEC98E007
:1036A0000E94DE026D2D70E080E090E04AE00E9412
:1036B000DF1069E472E08DEC98E00E94A41066E9E6
:1036C00072E0CE0101960E946404CE0101960E9430
:1036D000D711CE0101960E9426041A8219821C82FB
:1036E0001B821E821D82C98A1A8AF801019000205D
:1036F000E9F73197AF01401B510BB801CE0101969C
:103700000E94FB03CE0101960E94D711CE010196C3
:103710000E9426044AE06D2DCE0101960E942B04E2
:10372000CE0101960E94C811CE0101960E94260486
:1037300040E050E0BA0183E99AE00E94D40640E0FC
:1037400050E060E070E885E99AE00E94D40660ED00
:1037500077E080E090E00E943117CE0147960E940A
:1037600026040E945003CDCE4FE062E081EB9AE048
:103770000E94D70813E02BCE0E944B228D899E8990
:103780009C8F8B8F52CF83E89BE00E94260489E8B0
:103790009BE00C94260410928A071092890788EE09
:1037A00093E0A0E0B0E080938B0790938C07A09308
:1037B0008D07B0938E0723E132E030938807209382
:1037C000870710929607109295078093970790931A
:1037D0009807A0939907B0939A0725E232E03093B7
:1037E00094072093930745E351E05093A00740933B
:1037F0009F0744E351E05093A2074093A10740E3A1
:1038000051E05093A4074093A30741E351E0509344
:10381000A6074093A50742E351E05093A8074093C1
:10382000A70746E351E05093AA074093A9071092D7
:10383000AC071092AD071092AE071092AF0710922E
:103840003308109232088093340890933508A0937F
:103850003608B0933708309331082093300845ED8F
:1038600050E050933D0840933C0844ED50E05093A5
:103870003F0840933E0840ED50E05093410840938C
:10388000400841ED50E0509343084093420842ED18
:1038900050E0509345084093440846ED50E0509363
:1038A0004708409346081092490810924A0810921F
:1038B0004B0810924C081092D0081092CF088093B9
:1038C000D1089093D208A093D308B093D408309332
:1038D000CE082093CD0885EC90E09093DA08809391
:1038E000D90884EC90E09093DC088093DB0880ECAE
:1038F00090E09093DE088093DD0881EC90E0909357
:10390000E0088093DF0882EC90E09093E2088093D7
:10391000E10886EC90E09093E4088093E30810922D
:10392000E6081092E7081092E8081092E9088091E2
:10393000070290910802A0910902B0910A028093B7
:103940009B0A90939C0AA0939D0AB0939E0A809133
:103950000B0290910C02A0910D02B0910E02809387
:103960009F0A9093A00AA093A10AB093A20A84E0B0
:103970008093A30A87E08093A40A1092A50A84EB9F
:103980008093A60A86E18093A70A88E18093A80A1B
:1039900087E18093A90A89E18093AA0AE091780AD5
:1039A000EC3020F08FEF8093AB0A10C081E08E0FD7
:1039B0008093780AE093AB0A25E0E29FF00111249E
:1039C000E45CF54F88EB9BE092838183E091780A79
:1039D000EC3020F08FEF8093AC0A10C081E08E0FA6
:1039E0008093780AE093AC0A85E0E89FF001112407
:1039F000E45CF54F88EB9BE0928381838CE08093BD
:103A00007A0A84E280937B0A86E080937C0A85E0D0
:103A100080937D0A8FE180937E0A8EE180937F0AF6
:103A200083E28093800A82E28093810A85E4809316
:103A3000820A84E48093830A80E48093860A109249
:103A40008B0A10928C0A10928D0A10928E0A109294
:103A50008F0A1092900A1092910A1092920AE5EC45
:103A6000FAE08FEF9FEFDC0112821382148215823D
:103A7000168217821086118683879487A587B6875A
:103A80008787908BA18BB28B1286118210827396DE
:103A90002BE0E338F20741F78DE090E00E943320FD
:103AA000FC011382128287E392E091838083118666
:103AB00087E2848384E1828784E083871486F0939D
:103AC000C20AE093C10A1092C30A1092C40A85E2A6
:103AD00080936B0910926D096BE472E089E89BE0BA
:103AE0000E94640466EB72E083E89BE00E94640439
:103AF00083E492E09093B20A8093B10A85E38093C5
:103B0000BF0A82E08093C00A08954532510520F42F
:103B1000423010F00C94901DFB011082CB010895EF
:103B2000BB27FB015527AA27880F991FAA1FA41797
:103B300010F0A41B83955051B9F7A05DAA3308F08B
:103B4000A95DA193009779F7B111B1931192CB01BF
:103B50000C94AA1DDC01FC01672F71917723E1F71A
:103B6000329704C07C916D9370836291AE17BF074A
:103B7000C8F308950E94FC1D08F481E00895E894BC
:103B800009C097FB3EF490958095709561957F4FA5
:103B90008F4F9F4F9923A9F0F92F96E9BB27939553
:103BA000F695879577956795B795F111F8CFFAF463
:103BB000BB0F11F460FF1BC06F5F7F4F8F4F9F4F94
:103BC00016C0882311F096E911C0772321F09EE8F2
:103BD000872F762F05C0662371F096E8862F70E058
:103BE00060E02AF09A95660F771F881FDAF7880F32
:103BF0009695879597F90895990F0008550FAA0B88
:103C0000E0E8FEEF16161706E807F907C0F01216EF
:103C10001306E407F50798F0621B730B840B950BF2
:103C200039F40A2661F0232B242B252B21F4089547
:103C30000A2609F4A140A6958FEF811D811D0895E4
:103C40000E94331E0C94A41E0E94961E38F00E94FF
:103C50009D1E20F0952311F00C948D1E0C94931E44
:103C600011240C94D81E0E94B51E70F3959FC1F3C9
:103C7000950F50E0551F629FF001729FBB27F00D1A
:103C8000B11D639FAA27F00DB11DAA1F649F66276F
:103C9000B00DA11D661F829F2227B00DA11D621FBE
:103CA000739FB00DA11D621F839FA00D611D221F78
:103CB000749F3327A00D611D231F849F600D211D5C
:103CC000822F762F6A2F11249F5750409AF0F1F0DF
:103CD00088234AF0EE0FFF1FBB1F661F771F881F48
:103CE00091505040A9F79E3F510580F00C948D1ED5
:103CF0000C94D81E5F3FE4F3983ED4F386957795F5
:103D00006795B795F795E7959F5FC1F7FE2B880FED
:103D1000911D9695879597F9089597F99F6780E883
:103D200070E060E008959FEF80EC089500240A940D
:103D30001616170618060906089500240A94121686
:103D40001306140605060895092E0394000C11F4B9
:103D5000882352F0BB0F40F4BF2B11F460FF04C066
:103D60006F5F7F4F8F4F9F4F089557FD9058440FBF
:103D7000551F59F05F3F71F04795880F97FB991FCA
:103D800061F09F3F79F08795089512161306140687
:103D9000551FF2CF4695F1DF08C016161706180614
:103DA000991FF1CF86957105610508940895E894EF
:103DB000BB2766277727CB0197F90895A1E21A2E32
:103DC000AA1BBB1BFD010DC0AA1FBB1FEE1FFF1FBF
:103DD000A217B307E407F50720F0A21BB30BE40B0F
:103DE000F50B661F771F881F991F1A9469F7609556
:103DF0007095809590959B01AC01BD01CF01089510
:103E0000991B79E004C0991F961708F0961B881F2C
:103E10007A95C9F780950895EE0FFF1F881F8BBF15
:103E20000790F691E02D19945058BB27AA270E94BD
:103E30002C1F0C94A41E0E94961E38F00E949D1EFA
:103E400020F039F49F3F19F426F40C94931E0EF4DD
:103E5000E095E7FB0C948D1EE92F0E94B51E58F3E8
:103E6000BA17620773078407950720F079F4A6F55F
:103E70000C94D71E0EF4E0950B2EBA2FA02D0B013B
:103E8000B90190010C01CA01A0011124FF27591B9F
:103E900099F0593F50F4503E68F11A16F040A22FA5
:103EA000232F342F4427585FF3CF46953795279516
:103EB000A795F0405395C9F77EF41F16BA0B620B15
:103EC000730B840BBAF09150A1F0FF0FBB1F661F5C
:103ED000771F881FC2F70EC0BA0F621F731F841F9F
:103EE00048F4879577956795B795F7959E3F08F0C5
:103EF000B0CF9395880F08F09927EE0F9795879587
:103F000008950E94951F0C94A41E0E949D1E58F0B7
:103F10000E94961E40F029F45F3F29F00C948D1EFC
:103F200051110C94D81E0C94931E0E94B51E68F378
:103F30009923B1F3552391F3951B550BBB27AA2762
:103F400062177307840738F09F5F5F4F220F331F9C
:103F5000441FAA1FA9F335D00E2E3AF0E0E832D064
:103F600091505040E695001CCAF72BD0FE2F29D067
:103F7000660F771F881FBB1F261737074807AB0739
:103F8000B0E809F0BB0B802DBF01FF2793585F4FAE
:103F90003AF09E3F510578F00C948D1E0C94D81E7B
:103FA0005F3FE4F3983ED4F3869577956795B79590
:103FB000F7959F5FC9F7880F911D9695879597F99B
:103FC0000895E1E0660F771F881FBB1F6217730714
:103FD0008407BA0720F0621B730B840BBA0BEE1F29
:103FE00088F7E09508950E94FA1F6894B1110C9427
:103FF000D81E08950E94BD1E88F09F5798F0B92FD3
:104000009927B751B0F0E1F0660F771F881F991F0D
:104010001AF0BA95C9F714C0B13091F00E94D71EBA
:10402000B1E008950C94D71E672F782F8827B85FCA
:1040300039F0B93FCCF3869577956795B395D9F765
:104040003EF490958095709561957F4F8F4F9F4F6F
:1040500008950E94FC1D08F48FEF08950E94FC1D36
:10406000880B990B08950F931F93CF93DF938230A2
:10407000910510F482E090E0E091050CF091060CBF
:1040800020E030E0A0E0B0E0309719F140815181AC
:104090000281138148175907C8F08417950769F4FE
:1040A000109731F012960C93129713961C9327C019
:1040B0000093050C1093060C22C02115310519F050
:1040C0004217530718F49A01BD01EF01DF01F8010F
:1040D000DBCF21153105F9F0281B390B24303105D0
:1040E00080F48A819B816115710521F0FB01938326
:1040F000828304C09093060C8093050CFE013296D7
:1041000044C0FE01E20FF31F8193919322503109C5
:10411000398328833AC02091030C3091040C232B5F
:1041200041F420910302309104023093040C209357
:10413000030C20910102309102022115310541F456
:104140002DB73EB74091050250910602241B350B56
:10415000E091030CF091040CE217F307A0F42E1B7E
:104160003F0B2817390778F0AC014E5F5F4F2417DB
:10417000350748F04E0F5F1F5093040C4093030C1B
:104180008193919302C0E0E0F0E0CF01DF91CF9105
:104190001F910F910895CF93DF93009709F481C089
:1041A000FC01329713821282A091050CB091060C8B
:1041B000109781F420813181820F931F2091030C8D
:1041C0003091040C2817390751F5F093040CE09353
:1041D000030C67C0ED0120E030E0CE17DF0740F4AC
:1041E0004A815B819E0141155105F1F0EA01F5CF4D
:1041F000D383C28340815181840F951FC817D9078B
:1042000059F488819981840F951F02969183808348
:104210008A819B81938382832115310529F4F09350
:10422000060CE093050C3DC0E901FB83EA8349914C
:104230005991C40FD51FEC17FD0761F4808191815E
:10424000840F951F0296E901998388838281938167
:104250009B838A83E0E0F0E012968D919C91139706
:10426000009719F0FD01DC01F7CF8D919C9111971A
:104270009D012E5F3F4F820F931F2091030C3091C1
:10428000040C2817390769F4309729F41092060CAA
:104290001092050C02C013821282B093040CA093FA
:1042A000030CDF91CF9108956F927F928F929F922E
:1042B000AF92BF92CF92DF92EF92FF920F931F9334
:1042C000CF93DF93009789F4CB01DF91CF911F91BA
:1042D0000F91FF90EF90DF90CF90BF90AF909F90A5
:1042E0008F907F906F900C943320FC01E60FF71FA6
:1042F0009C0122503109E217F30708F4A9C0EC0130
:10430000D9010D911C91119706171707B0F00530D0
:10431000110508F49BC0C80104978617970708F495
:1043200095C002501109061B170B019311936D9351
:104330007C93CF010E94CB2089C05B01A01AB10AF7
:104340004C01800E911EA091050CB091060C612CC1
:10435000712CE12CF12C109709F446C08D919C91A1
:104360001197A815B905B1F56C0142E0C40ED11C36
:10437000CA14DB0478F14C018A189B08640142E0FE
:10438000C40ED11C1296BC9012971396AC91B5E056
:10439000CB16D10440F0B282A38391828082D901EE
:1043A0006D937C9309C00E5F1F4F800F911FF90121
:1043B00091838083EB2DFA2FE114F10431F0D701C2
:1043C0001396FC93EE93129741C0F093060CE09382
:1043D000050C3CC06816790608F43C017D01129674
:1043E0000D90BC91A02DB7CF8091030C9091040C3F
:1043F00088169906E1F466167706C8F480910102E2
:1044000090910202009741F48DB79EB7409105024A
:1044100050910602841B950BE817F907C8F4F09336
:10442000040CE093030CF901718360830FC0CB018E
:104430000E9433207C01009759F0A801BE010E9420
:104440003922CE010E94CB20C70104C0CE0102C098
:1044500080E090E0DF91CF911F910F91FF90EF905E
:10446000DF90CF90BF90AF909F908F907F906F9094
:104470000895FB01DC0102C001900D9241505040B3
:10448000D8F70895FB01DC018D910190801901108E
:10449000D9F3990B0895FB01DC0101900D920020E6
:1044A000E1F7089512E0C2E0D2E000E006C0802FFC
:1044B000FE010E940C1F2196011DC330D10780E030
:0844C0000807A9F7F894FFCFEB
:1044C800FF0000070C2000363738391B1D1A1C0066
:1044D80000000098146B148D033F1463144F1440AC
:1044E8001400000000DE02370261022B0392027002
:1044F80002840200000000900337028D0336020098
:104508000000005909F4087D030D0A006E616E0071
:10451800696E66006F7666002030005265636865D4
:1045280072636865206465206D696E6573004D6906
:104538006E6520646574656374656500456E206109
:104548007474656E7465206465206C6120706F7387
:104558006974696F6E004C61206D696E65207365C2
:104568002074726F7576652064616E73206C6120AB
:104578006361736520004C6520626C7565746F6FAC
:1045880074682065737420666F6E6374696F6E6EED
:10459800656C204C696F6E656C0A002030342033DE
:1045A8006120366520333220633320353820383097
:1045B8000041310020303420323520366520333236
:1045C800206333203538203830002030342032370B
:1045D80020366520333220633320353820383000C8
:1045E80020303420323420366520333220633320A3
:1045F80035382038300020303420323620366520D7
:1046080033322063332035382038300020303420CE
:104618006331203666203332206333203538203822
:104628003000203034206266203666203332206322
:10463800332035382038300020303420633220369B
:10464800662033322063332035382038300020305C
:1046580034206330203666203332206333203538E7
:10466800203830002030342064362036662033323B
:10467800206333203538203830002030342031632F
:104688002036662033322063332035382038300016
:1046980020303420323020366620333220633320F5
:1046A80035382038300020303420316420366620F8
:1046B800333220633320353820383000203034201E
:1046C800333420366620333220633320353820389F
:1046D80030002030342033312036662033322063D6
:1046E80033203538203830002030342035612036EA
:1046F80066203332206333203538203830002030AC
:104708003420356420366620333220633320353830
:10471800203830002030342035622036662033328D
:1047280020633320353820383000203034203730AB
:104738002036662033322063332035382038300065
:10474800203034203665203666203332206333200B
:104758003538203830002030342033352036662074
:10476800333220633320353820383000203034206D
:1047780033322036662033322063332035382038F0
:10478800300020303420343820366620333220631D
:104798003320353820383000203034203436203665
:1047A80066203332206333203538203830002030FB
:1047B80034203439203666203332206333203538AC
:1047C8002038300020303420313020366520333214
:1047D80020633320353820383000203034203132FF
:1047E80020366520333220633320353820383000B6
:1047F8002030342030662036652033322063332061
:1048080035382038300020303420313120366520CA
:1048180033322063332035382038300020303420BC
:10482800316520366620333220633320353820380E
:10483800300020303420333820366520333220636E
:104848003320353820383000203034203362203689
:10485800652033322063332035382038300020304B
:1048680034203339203665203332206333203538FD
:10487800203830002030342034652036652033322B
:10488800206333203538203830002030342034631A
:104898002036652033322063332035382038300005
:1048A80020303420363520366520333220633320DB
:1048B8003538203830002030342036322036652014
:1048C800333220633320353820383000203034200C
:1048D800363420366520333220633320353820388B
:1048E8003000203034203464203665203332206391
:1048F80033203538203830002030342034662036D4
:10490800652033322063332035382038300020309A
:10491800342037372036652033322063332035384A
:1049280020383000203034203739203665203332A3
:104938002063332035382038300020303420373693
:104948002036652033322063332035382038300054
:104958002030342037382036652033322063332026
:104968003538203830002030342036332036652062
:10497800333220633320353820383000203034205B
:104988006666203666203332206333203538203877
:104998003000203034203134203666203332206312
:1049A8003320353820383100203034203132203659
:1049B80066203332206333203538203831002030E8
:1049C80034203135203666203332206333203538A1
:0449D8002038310052
:00000001FF
