:100000000C9495010C94C6010C94C6010C94C60185
:100010000C94C6010C94C6010C94C6010C94C60144
:100020000C94C6010C94D30A0C94D30A0C94D30AF2
:100030000C94C6010C9481020C94C6010C94C60168
:100040000C94C6010C942E090C94C6010C94C601A4
:100050000C94C6010C94C6010C94C6010C94370292
:100060000C94C6010C94F0030C94C6030C94C601C6
:100070000C94C6010C94C6010C94C6010C94C601E4
:100080000C94C6010C94C6010C94C6010C94C601D4
:100090000C94C6010C94C6010C94C6010C94DD0AA4
:1000A0000C94C6010C94C6010C94C6010C94C601B4
:1000B0000C94C6010C94C6010C94C6010C94410525
:1000C0000C94C6010C94C6010C94C6010C949C03BC
:1000D0000C9472030C94C6010C9448030C941E03F8
:1000E0000C94C601810686068B0695069F061807A6
:1000F000A906B106B906C306CD06D706E606F00680
:100100001807FA0604070E072A0C2D0C1C0C200CED
:10011000260C640C310C350C3B0C3F0C430C490C89
:100120004D0C510C640C570C5B0C5F0C0C94490C7F
:100130000C9413120C9488040C942E0A0C94FA0656
:100140000C94430C0C94F0060C943D040C94E606BD
:100150000C9407120C941F050C940E070C94860641
:100160000C945B0C0C94640C0C94B1060C94C801B8
:100170000C94090A0C94510C0C94360A0C94310C12
:100180000C9487040C949F060C944D0C0C945F0CFB
:100190000C94260C0C941A040C9481060C94B90649
:1001A0000C9418070C941A0A0C9495060C940407E6
:1001B0000C942D0C0C943B0C0C942A0C0C94D20433
:1001C0000C94570C0C94080A0C94630A0C940B0AB8
:1001D0000C94350C0C944B040C948B060C940A0A6A
:1001E0000C941C0C0C94A9060C94CD060C942904B8
:1001F0000C94200C0C943F0C0C94C3060C94D70662
:100200000C948B0402000020002300260029002CFF
:10021000002F003200000100000301060109010067
:10022000002100240027002A002D003000330001A7
:10023000010000040107010A010000220025002836
:10024000002B002E003100340002010000050108DF
:10025000010B01050505050705080808080202024B
:10026000020A0A0808040404040101010101010151
:10027000010303030303030303040707070C0C0C28
:100280000C0C0C0C0C020202020606060606060600
:10029000060B0B0B0B0B0B0B0B010210202008089D
:1002A00010204010204080020102010804020101D8
:1002B00002040810204080804020100804020180C1
:1002C0000402018040201008040201080402010118
:1002D0000204081020408001020408102040800021
:1002E000000A0B02090C0D0E0807030401000000B0
:1002F00000000000000000000000000000000000FE
:1003000000000000000000000000001211100000BA
:1003100000000000000000000000000000000000DD
:100320000000000000001312071211241FBECFEFBF
:10033000D1E2DEBFCDBF00E00CBF12E0A0E0B2E032
:10034000EAE8F1E300E00BBF02C007900D92A4378A
:10035000B107D9F727E0A4E7B2E001C01D92A735A5
:10036000B207E1F711E0C4E9D1E000E006C021974F
:100370000109802FFE010E947115C339D10780E069
:100380000807A9F70E940C0F0C94B3180C940000F6
:10039000CF92DF92EF92FF920F931F93CF93DF9351
:1003A0006C017A018B01C0E0D0E0CE15DF0581F051
:1003B000D8016D918D01D601ED91FC910190F081F4
:1003C000E02DC6011995892B11F02196EECF7E0103
:1003D000C701DF91CF911F910F91FF90EF90DF90B8
:1003E000CF9008950E949E1887E693E00E944B04E8
:1003F00021E0892B09F420E0822F089584E094E025
:100400000E944B0421E0892B09F420E0822F0895FB
:1004100081EA94E00E944B0421E0892B09F420E05A
:10042000822F08953FB7F89480917F0290918002C7
:10043000A0918102B091820226B5A89B05C02F3FF2
:1004400019F00196A11DB11D3FBFBA2FA92F982FFA
:100450008827820F911DA11DB11DBC01CD0142E075
:10046000660F771F881F991F4A95D1F708951F922D
:100470000F920FB60F9211242F933F938F939F9358
:10048000AF93BF9380917B0290917C02A0917D02FB
:10049000B0917E0230917A0223E0230F2D3720F4B1
:1004A0000196A11DB11D05C026E8230F0296A11DCE
:1004B000B11D20937A0280937B0290937C02A093DB
:1004C0007D02B0937E0280917F0290918002A09184
:1004D0008102B09182020196A11DB11D80937F021D
:1004E00090938002A0938102B0938202BF91AF915A
:1004F0009F918F913F912F910F900FBE0F901F9062
:1005000018951F920F920FB60F9211240BB60F92EF
:100510002F933F934F935F936F937F938F939F930B
:10052000AF93BF93EF93FF93809175029091760202
:10053000A0917702B0917802892B8A2B8B2B49F1FD
:10054000909174028091000089278093000080912F
:10055000750290917602A0917702B09178021816F8
:1005600019061A061B060CF056C080917502909170
:100570007602A0917702B09178020197A109B109A2
:100580008093750290937602A0937702B0937802DD
:1005900042C080910002E4E0F2E0E4919FEF90938A
:1005A0000002E230C9F050F4EE2399F0E13081F519
:1005B00090916F009D7F90936F002AC0E43019F1F5
:1005C000E0F0E53029F5909173009D7F90937300E2
:1005D0001FC010926E001CC0909170009D7F909380
:1005E000700091E09093B0009091B100987F94607A
:1005F0009093B1001092B3000BC0909171009D7F59
:100600009093710005C0909172009D7F909372004D
:1006100060E00E94650CFF91EF91BF91AF919F91B7
:100620008F917F916F915F914F913F912F910F909B
:100630000BBE0F900FBE0F901F9018951F920F9238
:100640000FB60F9211240BB60F922F933F934F9337
:100650005F936F937F938F939F93AF93BF93EF932A
:10066000FF9387E693E00E94B004FF91EF91BF9162
:10067000AF919F918F917F916F915F914F913F913A
:100680002F910F900BBE0F900FBE0F901F901895DB
:100690001F920F920FB60F9211240BB60F922F9349
:1006A0003F934F935F936F937F938F939F93AF93FA
:1006B000BF93EF93FF9387E693E00E94BA0AFF91FE
:1006C000EF91BF91AF919F918F917F916F915F91CA
:1006D0004F913F912F910F900BBE0F900FBE0F9037
:1006E0001F9018951F920F920FB60F9211240BB600
:1006F0000F922F933F934F935F936F937F938F93BB
:100700009F93AF93BF93EF93FF9384E094E00E9495
:10071000B004FF91EF91BF91AF919F918F917F9125
:100720006F915F914F913F912F910F900BBE0F9062
:100730000FBE0F901F9018951F920F920FB60F9239
:1007400011240BB60F922F933F934F935F936F93A8
:100750007F938F939F93AF93BF93EF93FF9384E027
:1007600094E00E94BA0AFF91EF91BF91AF919F91DF
:100770008F917F916F915F914F913F912F910F904A
:100780000BBE0F900FBE0F901F9018951F920F92E7
:100790000FB60F9211240BB60F922F933F934F93E6
:1007A0005F936F937F938F939F93AF93BF93EF93D9
:1007B000FF9381EA94E00E94B004FF91EF91BF9112
:1007C000AF919F918F917F916F915F914F913F91E9
:1007D0002F910F900BBE0F900FBE0F901F9018958A
:1007E0001F920F920FB60F9211240BB60F922F93F8
:1007F0003F934F935F936F937F938F939F93AF93A9
:10080000BF93EF93FF9381EA94E00E94BA0AFF91AD
:10081000EF91BF91AF919F918F917F916F915F9178
:100820004F913F912F910F900BBE0F900FBE0F90E5
:100830001F901895FC01538D448D252F30E0842F97
:1008400090E0821B930B541710F0CF9608950197F8
:100850000895FC01918D828D981761F0828DDF01E2
:10086000A80FB11D5D968C91928D9F5F9F73928FA3
:1008700090E008958FEF9FEF0895FC01918D828D98
:10088000981731F0828DE80FF11D858D90E0089565
:100890008FEF9FEF0895FC01918D228D892F90E0BD
:1008A000805C9F4F821B91098F7399270895E0E028
:1008B000F0E0199480E090E0892B21F00E9408027A
:1008C000811119C080E090E0892B41F080E090E038
:1008D000892B21F00E940000811110C00E94FE01AE
:1008E00081110FC080E090E0892B81F00E94F4011B
:1008F00081110AC008950E940000E4CF0E94000008
:10090000EDCF0E945704EECF0C9400000895089597
:1009100080E090E008950F931F93CF93DF938C01B5
:10092000C62FD62FD07FD1606D2F0E94920A6D2FD7
:10093000C8010E94A50A80E1C89FB0011124C62FFA
:10094000C1606C2FC8010E94920A6C2FC8010E94DE
:10095000A50A81E090E0DF91CF911F910F9108955A
:10096000FC01848DDF01A80FB11DA35ABF4F2C914C
:10097000848D90E001968F739927848FA689B7891B
:100980002C93A089B1898C91837080648C93938D12
:10099000848D981306C00288F389E02D80818F7DB5
:1009A00080830895EF92FF920F931F93CF93DF936D
:1009B000EC0181E0888F9B8D8C8D981305C0E889B0
:1009C000F989808185FD26C0F62E0B8D10E00F5F22
:1009D0001F4F0F731127E02E8C8DE8120CC00FB63D
:1009E00007FCFACFE889F989808185FFF5CFCE0130
:1009F0000E94B004F1CF8B8DFE01E80FF11DE35A88
:100A0000FF4FF0829FB7F8940B8FEA89FB898081B2
:100A100080620AC09FB7F894EE89FF896083E889F5
:100A2000F98980818370806480839FBF81E090E03A
:100A3000DF91CF911F910F91FF90EF900895CF9389
:100A4000DF93EC01888D8823C9F0EA89FB898081D6
:100A500085FD05C0A889B9898C9186FD0FC00FB6A8
:100A600007FCF5CF808185FFF2CFA889B9898C91E9
:100A700085FFEDCFCE010E94B004E7CFDF91CF918B
:100A800008951F920F920FB60F9211240BB60F927A
:100A90002F933F934F935F936F937F938F939F9386
:100AA000AF93BF93CF93DF93EF93FF9320913F05D5
:100AB00030E0F901E152FD4F8491F901E756FD4F15
:100AC000D491F901ED5AFD4FC491CC2379F08111F5
:100AD0000E940F0CEC2FF0E0EE0FFF1FEB5FFD4FBD
:100AE000A591B491EC91ED2381E009F480E020918F
:100AF0004305309144052F5F3F4F309344052093C9
:100B0000430590914205953618F096E090933E0586
:100B100090913E059430C9F128F4923069F09330F9
:100B2000D1F05EC0953009F451C0963009F058C03C
:100B300091E090930F0651C0811152C0209143055E
:100B4000309144052436310508F442C010920F0656
:100B5000109242051CC0813009F042C0E09142056C
:100B600091E09E0F90934205F0E020914305309173
:100B70004405EE0FFF1FE25CFA4F30872783109287
:100B800044051092430594E029C0811117C0E091FB
:100B9000420591E09E0F90934205F0E020914305BD
:100BA00030914405EE0FFF1FE25CFA4F3087278338
:100BB000109244051092430593E010C02091430524
:100BC000309144052536310558F007C0811108C021
:100BD000109244051092430503C095E090933E05A2
:100BE000909141059923B9F081110AC08091400587
:100BF000882321F08091400561E009C02F9A0BC045
:100C000080914005882331F08091400560E00E948A
:100C1000650C01C02F98FF91EF91DF91CF91BF91AB
:100C2000AF919F918F917F916F915F914F913F9184
:100C30002F910F900BBE0F900FBE0F901F90189525
:100C40008F929F92AF92BF92CF92DF92EF92FF92DC
:100C50000F931F93CF93DF938C016A017B0120E0F8
:100C600030E04FE753E4C701B6010E9485144B0101
:100C70005C0120E030E0A9010E948E1618161CF4D9
:100C8000C501B40103C0C501B40190580E945816B3
:100C9000EB0120E030E0A901C701B6010E948E16E9
:100CA000181614F460E001C061E0F80181810E942F
:100CB000650CCF3FD10509F014F4DD2702C0CFEF5A
:100CC000D0E0F801108161E0812F0E94940C209700
:100CD00009F4B1C0CF3FD10509F4AFC0E12FF0E076
:100CE000E152FD4FE4918E2F90E0FC013197E2310B
:100CF000F10508F09DC08827EE58FF4F8F4F0C94E8
:100D0000711584B5806884BDC7BDA7C084B58062F5
:100D100084BDC8BDA2C0809180008068809380009F
:100D2000D0938900C093880098C080918000806231
:100D300080938000D0938B00C0938A008EC08091F6
:100D40008000886080938000D0938D00C0938C00D9
:100D500084C08091B00080688093B000C093B300DD
:100D60007CC08091B00080628093B000C093B400DA
:100D700074C080919000806880939000D093990017
:100D8000C09398006AC08091900080628093900028
:100D9000D0939B00C0939A0060C0809190008860BF
:100DA00080939000D0939D00C0939C0056C080918A
:100DB000A00080688093A0008091A0008F7B80932A
:100DC000A000D093A900C093A80047C08091A000C4
:100DD00080628093A000D093AB00C093AA003DC076
:100DE0008091A00088608093A000D093AD00C09354
:100DF000AC0033C080912001806880932001D093A3
:100E00002901C093280129C080912001806280932C
:100E10002001D0932B01C0932A011FC08091200193
:100E2000886080932001D0932D01C0932C0115C0C0
:100E3000C038D10514F460E001C061E0812FDF917A
:100E4000CF911F910F91FF90EF90DF90CF90BF90C7
:100E5000AF909F908F900C94650CDF91CF911F9174
:100E60000F91FF90EF90DF90CF90BF90AF909F9049
:100E70008F9008958EBD00000DB407FEFDCF8EB596
:100E80000895CF93DF93EC0160E088810E94650CA8
:100E900088E90E943A0780E00E943A0780E00E94B9
:100EA0003A0780E00E943A0780E00E943A0761E03A
:100EB00088810E94650C8BE891E00197F1F760E072
:100EC00088810E94650C80EE0E943A0761E088816B
:100ED000DF91CF910C94650CAF92BF92CF92DF92CD
:100EE000EF92FF920F931F93CF93DF93CDB7DEB7AF
:100EF00060970FB6F894DEBF0FBECDBF5C0160E017
:100F0000FC0180810E94650C80E60E943A078E01F8
:100F10000F5F1F4F7E01F1E1EF0EF11C680180E0D1
:100F20000E943A0790E0A0E0B0E0F601819391932F
:100F3000A193B1936F01EE15FF0589F761E0F5010B
:100F400080810E94650C80E090E0DC01F801419115
:100F50005191619171918F01BA2FA92F982F8827F4
:100F6000840F951FA61FB71FEE15FF0579F79C018B
:100F7000AD0166277727CB01621B730B840B950BA2
:100F800060960FB6F894DEBF0FBECDBFDF91CF9154
:100F90001F910F91FF90EF90DF90CF90BF90AF9097
:100FA00008954F925F926F927F928F929F92AF922D
:100FB000BF92CF92DF92EF92FF92CF93DF93CDB7A4
:100FC000DEB729970FB6F894DEBF0FBECDBF6B0119
:100FD0007C015A018BE696E00E9441078DE696E07F
:100FE0000E944107AB2899F42DEC3CEC4CE45EE305
:100FF00029833A834B835C839DEC892E9CEC992E4C
:101000009CE4A92E9EEBB92E31E0398711C08DECFE
:101010009CECACE4BEEB89839A83AB83BC838DEC00
:10102000882E8CEC982E8CE4A82E8EE3B82E198690
:1010300020E030E044EB53E4C701B6010E94E6151E
:101040002BE03BE24DE552E40E94851427E63CEAA2
:1010500045E053E40E9485140E9458166D837E83F8
:101060008F839887A7019601C701B6010E94931646
:10107000882319F082E492E01AC026013701E8942F
:1010800077F82FEF3FEF4FE75FE7C301B2010E9410
:10109000931681110FC02FEF3FEF4FE75FE7C301BA
:1010A000B2010E941F1418162CF486E492E00E94EC
:1010B0000E0E76C02FEF3FEF4FE75FE4C701B6019A
:1010C0000E948E1618161CF48AE492E0F0CF2FEFDF
:1010D0003FEF4FE75FECC701B6010E941F1487FD89
:1010E000F3CF20E030E0A901C701B6010E941F1430
:1010F00087FF09C06DE281EA94E00E94D204F7FA0A
:10110000F094F7F8F0942AE037ED43EA5BE3C70187
:10111000B6010E947A152B013C010E945F166B01FB
:101120007C010E9424149B01AC01C301B2010E9406
:1011300079152B013C014AE0C701B6010E94CB0E94
:101140006EE281EA94E00E94D20420E030E040E2C6
:1011500051E4C301B2010E9485142B013C010E949D
:101160005F166B01E12CF12C4AE0C701B6010E9429
:10117000CB0EC701B6010E9424149B01AC01C30130
:10118000B2010E94791520E030E040E251E40E9473
:1011900085140E945F1680E090E04AE00E94CB0E2A
:1011A0008FE392E00E940E0EC980DA80EB80FC8013
:1011B000F7FAF094F7F8F094998591110CC08BE64A
:1011C00096E00E946C0790958095709561957F4F91
:1011D0008F4F9F4F04C08DE696E00E946C072D81D3
:1011E0003E814F81588562177307840795076CF419
:1011F000B501A40187E696E00E942006B701A6018A
:1012000089E696E00E942006D7CF40E050E0BA0180
:1012100087E696E00E94200640E050E060E070E83B
:1012200089E696E00E9420066CE271E080E090E0A2
:1012300029960FB6F894DEBF0FBECDBFDF91CF91D8
:10124000FF90EF90DF90CF90BF90AF909F908F90E6
:101250007F906F905F904F900C94D00C1F920F92E4
:101260000FB60F9211240BB60F922F933F934F930B
:101270005F936F937F938F939F93AF93BF93EF93FE
:10128000FF9380919C0287FF05C010928500109209
:10129000840016C020919C02022E000C330B80911A
:1012A0004C0690E0281739075CF430919C0225E049
:1012B0003203F0011124E05FF94F808186FD15C0F3
:1012C00080919C028F5F80939C0220919C02022E51
:1012D000000C330B80914C0690E02817390794F4EA
:1012E00080919C028C302CF10DC030919C02320315
:1012F000F0011124E05FF94F808160E08F730E945C
:10130000650CDECF809184009091850084349C49E7
:1013100018F480E49CE905C08091840090918500D8
:10132000049690938900809388008FEF80939C02AD
:101330002AC0409184005091850030919C0225E0A4
:101340003203F0011124E05FF94F81819281840F13
:10135000951F909389008093880030919C023203FE
:10136000F0011124E05FF94F808186FF0CC03091BD
:101370009C023203F0011124E05FF94F808161E0AB
:101380008F730E94650CFF91EF91BF91AF919F9178
:101390008F917F916F915F914F913F912F910F901E
:1013A0000BBE0F900FBE0F901F90189585ED809388
:1013B000BC008091BC0084FDFCCF109236030895E0
:1013C0004091E302262F30E0240F311D21323105F8
:1013D000DCF4209136032430C9F4FC0180E090E075
:1013E000861758F43091E3022191DC01AD53BD4FD3
:1013F000A30FB11D2C930196F3CF8091E302680FE8
:101400006093E30280E0089581E0089582E008950A
:10141000089508950895E0919E0280919D02E81735
:1014200030F4F0E0ED55FD4F808190E008958FEFAE
:101430009FEF089590919E0280919D02981750F41D
:10144000E92FF0E0ED55FD4F208130E09F5F909354
:101450009E0202C02FEF3FEFC901089580919D02C7
:1014600090E020919E02821B91090895CF92DF9215
:10147000EF92FF920F931F93CF93DF937C01CB01E9
:101480008A0120913703222389F0EB016B01C40EFE
:10149000D51ECC15DD0569F06991D701ED91FC9160
:1014A0000190F081E02DC7011995F3CF642F0E94C0
:1014B000E009C801DF91CF911F910F91FF90EF904C
:1014C000DF90CF900895CF93DF931F92CDB7DEB713
:1014D0006983209137032223D1F020915A032032CF
:1014E00040F021E030E0FC013383228380E090E093
:1014F00015C080913803E82FF0E0E75CFC4F99813C
:1015000090838F5F8093380380935A0305C061E016
:10151000CE0101960E94E00981E090E00F90DF91FA
:10152000CF910895FC01248131E03093370320935B
:1015300059031092380310925A038485682B8BE567
:1015400093E00E94630A0C94200E0F931F93CF9395
:101550008C01C62F64600E94920A6C2F6B7FC801B9
:101560000E94920A83EC90E00197F1F7CF911F91CE
:101570000F910895FC01A089B1898C91A689B78942
:1015800082FD0FC09C91818D8F5F8F73228D82179A
:1015900049F0218DDF01A20FB11D5D969C93818FD3
:1015A00008958C9108951F920F920FB60F921124F7
:1015B0000F900FBE0F901F9018951F920F920FB6AD
:1015C0000F9211240BB60F922F933F934F935F937B
:1015D0006F937F938F939F93AF93BF93EF93FF93FB
:1015E0008091B900887F803609F49CC068F5883204
:1015F00009F45BC090F4803109F454C038F48823B6
:1016000009F4F6C0883009F44DC0F6C0883109F4F9
:101610004CC0803209F45DC0EFC0803409F468C06A
:1016200048F4803309F455C0883309F0E5C080934D
:101630003403D8C0803509F44FC0883509F45DC043
:10164000883409F0D9C0D6C0883909F4C7C0A8F4D5
:10165000883709F467C038F4883609F463C08037E6
:1016600009F460C0C9C0883809F4B8C0803909F4E9
:101670005FC0803809F0C0C05BC0803B09F486C001
:1016800038F4803A09F466C0883A09F47FC0B4C0DF
:10169000803C09F4A7C0883C09F4A4C0883B09F445
:1016A0008AC0AAC08091110310C090913303809129
:1016B0003203981770F5E091330381E08E0F809329
:1016C0003303F0E0EE5EFC4F80818093BB0085EC3D
:1016D00086C0809334038EC0E091330381E08E0F87
:1016E000809333038091BB00F0E0EE5EFC4F80837B
:1016F00090913303809132036EC0E091330381E017
:101700008E0F809333038091BB00F0E0EE5EFC4FC0
:1017100080838091350381116DC081E08093100337
:1017200084EA61C083E08093360310920503CFCF33
:1017300080910503803208F051C0E091050381E0FB
:101740008E0F809305038091BB00F0E0EB51FD4FBD
:101750008083BDCF85EC8093BC00109236038091CE
:101760000503803230F4E0910503F0E0EB51FD4FCA
:1017700010826091050370E0E091A102F091A20255
:1017800085EE92E019951092050336C084E08093AF
:1017900036031092E4021092E302E0919F02F0916E
:1017A000A00219958091E302811105C081E0809328
:1017B000E3021092C302E091E40281E08E0F809375
:1017C000E402F0E0ED53FD4F80818093BB009091E7
:1017D000E4028091E302981708F479CF85E88093BA
:1017E000BC000AC085EC8093BC001092360304C094
:1017F000109234030E94D609FF91EF91BF91AF91EF
:101800009F918F917F916F915F914F913F912F9118
:101810000F900BBE0F900FBE0F901F90189590E089
:10182000FC013197E231F10508F04EC08827EC57F2
:10183000FF4F8F4F0C947115809180008F7703C0FC
:10184000809180008F7D809380000895809180003A
:10185000877FF9CF84B58F7702C084B58F7D84BD33
:1018600008958091B0008F7703C08091B0008F7D84
:101870008093B0000895809190008F7707C0809189
:1018800090008F7D03C080919000877F80939000AF
:1018900008958091A0008F7707C08091A0008F7D70
:1018A00003C08091A000877F8093A000089580915D
:1018B00020018F7707C0809120018F7D03C0809128
:1018C0002001877F8093200108951F93CF93DF939A
:1018D000282F30E0F901E152FD4F8491F901E756DC
:1018E000FD4FD491F901ED5AFD4FC491CC23C1F0C5
:1018F000162F81110E940F0CEC2FF0E0EE0FFF1F4E
:10190000E75CFD4FA591B4919FB7F894111104C005
:101910008C91D095D82302C0EC91DE2BDC939FBF35
:10192000DF91CF911F910895CF93DF9390E0FC0159
:10193000E756FD4F2491FC01ED5AFD4F8491882319
:1019400061F190E0880F991FFC01E15EFD4FC591A8
:10195000D491FC01E75CFD4FA591B491611109C0E0
:101960009FB7F8948881209582238883EC912E2359
:101970000BC0623061F49FB7F8948881322F3095A4
:1019800083238883EC912E2B2C939FBF06C08FB7A7
:10199000F894E8812E2B28838FBFDF91CF91089593
:1019A0008F929F92AF92BF92CF92DF92EF92FF926F
:1019B0006B017C010E9412024B015C01C114D10435
:1019C000E104F104F1F00E941202DC01CB0188195C
:1019D0009909AA09BB09883E9340A105B10570F396
:1019E00021E0C21AD108E108F10888EE880E83E0F0
:1019F000981EA11CB11CC114D104E104F10419F713
:101A0000DDCFFF90EF90DF90CF90BF90AF909F9091
:101A10008F9008954F925F926F927F928F929F92D4
:101A2000AF92BF92CF92DF92EF92FF92CF93DF936C
:101A3000CDB7DEB728970FB6F894DEBF0FBECDBF87
:101A40008BE696E00E9441078DE696E00E944107F2
:101A50008AE9482E89E9582E89E1682E8EE3782E8E
:101A60008DE696E00E946C0768387140810591050B
:101A70000CF083C0B301A20187E696E00E94200625
:101A80004AE959E969E17EEB89E696E00E94200681
:101A900080910C0390910D03A0910E03B0910F0360
:101AA00089839A83AB83BC83809108039091090357
:101AB000A0910A03B0910B038D839E83AF83B887F7
:101AC0008BE696E00E946C07882499245401861ABC
:101AD000970AA80AB90A8092080390920903A09273
:101AE0000A03B0920B038DE696E00E946C076B012F
:101AF0007C0160930C0370930D0380930E0390930D
:101B00000F034AE060E070E0CB010E94CB0E8FE350
:101B100092E00E940E0E89819A81AB81BC81C81A25
:101B2000D90AEA0AFB0A8D819E81AF81B885881A9D
:101B3000990AAA0ABB0AC701B601681979098A0974
:101B40009B090E9426142FE632E143E85AE30E94E3
:101B5000851420E030E0A9010E947A159B01AC01B8
:101B6000C301B2010E947A152B013C016AE070E0CA
:101B700080E090E00E94D00C73CF40E050E0BA01CA
:101B800087E696E00E94200640E050E060E070E8C2
:101B900089E696E00E94200664E670E080E090E02E
:101BA00028960FB6F894DEBF0FBECDBFDF91CF9160
:101BB000FF90EF90DF90CF90BF90AF909F908F906D
:101BC0007F906F905F904F900C94D00CE1EAF4E01E
:101BD000A089B18982E08C93A485B5851C92A685E5
:101BE000B7858FEC8C93108EA489B58986E08C9391
:101BF000A289B3898C9180618C93A289B3898C91DD
:101C000088608C93A289B3898C9180688C930288B8
:101C1000F389E02D80818F7D80830895009769F09E
:101C2000FC0101900020E9F73197AF01481B590BE7
:101C3000BC0181EA94E00C94C80180E090E0089532
:101C400030915A03313208F04BC080913603811134
:101C5000FCCF9091590322E02093360321E020939A
:101C600035032FEF20933403109233033093320364
:101C7000E9E3F3E0A2E1B3E020E0321721F0419183
:101C80004D932F5FFACF1092110320911103990FFA
:101C9000922B9093110390911003913061F4109264
:101CA0001003909111039093BB009091BC0093FDA1
:101CB000F8CF95EC01C095EE9093BC00909136035F
:101CC0009230E1F3909134039F3F79F08091340397
:101CD000803241F080913403803331F084E005C0DC
:101CE00081E003C082E001C083E0109238031092CB
:101CF0005A031092370308950F931F93CF93DF93E6
:101D0000162F072FCEE4D6E09C8521E020933703E1
:101D1000909359031092380310925A03AA85BB85F9
:101D2000ED91FC9111970190F081E02D682FCD018C
:101D300019958A859B85DC01ED91FC910190F081DC
:101D4000E02D602F19958A859B85DC01ED91FC9132
:101D50000190F081E02D612F1995DF91CF911F91B6
:101D60000F910C94200E80917B00877F80937B00E5
:101D700085E480937C0080917A00806480937A006F
:101D800080917A0086FDFCCF8091780020917900C7
:101D900090E0922B08958F929F92AF92BF920F93F3
:101DA0001F93CF93DF93CDB7DEB7A1970FB6F8940B
:101DB000DEBF0FBECDBF19A2423008F44AE08E014B
:101DC0000F5D1F4F842E912CA12CB12CA5019401E5
:101DD0000E944315E62FB901CA0101501109EA30EA
:101DE00014F4E05D01C0E95CD801EC93232B242BB3
:101DF000252B61F7C8010E940E0EA1960FB6F8942C
:101E0000DEBF0FBECDBFDF91CF911F910F91BF906D
:101E1000AF909F908F900895789484B5826084BD30
:101E200084B5816084BD85B5826085BD85B58160DE
:101E300085BD80916E00816080936E00109281005C
:101E40008091810082608093810080918100816017
:101E500080938100809180008160809380008091D8
:101E6000B10084608093B1008091B0008160809364
:101E7000B0008091910082608093910080919100E8
:101E800081608093910080919000816080939000A8
:101E90008091A10082608093A1008091A100816067
:101EA0008093A1008091A00081608093A000809128
:101EB00021018260809321018091210181608093C2
:101EC00021018091200181608093200180917A001E
:101ED000846080937A0080917A00826080937A0097
:101EE00080917A00816080937A0080917A00806886
:101EF00080937A001092C1000E94E60D61E080910B
:101F00004F060E94940C60E080914F060E94650C81
:101F100060E080914E060E94940C8BE593E09093D4
:101F200059068093580610929E0210929D021092BC
:101F3000380310925A031092360381E080933503E0
:101F40001092100361E084E10E94650C61E085E17C
:101F50000E94650C8091B9008E7F8093B9008091BA
:101F6000B9008D7F8093B90088E48093B80085E440
:101F70008093BC0088E09AE09093A00280939F0237
:101F800089E09AE09093A2028093A10280E090E120
:101F9000A0E0B0E080935B0690935C06A0935D06A2
:101FA000B0935E068AE090E0A0E0B0E080935F0628
:101FB00090936006A0936106B093620680E090E083
:101FC000A0E0B0E48093630690936406A093650656
:101FD000B093660660E070E185E00E947C0E6FE9D8
:101FE00079E380E00E947C0ECEE4D6E08E0142E0F0
:101FF000742E58E8A52E52E0B52E6EEC862E62E0C7
:10200000962E7BECE72E77E0F72EF8019481828103
:10201000898F9A8F61E00E94940C61E08A8D0E9402
:10202000940CF801908586816E01FDE1CF0ED11CE4
:102030008D8F9E8F61E00E94940C60E08E8D0E94D7
:10204000940C61E08D8D0E94650C6FB6F8948091C0
:102050007902811126C0F5018491F4012491E82FC1
:10206000F0E0EE0FFF1FE15EFD4FA591B4919C9152
:10207000822F892321F461E085E30E94650C61E0F1
:1020800085E30E94940C8CB580618CBD8CB5806416
:102090008CBD61E084E30E94940C61E083E30E94C4
:1020A000940C809179028F5F809379026FBEC70193
:1020B0000197F1F760E08D8D0E94650C88E80E9421
:1020C0003A0783E00E943A0761E08D8D0E94650C1B
:1020D000C7010197F1F7C6010E9441077A940F5F8B
:1020E0001F4F2296711091CF03E716E0C7E7D6E0A5
:1020F00060E0F80181918F010E94940CC017D10714
:10210000B9F70FE616E085E0E82E9CE0C92E22E044
:10211000D22EF9908F818C3008F044C061E08F2D71
:102120000E94940C8F81E89EF0011124E05FF94F2A
:102130009F2D9F732081207CF22EF92AF08213823A
:1021400014826C2D0E946515FCE08F9FA001112464
:1021500020E030E0BA01620F731FE69EF001E79EB7
:10216000F00D1124E05FF94F908196FD12C02F5FB2
:102170003F4F2C30310571F781110BC01092800058
:10218000D09281001092850010928400D6BAD0922D
:102190006F00EF81EE9EF0011124E05FF94F808126
:1021A000806480839D818B81F801828B938B60E0BA
:1021B0000E94940C61E0F80183890E94940C60E015
:1021C000F80183890E94650C0E5F1F4FF6E0C93746
:1021D000DF0709F09ECFF8941092200189E08093E8
:1021E000210180E293E090932901809328011092CD
:1021F00025011092240182E08093730078948093EB
:102200003E051092420580913F0560E00E94940CCB
:102210000E94E60D0E94B30E6C01990FEE08FF08B4
:10222000F7FE0EC06DE281EA94E00E94D2046627B8
:102230007727CB016C197D098E099F094AE003C0FD
:102240004AE0C701B6010E94CB0E8FE392E00E94E4
:102250000E0E0E94B30E4E9784F44AE959E969E1E3
:102260007EEB89E696E00E94200642E558EB6EE19F
:102270007EE387E696E00E9420060E94B30E8A3A2B
:10228000910534F40E94B30E833891050CF04FC0D1
:102290000E94B30E8034914034F40E94B30E893111
:1022A00091400CF04FC00E94B30E863D914034F433
:1022B0000E94B30E8F3A91400CF054C00E94B30EAE
:1022C0008637924034F40E94B30E853492400CF06D
:1022D00052C00E94B30E8C30934034F40E94B30E6F
:1022E000853E92400CF052C00E94B30E823A934059
:1022F00034F40E94B30E8B3793400CF058C00E9408
:10230000B30E8D3F934084F04AE959E969E17EEBD1
:1023100089E696E00E94200642E558EB6EE17EE3F6
:1023200087E696E00E9420060E945A0473CF0E941E
:102330000A0D41E050E060E070E088EB92E40E941A
:10234000D107A6CF40E050E060E070E889E696E073
:102350000E94200640E050E0BA0187E696E00E9425
:102360002006A1CF41E050E060E070E080EA90E418
:102370000E94D107A3CF0E940A0D40E050E060E028
:1023800070E088EB92E40E94D107A3CF4AE959E9B3
:1023900069E17EEB89E696E00E94200642E558EB73
:1023A0006EE17EE387E696E00E9420069DCF40E046
:1023B00050E060E070E080EA90E40E94D1079FCF97
:1023C0000F931F93CF93DF93EC018881998100973E
:1023D00029F02A813B812617370788F48B016F5F2C
:1023E0007F4F0E94B917009761F0998388831B8300
:1023F0000A832C813D81232B11F4FC01108281E0A2
:1024000001C080E0DF91CF911F910F9108958091DD
:102410004707909148070E94301780914D0790918F
:102420004E070C94301710925E0310925D0388EEF5
:1024300093E0A0E0B0E080935F0390936003A093EB
:102440006103B093620323E132E030935C03209395
:102450005B0310926A031092690380936B0390935D
:102460006C03A0936D03B0936E0325E232E03093CA
:1024700068032093670345E351E05093740340934E
:10248000730344E351E0509376034093750340E3B4
:1024900051E0509378034093770341E351E0509328
:1024A0007A034093790342E351E050937C034093D5
:1024B0007B0346E351E050937E0340937D031092EB
:1024C0008003109281031092820310928303109272
:1024D0000704109206048093080490930904A093C3
:1024E0000A04B0930B04309305042093040445EDD3
:1024F00050E0509311044093100444ED50E0509389
:1025000013044093120440ED50E05093150440939F
:10251000140441ED50E0509317044093160442ED2B
:1025200050E0509319044093180446ED50E0509346
:102530001B0440931A0410921D0410921E04109262
:102540001F04109220041092A4041092A3048093FC
:10255000A5049093A604A093A704B093A804309375
:10256000A2042093A10485EC90E09093AE048093A4
:10257000AD0484EC90E09093B0048093AF0480ECC1
:1025800090E09093B2048093B10481EC90E090933A
:10259000B4048093B30482EC90E09093B6048093EB
:1025A000B50486EC90E09093B8048093B704109241
:1025B000BA041092BB041092BC041092BD04809126
:1025C000070290910802A0910902B0910A0280933B
:1025D0006F0690937006A0937106B0937206809177
:1025E0000B0290910C02A0910D02B0910E0280930B
:1025F000730690937406A0937506B093760684E0F4
:102600008093770687E0809378061092790684EBB2
:1026100080937A0686E180937B0688E180937C062E
:1026200087E180937D0689E180937E06E0914C06E8
:10263000EC3020F08FEF80937F0610C081E08E0F8A
:1026400080934C06E0937F0685E0E89FF00111241B
:10265000E05FF94F88EB9BE092838183E0914C0629
:10266000EC3020F08FEF8093800610C081E08E0F59
:1026700080934C06E093800685E0E89FF0011124EA
:10268000E05FF94F88EB9BE0928381838CE080933D
:102690004E0684E280934F0686E08093500685E0E4
:1026A000809351068FE1809352068EE1809353060A
:1026B00083E28093540682E28093550685E48093FA
:1026C000560684E48093570680E480935A0610925D
:1026D0005F061092600610926106109262061092D8
:1026E0006306109264061092650610926606E9E889
:1026F000F6E027E437E08FEF9FEFDC0112821382D0
:102700001482158216821782108611868387948719
:10271000A587B6878787908BA18BB28B1286118293
:10272000108273962E173F0749F78DE090E00E94C4
:102730009816FC011382128287E392E091838083D2
:10274000118687E2848384E1828784E0838714860C
:10275000F0938606E093850610928706109288060D
:1027600085E280933F051092410510924E0710922A
:102770004D071092500710924F0710925207109277
:10278000510760E070E08DE497E00E94E011209135
:102790004D0730914E07811113C02115310519F0F5
:1027A000C9010E94301710924E0710924D071092E7
:1027B0005207109251071092500710924F0709C00C
:1027C000109252071092510761E472E0C9010E9411
:1027D000AC18109248071092470710924A071092BF
:1027E000490710924C0710924B0764E270E087E4AF
:1027F00097E00E94E011209147073091480781112E
:1028000013C02115310519F0C9010E94301710922B
:1028100048071092470710924C0710924B071092EE
:102820004A0710924907089584E290E090934C077C
:1028300080934B076EE472E0C9010C94AC180E94BF
:10284000611408F481E00895E89409C097FB3EF410
:1028500090958095709561957F4F8F4F9F4F9923ED
:10286000A9F0F92F96E9BB279395F695879577956B
:102870006795B795F111F8CFFAF4BB0F11F460FF2B
:102880001BC06F5F7F4F8F4F9F4F16C0882311F083
:1028900096E911C0772321F09EE8872F762F05C097
:1028A000662371F096E8862F70E060E02AF09A9532
:1028B000660F771F881FDAF7880F9695879597F927
:1028C0000895990F0008550FAA0BE0E8FEEF1616C1
:1028D0001706E807F907C0F012161306E407F50714
:1028E00098F0621B730B840B950B39F40A2661F088
:1028F000232B242B252B21F408950A2609F4A1402B
:10290000A6958FEF811D811D08950E9498140C9447
:1029100009150E94FB1438F00E94021520F095233F
:1029200011F00C94F2140C94F81411240C943D152D
:102930000E941A1570F3959FC1F3950F50E0551F33
:10294000629FF001729FBB27F00DB11D639FAA2704
:10295000F00DB11DAA1F649F6627B00DA11D661F53
:10296000829F2227B00DA11D621F739FB00DA11D74
:10297000621F839FA00D611D221F749F3327A00D2E
:10298000611D231F849F600D211D822F762F6A2FCA
:1029900011249F5750409AF0F1F088234AF0EE0F2F
:1029A000FF1FBB1F661F771F881F91505040A9F75C
:1029B0009E3F510580F00C94F2140C943D155F3F3E
:1029C000E4F3983ED4F3869577956795B795F79598
:1029D000E7959F5FC1F7FE2B880F911D9695879510
:1029E00097F9089597F99F6780E870E060E008958F
:1029F0009FEF80EC089500240A9416161706180617
:102A00000906089500240A941216130614060506F2
:102A10000895092E0394000C11F4882352F0BB0F83
:102A200040F4BF2B11F460FF04C06F5F7F4F8F4FE6
:102A30009F4F089557FD9058440F551F59F05F3F21
:102A400071F04795880F97FB991F61F09F3F79F0D0
:102A500087950895121613061406551FF2CF469552
:102A6000F1DF08C0161617061806991FF1CF8695D4
:102A70007105610508940895E894BB2766277727B8
:102A8000CB0197F90895A1E21A2EAA1BBB1BFD01E9
:102A90000DC0AA1FBB1FEE1FFF1FA217B307E4073D
:102AA000F50720F0A21BB30BE40BF50B661F771F95
:102AB000881F991F1A9469F7609570958095909575
:102AC0009B01AC01BD01CF010895991B79E004C0C1
:102AD000991F961708F0961B881F7A95C9F780955D
:102AE0000895EE0FFF1F881F8BBF0790F691E02D12
:102AF00019945058BB27AA270E9491150C940915C8
:102B00000E94FB1438F00E94021520F039F49F3F18
:102B100019F426F40C94F8140EF4E095E7FB0C94E9
:102B2000F214E92F0E941A1558F3BA1762077307B7
:102B30008407950720F079F4A6F50C943C150EF463
:102B4000E0950B2EBA2FA02D0B01B90190010C01BD
:102B5000CA01A0011124FF27591B99F0593F50F4D5
:102B6000503E68F11A16F040A22F232F342F44272D
:102B7000585FF3CF469537952795A795F040539525
:102B8000C9F77EF41F16BA0B620B730B840BBAF0F5
:102B90009150A1F0FF0FBB1F661F771F881FC2F760
:102BA0000EC0BA0F621F731F841F48F48795779574
:102BB0006795B795F7959E3F08F0B0CF9395880F2E
:102BC00008F09927EE0F9795879508950E94FA15BA
:102BD0000C9409150E94021558F00E94FB1440F055
:102BE00029F45F3F29F00C94F21451110C943D1517
:102BF0000C94F8140E941A1568F39923B1F3552325
:102C000091F3951B550BBB27AA27621773078407FF
:102C100038F09F5F5F4F220F331F441FAA1FA9F395
:102C200035D00E2E3AF0E0E832D091505040E69583
:102C3000001CCAF72BD0FE2F29D0660F771F881FE4
:102C4000BB1F261737074807AB07B0E809F0BB0BD7
:102C5000802DBF01FF2793585F4F3AF09E3F5105EB
:102C600078F00C94F2140C943D155F3FE4F3983E19
:102C7000D4F3869577956795B795F7959F5FC9F7D4
:102C8000880F911D9695879597F90895E1E0660F55
:102C9000771F881FBB1F621773078407BA0720F0CE
:102CA000621B730B840BBA0BEE1F88F7E095089537
:102CB0000E945F166894B1110C943D1508950E940E
:102CC000221588F09F5798F0B92F9927B751B0F087
:102CD000E1F0660F771F881F991F1AF0BA95C9F7A0
:102CE00014C0B13091F00E943C15B1E008950C94ED
:102CF0003C15672F782F8827B85F39F0B93FCCF3A0
:102D0000869577956795B395D9F73EF4909580951C
:102D1000709561957F4F8F4F9F4F08950E9461146A
:102D200008F48FEF08950E946114880B990B0895A1
:102D30000F931F93CF93DF938230910510F482E0BD
:102D400090E0E0915507F091560720E030E0A0E0D8
:102D5000B0E0309719F14081518102811381481709
:102D60005907C8F08417950769F4109731F0129647
:102D70000C93129713961C9327C00093550710933A
:102D8000560722C02115310519F04217530718F4D0
:102D90009A01BD01EF01DF01F801DBCF21153105FB
:102DA000F9F0281B390B2430310580F48A819B818E
:102DB0006115710521F0FB019383828304C0909318
:102DC000560780935507FE01329644C0FE01E20F7C
:102DD000F31F8193919322503109398328833AC09C
:102DE0002091530730915407232B41F42091030283
:102DF000309104023093540720935307209101022D
:102E0000309102022115310541F42DB73EB74091B2
:102E1000050250910602241B350BE0915307F091F7
:102E20005407E217F307A0F42E1B3F0B28173907AE
:102E300078F0AC014E5F5F4F2417350748F04E0F16
:102E40005F1F50935407409353078193919302C09F
:102E5000E0E0F0E0CF01DF91CF911F910F91089555
:102E6000CF93DF93009709F481C0FC01329713825E
:102E70001282A0915507B0915607109781F42081D6
:102E80003181820F931F20915307309154072817E7
:102E9000390751F5F0935407E093530767C0ED01EC
:102EA00020E030E0CE17DF0740F44A815B819E01CD
:102EB00041155105F1F0EA01F5CFD383C28340817A
:102EC0005181840F951FC817D90759F488819981BA
:102ED000840F951F0296918380838A819B819383BF
:102EE00082832115310529F4F0935607E0935507A5
:102EF0003DC0E901FB83EA8349915991C40FD51F75
:102F0000EC17FD0761F480819181840F951F029673
:102F1000E90199838883828193819B838A83E0E09E
:102F2000F0E012968D919C911397009719F0FD0196
:102F3000DC01F7CF8D919C9111979D012E5F3F4F42
:102F4000820F931F20915307309154072817390798
:102F500069F4309729F4109256071092550702C071
:102F600013821282B0935407A0935307DF91CF913D
:102F700008956F927F928F929F92AF92BF92CF925D
:102F8000DF92EF92FF920F931F93CF93DF930097FF
:102F900089F4CB01DF91CF911F910F91FF90EF90BA
:102FA000DF90CF90BF90AF909F908F907F906F9069
:102FB0000C949816FC01E60FF71F9C012250310972
:102FC000E217F30708F4A9C0EC01D9010D911C9197
:102FD000119706171707B0F00530110508F49BC0CC
:102FE000C80104978617970708F495C00250110985
:102FF000061B170B019311936D937C93CF010E94D5
:10300000301789C05B01A01AB10A4C01800E911ED5
:10301000A0915507B0915607612C712CE12CF12C31
:10302000109709F446C08D919C911197A815B90588
:10303000B1F56C0142E0C40ED11CCA14DB0478F176
:103040004C018A189B08640142E0C40ED11C129600
:10305000BC9012971396AC91B5E0CB16D10440F01A
:10306000B282A38391828082D9016D937C9309C03F
:103070000E5F1F4F800F911FF90191838083EB2D0D
:10308000FA2FE114F10431F0D7011396FC93EE937B
:10309000129741C0F0935607E09355073CC068165D
:1030A000790608F43C017D0112960D90BC91A02D8B
:1030B000B7CF809153079091540788169906E1F491
:1030C00066167706C8F4809101029091020200977B
:1030D00041F48DB79EB74091050250910602841BC2
:1030E000950BE817F907C8F4F0935407E0935307DA
:1030F000F901718360830FC0CB010E9498167C0197
:10310000009759F0A801BE010E94A318CE010E94A9
:103110003017C70104C0CE0102C080E090E0DF910B
:10312000CF911F910F91FF90EF90DF90CF90BF90C4
:10313000AF909F908F907F906F90089581E090E086
:10314000F8940C94B318FB01DC0102C001900D92BD
:1031500041505040D8F70895FB01DC0101900D92D9
:103160000020E1F7089511E0C4E9D1E000E006C0D5
:10317000802FFE010E9471152196011DC539D107CE
:0A31800080E00807A9F7F894FFCFDC
:10318A00FF000057072000363738391B1D1A1C006C
:10319A00000000630A360A88040A0A2E0A1A0A0B71
:1031AA000A00000000D204C8011A041F054B0429B2
:1031BA00043D04000000008B04C801880487040D44
:1031CA000A006E616E00696E66006F7666004C6575
:1031DA0020626C7565746F6F7468206573742066FD
:1031EA006F6E6374696F6E6E656C204C696F6E6585
:0431FA006C0A00005B
:00000001FF
