:100000000C9495010C94C6010C94C6010C94C60185
:100010000C94C6010C94C6010C94C6010C94C60144
:100020000C94C6010C94640A0C94640A0C94640A3F
:100030000C94C6010C940A040C94C6010C94C601DD
:100040000C94C6010C942C080C94C6010C94C601A7
:100050000C94C6010C94C6010C94C6010C94C00308
:100060000C94C6010C9479050C944F050C94C601B0
:100070000C94C6010C94C6010C94C6010C94C601E4
:100080000C94C6010C94C6010C94C6010C94C601D4
:100090000C94C6010C94C6010C94C6010C946E0A13
:1000A0000C94C6010C94C6010C94C6010C94C601B4
:1000B0000C94C6010C94C6010C94C6010C94A305C3
:1000C0000C94C6010C94C6010C94C6010C94250531
:1000D0000C94FB040C94C6010C94D1040C94A7045A
:1000E0000C94C601E306E806ED06F70601077A0759
:1000F0000B0713071B0725072F0739074807520768
:100100007A075C0766077007BB0BBE0BAD0BB10B24
:10011000B70BF50BC20BC60BCC0BD00BD40BDA0B09
:10012000DE0BE20BF50BE80BEC0BF00B0C942F073E
:100130000C9465090C946F020C94EC0B0C94520710
:100140000C94E8060C9464090C9415030C94B10B00
:100150000C940B070C9401070C94D40B0C94BC0268
:100160000C94AD0B0C94F2010C94E80B0C947510EC
:100170000C94F00B0C9401020C941B070C941603C6
:100180000C9488090C9474090C94BE0B0C946309AC
:100190000C9439070C94E3060C9425070C94130770
:1001A0000C94DE0B0C94DA0B0C94C8010C947007C1
:1001B0000C94C60B0C9423020C9415020C94480763
:1001C0000C9490090C94CC0B0C94E20B0C94C20B85
:1001D0000C94BB0B0C947A070C9476030C94D00B04
:1001E0000C94B70B0C94F7060C9462090C94F50B65
:1001F0000C945C070C94ED060C9466070C94BD09F6
:100200000C946F10000020002300260029002C0011
:100210002F00320000010000030106010901020065
:10022000002100240027002A002D003000330001A7
:10023000010000040107010A010000220025002836
:10024000002B002E003100340002010000050108DF
:10025000010B01050505050705080808080202024B
:10026000020A0A0808040404040101010101010151
:10027000010303030303030303040707070C0C0C28
:100280000C0C0C0C0C020202020606060606060600
:10029000060B0B0B0B0B0B0B0B010210202008089D
:1002A00010204010204080020102010804020101D8
:1002B00002040810204080804020100804020180C1
:1002C0000402018040201008040201080402010118
:1002D0000204081020408001020408102040800021
:1002E000000A0B02090C0D0E0807030401000000B0
:1002F00000000000000000000000000000000000FE
:1003000000000000000000000000001211100000BA
:1003100000000000000000000000000000000000DD
:1003200000000000000075106F1011241FBECFEFF9
:10033000D1E2DEBFCDBF00E00CBF12E0A0E0B2E032
:10034000E4E6FEE200E00BBF02C007900D92A0368B
:10035000B107D9F727E0A0E6B2E001C01D92AD33A6
:10036000B207E1F711E0C4E9D1E000E006C021974F
:100370000109802FFE010E94E313C339D10780E0F9
:100380000807A9F70E947C0E0C9420170C9400001B
:10039000CF92DF92EF92FF920F931F93CF93DF9351
:1003A0006C017A018B01C0E0D0E0CE15DF0581F051
:1003B000D8016D918D01D601ED91FC910190F081F4
:1003C000E02DC6011995892B11F02196EECF7E0103
:1003D000C701DF91CF911F910F91FF90EF90DF90B8
:1003E000CF900895FC01538D448D252F30E0842F4C
:1003F00090E0821B930B541710F0CF96089501974D
:100400000895FC01918D828D981761F0828DDF0136
:10041000A80FB11D5D968C91928D9F5F9F73928FF7
:1004200090E008958FEF9FEF0895FC01918D828DEC
:10043000981731F0828DE80FF11D858D90E00895B9
:100440008FEF9FEF0895FC01918D228D892F90E011
:10045000805C9F4F821B91098F739927089583E5D4
:1004600093E00E94230221E0892B09F420E0822FEF
:10047000089580EF93E00E94230221E0892B09F484
:1004800020E0822F08958DE894E00E94230221E06D
:10049000892B09F420E0822F0895FC01848DDF016F
:1004A000A80FB11DA35ABF4F2C91848D90E00196E7
:1004B0008F739927848FA689B7892C93A089B189D6
:1004C0008C91837080648C93938D848D981306C077
:1004D0000288F389E02D80818F7D80830895EF92DB
:1004E000FF920F931F93CF93DF93EC0181E0888FEE
:1004F0009B8D8C8D981305C0E889F989808185FDD5
:1005000026C0F62E0B8D10E00F5F1F4F0F731127C3
:10051000E02E8C8DE8120CC00FB607FCFACFE889EC
:10052000F989808185FFF5CFCE010E944D02F1CF80
:100530008B8DFE01E80FF11DE35AFF4FF0829FB74C
:10054000F8940B8FEA89FB89808180620AC09FB78B
:10055000F894EE89FF896083E889F9898081837046
:10056000806480839FBF81E090E0DF91CF911F91F5
:100570000F91FF90EF900895CF93DF93EC01888D5A
:100580008823C9F0EA89FB89808185FD05C0A88997
:10059000B9898C9186FD0FC00FB607FCF5CF80811D
:1005A00085FFF2CFA889B9898C9185FFEDCFCE0167
:1005B0000E944D02E7CFDF91CF910895E0E0F0E097
:1005C000199480E090E0892B21F00E944302811170
:1005D00019C080E090E0892B41F080E090E0892B09
:1005E00021F00E940000811110C00E943902811187
:1005F0000FC080E090E0892B81F00E942F028111D2
:100600000AC008950E940000E4CF0E940000EDCFD0
:100610000E94DE02EECF0C94000008958EBD000013
:100620000DB407FEFDCF8EB50895089580E090E0EB
:1006300008951F93CF93DF93EC01162F88818C30A0
:1006400008F04DC061E0812F0E94250CE88195E003
:100650009E9FF0011124E450FA4F1F738081807C2B
:10066000182B10831382E8819E9FF0011124E4501F
:10067000FA4F148288816CE00E94D7139CE0899F16
:10068000A001112420E030E095E0BA01620F731F51
:10069000969FF001979FF00D1124E450FA4F60816E
:1006A00066FD13C02F5F3F4F2C30310571F781116C
:1006B0000CC01092800082E080938100109285002F
:1006C0001092840086BB80936F00E88185E0E89FEC
:1006D000F0011124E450FA4F808180648083888186
:1006E000DF91CF911F9108950E940B170F931F93D5
:1006F000CF93DF938C01C62FD62FD07FD1606D2F83
:100700000E94230A6D2FC8010E94360A80E1C89F0B
:10071000B0011124C62FC1606C2FC8010E94230AAA
:100720006C2FC8010E94360A81E090E0DF91CF91E2
:100730001F910F9108953FB7F89480918502909191
:100740008602A0918702B091880226B5A89B05C0B9
:100750002F3F19F00196A11DB11D3FBFBA2FA92F40
:10076000982F8827820F911DA11DB11DBC01CD01BD
:1007700042E0660F771F881F991F4A95D1F70895A9
:100780001F920F920FB60F9211242F933F938F93C6
:100790009F93AF93BF938091810290918202A09129
:1007A0008302B09184023091800223E0230F2D3721
:1007B00020F40196A11DB11D05C026E8230F029665
:1007C000A11DB11D2093800280938102909382022B
:1007D000A0938302B0938402809185029091860257
:1007E000A0918702B09188020196A11DB11D80934E
:1007F000850290938602A0938702B0938802BF91EE
:10080000AF919F918F913F912F910F900FBE0F90BD
:100810001F9018951F920F920FB60F9211240BB6CE
:100820000F922F933F934F935F936F937F938F9389
:100830009F93AF93BF93EF93FF9380917B0290912F
:100840007C02A0917D02B0917E02892B8A2B8B2B9A
:1008500049F190917A0280910000892780930000ED
:1008600080917B0290917C02A0917D02B0917E02EA
:10087000181619061A061B060CF056C080917B024A
:1008800090917C02A0917D02B0917E020197A10916
:10089000B10980937B0290937C02A0937D02B09378
:1008A0007E0242C080910002EEE1F2E0E4919FEF0F
:1008B00090930002E230C9F050F4EE2399F0E13059
:1008C00081F590916F009D7F90936F002AC0E43076
:1008D00019F1E0F0E53029F5909173009D7F909338
:1008E00073001FC010926E001CC0909170009D7F1D
:1008F0009093700091E09093B0009091B100987F38
:1009000094609093B1001092B3000BC0909171006D
:100910009D7F9093710005C0909172009D7F909390
:10092000720060E00E94F60BFF91EF91BF91AF91D2
:100930009F918F917F916F915F914F913F912F91F7
:100940000F900BBE0F900FBE0F901F9018951F9227
:100950000F920FB60F9211240BB60F922F933F9365
:100960004F935F936F937F938F939F93AF93BF93B7
:10097000EF93FF9383E593E00E944D02FF91EF9187
:10098000BF91AF919F918F917F916F915F914F91A7
:100990003F912F910F900BBE0F900FBE0F901F90A5
:1009A00018951F920F920FB60F9211240BB60F924B
:1009B0002F933F934F935F936F937F938F939F9367
:1009C000AF93BF93EF93FF9383E593E00E944B0AAD
:1009D000FF91EF91BF91AF919F918F917F916F9117
:1009E0005F914F913F912F910F900BBE0F900FBED3
:1009F0000F901F9018951F920F920FB60F9211240F
:100A00000BB60F922F933F934F935F936F937F9308
:100A10008F939F93AF93BF93EF93FF9380EF93E0F8
:100A20000E944D02FF91EF91BF91AF919F918F91E5
:100A30007F916F915F914F913F912F910F900BBEDE
:100A40000F900FBE0F901F9018951F920F920FB628
:100A50000F9211240BB60F922F933F934F935F93F6
:100A60006F937F938F939F93AF93BF93EF93FF9376
:100A700080EF93E00E944B0AFF91EF91BF91AF91FD
:100A80009F918F917F916F915F914F913F912F91A6
:100A90000F900BBE0F900FBE0F901F9018951F92D6
:100AA0000F920FB60F9211240BB60F922F933F9314
:100AB0004F935F936F937F938F939F93AF93BF9366
:100AC000EF93FF938DE894E00E944D02FF91EF9128
:100AD000BF91AF919F918F917F916F915F914F9156
:100AE0003F912F910F900BBE0F900FBE0F901F9054
:100AF00018951F920F920FB60F9211240BB60F92FA
:100B00002F933F934F935F936F937F938F939F9315
:100B1000AF93BF93EF93FF938DE894E00E944B0A4D
:100B2000FF91EF91BF91AF919F918F917F916F91C5
:100B30005F914F913F912F910F900BBE0F900FBE81
:100B40000F901F9018951F920F920FB60F921124BD
:100B50000BB60F922F933F934F935F936F937F93B7
:100B60008F939F93AF93BF93CF93DF93EF93FF93B5
:100B700020912B0530E0F901E152FD4F8491F901FC
:100B8000E756FD4FD491F901ED5AFD4FC491CC23A6
:100B900079F081110E94A00BEC2FF0E0EE0FFF1F07
:100BA000EC5FFD4FA591B491EC91ED2381E009F448
:100BB00080E020912F05309130052F5F3F4F30931B
:100BC000300520932F0590912E05953618F096E06C
:100BD00090932A0590912A059430C9F128F4923017
:100BE00069F09330D1F05EC0953009F451C0963071
:100BF00009F058C091E09093FB0551C0811152C09B
:100C000020912F05309130052436310508F442C07B
:100C10001092FB0510922E051CC0813009F042C0D5
:100C2000E0912E0591E09E0F90932E05F0E020912B
:100C30002F0530913005EE0FFF1FE65DFA4F30872C
:100C400027831092300510922F0594E029C081115E
:100C500017C0E0912E0591E09E0F90932E05F0E0D5
:100C600020912F0530913005EE0FFF1FE65DFA4F02
:100C7000308727831092300510922F0593E010C023
:100C800020912F05309130052536310558F007C0E9
:100C9000811108C01092300510922F0503C095E015
:100CA00090932A0590912D059923B9F081110AC0DE
:100CB00080912C05882321F080912C0561E009C0EA
:100CC0002F9A0BC080912C05882331F080912C0540
:100CD00060E00E94F60B01C02F98FF91EF91DF9129
:100CE000CF91BF91AF919F918F917F916F915F91C4
:100CF0004F913F912F910F900BBE0F900FBE0F9011
:100D00001F9018958F929F92AF92BF92CF92DF92D1
:100D1000EF92FF920F931F93CF93DF938C016A01A1
:100D20007B0120E030E04FE753E4C701B6010E94A9
:100D3000BE124B015C0120E030E0A9010E940015C9
:100D400018161CF4C501B40103C0C501B4019058C4
:100D50000E94CA14EB0120E030E0A901C701B601EE
:100D60000E940015181614F460E001C061E0F8015B
:100D700081810E94F60BCF3FD10509F014F4DD27E5
:100D800002C0CFEFD0E0F801108161E0812F0E9416
:100D9000250C209709F4B1C0CF3FD10509F4AFC0AD
:100DA000E12FF0E0E152FD4FE4918E2F90E0FC0145
:100DB0003197E231F10508F09DC08827EE58FF4FCA
:100DC0008F4F0C94E31384B5806884BDC7BDA7C062
:100DD00084B5806284BDC8BDA2C080918000806857
:100DE00080938000D0938900C093880098C0809140
:100DF0008000806280938000D0938B00C0938A0033
:100E00008EC080918000886080938000D0938D0098
:100E1000C0938C0084C08091B00080688093B00043
:100E2000C093B3007CC08091B00080628093B0001A
:100E3000C093B40074C0809190008068809390004B
:100E4000D0939900C09398006AC08091900080620E
:100E500080939000D0939B00C0939A0060C08091D3
:100E60009000886080939000D0939D00C0939C0078
:100E700056C08091A00080688093A0008091A0005F
:100E80008F7B8093A000D093A900C093A80047C097
:100E90008091A00080628093A000D093AB00C093AB
:100EA000AA003DC08091A00088608093A000D093EC
:100EB000AD00C093AC0033C0809120018068809366
:100EC0002001D0932901C093280129C080912001DD
:100ED000806280932001D0932B01C0932A011FC010
:100EE00080912001886080932001D0932D01C093D0
:100EF0002C0115C0C038D10514F460E001C061E0D8
:100F0000812FDF91CF911F910F91FF90EF90DF9094
:100F1000CF90BF90AF909F908F900C94F60BDF9185
:100F2000CF911F910F91FF90EF90DF90CF90BF90E6
:100F3000AF909F908F900895CF93DF93EC0160E086
:100F400088810E94F60B88E90E940E0380E00E94CF
:100F50000E0380E00E940E0380E00E940E0380E0FA
:100F60000E940E0361E088810E94F60B8BE891E0FD
:100F70000197F1F760E088810E94F60B80EE0E94F5
:100F80000E0361E08881DF91CF910C94F60BAF9254
:100F9000BF92CF92DF92EF92FF920F931F93CF9366
:100FA000DF93CDB7DEB760970FB6F894DEBF0FBE04
:100FB000CDBF5C0160E0FC0180810E94F60B80E601
:100FC0000E940E038E010F5F1F4F7E01F1E1EF0EB5
:100FD000F11C680180E00E940E0390E0A0E0B0E008
:100FE000F60181939193A193B1936F01EE15FF05E3
:100FF00089F761E0F50180810E94F60B80E090E0C6
:10100000DC01F80141915191619171918F01BA2FE9
:10101000A92F982F8827840F951FA61FB71FEE159D
:10102000FF0579F79C01AD0166277727CB01621B8D
:10103000730B840B950B60960FB6F894DEBF0FBE52
:10104000CDBFDF91CF911F910F91FF90EF90DF9077
:10105000CF90BF90AF9008951F920F920FB60F924E
:1010600011240BB60F922F933F934F935F936F937F
:101070007F938F939F93AF93BF93EF93FF93809151
:10108000790287FF05C0109285001092840016C077
:1010900020917902022E000C330B8091380690E0EB
:1010A000281739075CF43091790225E03203F0010A
:1010B0001124E450FA4F808186FD15C08091790299
:1010C0008F5F8093790220917902022E000C330BFE
:1010D0008091380690E02817390794F480917902BE
:1010E0008C302CF10DC0309179023203F0011124C3
:1010F000E450FA4F808160E08F730E94F60BDECFE0
:10110000809184009091850084349C4918F480E497
:101110009CE905C08091840090918500049690938D
:101120008900809388008FEF809379022AC04091D4
:101130008400509185003091790225E03203F0015E
:101140001124E450FA4F81819281840F951F90936E
:10115000890080938800309179023203F0011124D4
:10116000E450FA4F808186FF0CC03091790232033F
:10117000F0011124E450FA4F808161E08F730E94E6
:10118000F60BFF91EF91BF91AF919F918F917F915E
:101190006F915F914F913F912F910F900BBE0F90E8
:1011A0000FBE0F901F90189530919302313208F0C6
:1011B0004BC0809191028111FCCF90913E0322E0BF
:1011C0002093910221E0209390022FEF20931C03A3
:1011D00010921B0330931A03EEE1F3E0AAEFB2E0A2
:1011E00020E0321721F041914D932F5FFACF1092FA
:1011F000F9022091F902990F922B9093F9029091A4
:101200008F02913061F410928F029091F9029093C5
:10121000BB009091BC0093FDF8CF95EC01C095EE1A
:101220009093BC00909191029230E1F390911C0355
:101230009F3F79F080911C03803241F080911C0324
:10124000803331F084E005C081E003C082E001C05A
:1012500083E0109292021092930210921D0308955F
:1012600085ED8093BC008091BC0084FDFCCF109282
:10127000910208954091D402262F30E0240F311DB1
:1012800021323105DCF4209191022430C9F4FC01B3
:1012900080E090E0861758F43091D4022191DC016F
:1012A000AC54BD4FA30FB11D2C930196F3CF809189
:1012B000D402680F6093D40280E0089581E008951D
:1012C00082E00895089508950895E0918A0280913A
:1012D0008902E81730F4F0E0EC56FD4F808190E091
:1012E00008958FEF9FEF089590918A02809189026F
:1012F000981750F4E92FF0E0EC56FD4F208130E0D4
:101300009F5F90938A0202C02FEF3FEFC9010895BB
:101310008091890290E020918A02821B91090895B0
:10132000CF92DF92EF92FF920F931F93CF93DF93B1
:101330007C01CB018A0120911D03222389F0EB015E
:101340006B01C40ED51ECC15DD0569F06991D7017E
:10135000ED91FC910190F081E02DC7011995F3CF3B
:10136000642F0E943A09C801DF91CF911F910F911C
:10137000FF90EF90DF90CF900895CF93DF931F926F
:10138000CDB7DEB7698320911D032223D1F02091D0
:101390009302203240F021E030E0FC0133832283CD
:1013A00080E090E015C080919202E82FF0E0E25ECC
:1013B000FC4F998190838F5F809392028093930278
:1013C00005C061E0CE0101960E943A0981E090E0FB
:1013D0000F90DF91CF9108950F931F93CF93DF93D9
:1013E000162F072FC0E4D6E09C8521E020931D0333
:1013F00090933E031092920210929302AA85BB85AD
:10140000ED91FC9111970190F081E02D682FCD01B5
:1014100019958A859B85DC01ED91FC910190F08105
:10142000E02D602F19958A859B85DC01ED91FC915B
:101430000190F081E02D612F1995DF91CF911F91DF
:101440000F910C94D408FC01248131E030931D03EA
:1014500020933E0310929202109293028485682B8F
:1014600087E493E00E94BD090C94D4080F931F9366
:10147000CF938C01C62F64600E94230A6C2F6B7F70
:10148000C8010E94230A83EC90E00197F1F7CF9105
:101490001F910F910895FC01A089B1898C91A689B3
:1014A000B78982FD0FC09C91818D8F5F8F73228DD4
:1014B000821749F0218DDF01A20FB11D5D969C932B
:1014C000818F08958C9108951F920F920FB60F92FD
:1014D00011240F900FBE0F901F9018951F920F921E
:1014E0000FB60F9211240BB60F922F933F934F9389
:1014F0005F936F937F938F939F93AF93BF93EF937C
:10150000FF938091B900887F803609F49CC068F50C
:10151000883209F45BC090F4803109F454C038F487
:10152000882309F4F6C0883009F44DC0F6C088312C
:1015300009F44CC0803209F45DC0EFC0803409F476
:1015400068C048F4803309F455C0883309F0E5C019
:1015500080931C03D8C0803509F44FC0883509F446
:101560005DC0883409F0D9C0D6C0883909F4C7C035
:10157000A8F4883709F467C038F4883609F463C0E2
:10158000803709F460C0C9C0883809F4B8C0803910
:1015900009F45FC0803809F0C0C05BC0803B09F42B
:1015A00086C038F4803A09F466C0883A09F47FC0EE
:1015B000B4C0803C09F4A7C0883C09F4A4C0883BAF
:1015C00009F48AC0AAC08091F90210C090911B034F
:1015D00080911A03981770F5E0911B0381E08E0F3C
:1015E00080931B03F0E0E650FD4F80818093BB00A9
:1015F00085EC86C080931C038EC0E0911B0381E0C4
:101600008E0F80931B038091BB00F0E0E650FD4FEE
:10161000808390911B0380911A036EC0E0911B039D
:1016200081E08E0F80931B038091BB00F0E0E650B9
:10163000FD4F80838091900281116DC081E0809385
:101640008F0284EA61C083E0809391021092F602D7
:10165000CFCF8091F602803208F051C0E091F602BF
:1016600081E08E0F8093F6028091BB00F0E0EA5299
:10167000FD4F8083BDCF85EC8093BC00109291021A
:101680008091F602803230F4E091F602F0E0EA5206
:10169000FD4F10826091F60270E0E0918D02F091B2
:1016A0008E0286ED92E019951092F60236C084E023
:1016B000809391021092D5021092D402E0918B0295
:1016C000F0918C0219958091D402811105C081E0BE
:1016D0008093D4021092B402E091D50281E08E0F83
:1016E0008093D502F0E0EC54FD4F80818093BB00E5
:1016F0009091D5028091D402981708F479CF85E8AB
:101700008093BC000AC085EC8093BC0010929102CB
:1017100004C010921C030E943009FF91EF91BF9109
:10172000AF919F918F917F916F915F914F913F9179
:101730002F910F900BBE0F900FBE0F901F9018951A
:1017400090E0FC013197E231F10508F04EC08827A6
:10175000EC57FF4F8F4F0C94E313809180008F77ED
:1017600003C0809180008F7D8093800008958091D8
:101770008000877FF9CF84B58F7702C084B58F7DD5
:1017800084BD08958091B0008F7703C08091B00030
:101790008F7D8093B0000895809190008F7707C06F
:1017A000809190008F7D03C080919000877F80930F
:1017B000900008958091A0008F7707C08091A000CD
:1017C0008F7D03C08091A000877F8093A000089543
:1017D000809120018F7707C0809120018F7D03C009
:1017E00080912001877F8093200108951F93CF93DC
:1017F000DF93282F30E0F901E152FD4F8491F90188
:10180000E756FD4FD491F901ED5AFD4FC491CC2319
:10181000C1F0162F81110E94A00BEC2FF0E0EE0F0B
:10182000FF1FE75CFD4FA591B4919FB7F89411118C
:1018300004C08C91D095D82302C0EC91DE2BDC93B0
:101840009FBFDF91CF911F910895CF93DF9390E0D9
:10185000FC01E756FD4F2491FC01ED5AFD4F8491A8
:10186000882361F190E0880F991FFC01E15EFD4F34
:10187000C591D491FC01E75CFD4FA591B491611134
:1018800009C09FB7F8948881209582238883EC91C2
:101890002E230BC0623061F49FB7F8948881322FF9
:1018A000309583238883EC912E2B2C939FBF06C009
:1018B0008FB7F894E8812E2B28838FBFDF91CF91CB
:1018C00008958F929F92AF92BF92CF92DF92EF9244
:1018D000FF926B017C010E949B034B015C01C114D0
:1018E000D104E104F104F1F00E949B03DC01CB017F
:1018F00088199909AA09BB09883E9340A105B10539
:1019000070F321E0C21AD108E108F10888EE880ED0
:1019100083E0981EA11CB11CC114D104E104F104A0
:1019200019F7DDCFFF90EF90DF90CF90BF90AF9091
:101930009F908F9008954F925F926F927F928F92B7
:101940009F92AF92BF92CF92DF92EF92FF921F933E
:10195000CF93DF93CDB7DEB7AD970FB6F894DEBF68
:101960000FBECDBF6B017C018DE596E00E949C0708
:101970008FE596E00E949C0728E431EE4AE75FE39A
:10198000C701B6010E94BE1220E030E048E455E4F1
:101990000E94BE1221EF32E84FEB51E40E9458142E
:1019A0000E94CA146AA37BA38CA39DA38AE9882EF4
:1019B00089E9982E89E1A82E8EE3B82E10E38FE5F1
:1019C00096E00E94C7072AA13BA14CA15DA1621726
:1019D0007307840795070CF087C04AE959E969E164
:1019E0007EEB8BE596E00E948206B501A40189E5B5
:1019F00096E00E9482068091430390914403A09157
:101A00004503B09146038EA39FA3A8A7B9A7209131
:101A10003F033091400340914103509142032AA774
:101A20003BA74CA75DA78DE596E00E94C70744241D
:101A300055243201461A570A680A790A40923F0330
:101A40005092400360924103709242038FE596E00A
:101A50000E94C7076B017C016093430370934403AA
:101A6000809345039093460319A218A3CE01809654
:101A70000E94C70D8FE392E00E94C70D8EA19FA127
:101A8000A8A5B9A5C81AD90AEA0AFB0AD301C20156
:101A90002AA53BA54CA55DA5821B930BA40BB50BFA
:101AA000A7019601281B390B4A0B5B0BCA01B90130
:101AB0000E945F122FE632E143E85AE30E94BE1211
:101AC00020E030E0A9010E94EC139B01AC01C501AC
:101AD000B4010E94EC134B015C016AE070E080E00D
:101AE00090E00E94610C6BCF40E050E0BA0189E5C4
:101AF00096E00E94820640E050E060E070E88BE5EE
:101B000096E00E94820664E670E080E090E00E9429
:101B1000610CAD960FB6F894DEBF0FBECDBFDF915E
:101B2000CF911F91FF90EF90DF90CF90BF90AF903B
:101B30009F908F907F906F905F904F900895EDE809
:101B4000F4E0A089B18982E08C93A485B5851C92CC
:101B5000A685B7858FEC8C93108EA489B58986E015
:101B60008C93A289B3898C9180618C93A289B3896B
:101B70008C9188608C93A289B3898C9180688C93B6
:101B80000288F389E02D80818F7D808308950097FE
:101B900069F0FC0101900020E9F73197AF01481B83
:101BA000590BBC018DE894E00C94C80180E090E0F2
:101BB0000895CF92DF92EF92FF92CF93DF939091AF
:101BC0006B06891720F090916C06981770F482E4E8
:101BD00092E00E94C70D8FE392E0DF91CF91FF90DA
:101BE000EF90DF90CF900C94C70DC0917106CC3070
:101BF00008F07BC0282F30E0D0E0283C3105E4F528
:101C000095E09C9FF0019D9FF00D1124E450FA4F48
:101C1000938128E830E06901C91AD10897FDD3946F
:101C2000CC0CDD1CCC0CDD1C0D2C000CEE08FF08D0
:101C3000948128E532E0291B310997FD3395220F65
:101C4000331F220F331FA901330F660B770B9A0145
:101C5000AB012C193D094E095F09A82FB0E00E9485
:101C60009B1324EB30E040E050E00E947C13C20E56
:101C7000D31EE41EF51E27C085E08C9FF0018D9FCA
:101C8000F00D1124E450FA4F838148E850E06A01D6
:101C9000C81AD10887FDD394CC0CDD1CCC0CDD1CFC
:101CA0002C153D0584F0448188E592E0841B910960
:101CB00047FD9395880F991F880F991F69018C150F
:101CC0009D050CF46C018FB7F89495E09C9FF00192
:101CD0009D9FF00D1124E450FA4F96E0C91AD108E7
:101CE000CC0CDD1CD282C1828FBFDF91CF91FF90DF
:101CF000EF90DF90CF900895789484B5826084BD92
:101D000084B5816084BD85B5826085BD85B58160FF
:101D100085BD80916E00816080936E00109281007D
:101D20008091810082608093810080918100816038
:101D300080938100809180008160809380008091F9
:101D4000B10084608093B1008091B0008160809385
:101D5000B000809191008260809391008091910009
:101D600081608093910080919000816080939000C9
:101D70008091A10082608093A1008091A100816088
:101D80008093A1008091A00081608093A000809149
:101D900021018260809321018091210181608093E3
:101DA00021018091200181608093200180917A003F
:101DB000846080937A0080917A00826080937A00B8
:101DC00080917A00816080937A0080917A008068A7
:101DD00080937A001092C1000E949F0D61E0809173
:101DE00041060E94250C60E0809141060E94F60B9E
:101DF00060E0809140060E94250C87E493E0909378
:101E00004B0680934A0610928A0210928902109221
:101E10009202109293021092910281E080939002BC
:101E200010928F0261E084E10E94F60B61E085E18F
:101E30000E94F60B8091B9008E7F8093B90080914B
:101E4000B9008D7F8093B90088E48093B80085E461
:101E50008093BC0082E699E090938C0280938B0281
:101E600083E699E090938E0280938D0280E090E16A
:101E7000A0E0B0E080934D0690934E06A0934F06ED
:101E8000B09350068AE090E0A0E0B0E08093510665
:101E900090935206A0935306B093540680E090E0CE
:101EA000A0E0B0E48093550690935606A0935706A1
:101EB000B093580660E070E185E00E94EC096FE99C
:101EC00079E380E00E94EC09C0E4D6E08E0192E064
:101ED000792E28E8A22E22E0B22E3EEC832E32E0AC
:101EE000932E4BECE42E47E0F42EF801948182818E
:101EF000898F9A8F61E00E94250C61E08A8D0E9493
:101F0000250CF801908586816E01FDE1CF0ED11C74
:101F10008D8F9E8F61E00E94250C60E08E8D0E9467
:101F2000250C61E08D8D0E94F60B6FB6F8948091C0
:101F30007F02811126C0F5018491F4012491E82FDC
:101F4000F0E0EE0FFF1FE15EFD4FA591B4919C9173
:101F5000822F892321F461E085E30E94F60B61E082
:101F600085E30E94250C8CB580618CBD8CB58064A6
:101F70008CBD61E084E30E94250C61E083E30E9454
:101F8000250C80917F028F5F80937F026FBEC70117
:101F90000197F1F760E08D8D0E94F60B88E80E94B2
:101FA0000E0383E00E940E0361E08D8D0E94F60B0C
:101FB000C7010197F1F7C6010E949C077A940F5F51
:101FC0001F4F2296711091CFC5E6D6E009E616E0C4
:101FD00060E089910E94250CF6E0C936DF07C1F761
:101FE000C1E6D6E078012FEFE21AF20AF80160812B
:101FF00070E0C80108960E941903F701958183815A
:102000008A8B9B8B60E00E94250C61E08B890E948B
:10201000250C60E08B890E94F60B22968701F6E082
:102020000B361F07F9F6F8941092200189E080938F
:10203000210180E293E0909329018093280110927E
:1020400025011092240182E080937300789480939C
:102050002A0510922E0580912B0560E00E94250C28
:102060000E949F0D6091690670E081E796E00E94F2
:10207000190389E10E94D90D68EE73E080E090E0D9
:102080000E94610C60E070E080E291E40E949B0C91
:1020900064EF71E080E090E00E94610C85E00E94B6
:1020A000D90D68EE73E080E090E00E94610C60E082
:1020B00070E080EF91E40E949B0C89E10E94D90DB1
:1020C00060EA76E881E090E00E94610C64EF71E0E4
:1020D00080E090E00E94610C0E94E102F7CF8091C5
:1020E000390690913A060C949D1510924A0310926D
:1020F000490388EE93E0A0E0B0E080934B03909317
:102100004C03A0934D03B0934E0323E132E0309390
:10211000480320934703109256031092550380936F
:10212000570390935803A0935903B0935A0325E2A1
:1021300032E0309354032093530345E351E050932E
:10214000600340935F0344E351E050936203409384
:10215000610340E351E0509364034093630341E320
:1021600051E0509366034093650342E351E050937E
:1021700068034093670346E351E050936A0340933A
:10218000690310926C0310926D0310926E0310920B
:102190006F031092F3031092F2038093F403909371
:1021A000F503A093F603B093F7033093F103209364
:1021B000F00345ED50E05093FD034093FC0344EDE4
:1021C00050E05093FF034093FE0340ED50E05093E6
:1021D00001044093000441ED50E050930304409308
:1021E000020442ED50E0509305044093040446ED90
:1021F00050E0509307044093060410920904109293
:102200000A0410920B0410920C0410929004109285
:102210008F048093910490939204A0939304B093BD
:10222000940430938E0420938D0485EC90E0909379
:102230009A048093990484EC90E090939C0480939A
:102240009B0480EC90E090939E0480939D0481EC2D
:1022500090E09093A00480939F0482EC90E0909390
:10226000A2048093A10486EC90E09093A404809350
:10227000A3041092A6041092A7041092A80410922E
:10228000A9048091070290910802A0910902B091DF
:102290000A028093610690936206A0936306B0934E
:1022A000640680910B0290910C02A0910D02B091F6
:1022B0000E028093650690936606A0936706B0931E
:1022C000680684E08093690687E080936A0610922E
:1022D0006B0684EB80936C0686E180936D0688E143
:1022E00080936E0687E180936F0689E18093700684
:1022F000E0913806EC3020F08FEF8093710610C02B
:1023000081E08E0F80933806E093710685E0E89FA8
:10231000F0011124E450FA4F88EB9BE09283818313
:10232000E0913806EC3020F08FEF8093720610C0F9
:1023300081E08E0F80933806E093720685E0E89F77
:10234000F0011124E450FA4F88EB9BE092838183E3
:102350008CE08093400684E28093410686E080937F
:10236000420685E0809343068FE1809344068EE128
:102370008093450683E28093460682E28093470677
:1023800085E48093480684E48093490680E4809342
:102390004C0610925106109252061092530610925B
:1023A0005406109255061092560610925706109237
:1023B0005806EBE7F6E029E337E08FEF9FEFDC010B
:1023C0001282138214821582168217821086118659
:1023D00083879487A587B6878787908BA18BB28BDD
:1023E00012861182108273962E173F0749F78DE0EF
:1023F00090E00E940515FC011382128287E392E0AF
:1024000091838083118687E2848384E1828784E0DC
:1024100083871486F0937806E09377061092790606
:1024200010927A0685E280932B0510922D0510926A
:102430003A061092390610923C0610923B06109212
:102440003E0610923D0661E070E080E090E00E9460
:102450002616009789F090933A06809339061092D9
:102460003C0610923B0620913D0630913E06232B00
:10247000C1F4FC01108215C08091390690913A0692
:10248000009711F00E949D1510923A06109239069D
:1024900010923E0610923D0610923C0610923B06AA
:1024A000089510923E0610923D0661E472E080911C
:1024B000390690913A060C941917E89409C097FBD5
:1024C0003EF490958095709561957F4F8F4F9F4F0B
:1024D0009923A9F0F92F96E9BB279395F69587954F
:1024E00077956795B795F111F8CFFAF4BB0F11F412
:1024F00060FF1BC06F5F7F4F8F4F9F4F16C08823B9
:1025000011F096E911C0772321F09EE8872F762FEE
:1025100005C0662371F096E8862F70E060E02AF02F
:102520009A95660F771F881FDAF7880F969587951B
:1025300097F90895990F0008550FAA0BE0E8FEEFF0
:1025400016161706E807F907C0F012161306E40777
:10255000F50798F0621B730B840B950B39F40A2670
:1025600061F0232B242B252B21F408950A2609F44E
:10257000A140A6958FEF811D811D08950E94D11263
:102580000C9442130E94341338F00E943B1320F045
:10259000952311F00C942B130C94311311240C94EB
:1025A00076130E94531370F3959FC1F3950F50E07B
:1025B000551F629FF001729FBB27F00DB11D639FF5
:1025C000AA27F00DB11DAA1F649F6627B00DA11D9B
:1025D000661F829F2227B00DA11D621F739FB00D41
:1025E000A11D621F839FA00D611D221F749F3327B1
:1025F000A00D611D231F849F600D211D822F762F4A
:102600006A2F11249F5750409AF0F1F088234AF026
:10261000EE0FFF1FBB1F661F771F881F9150504092
:10262000A9F79E3F510580F00C942B130C94761360
:102630005F3FE4F3983ED4F3869577956795B79519
:10264000F795E7959F5FC1F7FE2B880F911D969533
:10265000879597F9089597F99F6780E870E060E0A3
:1026600008959FEF80EC089500240A94161617062B
:1026700018060906089500240A9412161306140673
:1026800005060895092E0394000C11F4882352F0D6
:10269000BB0F40F4BF2B11F460FF04C06F5F7F4F8E
:1026A0008F4F9F4F089557FD9058440F551F59F075
:1026B0005F3F71F04795880F97FB991F61F09F3F2F
:1026C00079F087950895121613061406551FF2CF58
:1026D0004695F1DF08C0161617061806991FF1CFA8
:1026E00086957105610508940895E894BB276627CF
:1026F0007727CB0197F90895052E97FB1EF40094D8
:102700000E94931357FD07D00E94A61307FC03D025
:102710004EF40C94931350954095309521953F4F6E
:102720004F4F5F4F089590958095709561957F4FBD
:102730008F4F9F4F08950E94C813A59F900DB49F7F
:10274000900DA49F800D911D11240895A1E21A2ED1
:10275000AA1BBB1BFD010DC0AA1FBB1FEE1FFF1F45
:10276000A217B307E407F50720F0A21BB30BE40B95
:10277000F50B661F771F881F991F1A9469F76095DC
:102780007095809590959B01AC01BD01CF01089596
:10279000A29FB001B39FC001A39F700D811D1124A2
:1027A000911DB29F700D811D1124911D0895991BDB
:1027B00079E004C0991F961708F0961B881F7A9538
:1027C000C9F780950895EE0FFF1F881F8BBF0790F4
:1027D000F691E02D19945058BB27AA270E940314A4
:1027E0000C9442130E94341338F00E943B1320F0E3
:1027F00039F49F3F19F426F40C9431130EF4E0954C
:10280000E7FB0C942B13E92F0E94531358F3BA17CC
:10281000620773078407950720F079F4A6F50C94F6
:1028200075130EF4E0950B2EBA2FA02D0B01B901F4
:1028300090010C01CA01A0011124FF27591B99F036
:10284000593F50F4503E68F11A16F040A22F232F42
:10285000342F4427585FF3CF469537952795A79592
:10286000F0405395C9F77EF41F16BA0B620B730B39
:10287000840BBAF09150A1F0FF0FBB1F661F771FAA
:10288000881FC2F70EC0BA0F621F731F841F48F45F
:10289000879577956795B795F7959E3F08F0B0CFE8
:1028A0009395880F08F09927EE0F979587950895CF
:1028B0000E946C140C9442130E943B1358F00E9427
:1028C000341340F029F45F3F29F00C942B1351117D
:1028D0000C9476130C9431130E94531368F39923CC
:1028E000B1F3552391F3951B550BBB27AA2762170C
:1028F0007307840738F09F5F5F4F220F331F441F19
:10290000AA1FA9F335D00E2E3AF0E0E832D091504C
:102910005040E695001CCAF72BD0FE2F29D0660F39
:10292000771F881FBB1F261737074807AB07B0E87C
:1029300009F0BB0B802DBF01FF2793585F4F3AF082
:102940009E3F510578F00C942B130C9476135F3F47
:10295000E4F3983ED4F3869577956795B795F79508
:102960009F5FC9F7880F911D9695879597F90895F0
:10297000E1E0660F771F881FBB1F6217730784078C
:10298000BA0720F0621B730B840BBA0BEE1F88F79B
:10299000E09508950E94D1146894B1110C947613B7
:1029A00008950E945B1388F09F5798F0B92F9927DC
:1029B000B751B0F0E1F0660F771F881F991F1AF02A
:1029C000BA95C9F714C0B13091F00E947513B1E007
:1029D00008950C947513672F782F8827B85F39F006
:1029E000B93FCCF3869577956795B395D9F73EF4C3
:1029F00090958095709561957F4F8F4F9F4F08956B
:102A00000E949A1208F48FEF08950F931F93CF93AB
:102A1000DF938230910510F482E090E0E0913B0773
:102A2000F0913C0720E030E0A0E0B0E0309719F1F1
:102A3000408151810281138148175907C8F08417DA
:102A4000950769F4109731F012960C93129713962C
:102A50001C9327C000933B0710933C0722C021150D
:102A6000310519F04217530718F49A01BD01EF011F
:102A7000DF01F801DBCF21153105F9F0281B390BF7
:102A80002430310580F48A819B816115710521F024
:102A9000FB019383828304C090933C0780933B07A0
:102AA000FE01329644C0FE01E20FF31F8193919321
:102AB00022503109398328833AC020913907309157
:102AC0003A07232B41F42091030230910402309302
:102AD0003A07209339072091010230910202211513
:102AE000310541F42DB73EB74091050250910602E1
:102AF000241B350BE0913907F0913A07E217F307F1
:102B0000A0F42E1B3F0B2817390778F0AC014E5F5D
:102B10005F4F2417350748F04E0F5F1F50933A0759
:102B2000409339078193919302C0E0E0F0E0CF0138
:102B3000DF91CF911F910F910895CF93DF9300976D
:102B400009F481C0FC01329713821282A0913B07E5
:102B5000B0913C07109781F420813181820F931F3F
:102B60002091390730913A072817390751F5F0932A
:102B70003A07E093390767C0ED0120E030E0CE1757
:102B8000DF0740F44A815B819E0141155105F1F058
:102B9000EA01F5CFD383C28340815181840F951F11
:102BA000C817D90759F488819981840F951F029617
:102BB000918380838A819B81938382832115310550
:102BC00029F4F0933C07E0933B073DC0E901FB8308
:102BD000EA8349915991C40FD51FEC17FD0761F4A1
:102BE00080819181840F951F0296E90199838883E2
:102BF000828193819B838A83E0E0F0E012968D913D
:102C00009C911397009719F0FD01DC01F7CF8D918E
:102C10009C9111979D012E5F3F4F820F931F209132
:102C2000390730913A072817390769F4309729F4A2
:102C300010923C0710923B0702C013821282B0939D
:102C40003A07A0933907DF91CF9108956F927F9251
:102C50008F929F92AF92BF92CF92DF92EF92FF92AC
:102C60000F931F93CF93DF93009789F4CB01DF91EC
:102C7000CF911F910F91FF90EF90DF90CF90BF9079
:102C8000AF909F908F907F906F900C940515FC01F2
:102C9000E60FF71F9C0122503109E217F30708F4F1
:102CA000A9C0EC01D9010D911C91119706171707C6
:102CB000B0F00530110508F49BC0C80104978617D1
:102CC000970708F495C002501109061B170B0193D2
:102CD00011936D937C93CF010E949D1589C05B0178
:102CE000A01AB10A4C01800E911EA0913B07B09131
:102CF0003C07612C712CE12CF12C109709F446C093
:102D00008D919C911197A815B905B1F56C0142E020
:102D1000C40ED11CCA14DB0478F14C018A189B083C
:102D2000640142E0C40ED11C1296BC901297139617
:102D3000AC91B5E0CB16D10440F0B282A38391826E
:102D40008082D9016D937C9309C00E5F1F4F800F65
:102D5000911FF90191838083EB2DFA2FE114F10487
:102D600031F0D7011396FC93EE93129741C0F09384
:102D70003C07E0933B073CC06816790608F43C0129
:102D80007D0112960D90BC91A02DB7CF809139078F
:102D900090913A0788169906E1F466167706C8F40A
:102DA0008091010290910202009741F48DB79EB785
:102DB0004091050250910602841B950BE817F90714
:102DC000C8F4F0933A07E0933907F90171836083FF
:102DD0000FC0CB010E9405157C01009759F0A80196
:102DE000BE010E941017CE010E949D15C70104C0AC
:102DF000CE0102C080E090E0DF91CF911F910F9152
:102E0000FF90EF90DF90CF90BF90AF909F908F900A
:102E10007F906F90089581E090E0F8940C942017D3
:102E2000FB01DC0102C001900D9241505040D8F7E7
:102E30000895FB01DC0101900D920020E1F7089557
:102E400011E0C4E9D1E000E006C0802FFE010E943D
:102E5000E3132196011DC539D10780E00807A9F7C2
:042E6000F894FFCF14
:102E6400FF00003D072000363738391B1D1A1C00AF
:102E7400000000BD099009160364098809740965F6
:102E840009000000006F02C801F201BC0223020124
:102E9400021502000000007603C801160315030D95
:102EA4000A00536572766F20616E676C65206973E2
:102EB400206F7574206F662072616E676521000053
:00000001FF
