:100000000C9495010C94C6010C94C6010C94C60185
:100010000C94C6010C94C6010C94C6010C94C60144
:100020000C94C6010C941B0C0C941B0C0C941B0C14
:100030000C94C6010C9440030C94C6010C94C601A8
:100040000C94C6010C94D9070C94C6010C94C601FB
:100050000C94C6010C94C6010C94C6010C94200D9E
:100060000C94C6010C94AF040C9485040C94C60146
:100070000C94C6010C94C6010C94C6010C94C601E4
:100080000C94C6010C94C6010C94C6010C94C601D4
:100090000C94C6010C94C6010C94C6010C94E90A98
:1000A0000C94C6010C94C6010C94C6010C94C601B4
:1000B0000C94C6010C94C6010C94C6010C94D9048E
:1000C0000C94C6010C94C6010C94C6010C945B04FC
:1000D0000C9431040C94C6010C9407040C94DD03B9
:1000E0000C94C60119061E0623062D063706B00617
:1000F0004106490651065B0665066F067E068806C0
:10010000B00692069C06A606400C430C320C360C38
:100110003C0C7A0C470C4B0C510C550C590C5F0CD9
:10012000630C670C7A0C6D0C710C750C0C94B0069A
:100130000C945F0C0C94670C0C94FA090C949206C6
:100140000C94510C0C94400C0C942A100C9430100C
:100150000C946F020C94630C0C94750C0C94880630
:100160000C94F9090C9423060C9416030C94320C8D
:100170000C94F2010C942D060C94A6060C947E06A9
:100180000C9441060C94430C0C9415030C94FB093D
:100190000C94710C0C94FC090C94470C0C9465069F
:1001A0000C9401020C94590C0C944B0C0C941B03F2
:1001B0000C943C0C0C94C8010C94540A0C9423022B
:1001C0000C941F0A0C9451060C94270A0C947A0C78
:1001D0000C94BC020C941E060C9419060C946D0C25
:1001E0000C9449060C9437060C94360C0C946F064C
:1001F0000C9415020C949C060C94550C0C940B0A50
:100200000C945B06000020002300260029002C002F
:100210002F00320000010000030106010901020065
:10022000002100240027002A002D003000330001A7
:10023000010000040107010A010000220025002836
:10024000002B002E003100340002010000050108DF
:10025000010B01050505050705080808080202024B
:10026000020A0A0808040404040101010101010151
:10027000010303030303030303040707070C0C0C28
:100280000C0C0C0C0C020202020606060606060600
:10029000060B0B0B0B0B0B0B0B010210202008089D
:1002A00010204010204080020102010804020101D8
:1002B00002040810204080804020100804020180C1
:1002C0000402018040201008040201080402010118
:1002D0000204081020408001020408102040800021
:1002E000000A0B02090C0D0E0807030401000000B0
:1002F00000000000000000000000000000000000FE
:1003000000000000000000000000001211100000BA
:1003100000000000000000000000000000000000DD
:1003200000000000000030102A1011241FBECFEF83
:10033000D1E2DEBFCDBF00E00CBF12E0A0E0B2E032
:10034000E4E2FDE200E00BBF02C007900D92A03492
:10035000B107D9F727E0A0E4B2E001C01D92A531B2
:10036000B207E1F711E0C4E9D1E000E006C021974F
:100370000109802FFE010E944313C339D10780E099
:100380000807A9F70E946A0D0C9480160C940000CF
:10039000CF92DF92EF92FF920F931F93CF93DF9351
:1003A0006C017A018B01C0E0D0E0CE15DF0581F051
:1003B000D8016D918D01D601ED91FC910190F081F4
:1003C000E02DC6011995892B11F02196EECF7E0103
:1003D000C701DF91CF911F910F91FF90EF90DF90B8
:1003E000CF900895FC01538D448D252F30E0842F4C
:1003F00090E0821B930B541710F0CF96089501974D
:100400000895FC01918D828D981761F0828DDF0136
:10041000A80FB11D5D968C91928D9F5F9F73928FF7
:1004200090E008958FEF9FEF0895FC01918D828DEC
:10043000981731F0828DE80FF11D858D90E00895B9
:100440008FEF9FEF0895FC01918D228D892F90E011
:10045000805C9F4F821B91098F739927089587EBCA
:1004600092E00E94230221E0892B09F420E0822FF0
:10047000089584E593E00E94230221E0892B09F48A
:1004800020E0822F089581EF93E00E94230221E073
:10049000892B09F420E0822F0895FC01848DDF016F
:1004A000A80FB11DA35ABF4F2C91848D90E00196E7
:1004B0008F739927848FA689B7892C93A089B189D6
:1004C0008C91837080648C93938D848D981306C077
:1004D0000288F389E02D80818F7D80830895EF92DB
:1004E000FF920F931F93CF93DF93EC0181E0888FEE
:1004F0009B8D8C8D981305C0E889F989808185FDD5
:1005000026C0F62E0B8D10E00F5F1F4F0F731127C3
:10051000E02E8C8DE8120CC00FB607FCFACFE889EC
:10052000F989808185FFF5CFCE010E944D02F1CF80
:100530008B8DFE01E80FF11DE35AFF4FF0829FB74C
:10054000F8940B8FEA89FB89808180620AC09FB78B
:10055000F894EE89FF896083E889F9898081837046
:10056000806480839FBF81E090E0DF91CF911F91F5
:100570000F91FF90EF900895CF93DF93EC01888D5A
:100580008823C9F0EA89FB89808185FD05C0A88997
:10059000B9898C9186FD0FC00FB607FCF5CF80811D
:1005A00085FFF2CFA889B9898C9185FFEDCFCE0167
:1005B0000E944D02E7CFDF91CF910895E0E0F0E097
:1005C000199480E090E0892B21F00E944302811170
:1005D00019C080E090E0892B41F080E090E0892B09
:1005E00021F00E940000811110C00E943902811187
:1005F0000FC080E090E0892B81F00E942F028111D2
:100600000AC008950E940000E4CF0E940000EDCFD0
:100610000E94DE02EECF0C94000008958EBD000013
:100620000DB407FEFDCF8EB50895089580E090E0EB
:1006300008950E946B160F931F93CF93DF938C0145
:10064000C62FD62FD07FD1606D2F0E94A80A6D2FA4
:10065000C8010E94BB0A80E1C89FB0011124C62FC7
:10066000C1606C2FC8010E94A80A6C2FC8010E94AB
:10067000BB0A81E090E0DF91CF911F910F91089527
:100680001F920F920FB60F9211240BB60F922F9359
:100690003F934F935F936F937F938F939F93AF930A
:1006A000BF93EF93FF9380915B0290915C02A091C6
:1006B0005D02B0915E02892B8A2B8B2B49F19091C0
:1006C0005A028091000089278093000080915B028C
:1006D00090915C02A0915D02B0915E02181619061D
:1006E0001A061B060CF056C080915B0290915C02CA
:1006F000A0915D02B0915E020197A109B1098093BA
:100700005B0290935C02A0935D02B0935E0242C0D4
:1007100080910002EEE1F2E0E4919FEF90930002FD
:10072000E230C9F050F4EE2399F0E13081F5909178
:100730006F009D7F90936F002AC0E43019F1E0F0C4
:10074000E53029F5909173009D7F909373001FC051
:1007500010926E001CC0909170009D7F909370006D
:1007600091E09093B0009091B100987F9460909345
:10077000B1001092B3000BC0909171009D7F9093D7
:10078000710005C0909172009D7F9093720060E0AF
:100790000E947B0CFF91EF91BF91AF919F918F9140
:1007A0007F916F915F914F913F912F910F900BBE71
:1007B0000F900FBE0F901F9018951F920F920FB6BB
:1007C0000F9211240BB60F922F933F934F935F9389
:1007D0006F937F938F939F93AF93BF93EF93FF9309
:1007E00087EB92E00E944D02FF91EF91BF91AF9194
:1007F0009F918F917F916F915F914F913F912F9139
:100800000F900BBE0F900FBE0F901F9018951F9268
:100810000F920FB60F9211240BB60F922F933F93A6
:100820004F935F936F937F938F939F93AF93BF93F8
:10083000EF93FF9387EB92E00E94D00AFF91EF9134
:10084000BF91AF919F918F917F916F915F914F91E8
:100850003F912F910F900BBE0F900FBE0F901F90E6
:1008600018951F920F920FB60F9211240BB60F928C
:100870002F933F934F935F936F937F938F939F93A8
:10088000AF93BF93EF93FF9384E593E00E944D02F3
:10089000FF91EF91BF91AF919F918F917F916F9158
:1008A0005F914F913F912F910F900BBE0F900FBE14
:1008B0000F901F9018951F920F920FB60F92112450
:1008C0000BB60F922F933F934F935F936F937F934A
:1008D0008F939F93AF93BF93EF93FF9384E593E040
:1008E0000E94D00AFF91EF91BF91AF919F918F919C
:1008F0007F916F915F914F913F912F910F900BBE20
:100900000F900FBE0F901F9018951F920F920FB669
:100910000F9211240BB60F922F933F934F935F9337
:100920006F937F938F939F93AF93BF93EF93FF93B7
:1009300081EF93E00E944D02FF91EF91BF91AF9143
:100940009F918F917F916F915F914F913F912F91E7
:100950000F900BBE0F900FBE0F901F9018951F9217
:100960000F920FB60F9211240BB60F922F933F9355
:100970004F935F936F937F938F939F93AF93BF93A7
:10098000EF93FF9381EF93E00E94D00AFF91EF91E4
:10099000BF91AF919F918F917F916F915F914F9197
:1009A0003F912F910F900BBE0F900FBE0F901F9095
:1009B00018951F920F920FB60F9211240BB60F923B
:1009C0002F933F934F935F936F937F938F939F9357
:1009D000AF93BF93CF93DF93EF93FF9320918F0457
:1009E00030E0F901E152FD4F8491F901E756FD4FE6
:1009F000D491F901ED5AFD4FC491CC2379F08111C6
:100A00000E94250CEC2FF0E0EE0FFF1FEC5FFD4F76
:100A1000A591B491EC91ED2381E009F480E020915F
:100A20009304309194042F5F3F4F309394042093AC
:100A3000930490919204953618F096E090938E046A
:100A400090918E049430C9F128F4923069F093307B
:100A5000D1F05EC0953009F451C0963009F058C00D
:100A600091E090935F0551C0811152C02091930491
:100A7000309194042436310508F442C010925F0589
:100A8000109292041CC0813009F042C0E09192049F
:100A900091E09E0F90939204F0E0209193043091A6
:100AA0009404EE0FFF1FE257FB4F3087278310920D
:100AB00094041092930494E029C0811117C0E0912E
:100AC000920491E09E0F90939204F0E020919304A1
:100AD00030919404EE0FFF1FE257FB4F30872783BE
:100AE000109294041092930493E010C02091930408
:100AF000309194042536310558F007C0811108C0A3
:100B0000109294041092930403C095E090938E0485
:100B1000909191049923B9F081110AC080919004B9
:100B2000882321F08091900461E009C02F9A0BC0C6
:100B300080919004882331F08091900460E00E94BD
:100B40007B0C01C02F98FF91EF91DF91CF91BF9166
:100B5000AF919F918F917F916F915F914F913F9155
:100B60002F910F900BBE0F900FBE0F901F901895F6
:100B70008F929F92AF92BF92CF92DF92EF92FF92AD
:100B80000F931F93CF93DF938C016A017B0120E0C9
:100B900030E04FE753E4C701B6010E9479124B01E0
:100BA0005C0120E030E0A9010E94601418161CF4DA
:100BB000C501B40103C0C501B40190580E942A14B4
:100BC000EB0120E030E0A901C701B6010E946014EA
:100BD000181614F460E001C061E0F80181810E9400
:100BE0007B0CCF3FD10509F014F4DD2702C0CFEF15
:100BF000D0E0F801108161E0812F0E94AA0C2097BB
:100C000009F4B1C0CF3FD10509F4AFC0E12FF0E046
:100C1000E152FD4FE4918E2F90E0FC013197E231DB
:100C2000F10508F09DC08827EE58FF4F8F4F0C94B8
:100C3000431384B5806884BDC7BDA7C084B58062F6
:100C400084BDC8BDA2C08091800080688093800070
:100C5000D0938900C093880098C080918000806202
:100C600080938000D0938B00C0938A008EC08091C7
:100C70008000886080938000D0938D00C0938C00AA
:100C800084C08091B00080688093B000C093B300AE
:100C90007CC08091B00080628093B000C093B400AB
:100CA00074C080919000806880939000D0939900E8
:100CB000C09398006AC080919000806280939000F9
:100CC000D0939B00C0939A0060C080919000886090
:100CD00080939000D0939D00C0939C0056C080915B
:100CE000A00080688093A0008091A0008F7B8093FB
:100CF000A000D093A900C093A80047C08091A00095
:100D000080628093A000D093AB00C093AA003DC046
:100D10008091A00088608093A000D093AD00C09324
:100D2000AC0033C080912001806880932001D09373
:100D30002901C093280129C08091200180628093FD
:100D40002001D0932B01C0932A011FC08091200164
:100D5000886080932001D0932D01C0932C0115C091
:100D6000C038D10514F460E001C061E0812FDF914B
:100D7000CF911F910F91FF90EF90DF90CF90BF9098
:100D8000AF909F908F900C947B0CDF91CF911F912F
:100D90000F91FF90EF90DF90CF90BF90AF909F901A
:100DA0008F90089540E050E0BA018DEB95E00E94ED
:100DB000B80540E050E060E070E88FEB95E00C94FF
:100DC000B805CF93DF93EC0160E088810E947B0C33
:100DD00088E90E940E0380E00E940E0380E00E94DA
:100DE0000E0380E00E940E0380E00E940E0361E08B
:100DF00088810E947B0C8BE891E00197F1F760E01D
:100E000088810E947B0C80EE0E940E0361E0888145
:100E1000DF91CF910C947B0C81EC95E00E94E10670
:100E200083EC95E00C94E106AF92BF92CF92DF92F3
:100E3000EF92FF920F931F93CF93DF93CDB7DEB75F
:100E400060970FB6F894DEBF0FBECDBF5C0160E0C7
:100E5000FC0180810E947B0C80E60E940E038E01C3
:100E60000F5F1F4F7E01F1E1EF0EF11C680180E082
:100E70000E940E0390E0A0E0B0E0F6018193919310
:100E8000A193B1936F01EE15FF0589F761E0F501BC
:100E900080810E947B0C80E090E0DC01F8014191B0
:100EA0005191619171918F01BA2FA92F982F8827A5
:100EB000840F951FA61FB71FEE15FF0579F79C013C
:100EC000AD0166277727CB01621B730B840B950B53
:100ED00060960FB6F894DEBF0FBECDBFDF91CF9105
:100EE0001F910F91FF90EF90DF90CF90BF90AF9048
:100EF00008951F93CF93DF93182FC62F0E94D20619
:100F00006C2F70E080E090E00E94181220E030E04A
:100F100044EB53E40E94B81322EA38E347EE52E46C
:100F20000E94791225E83BEA45E053E40E947912D9
:100F30000E943114EB0181EC95E00E94E10683EC04
:100F400095E00E94E1061C3419F080E090E010C0AA
:100F50004DEC5CEC6CEC7EEB8FEB95E00E94B80501
:100F600083EC95E00E941407C617D70788F719C0CD
:100F70008C179D07B1F04DEC5CEC6CEC7EE38DEBD7
:100F800095E00E94B80581EC95E00E9414079B0152
:100F9000AC0188279927DC01821B930BA40BB50BAE
:100FA000E7CF0E94D20680E090E0DF91CF911F91C1
:100FB00008951F920F920FB60F9211240BB60F9245
:100FC0002F933F934F935F936F937F938F939F9351
:100FD000AF93BF93EF93FF938091590287FF05C0B2
:100FE000109285001092840016C020915902022EA2
:100FF000000C330B80919C0590E0281739075CF4B6
:101000003091590225E03203F0011124E05AFA4FE1
:10101000808186FD15C0809159028F5F80935902AF
:1010200020915902022E000C330B80919C0590E018
:101030002817390794F4809159028C302CF10DC097
:10104000309159023203F0011124E05AFA4F8081A5
:1010500060E08F730E947B0CDECF809184009091C2
:10106000850084349C4918F480E49CE905C0809193
:101070008400909185000496909389008093880065
:101080008FEF809359022AC04091840050918500CF
:101090003091590225E03203F0011124E05AFA4F51
:1010A00081819281840F951F90938900809388009D
:1010B000309159023203F0011124E05AFA4F808135
:1010C00086FF0CC0309159023203F0011124E05A1E
:1010D000FA4F808161E08F730E947B0CFF91EF914A
:1010E000BF91AF919F918F917F916F915F914F9140
:1010F0003F912F910F900BBE0F900FBE0F901F903E
:1011000018953091AA02313208F04BC080918602C6
:101110008111FCCF9091A90222E02093860221E068
:10112000209385022FEF2093840210928302309344
:101130008202E9E8F2E0A2E6B2E020E0321721F014
:1011400041914D932F5FFACF10926102209161027D
:10115000990F922B9093610290916002913061F40B
:1011600010926002909161029093BB009091BC003C
:1011700093FDF8CF95EC01C095EE9093BC00909153
:1011800086029230E1F3909184029F3F79F0809142
:101190008402803241F080918402803331F084E017
:1011A00005C081E003C082E001C083E010928802A4
:1011B0001092AA021092870208950F931F93CF9363
:1011C000DF93162F072FC4EAD5E09C8521E02093FA
:1011D00087029093A902109288021092AA02AA850F
:1011E000BB85ED91FC9111970190F081E02D682F66
:1011F000CD0119958A859B85DC01ED91FC910190CB
:10120000F081E02D602F19958A859B85DC01ED9199
:10121000FC910190F081E02D612F1995DF91CF9124
:101220001F910F910C9481084F925F926F927F9261
:101230008F929F92AF92BF92CF92DF92EF92FF92E6
:10124000CF93DF9300D01F92CDB7DEB7F82E81EC9D
:1012500095E00E94140781EC95E00E94E10683EC82
:1012600095E00E9414072B013C0183EC95E00E945D
:10127000E1066F2D70E080E090E00E941A1225E8F0
:101280003BEA45E053E40E94791269837A838B83B9
:101290009C83C12CD12C7601C301B2010E941A1289
:1012A0009B01AC0169817A818B819C810E946014D1
:1012B00087FD58C04AE959E969E97EE38DEB95E07D
:1012C0000E94B80581EC95E00E9414074B015C0177
:1012D00083EC95E00E9414072B013C01C501B40189
:1012E000640D751D861D971D0E941A124B015C012D
:1012F0002AE037ED43EA5DE30E9479129B01AC01DD
:10130000C701B6010E944C136B017C0125E93FEB3C
:1013100046E553E3C501B4010E9479122AE939E98F
:1013200049E95EE30E944C134B015C0127E137EB76
:1013300041ED57E3C701B6010E9479129B01AC0150
:10134000C501B4010E944C13AB01BC0170588FEB76
:1013500095E00E94B80560E570E080E090E00E94B2
:10136000E60C9ACF80E090E00F900F900F900F90D6
:10137000DF91CF91FF90EF90DF90CF90BF90AF9033
:101380009F908F907F906F905F904F90089585ED24
:101390008093BC008091BC0084FDFCCF109286023B
:1013A00008954091EE06262F30E0240F311D2132A2
:1013B0003105DCF4209186022430C9F4FC0180E080
:1013C00090E0861758F43091EE062191DC01A2538B
:1013D000B94FA30FB11D2C930196F3CF8091EE0668
:1013E000680F6093EE0680E0089581E0089582E042
:1013F0000895089508950895E0919E0680919D06B0
:10140000E81730F4F0E0E255F94F808190E008955C
:101410008FEF9FEF089590919E0680919D069817FB
:1014200050F4E92FF0E0E255F94F208130E09F5F62
:1014300090939E0602C02FEF3FEFC901089580915F
:101440009D0690E020919E06821B91090895CF92FF
:10145000DF92EF92FF920F931F93CF93DF937C0164
:10146000CB018A0120918702222389F0EB016B01D5
:10147000C40ED51ECC15DD0569F06991D701ED913B
:10148000FC910190F081E02DC7011995F3CF642FF5
:101490000E94D109C801DF91CF911F910F91FF9058
:1014A000EF90DF90CF900895CF93DF931F92CDB749
:1014B000DEB76983209187022223D1F02091AA020E
:1014C000203240F021E030E0FC013383228380E0D1
:1014D00090E015C080918802E82FF0E0E757FD4FBB
:1014E000998190838F5F809388028093AA0205C0C0
:1014F00061E0CE0101960E94D10981E090E00F9059
:10150000DF91CF9108953FB7F8948091A80690910C
:10151000A906A091AA06B091AB0626B5A89B05C066
:101520002F3F19F00196A11DB11D3FBFBA2FA92F62
:10153000982F8827820F911DA11DB11DBC01CD01DF
:1015400042E0660F771F881F991F4A95D1F70895CB
:10155000FC01248131E0309387022093A90210928C
:1015600088021092AA028485682B8BEA92E00E947E
:10157000540A0C9481080F931F93CF938C01C62FAC
:1015800064600E94A80A6C2F6B7FC8010E94A80AA1
:1015900083EC90E00197F1F7CF911F910F9108959F
:1015A000FC01A089B1898C91A689B78982FD0FC001
:1015B0009C91818D8F5F8F73228D821749F0218DD1
:1015C000DF01A20FB11D5D969C93818F08958C91D0
:1015D00008951F920F920FB60F9211240BB60F921F
:1015E0002F933F934F935F936F937F938F939F932B
:1015F000AF93BF93EF93FF938091B900887F8036BC
:1016000009F49CC068F5883209F45BC090F480311D
:1016100009F454C038F4882309F4F6C0883009F47A
:101620004DC0F6C0883109F44CC0803209F45DC069
:10163000EFC0803409F468C048F4803309F455C021
:10164000883309F0E5C080938402D8C0803509F45E
:101650004FC0883509F45DC0883409F0D9C0D6C0C0
:10166000883909F4C7C0A8F4883709F467C038F48A
:10167000883609F463C0803709F460C0C9C088386F
:1016800009F4B8C0803909F45FC0803809F0C0C0DF
:101690005BC0803B09F486C038F4803A09F466C028
:1016A000883A09F47FC0B4C0803C09F4A7C0883CE4
:1016B00009F4A4C0883B09F48AC0AAC080916102E1
:1016C00010C09091830280918202981770F5E0918A
:1016D000830281E08E0F80938302F0E0EE59FD4F8C
:1016E00080818093BB0085EC86C0809384028EC08D
:1016F000E091830281E08E0F809383028091BB0092
:10170000F0E0EE59FD4F8083909183028091820238
:101710006EC0E091830281E08E0F809383028091FE
:10172000BB00F0E0EE59FD4F80838091850281116E
:101730006DC081E08093600284EA61C083E08093A1
:10174000860210921007CFCF80911007803208F0E8
:1017500051C0E091100781E08E0F809310078091B7
:10176000BB00F0E0E051F94F8083BDCF85EC809362
:10177000BC001092860280911007803230F4E09114
:101780001007F0E0E051F94F10826091100770E00F
:10179000E091A106F091A20680EF96E019951092D3
:1017A000100736C084E0809386021092EF061092F4
:1017B000EE06E0919F06F091A00619958091EE0645
:1017C000811105C081E08093EE061092CE06E09173
:1017D000EF0681E08E0F8093EF06F0E0E253F94FC1
:1017E00080818093BB009091EF068091EE06981760
:1017F00008F479CF85E88093BC000AC085EC80931B
:10180000BC001092860204C0109284020E94C70994
:10181000FF91EF91BF91AF919F918F917F916F91C8
:101820005F914F913F912F910F900BBE0F900FBE84
:101830000F901F9018951F920F920FB60F921124C0
:101840000F900FBE0F901F90189590E0FC013197FC
:10185000E231F10508F04EC08827EC57FF4F8F4F5B
:101860000C944313809180008F7703C08091800097
:101870008F7D80938000089580918000877FF9CFCD
:1018800084B58F7702C084B58F7D84BD0895809123
:10189000B0008F7703C08091B0008F7D8093B0003F
:1018A0000895809190008F7707C0809190008F7D80
:1018B00003C080919000877F80939000089580916D
:1018C000A0008F7707C08091A0008F7D03C080911A
:1018D000A000877F8093A0000895809120018F77DA
:1018E00007C0809120018F7D03C080912001877FF8
:1018F0008093200108951F93CF93DF93282F30E02A
:10190000F901E152FD4F8491F901E756FD4FD49161
:10191000F901ED5AFD4FC491CC23C1F0162F81116E
:101920000E94250CEC2FF0E0EE0FFF1FE75CFD4F4F
:10193000A591B4919FB7F894111104C08C91D095E2
:10194000D82302C0EC91DE2BDC939FBFDF91CF91B7
:101950001F910895CF93DF9390E0FC01E756FD4F70
:101960002491FC01ED5AFD4F8491882361F190E0B0
:10197000880F991FFC01E15EFD4FC591D491FC01D8
:10198000E75CFD4FA591B491611109C09FB7F89430
:101990008881209582238883EC912E230BC06230AE
:1019A00061F49FB7F8948881322F30958323888320
:1019B000EC912E2B2C939FBF06C08FB7F894E88133
:1019C0002E2B28838FBFDF91CF9108958F929F9206
:1019D000AF92BF92CF92DF92EF92FF926B017C01A8
:1019E0000E94830A4B015C01C114D104E104F1049B
:1019F000F1F00E94830ADC01CB0188199909AA0938
:101A0000BB09883E9340A105B10570F321E0C21ADD
:101A1000D108E108F10888EE880E83E0981EA11C29
:101A2000B11CC114D104E104F10419F7DDCFFF901A
:101A3000EF90DF90CF90BF90AF909F908F900895E0
:101A40001F920F920FB60F9211242F933F938F93F3
:101A50009F93AF93BF938091A4069091A506A09108
:101A6000A606B091A7063091A30623E0230F2D37D9
:101A700020F40196A11DB11D05C026E8230F029692
:101A8000A11DB11D2093A3068093A4069093A506E3
:101A9000A093A606B093A7068091A8069091A906E8
:101AA000A091AA06B091AB060196A11DB11D80932D
:101AB000A8069093A906A093AA06B093AB06BF917F
:101AC000AF919F918F913F912F910F900FBE0F90EB
:101AD0001F901895789484B5826084BD84B5816028
:101AE00084BD85B5826085BD85B5816085BD8091E9
:101AF0006E00816080936E00109281008091810061
:101B00008260809381008091810081608093810058
:101B1000809180008160809380008091B10084601A
:101B20008093B1008091B00081608093B00080917B
:101B300091008260809391008091910081608093F8
:101B40009100809190008160809390008091A1002D
:101B500082608093A1008091A10081608093A100A8
:101B60008091A00081608093A0008091210182601B
:101B700080932101809121018160809321018091D6
:101B8000200181608093200180917A00846080939D
:101B90007A0080917A00826080937A0080917A0046
:101BA000816080937A0080917A00806880937A00C7
:101BB0001092C100E0910104F091020482E0808360
:101BC000E091FD03F091FE031082E091FF03F0919C
:101BD00000048FEC808310920904E0910504F091D9
:101BE000060486E08083E0910304F0910404808180
:101BF00080618083E0910304F09104048081886017
:101C00008083E0910304F0910404808180688083E4
:101C1000E0910304F091040480818F7D808361E072
:101C20008091A5050E94AA0C60E08091A5050E9404
:101C30007B0C60E08091A4050E94AA0C8BEA92E0E4
:101C40009093AF058093AE0510929E0610929D066C
:101C5000109288021092AA021092860281E080936C
:101C600085021092600261E084E10E947B0C61E0D9
:101C700085E10E947B0C8091B9008E7F8093B90032
:101C80008091B9008D7F8093B90088E48093B8007B
:101C900085E48093BC0089EF99E09093A00680933F
:101CA0009F068AEF99E09093A2068093A10680E0B8
:101CB00090E1A0E0B0E08093B1059093B205A093CD
:101CC000B305B093B4058AE090E0A0E0B0E0809363
:101CD000B5059093B605A093B705B093B80580E01D
:101CE00090E0A0E0B0E48093B9059093BA05A0938A
:101CF000BB05B093BC0560E070E185E00E94DD08A3
:101D00006FE979E380E00E94DD08C4EAD5E08E0146
:101D100052E0752E68E8A62E62E0B62E7EEC872E85
:101D200072E0972EEBECEE2EE7E0FE2EF8019481A8
:101D30008281898F9A8F61E00E94AA0C61E08A8D6E
:101D40000E94AA0CF801908586816E01FDE1CF0EFC
:101D5000D11C8D8F9E8F61E00E94AA0C60E08E8D59
:101D60000E94AA0C61E08D8D0E947B0C6FB6F894E6
:101D700080915F02811126C0F5018491F4012491C4
:101D8000E82FF0E0EE0FFF1FE15EFD4FA591B4914B
:101D90009C91822F892321F461E085E30E947B0CD2
:101DA00061E085E30E94AA0C8CB580618CBD8CB586
:101DB00080648CBD61E084E30E94AA0C61E083E34F
:101DC0000E94AA0C80915F028F5F80935F026FBEBA
:101DD000C7010197F1F760E08D8D0E947B0C88E8C8
:101DE0000E940E0383E00E940E0361E08D8D0E942D
:101DF0007B0CC7010197F1F7C6010E94E1067A94B6
:101E00000F5F1F4F2296711091CF09EC15E0CDECBA
:101E1000D5E060E0F80181918F010E94AA0CC01703
:101E2000D107B9F705EC15E08FECE82E85E0F82E28
:101E300095E0D92E2CE0B22E32E0C32EA9908F81EE
:101E40008C3008F044C061E08A2D0E94AA0C8F817A
:101E5000D89EF0011124E05AFA4F9A2D9F732081E9
:101E6000207CA22EA92AA082138214826B2D0E94AC
:101E70003713FCE08F9FA001112420E030E0BA016D
:101E8000620F731FD69EF001D79EF00D1124E05A09
:101E9000FA4F908196FD12C02F5F3F4F2C303105D5
:101EA00071F781110BC010928000C09281001092D6
:101EB000850010928400C6BAC0926F00EF81DE9E4A
:101EC000F0011124E05AFA4F8081806480839D8163
:101ED0008B81F801828B938B60E00E94AA0C61E0F9
:101EE000F80183890E94AA0C60E0F80183890E94AE
:101EF0007B0C0E5F1F4FEC16FD0609F09FCFF89488
:101F00001092200189E08093210180E293E0909378
:101F1000290180932801109225011092240182E06A
:101F200080937300789480938E0410929204809131
:101F30008F0460E00E94AA0C8EE60E94140965E5F9
:101F40008CE40E9479070E940C078AE20E9414091F
:101F50000E940C078DE20E9414096CE582E50E9444
:101F600079070E940C0784E10E94140967E582E565
:101F70000E9479070E940C0785E20E9414096FE510
:101F80008CE40E9479070E940C078DE20E941409DC
:101F90000E940C0782E30E9414090E940C0782E34E
:101FA0000E9414090E940C0788E20E9414096FE540
:101FB00082E50E9479070E940C0784E10E941409BF
:101FC00068E58CE40E9479070E940C078EE60E9467
:101FD00014090E94D20668EE73E080E090E00E944F
:101FE000E60C0E94D2064AE959E969E97EE38DEBE5
:101FF00095E00E94B8054AE959E969E97EE38FEB6B
:1020000095E00E94B80581EC95E00E9414079B01C1
:10201000AC0188279927DC01821B930BA40BB50B1D
:1020200088399F4000F30E94D2060E940C070E944C
:102030000C0784E60E9414090E940C0784E60E94A3
:1020400014096AE070E080E090E00E94E60C0E94D3
:10205000E10272CF80919D0590919E050C94FD1434
:102060001092AE021092AD0288EE93E0A0E0B0E0D4
:102070008093AF029093B002A093B102B093B202EA
:1020800023E132E03093AC022093AB021092BA020B
:102090001092B9028093BB029093BC02A093BD0240
:1020A000B093BE0225E232E03093B8022093B7022B
:1020B00045E351E05093C4024093C30244E351E02E
:1020C0005093C6024093C50240E351E05093C802CA
:1020D0004093C70241E351E05093CA024093C902C2
:1020E00042E351E05093CC024093CB0246E351E0EF
:1020F0005093CE024093CD021092D0021092D102A2
:102100001092D2021092D3021092570310925603EB
:102110008093580390935903A0935A03B0935B03A1
:10212000309355032093540345ED50E050936103E1
:102130004093600344ED50E0509363034093620387
:1021400040ED50E0509365034093640341ED50E04F
:10215000509367034093660342ED50E05093690348
:102160004093680346ED50E050936B0340936A033D
:1021700010926D0310926E0310926F031092700311
:102180001092F4031092F3038093F5039093F603F7
:10219000A093F703B093F8033093F2032093F10375
:1021A00085EC90E09093FE038093FD0384EC90E037
:1021B000909300048093FF0380EC90E090930204DE
:1021C0008093010481EC90E09093040480930304D5
:1021D00082EC90E0909306048093050486EC90E0F6
:1021E000909308048093070410920A0410920B0441
:1021F00010920C0410920D04809107029091080235
:10220000A0910902B0910A028093C5059093C6057A
:10221000A093C705B093C80580910B0290910C0262
:10222000A0910D02B0910E028093C9059093CA054A
:10223000A093CB05B093CC0584E08093CD0587E0D7
:102240008093CE051092CF0584EB8093D00586E174
:102250008093D10588E18093D20587E18093D305EF
:1022600089E18093D405E0919C05EC3020F08FEF5C
:102270008093D50510C081E08E0F80939C05E0937C
:10228000D50585E0E89FF0011124E05AFA4F88EB6C
:102290009BE092838183E0919C05EC3020F08FEFEE
:1022A0008093D60510C081E08E0F80939C05E0934B
:1022B000D60585E0E89FF0011124E05AFA4F88EB3B
:1022C0009BE0928381838CE08093A40584E28093D9
:1022D000A50586E08093A60585E08093A7058FE19C
:1022E0008093A8058EE18093A90583E28093AA05D7
:1022F00082E28093AB0585E48093AC0584E480930F
:10230000AD0580E48093B0051092B5051092B60536
:102310001092B7051092B8051092B9051092BA053F
:102320001092BB051092BC05EFEDF5E02DE936E00B
:102330008FEF9FEFDC0112821382148215821682C6
:1023400017821086118683879487A587B68787872B
:10235000908BA18BB28B12861182108273962E17EE
:102360003F0749F78DE090E00E946514FC0113825D
:10237000128287E392E091838083118687E28483CF
:1023800084E1828784E083871486F093DC05E09300
:10239000DB051092DD051092DE0585E280938F0447
:1023A0001092910410929E0510929D051092A00526
:1023B00010929F051092A2051092A10561E070E0B5
:1023C00080E090E00E948615009789F090939E052A
:1023D00080939D051092A00510929F052091A10564
:1023E0003091A205232BC1F4FC01108215C080910D
:1023F0009D0590919E05009711F00E94FD1410928A
:102400009E0510929D051092A2051092A1051092B2
:10241000A00510929F0508951092A2051092A105A3
:102420006FE372E080919D0590919E050C94791662
:10243000E89409C097FB3EF490958095709561955E
:102440007F4F8F4F9F4F9923A9F0F92F96E9BB2714
:102450009395F695879577956795B795F111F8CF90
:10246000FAF4BB0F11F460FF1BC06F5F7F4F8F4FFB
:102470009F4F16C0882311F096E911C0772321F0F1
:102480009EE8872F762F05C0662371F096E8862F89
:1024900070E060E02AF09A95660F771F881FDAF7E0
:1024A000880F9695879597F90895990F0008550F0D
:1024B000AA0BE0E8FEEF16161706E807F907C0F0CA
:1024C00012161306E407F50798F0621B730B840BD2
:1024D000950B39F40A2661F0232B242B252B21F4AC
:1024E00008950A2609F4A140A6958FEF811D811D4C
:1024F00008950E948C120C94FD120E94EF1238F085
:102500000E94F61220F0952311F00C94E6120C9420
:10251000EC1211240C9431130E940E1370F3959F4A
:10252000C1F3950F50E0551F629FF001729FBB27CA
:10253000F00DB11D639FAA27F00DB11DAA1F649F66
:102540006627B00DA11D661F829F2227B00DA11D19
:10255000621F739FB00DA11D621F839FA00D611D9F
:10256000221F749F3327A00D611D231F849F600DC0
:10257000211D822F762F6A2F11249F5750409AF0E9
:10258000F1F088234AF0EE0FFF1FBB1F661F771F75
:10259000881F91505040A9F79E3F510580F00C9440
:1025A000E6120C9431135F3FE4F3983ED4F3869522
:1025B00077956795B795F795E7959F5FC1F7FE2BE0
:1025C000880F911D9695879597F9089597F99F67BC
:1025D00080E870E060E008959FEF80EC08950024AB
:1025E0000A941616170618060906089500240A9478
:1025F00012161306140605060895092E0394000CFE
:1026000011F4882352F0BB0F40F4BF2B11F460FF8C
:1026100004C06F5F7F4F8F4F9F4F089557FD9058B5
:10262000440F551F59F05F3F71F04795880F97FB96
:10263000991F61F09F3F79F0879508951216130650
:102640001406551FF2CF4695F1DF08C0161617067F
:102650001806991FF1CF86957105610508940895B4
:10266000E894BB2766277727CB0197F90895991B34
:1026700079E004C0991F961708F0961B881F7A9579
:10268000C9F780950895EE0FFF1F881F8BBF079035
:10269000F691E02D19945058BB27AA270E94631386
:1026A0000C94FD120E94EF1238F00E94F61220F0F6
:1026B00039F49F3F19F426F40C94EC120EF4E095D3
:1026C000E7FB0C94E612E92F0E940E1358F3BA1799
:1026D000620773078407950720F079F4A6F50C9438
:1026E00030130EF4E0950B2EBA2FA02D0B01B9017B
:1026F00090010C01CA01A0011124FF27591B99F078
:10270000593F50F4503E68F11A16F040A22F232F83
:10271000342F4427585FF3CF469537952795A795D3
:10272000F0405395C9F77EF41F16BA0B620B730B7A
:10273000840BBAF09150A1F0FF0FBB1F661F771FEB
:10274000881FC2F70EC0BA0F621F731F841F48F4A0
:10275000879577956795B795F7959E3F08F0B0CF29
:102760009395880F08F09927EE0F97958795089510
:102770000E94CC130C94FD120E94F61258F00E9495
:10278000EF1240F029F45F3F29F00C94E61251114A
:102790000C9431130C94EC120E940E1368F39923DD
:1027A000B1F3552391F3951B550BBB27AA2762174D
:1027B0007307840738F09F5F5F4F220F331F441F5A
:1027C000AA1FA9F335D00E2E3AF0E0E832D091508E
:1027D0005040E695001CCAF72BD0FE2F29D0660F7B
:1027E000771F881FBB1F261737074807AB07B0E8BE
:1027F00009F0BB0B802DBF01FF2793585F4F3AF0C4
:102800009E3F510578F00C94E6120C9431135F3F13
:10281000E4F3983ED4F3869577956795B795F79549
:102820009F5FC9F7880F911D9695879597F9089531
:10283000E1E0660F771F881FBB1F621773078407CD
:10284000BA0720F0621B730B840BBA0BEE1F88F7DC
:10285000E09508950E9431146894B1110C943113DD
:1028600008950E94161388F09F5798F0B92F992762
:10287000B751B0F0E1F0660F771F881F991F1AF06B
:10288000BA95C9F714C0B13091F00E943013B1E08D
:1028900008950C943013672F782F8827B85F39F08C
:1028A000B93FCCF3869577956795B395D9F73EF404
:1028B00090958095709561957F4F8F4F9F4F0895AC
:1028C0000E94551208F48FEF08950F931F93CF9332
:1028D000DF938230910510F482E090E0E0911307DD
:1028E000F091140720E030E0A0E0B0E0309719F15B
:1028F000408151810281138148175907C8F084171C
:10290000950769F4109731F012960C93129713966D
:102910001C9327C0009313071093140722C021159E
:10292000310519F04217530718F49A01BD01EF0160
:10293000DF01F801DBCF21153105F9F0281B390B38
:102940002430310580F48A819B816115710521F065
:10295000FB019383828304C0909314078093130731
:10296000FE01329644C0FE01E20FF31F8193919362
:1029700022503109398328833AC0209111073091C0
:102980001207232B41F4209103023091040230936B
:1029900012072093110720910102309102022115A4
:1029A000310541F42DB73EB7409105025091060222
:1029B000241B350BE0911107F0911207E217F30782
:1029C000A0F42E1B3F0B2817390778F0AC014E5F9F
:1029D0005F4F2417350748F04E0F5F1F50931207C3
:1029E000409311078193919302C0E0E0F0E0CF01A2
:1029F000DF91CF911F910F910895CF93DF930097AF
:102A000009F481C0FC01329713821282A09113074E
:102A1000B0911407109781F420813181820F931FA8
:102A200020911107309112072817390751F5F093BB
:102A30001207E093110767C0ED0120E030E0CE17E8
:102A4000DF0740F44A815B819E0141155105F1F099
:102A5000EA01F5CFD383C28340815181840F951F52
:102A6000C817D90759F488819981840F951F029658
:102A7000918380838A819B81938382832115310591
:102A800029F4F0931407E09313073DC0E901FB8399
:102A9000EA8349915991C40FD51FEC17FD0761F4E2
:102AA00080819181840F951F0296E9019983888323
:102AB000828193819B838A83E0E0F0E012968D917E
:102AC0009C911397009719F0FD01DC01F7CF8D91D0
:102AD0009C9111979D012E5F3F4F820F931F209174
:102AE0001107309112072817390769F4309729F434
:102AF000109214071092130702C013821282B0932F
:102B00001207A0931107DF91CF9108956F927F92E2
:102B10008F929F92AF92BF92CF92DF92EF92FF92ED
:102B20000F931F93CF93DF93009789F4CB01DF912D
:102B3000CF911F910F91FF90EF90DF90CF90BF90BA
:102B4000AF909F908F907F906F900C946514FC01D4
:102B5000E60FF71F9C0122503109E217F30708F432
:102B6000A9C0EC01D9010D911C9111970617170707
:102B7000B0F00530110508F49BC0C8010497861712
:102B8000970708F495C002501109061B170B019313
:102B900011936D937C93CF010E94FD1489C05B015A
:102BA000A01AB10A4C01800E911EA0911307B0919A
:102BB0001407612C712CE12CF12C109709F446C0FC
:102BC0008D919C911197A815B905B1F56C0142E062
:102BD000C40ED11CCA14DB0478F14C018A189B087E
:102BE000640142E0C40ED11C1296BC901297139659
:102BF000AC91B5E0CB16D10440F0B282A3839182B0
:102C00008082D9016D937C9309C00E5F1F4F800FA6
:102C1000911FF90191838083EB2DFA2FE114F104C8
:102C200031F0D7011396FC93EE93129741C0F093C5
:102C30001407E09313073CC06816790608F43C01BA
:102C40007D0112960D90BC91A02DB7CF80911107F8
:102C50009091120788169906E1F466167706C8F473
:102C60008091010290910202009741F48DB79EB7C6
:102C70004091050250910602841B950BE817F90755
:102C8000C8F4F0931207E0931107F9017183608390
:102C90000FC0CB010E9465147C01009759F0A80178
:102CA000BE010E947016CE010E94FD14C70104C02F
:102CB000CE0102C080E090E0DF91CF911F910F9193
:102CC000FF90EF90DF90CF90BF90AF909F908F904C
:102CD0007F906F90089581E090E0F8940C948016B6
:102CE000FB01DC0102C001900D9241505040D8F729
:102CF0000895FB01DC0101900D920020E1F7089599
:102D000011E0C4E9D1E000E006C0802FFE010E947E
:102D100043132196011DC539D10780E00807A9F7A3
:042D2000F894FFCF55
:102D2400FF000015072000363738391B1D1A1C0018
:102D3400000000540A270A1603FB091F0A0B0AFCA9
:102D440009000000006F02C801F201BC0223020165
:102D5400021502000000001B03C80116031503003E
:00000001FF
